{
  "contractName": "ExchangeHandshake",
  "abi": [
    {
      "constant": true,
      "inputs": [
        {
          "name": "",
          "type": "uint256"
        }
      ],
      "name": "ex",
      "outputs": [
        {
          "name": "coinOwner",
          "type": "address"
        },
        {
          "name": "cashOwner",
          "type": "address"
        },
        {
          "name": "fee",
          "type": "uint256"
        },
        {
          "name": "value",
          "type": "uint256"
        },
        {
          "name": "state",
          "type": "uint8"
        }
      ],
      "payable": false,
      "stateMutability": "view",
      "type": "function"
    },
    {
      "constant": true,
      "inputs": [
        {
          "name": "hid",
          "type": "uint256"
        }
      ],
      "name": "getState",
      "outputs": [
        {
          "name": "",
          "type": "uint8"
        }
      ],
      "payable": false,
      "stateMutability": "view",
      "type": "function"
    },
    {
      "constant": false,
      "inputs": [
        {
          "name": "hid",
          "type": "uint256"
        },
        {
          "name": "offchain",
          "type": "bytes32"
        }
      ],
      "name": "accept",
      "outputs": [],
      "payable": false,
      "stateMutability": "nonpayable",
      "type": "function"
    },
    {
      "constant": false,
      "inputs": [
        {
          "name": "f",
          "type": "uint256"
        }
      ],
      "name": "setFee",
      "outputs": [],
      "payable": false,
      "stateMutability": "nonpayable",
      "type": "function"
    },
    {
      "constant": false,
      "inputs": [
        {
          "name": "hid",
          "type": "uint256"
        },
        {
          "name": "offchain",
          "type": "bytes32"
        }
      ],
      "name": "shake",
      "outputs": [],
      "payable": false,
      "stateMutability": "nonpayable",
      "type": "function"
    },
    {
      "constant": false,
      "inputs": [
        {
          "name": "hid",
          "type": "uint256"
        },
        {
          "name": "offchain",
          "type": "bytes32"
        }
      ],
      "name": "cancel",
      "outputs": [],
      "payable": false,
      "stateMutability": "nonpayable",
      "type": "function"
    },
    {
      "constant": false,
      "inputs": [
        {
          "name": "offchain",
          "type": "bytes32"
        }
      ],
      "name": "initByCoinOwner",
      "outputs": [],
      "payable": true,
      "stateMutability": "payable",
      "type": "function"
    },
    {
      "inputs": [],
      "payable": false,
      "stateMutability": "nonpayable",
      "type": "constructor"
    },
    {
      "anonymous": false,
      "inputs": [
        {
          "indexed": false,
          "name": "fee",
          "type": "uint256"
        }
      ],
      "name": "__setFee",
      "type": "event"
    },
    {
      "anonymous": false,
      "inputs": [
        {
          "indexed": false,
          "name": "hid",
          "type": "uint256"
        },
        {
          "indexed": false,
          "name": "coinOwner",
          "type": "address"
        },
        {
          "indexed": false,
          "name": "offchain",
          "type": "bytes32"
        }
      ],
      "name": "__initByCoinOwner",
      "type": "event"
    },
    {
      "anonymous": false,
      "inputs": [
        {
          "indexed": false,
          "name": "hid",
          "type": "uint256"
        },
        {
          "indexed": false,
          "name": "offchain",
          "type": "bytes32"
        }
      ],
      "name": "__shake",
      "type": "event"
    },
    {
      "anonymous": false,
      "inputs": [
        {
          "indexed": false,
          "name": "hid",
          "type": "uint256"
        },
        {
          "indexed": false,
          "name": "offchain",
          "type": "bytes32"
        }
      ],
      "name": "__accept",
      "type": "event"
    },
    {
      "anonymous": false,
      "inputs": [
        {
          "indexed": false,
          "name": "hid",
          "type": "uint256"
        },
        {
          "indexed": false,
          "name": "offchain",
          "type": "bytes32"
        }
      ],
      "name": "__cancel",
      "type": "event"
    }
  ],
  "bytecode": "0x6080604052600060015534801561001557600080fd5b50336000806101000a81548173ffffffffffffffffffffffffffffffffffffffff021916908373ffffffffffffffffffffffffffffffffffffffff160217905550610d16806100656000396000f300608060405260043610610083576000357c0100000000000000000000000000000000000000000000000000000000900463ffffffff1680631089f2151461008857806344c9af281461014b5780635203dcda1461019257806369fe0e2d146101cd578063b09b2f85146101fa578063eafb64d514610235578063f84652a414610270575b600080fd5b34801561009457600080fd5b506100b360048036038101908080359060200190929190505050610294565b604051808673ffffffffffffffffffffffffffffffffffffffff1673ffffffffffffffffffffffffffffffffffffffff1681526020018573ffffffffffffffffffffffffffffffffffffffff1673ffffffffffffffffffffffffffffffffffffffff16815260200184815260200183815260200182600381111561013357fe5b60ff1681526020019550505050505060405180910390f35b34801561015757600080fd5b5061017660048036038101908080359060200190929190505050610326565b604051808260ff1660ff16815260200191505060405180910390f35b34801561019e57600080fd5b506101cb60048036038101908080359060200190929190803560001916906020019092919050505061036d565b005b3480156101d957600080fd5b506101f8600480360381019080803590602001909291905050506105d1565b005b34801561020657600080fd5b5061023360048036038101908080359060200190929190803560001916906020019092919050505061066f565b005b34801561024157600080fd5b5061026e600480360381019080803590602001909291908035600019169060200190929190505050610811565b005b6102926004803603810190808035600019169060200190929190505050610a77565b005b6002818154811015156102a357fe5b90600052602060002090600502016000915090508060000160009054906101000a900473ffffffffffffffffffffffffffffffffffffffff16908060010160009054906101000a900473ffffffffffffffffffffffffffffffffffffffff16908060020154908060030154908060040160009054906101000a900460ff16905085565b60008060028381548110151561033857fe5b906000526020600020906005020190508060040160009054906101000a900460ff16600381111561036557fe5b915050919050565b6000808360028181548110151561038057fe5b906000526020600020906005020160000160009054906101000a900473ffffffffffffffffffffffffffffffffffffffff1673ffffffffffffffffffffffffffffffffffffffff163373ffffffffffffffffffffffffffffffffffffffff161415156103eb57600080fd5b6001856002818154811015156103fd57fe5b906000526020600020906005020160040160009054906101000a900460ff16600381111561042757fe5b82600381111561043357fe5b14151561043f57600080fd5b60028781548110151561044e57fe5b9060005260206000209060050201945060028560040160006101000a81548160ff0219169083600381111561047f57fe5b02179055506103e8856002015486600301540281151561049b57fe5b0493506000809054906101000a900473ffffffffffffffffffffffffffffffffffffffff1673ffffffffffffffffffffffffffffffffffffffff166108fc859081150290604051600060405180830381858888f19350505050158015610505573d6000803e3d6000fd5b508460010160009054906101000a900473ffffffffffffffffffffffffffffffffffffffff1673ffffffffffffffffffffffffffffffffffffffff166108fc858760030154039081150290604051600060405180830381858888f19350505050158015610576573d6000803e3d6000fd5b50600085600301819055507fbda7bc7c8123a85aa855c777d3191b2dc42bec38c45638643006fb84e76abf7a87876040518083815260200182600019166000191681526020019250505060405180910390a150505050505050565b6000809054906101000a900473ffffffffffffffffffffffffffffffffffffffff1673ffffffffffffffffffffffffffffffffffffffff163373ffffffffffffffffffffffffffffffffffffffff1614151561062c57600080fd5b806001819055507f1941cda5868c57eb88923fbcebe63c45bf133819cf0720c99865546a2615f4a76001546040518082815260200191505060405180910390a150565b60008260028181548110151561068157fe5b906000526020600020906005020160040160009054906101000a900460ff1660038111156106ab57fe5b8260038111156106b757fe5b1415156106c357600080fd5b60006002858154811015156106d457fe5b906000526020600020906005020160010160009054906101000a900473ffffffffffffffffffffffffffffffffffffffff1673ffffffffffffffffffffffffffffffffffffffff161415610782573360028581548110151561073257fe5b906000526020600020906005020160010160006101000a81548173ffffffffffffffffffffffffffffffffffffffff021916908373ffffffffffffffffffffffffffffffffffffffff1602179055505b600160028581548110151561079357fe5b906000526020600020906005020160040160006101000a81548160ff021916908360038111156107bf57fe5b02179055507f6a5ee55c9df2daa4375d2b5e4ec8b9e5662f1863207bcbe6e38c6f5fe3c2430084846040518083815260200182600019166000191681526020019250505060405180910390a150505050565b60008260028181548110151561082357fe5b906000526020600020906005020160000160009054906101000a900473ffffffffffffffffffffffffffffffffffffffff1673ffffffffffffffffffffffffffffffffffffffff163373ffffffffffffffffffffffffffffffffffffffff1614806108f9575060028181548110151561089857fe5b906000526020600020906005020160010160009054906101000a900473ffffffffffffffffffffffffffffffffffffffff1673ffffffffffffffffffffffffffffffffffffffff163373ffffffffffffffffffffffffffffffffffffffff16145b151561090457600080fd5b60028481548110151561091357fe5b906000526020600020906005020191506001600381111561093057fe5b8260040160009054906101000a900460ff16600381111561094d57fe5b148061098057506000600381111561096157fe5b8260040160009054906101000a900460ff16600381111561097e57fe5b145b151561098b57600080fd5b60038260040160006101000a81548160ff021916908360038111156109ac57fe5b02179055508160000160009054906101000a900473ffffffffffffffffffffffffffffffffffffffff1673ffffffffffffffffffffffffffffffffffffffff166108fc83600301549081150290604051600060405180830381858888f19350505050158015610a1f573d6000803e3d6000fd5b50600082600301819055507fcb720f90f098c425fad2e9df556017c076f9bf7aefa096d1c904a06027ae046084846040518083815260200182600019166000191681526020019250505060405180910390a150505050565b610a7f610c83565b60003410151515610a8f57600080fd5b33816000019073ffffffffffffffffffffffffffffffffffffffff16908173ffffffffffffffffffffffffffffffffffffffff168152505034816060018181525050600154816040018181525050600081608001906003811115610aef57fe5b90816003811115610afc57fe5b815250506002819080600181540180825580915050906001820390600052602060002090600502016000909192909190915060008201518160000160006101000a81548173ffffffffffffffffffffffffffffffffffffffff021916908373ffffffffffffffffffffffffffffffffffffffff16021790555060208201518160010160006101000a81548173ffffffffffffffffffffffffffffffffffffffff021916908373ffffffffffffffffffffffffffffffffffffffff160217905550604082015181600201556060820151816003015560808201518160040160006101000a81548160ff02191690836003811115610bf457fe5b02179055505050507f2fd154f5b4d50fb27d0311b078ca858c2a8d52d40cad8d62881f416b0b7a469f6001600280549050033384604051808481526020018373ffffffffffffffffffffffffffffffffffffffff1673ffffffffffffffffffffffffffffffffffffffff1681526020018260001916600019168152602001935050505060405180910390a15050565b60a060405190810160405280600073ffffffffffffffffffffffffffffffffffffffff168152602001600073ffffffffffffffffffffffffffffffffffffffff168152602001600081526020016000815260200160006003811115610ce457fe5b815250905600a165627a7a72305820b079492ad7a9486ea8561e3de1b9ceef18e50c446ecdad35170ee8159871760f0029",
  "source": "pragma solidity ^0.4.24;\n\ncontract ExchangeHandshake {\n\n    address owner;\n\n     constructor() public {\n        owner = msg.sender;\n    }\n    uint fee = 0;\n\n    enum S { Inited, Shaked, Done, Cancelled }\n\n    struct Exchange {\n        address coinOwner;\n        address cashOwner;\n        uint fee; //percentage\n        uint value;\n        S state;\n    }\n\n    Exchange[] public ex;\n\n    event __setFee(uint fee);\n    event __initByCoinOwner(uint hid, address coinOwner, bytes32 offchain);\n    event __shake(uint hid, bytes32 offchain);\n    event __accept(uint hid, bytes32 offchain);\n    event __cancel(uint hid, bytes32 offchain);\n\n    //success if sender is coinOwner\n    modifier onlyCoinOwner(uint hid) {\n        require(msg.sender == ex[hid].coinOwner);\n        _;\n    }\n\n    //success if sender is cashOwner\n    modifier onlyCashOwner(uint hid) {\n        require(msg.sender == ex[hid].cashOwner);\n        _;\n    }\n\n    //success if sender is owner\n    modifier onlyOwner() {\n        require(msg.sender == owner);\n        _;\n    }\n\n    //success if sender is CashOwner or CoinOwner\n        modifier onlyCashOwnerOrCoinOwner(uint hid) {\n            require(msg.sender == ex[hid].coinOwner || msg.sender == ex[hid].cashOwner);\n            _;\n        }\n\n    modifier atState(S _s, uint hid) {\n        require(_s == ex[hid].state);\n        _;\n    }\n\n     /**\n        * @dev Initiate exchange fee by owner\n        * @param f exchange fee\n        */\n    function setFee(\n        uint f\n    )\n        public\n        onlyOwner()\n    {\n        fee = f;\n        emit __setFee(fee);\n    }\n\n\n    /**\n    * @dev Initiate handshake by CoinOwner\n    */\n    function initByCoinOwner(\n        bytes32 offchain\n    )\n        public\n        payable\n    {\n        require(msg.value >= 0);\n        Exchange memory p;\n        p.coinOwner = msg.sender;\n        p.value = msg.value;\n        p.fee = fee;\n        p.state = S.Inited;\n        ex.push(p);\n        emit __initByCoinOwner(ex.length - 1, msg.sender, offchain);\n    }\n\n    //shaker agree and make a handshake\n    function shake(uint hid, bytes32 offchain) public\n        atState(S.Inited, hid)\n    {\n\n        if (ex[hid].cashOwner == 0x0) ex[hid].cashOwner = msg.sender;\n        ex[hid].state = S.Shaked;\n        emit __shake(hid, offchain);\n\n    }\n\n    //CoinOwner accept transaction\n    function accept(uint hid, bytes32 offchain) public onlyCoinOwner(hid)\n        atState(S.Shaked, hid)\n    {\n        Exchange storage p = ex[hid];\n        p.state = S.Done;\n        uint f = (p.value * p.fee) / 1000;\n        owner.transfer(f);\n        p.cashOwner.transfer(p.value - f);\n        p.value = 0;\n        emit __accept(hid, offchain);\n    }\n\n\n    //coinOwner cancel the handshake\n    function cancel(uint hid, bytes32 offchain) public onlyCashOwnerOrCoinOwner(hid) {\n        Exchange storage p = ex[hid];\n        require(p.state == S.Shaked || p.state == S.Inited);\n        p.state = S.Cancelled;\n        p.coinOwner.transfer(p.value);\n        p.value = 0;\n        emit __cancel(hid, offchain);\n    }\n\n    //get handshake stage by hid\n     function getState(uint hid) public constant returns(uint8){\n        Exchange storage p = ex[hid];\n        return uint8(p.state);\n     }\n\n}\n",
  "sourcePath": "/Autonomous/handshake-protocol/contracts/ExchangeHandshake.sol",
  "compiler": {
    "name": "solc",
    "version": "0.4.24+commit.e67f0147.Emscripten.clang"
  },
  "schemaVersion": "1.0.1",
  "updatedAt": "2018-06-22T09:23:37.048Z"
}