{
  "contractName": "BasicHandshake",
  "abi": [
    {
      "constant": true,
      "inputs": [
        {
          "name": "",
          "type": "uint256"
        }
      ],
      "name": "handshakes",
      "outputs": [
        {
          "name": "initiator",
          "type": "address"
        },
        {
          "name": "acceptor",
          "type": "address"
        }
      ],
      "payable": false,
      "stateMutability": "view",
      "type": "function"
    },
    {
      "anonymous": false,
      "inputs": [
        {
          "indexed": false,
          "name": "hid",
          "type": "uint256"
        },
        {
          "indexed": false,
          "name": "offchain",
          "type": "bytes32"
        }
      ],
      "name": "__init",
      "type": "event"
    },
    {
      "anonymous": false,
      "inputs": [
        {
          "indexed": false,
          "name": "hid",
          "type": "uint256"
        },
        {
          "indexed": false,
          "name": "offchain",
          "type": "bytes32"
        }
      ],
      "name": "__shake",
      "type": "event"
    },
    {
      "constant": false,
      "inputs": [
        {
          "name": "acceptor",
          "type": "address"
        },
        {
          "name": "offchain",
          "type": "bytes32"
        }
      ],
      "name": "init",
      "outputs": [],
      "payable": false,
      "stateMutability": "nonpayable",
      "type": "function"
    },
    {
      "constant": false,
      "inputs": [
        {
          "name": "hid",
          "type": "uint256"
        },
        {
          "name": "offchain",
          "type": "bytes32"
        }
      ],
      "name": "shake",
      "outputs": [],
      "payable": false,
      "stateMutability": "nonpayable",
      "type": "function"
    }
  ],
  "bytecode": "0x608060405234801561001057600080fd5b50610501806100206000396000f300608060405260043610610057576000357c0100000000000000000000000000000000000000000000000000000000900463ffffffff1680632cc0b2541461005c5780639131ecee146100ad578063b09b2f851461014d575b600080fd5b34801561006857600080fd5b506100ab600480360381019080803573ffffffffffffffffffffffffffffffffffffffff1690602001909291908035600019169060200190929190505050610188565b005b3480156100b957600080fd5b506100d8600480360381019080803590602001909291905050506102da565b604051808373ffffffffffffffffffffffffffffffffffffffff1673ffffffffffffffffffffffffffffffffffffffff1681526020018273ffffffffffffffffffffffffffffffffffffffff1673ffffffffffffffffffffffffffffffffffffffff1681526020019250505060405180910390f35b34801561015957600080fd5b5061018660048036038101908080359060200190929190803560001916906020019092919050505061034d565b005b600060408051908101604052803373ffffffffffffffffffffffffffffffffffffffff1681526020018473ffffffffffffffffffffffffffffffffffffffff168152509080600181540180825580915050906001820390600052602060002090600202016000909192909190915060008201518160000160006101000a81548173ffffffffffffffffffffffffffffffffffffffff021916908373ffffffffffffffffffffffffffffffffffffffff16021790555060208201518160010160006101000a81548173ffffffffffffffffffffffffffffffffffffffff021916908373ffffffffffffffffffffffffffffffffffffffff1602179055505050507f21c02be65fa434a2e6b80a50c93b2654e65a53835f1b04697e4b5c09175beb13600160008054905003826040518083815260200182600019166000191681526020019250505060405180910390a15050565b6000818154811015156102e957fe5b90600052602060002090600202016000915090508060000160009054906101000a900473ffffffffffffffffffffffffffffffffffffffff16908060010160009054906101000a900473ffffffffffffffffffffffffffffffffffffffff16905082565b6000808381548110151561035d57fe5b906000526020600020906002020160010160009054906101000a900473ffffffffffffffffffffffffffffffffffffffff1673ffffffffffffffffffffffffffffffffffffffff16141561040f57336000838154811015156103bb57fe5b906000526020600020906002020160010160006101000a81548173ffffffffffffffffffffffffffffffffffffffff021916908373ffffffffffffffffffffffffffffffffffffffff16021790555061048a565b3373ffffffffffffffffffffffffffffffffffffffff1660008381548110151561043557fe5b906000526020600020906002020160010160009054906101000a900473ffffffffffffffffffffffffffffffffffffffff1673ffffffffffffffffffffffffffffffffffffffff1614151561048957600080fd5b5b7f6a5ee55c9df2daa4375d2b5e4ec8b9e5662f1863207bcbe6e38c6f5fe3c2430082826040518083815260200182600019166000191681526020019250505060405180910390a150505600a165627a7a72305820103d7e273952d97e84785d1998bf76a7807c6d0542313953e42a336b017c363e0029",
  "source": "pragma solidity ^0.4.18;\n\n/**\n * @title BasicHandshake\n * @author Autonomous\n * @dev BasicHandshake allows two entities making aggrement on anything they want\n */\ncontract BasicHandshake {\n\n    struct Handshake {\n        address initiator;\n        address acceptor;\n    }\n\n    Handshake[] public handshakes;\n\n    event __init(uint hid, bytes32 offchain);\n    event __shake(uint hid, bytes32 offchain);\n\n    /**\n    * Initiate a handshake between 2 entities\n    * @param acceptor address of the one to receive handshake;\n    *   might be 0 if acceptor is not known before creating handshake\n    * @param offchain record ID in offchain backend database\n    */\n    function init(address acceptor, bytes32 offchain) public {\n        handshakes.push(Handshake(msg.sender, acceptor));\n        __init(handshakes.length - 1, offchain);\n    }\n\n    /**\n    * Accept the handshake\n    * @param hid Id of the handshake to accept\n    * @param offchain record ID in offchain backend database\n    */\n    function shake(uint hid, bytes32 offchain) public {\n        // Set acceptor if it was not defined in init stage\n        if (handshakes[hid].acceptor == 0) {\n            handshakes[hid].acceptor = msg.sender;\n        } else {\n            require(handshakes[hid].acceptor == msg.sender);\n        }\n        __shake(hid, offchain);\n    }\n}\n",
  "sourcePath": "/Users/Phuong_Mac/Dropbox/autonomous/handshake/contracts/core/BasicHandshake.sol",
  "compiler": {
    "name": "solc",
    "version": "0.4.23+commit.124ca40d.Emscripten.clang"
  },
  "schemaVersion": "2.0.0",
  "updatedAt": "2018-05-17T04:37:30.562Z"
}