{
  "contractName": "BettingHandshake",
  "abi": [
    {
      "constant": true,
      "inputs": [
        {
          "name": "",
          "type": "uint256"
        }
      ],
      "name": "bets",
      "outputs": [
        {
          "name": "initiator",
          "type": "address"
        },
        {
          "name": "escrow",
          "type": "uint256"
        },
        {
          "name": "balance",
          "type": "uint256"
        },
        {
          "name": "goal",
          "type": "uint256"
        },
        {
          "name": "deadline",
          "type": "uint256"
        },
        {
          "name": "state",
          "type": "uint8"
        },
        {
          "name": "result",
          "type": "uint8"
        }
      ],
      "payable": false,
      "stateMutability": "view",
      "type": "function"
    },
    {
      "constant": true,
      "inputs": [],
      "name": "referee",
      "outputs": [
        {
          "name": "",
          "type": "address"
        }
      ],
      "payable": false,
      "stateMutability": "view",
      "type": "function"
    },
    {
      "constant": true,
      "inputs": [],
      "name": "reviewWindow",
      "outputs": [
        {
          "name": "",
          "type": "uint256"
        }
      ],
      "payable": false,
      "stateMutability": "view",
      "type": "function"
    },
    {
      "constant": true,
      "inputs": [],
      "name": "rejectWindow",
      "outputs": [
        {
          "name": "",
          "type": "uint256"
        }
      ],
      "payable": false,
      "stateMutability": "view",
      "type": "function"
    },
    {
      "inputs": [],
      "payable": false,
      "stateMutability": "nonpayable",
      "type": "constructor"
    },
    {
      "anonymous": false,
      "inputs": [
        {
          "indexed": false,
          "name": "hid",
          "type": "uint256"
        },
        {
          "indexed": false,
          "name": "state",
          "type": "uint8"
        },
        {
          "indexed": false,
          "name": "balance",
          "type": "uint256"
        },
        {
          "indexed": false,
          "name": "escrow",
          "type": "uint256"
        },
        {
          "indexed": false,
          "name": "offchain",
          "type": "bytes32"
        }
      ],
      "name": "__init",
      "type": "event"
    },
    {
      "anonymous": false,
      "inputs": [
        {
          "indexed": false,
          "name": "hid",
          "type": "uint256"
        },
        {
          "indexed": false,
          "name": "state",
          "type": "uint8"
        },
        {
          "indexed": false,
          "name": "balance",
          "type": "uint256"
        },
        {
          "indexed": false,
          "name": "escrow",
          "type": "uint256"
        },
        {
          "indexed": false,
          "name": "offchain",
          "type": "bytes32"
        }
      ],
      "name": "__shake",
      "type": "event"
    },
    {
      "anonymous": false,
      "inputs": [
        {
          "indexed": false,
          "name": "hid",
          "type": "uint256"
        },
        {
          "indexed": false,
          "name": "state",
          "type": "uint8"
        },
        {
          "indexed": false,
          "name": "balance",
          "type": "uint256"
        },
        {
          "indexed": false,
          "name": "escrow",
          "type": "uint256"
        },
        {
          "indexed": false,
          "name": "offchain",
          "type": "bytes32"
        }
      ],
      "name": "__cancelBet",
      "type": "event"
    },
    {
      "anonymous": false,
      "inputs": [
        {
          "indexed": false,
          "name": "hid",
          "type": "uint256"
        },
        {
          "indexed": false,
          "name": "state",
          "type": "uint8"
        },
        {
          "indexed": false,
          "name": "balance",
          "type": "uint256"
        },
        {
          "indexed": false,
          "name": "escrow",
          "type": "uint256"
        },
        {
          "indexed": false,
          "name": "offchain",
          "type": "bytes32"
        }
      ],
      "name": "__closeBet",
      "type": "event"
    },
    {
      "anonymous": false,
      "inputs": [
        {
          "indexed": false,
          "name": "hid",
          "type": "uint256"
        },
        {
          "indexed": false,
          "name": "state",
          "type": "uint8"
        },
        {
          "indexed": false,
          "name": "balance",
          "type": "uint256"
        },
        {
          "indexed": false,
          "name": "escrow",
          "type": "uint256"
        },
        {
          "indexed": false,
          "name": "offchain",
          "type": "bytes32"
        }
      ],
      "name": "__initiatorWon",
      "type": "event"
    },
    {
      "anonymous": false,
      "inputs": [
        {
          "indexed": false,
          "name": "hid",
          "type": "uint256"
        },
        {
          "indexed": false,
          "name": "state",
          "type": "uint8"
        },
        {
          "indexed": false,
          "name": "balance",
          "type": "uint256"
        },
        {
          "indexed": false,
          "name": "escrow",
          "type": "uint256"
        },
        {
          "indexed": false,
          "name": "offchain",
          "type": "bytes32"
        }
      ],
      "name": "__betorWon",
      "type": "event"
    },
    {
      "anonymous": false,
      "inputs": [
        {
          "indexed": false,
          "name": "hid",
          "type": "uint256"
        },
        {
          "indexed": false,
          "name": "state",
          "type": "uint8"
        },
        {
          "indexed": false,
          "name": "balance",
          "type": "uint256"
        },
        {
          "indexed": false,
          "name": "escrow",
          "type": "uint256"
        },
        {
          "indexed": false,
          "name": "offchain",
          "type": "bytes32"
        }
      ],
      "name": "__draw",
      "type": "event"
    },
    {
      "anonymous": false,
      "inputs": [
        {
          "indexed": false,
          "name": "hid",
          "type": "uint256"
        },
        {
          "indexed": false,
          "name": "state",
          "type": "uint8"
        },
        {
          "indexed": false,
          "name": "balance",
          "type": "uint256"
        },
        {
          "indexed": false,
          "name": "escrow",
          "type": "uint256"
        },
        {
          "indexed": false,
          "name": "offchain",
          "type": "bytes32"
        }
      ],
      "name": "__withdraw",
      "type": "event"
    },
    {
      "anonymous": false,
      "inputs": [
        {
          "indexed": false,
          "name": "hid",
          "type": "uint256"
        },
        {
          "indexed": false,
          "name": "state",
          "type": "uint8"
        },
        {
          "indexed": false,
          "name": "balance",
          "type": "uint256"
        },
        {
          "indexed": false,
          "name": "escrow",
          "type": "uint256"
        },
        {
          "indexed": false,
          "name": "offchain",
          "type": "bytes32"
        }
      ],
      "name": "__reject",
      "type": "event"
    },
    {
      "anonymous": false,
      "inputs": [
        {
          "indexed": false,
          "name": "hid",
          "type": "uint256"
        },
        {
          "indexed": false,
          "name": "state",
          "type": "uint8"
        },
        {
          "indexed": false,
          "name": "balance",
          "type": "uint256"
        },
        {
          "indexed": false,
          "name": "escrow",
          "type": "uint256"
        },
        {
          "indexed": false,
          "name": "offchain",
          "type": "bytes32"
        }
      ],
      "name": "__setWinner",
      "type": "event"
    },
    {
      "constant": false,
      "inputs": [
        {
          "name": "acceptors",
          "type": "address[]"
        },
        {
          "name": "goal",
          "type": "uint256"
        },
        {
          "name": "escrow",
          "type": "uint256"
        },
        {
          "name": "deadline",
          "type": "uint256"
        },
        {
          "name": "offchain",
          "type": "bytes32"
        }
      ],
      "name": "initBet",
      "outputs": [],
      "payable": true,
      "stateMutability": "payable",
      "type": "function"
    },
    {
      "constant": false,
      "inputs": [
        {
          "name": "hid",
          "type": "uint256"
        },
        {
          "name": "offchain",
          "type": "bytes32"
        }
      ],
      "name": "shake",
      "outputs": [],
      "payable": true,
      "stateMutability": "payable",
      "type": "function"
    },
    {
      "constant": false,
      "inputs": [
        {
          "name": "hid",
          "type": "uint256"
        },
        {
          "name": "offchain",
          "type": "bytes32"
        }
      ],
      "name": "cancelBet",
      "outputs": [],
      "payable": false,
      "stateMutability": "nonpayable",
      "type": "function"
    },
    {
      "constant": false,
      "inputs": [
        {
          "name": "hid",
          "type": "uint256"
        },
        {
          "name": "offchain",
          "type": "bytes32"
        }
      ],
      "name": "closeBet",
      "outputs": [],
      "payable": false,
      "stateMutability": "nonpayable",
      "type": "function"
    },
    {
      "constant": false,
      "inputs": [
        {
          "name": "hid",
          "type": "uint256"
        },
        {
          "name": "offchain",
          "type": "bytes32"
        }
      ],
      "name": "initiatorWon",
      "outputs": [],
      "payable": false,
      "stateMutability": "nonpayable",
      "type": "function"
    },
    {
      "constant": false,
      "inputs": [
        {
          "name": "hid",
          "type": "uint256"
        },
        {
          "name": "offchain",
          "type": "bytes32"
        }
      ],
      "name": "betorWon",
      "outputs": [],
      "payable": false,
      "stateMutability": "nonpayable",
      "type": "function"
    },
    {
      "constant": false,
      "inputs": [
        {
          "name": "hid",
          "type": "uint256"
        },
        {
          "name": "offchain",
          "type": "bytes32"
        }
      ],
      "name": "draw",
      "outputs": [],
      "payable": false,
      "stateMutability": "nonpayable",
      "type": "function"
    },
    {
      "constant": false,
      "inputs": [
        {
          "name": "hid",
          "type": "uint256"
        },
        {
          "name": "offchain",
          "type": "bytes32"
        }
      ],
      "name": "withdraw",
      "outputs": [],
      "payable": false,
      "stateMutability": "nonpayable",
      "type": "function"
    },
    {
      "constant": false,
      "inputs": [
        {
          "name": "hid",
          "type": "uint256"
        },
        {
          "name": "offchain",
          "type": "bytes32"
        }
      ],
      "name": "reject",
      "outputs": [],
      "payable": false,
      "stateMutability": "nonpayable",
      "type": "function"
    },
    {
      "constant": false,
      "inputs": [
        {
          "name": "hid",
          "type": "uint256"
        },
        {
          "name": "result",
          "type": "uint8"
        },
        {
          "name": "offchain",
          "type": "bytes32"
        }
      ],
      "name": "setWinner",
      "outputs": [],
      "payable": false,
      "stateMutability": "nonpayable",
      "type": "function"
    },
    {
      "constant": true,
      "inputs": [
        {
          "name": "hid",
          "type": "uint256"
        }
      ],
      "name": "getWinValue",
      "outputs": [
        {
          "name": "",
          "type": "uint256"
        }
      ],
      "payable": false,
      "stateMutability": "view",
      "type": "function"
    }
  ],
  "bytecode": "0x60606040526203f48060025562015180600355341561001d57600080fd5b33600160006101000a81548173ffffffffffffffffffffffffffffffffffffffff021916908373ffffffffffffffffffffffffffffffffffffffff1602179055506126888061006d6000396000f3006060604052600436106100db576000357c0100000000000000000000000000000000000000000000000000000000900463ffffffff1680631d43334d146100e057806322af00fa1461011057806329e93878146101b15780633b1bebd1146101e15780634642d7b9146102365780636be1320b14610266578063755f78d91461029657806381243eb6146102c6578063878716be1461033d5780639ca4218f14610379578063a07a07c4146103a2578063a5ca03b2146103cb578063a8d2021a14610402578063b09b2f8514610432578063faf3239014610457575b600080fd5b34156100eb57600080fd5b61010e600480803590602001909190803560001916906020019091905050610487565b005b341561011b57600080fd5b6101316004808035906020019091905050610736565b604051808873ffffffffffffffffffffffffffffffffffffffff1673ffffffffffffffffffffffffffffffffffffffff16815260200187815260200186815260200185815260200184815260200183600981111561018b57fe5b60ff1681526020018260ff1660ff16815260200197505050505050505060405180910390f35b34156101bc57600080fd5b6101df6004808035906020019091908035600019169060200190919050506107c1565b005b34156101ec57600080fd5b6101f46109c1565b604051808273ffffffffffffffffffffffffffffffffffffffff1673ffffffffffffffffffffffffffffffffffffffff16815260200191505060405180910390f35b341561024157600080fd5b6102646004808035906020019091908035600019169060200190919050506109e7565b005b341561027157600080fd5b610294600480803590602001909190803560001916906020019091905050610be9565b005b34156102a157600080fd5b6102c4600480803590602001909190803560001916906020019091905050610e3b565b005b61033b6004808035906020019082018035906020019080806020026020016040519081016040528093929190818152602001838360200280828437820191505050505050919080359060200190919080359060200190919080359060200190919080356000191690602001909190505061103b565b005b341561034857600080fd5b610377600480803590602001909190803560ff1690602001909190803560001916906020019091905050611280565b005b341561038457600080fd5b61038c611457565b6040518082815260200191505060405180910390f35b34156103ad57600080fd5b6103b561145d565b6040518082815260200191505060405180910390f35b34156103d657600080fd5b6103ec6004808035906020019091905050611463565b6040518082815260200191505060405180910390f35b341561040d57600080fd5b610430600480803590602001909190803560001916906020019091905050611537565b005b610455600480803590602001909190803560001916906020019091905050611dcf565b005b341561046257600080fd5b6104856004808035906020019091908035600019169060200190919050506120e6565b005b6000808360008181548110151561049a57fe5b906000526020600020906009020160000160009054906101000a900473ffffffffffffffffffffffffffffffffffffffff1673ffffffffffffffffffffffffffffffffffffffff163373ffffffffffffffffffffffffffffffffffffffff1614151561050557600080fd5b60008581548110151561051457fe5b906000526020600020906009020192508260030154836002015410151561053a57600080fd5b6000836007018054905014801561057857506000600981111561055957fe5b8360050160009054906101000a900460ff16600981111561057657fe5b145b156105f6573373ffffffffffffffffffffffffffffffffffffffff166108fc84600101549081150290604051600060405180830381858888f1935050505015156105c157600080fd5b6000836001018190555060028360050160006101000a81548160ff021916908360098111156105ec57fe5b02179055506106a9565b6001600981111561060357fe5b8360050160009054906101000a900460ff16600981111561062057fe5b14156106a8578260030154836001015484600201540281151561063f57fe5b048360010154039150818360010160008282540392505081905550826002015483600301819055503373ffffffffffffffffffffffffffffffffffffffff166108fc839081150290604051600060405180830381858888f1935050505015156106a757600080fd5b5b5b7f9168645179ebefa95b30c1a7fd4a842e6433caf7911467b3a7a868e31276c50b858460050160009054906101000a900460ff168560020154866001015488604051808681526020018560098111156106fe57fe5b60ff16815260200184815260200183815260200182600019166000191681526020019550505050505060405180910390a15050505050565b60008181548110151561074557fe5b90600052602060002090600902016000915090508060000160009054906101000a900473ffffffffffffffffffffffffffffffffffffffff16908060010154908060020154908060030154908060040154908060050160009054906101000a900460ff16908060050160019054906101000a900460ff16905087565b600082600080828154811015156107d457fe5b906000526020600020906009020160060160003373ffffffffffffffffffffffffffffffffffffffff1673ffffffffffffffffffffffffffffffffffffffff16815260200190815260200160002060000154118061089d575060008181548110151561083c57fe5b906000526020600020906009020160000160009054906101000a900473ffffffffffffffffffffffffffffffffffffffff1673ffffffffffffffffffffffffffffffffffffffff163373ffffffffffffffffffffffffffffffffffffffff16145b15156108a857600080fd5b6000848154811015156108b757fe5b90600052602060002090600902019150600160098111156108d457fe5b8260050160009054906101000a900460ff1660098111156108f157fe5b1480156109045750600182600401540242115b151561090f57600080fd5b60068260050160006101000a81548160ff0219169083600981111561093057fe5b02179055507f3d52d48685d5511fd2b49f42bda4929e6c8c8c7e18ff270437f5bb441450f46b848360050160009054906101000a900460ff1684600201548560010154876040518086815260200185600981111561098a57fe5b60ff16815260200184815260200183815260200182600019166000191681526020019550505050505060405180910390a150505050565b600160009054906101000a900473ffffffffffffffffffffffffffffffffffffffff1681565b600082600080828154811015156109fa57fe5b906000526020600020906009020160060160003373ffffffffffffffffffffffffffffffffffffffff1673ffffffffffffffffffffffffffffffffffffffff168152602001908152602001600020600001541180610ac35750600081815481101515610a6257fe5b906000526020600020906009020160000160009054906101000a900473ffffffffffffffffffffffffffffffffffffffff1673ffffffffffffffffffffffffffffffffffffffff163373ffffffffffffffffffffffffffffffffffffffff16145b1515610ace57600080fd5b600084815481101515610add57fe5b906000526020600020906009020191506002548260040154014210158015610b2c575060016009811115610b0d57fe5b8260050160009054906101000a900460ff166009811115610b2a57fe5b145b1515610b3757600080fd5b60038260050160006101000a81548160ff02191690836009811115610b5857fe5b02179055507f72564998f7d47a21dcc7b8805e90213b4037c9a51f72a362c8df036d14e54e06848360050160009054906101000a900460ff16846002015485600101548760405180868152602001856009811115610bb257fe5b60ff16815260200184815260200183815260200182600019166000191681526020019550505050505060405180910390a150505050565b60008260008082815481101515610bfc57fe5b906000526020600020906009020160060160003373ffffffffffffffffffffffffffffffffffffffff1673ffffffffffffffffffffffffffffffffffffffff168152602001908152602001600020600001541180610cc55750600081815481101515610c6457fe5b906000526020600020906009020160000160009054906101000a900473ffffffffffffffffffffffffffffffffffffffff1673ffffffffffffffffffffffffffffffffffffffff163373ffffffffffffffffffffffffffffffffffffffff16145b1515610cd057600080fd5b600084815481101515610cdf57fe5b9060005260206000209060090201915060046009811115610cfc57fe5b8260050160009054906101000a900460ff166009811115610d1957fe5b1480610d4c575060066009811115610d2d57fe5b8260050160009054906101000a900460ff166009811115610d4a57fe5b145b80610d7e575060056009811115610d5f57fe5b8260050160009054906101000a900460ff166009811115610d7c57fe5b145b1515610d8957600080fd5b60088260050160006101000a81548160ff02191690836009811115610daa57fe5b02179055507f38633837e18700599e1454a0eedee49acd45f20cc22e935cc900dcc4e116a881848360050160009054906101000a900460ff16846002015485600101548760405180868152602001856009811115610e0457fe5b60ff16815260200184815260200183815260200182600019166000191681526020019550505050505060405180910390a150505050565b60008260008082815481101515610e4e57fe5b906000526020600020906009020160060160003373ffffffffffffffffffffffffffffffffffffffff1673ffffffffffffffffffffffffffffffffffffffff168152602001908152602001600020600001541180610f175750600081815481101515610eb657fe5b906000526020600020906009020160000160009054906101000a900473ffffffffffffffffffffffffffffffffffffffff1673ffffffffffffffffffffffffffffffffffffffff163373ffffffffffffffffffffffffffffffffffffffff16145b1515610f2257600080fd5b600084815481101515610f3157fe5b9060005260206000209060090201915060016009811115610f4e57fe5b8260050160009054906101000a900460ff166009811115610f6b57fe5b148015610f7e5750600182600401540242115b1515610f8957600080fd5b60058260050160006101000a81548160ff02191690836009811115610faa57fe5b02179055507fcfa63e49674c15073f89588b52a2ce124aea9fc5a0b3ce2d3757c5f262812a95848360050160009054906101000a900460ff1684600201548560010154876040518086815260200185600981111561100457fe5b60ff16815260200184815260200183815260200182600019166000191681526020019550505050505060405180910390a150505050565b6110436123ac565b833414151561105157600080fd5b33816000019073ffffffffffffffffffffffffffffffffffffffff16908173ffffffffffffffffffffffffffffffffffffffff1681525050848160600181815250508381602001818152505060018302420181608001818152505060008160a0019060098111156110be57fe5b908160098111156110cb57fe5b8152505085816101000181905250600080548060010182816110ed9190612429565b9160005260206000209060090201600083909190915060008201518160000160006101000a81548173ffffffffffffffffffffffffffffffffffffffff021916908373ffffffffffffffffffffffffffffffffffffffff1602179055506020820151816001015560408201518160020155606082015181600301556080820151816004015560a08201518160050160006101000a81548160ff0219169083600981111561119657fe5b021790555060c08201518160050160016101000a81548160ff021916908360ff16021790555060e08201518160070190805190602001906111d892919061245b565b506101008201518160080190805190602001906111f692919061245b565b505050507f95ec871c362f3f13b1cf5b875249ba88099e29d15a72677ac2c9b38084dba040600160008054905003600083604001518460200151866040518086815260200185600981111561124757fe5b60ff16815260200184815260200183815260200182600019166000191681526020019550505050505060405180910390a1505050505050565b6000600160009054906101000a900473ffffffffffffffffffffffffffffffffffffffff1673ffffffffffffffffffffffffffffffffffffffff163373ffffffffffffffffffffffffffffffffffffffff161415156112de57600080fd5b6000848154811015156112ed57fe5b906000526020600020906009020190506008600981111561130a57fe5b8160050160009054906101000a900460ff16600981111561132757fe5b14801561137d57506004600981111561133c57fe5b60ff168360ff16148061136057506006600981111561135757fe5b60ff168360ff16145b8061137c57506005600981111561137357fe5b60ff168360ff16145b5b151561138857600080fd5b60078160050160006101000a81548160ff021916908360098111156113a957fe5b0217905550828160050160016101000a81548160ff021916908360ff1602179055507ffed65e414d0493e522bdc10426e13c0c64dbc285d209257f034ee6657e8eaa2c848260050160009054906101000a900460ff1683600201548460010154866040518086815260200185600981111561142057fe5b60ff16815260200184815260200183815260200182600019166000191681526020019550505050505060405180910390a150505050565b60025481565b60035481565b60008060008381548110151561147557fe5b906000526020600020906009020190508060000160009054906101000a900473ffffffffffffffffffffffffffffffffffffffff1673ffffffffffffffffffffffffffffffffffffffff163373ffffffffffffffffffffffffffffffffffffffff1614156114e95780600201549150611531565b8060060160003373ffffffffffffffffffffffffffffffffffffffff1673ffffffffffffffffffffffffffffffffffffffff1681526020019081526020016000206001015491505b50919050565b6000806000846000808281548110151561154d57fe5b906000526020600020906009020160060160003373ffffffffffffffffffffffffffffffffffffffff1673ffffffffffffffffffffffffffffffffffffffff16815260200190815260200160002060000154118061161657506000818154811015156115b557fe5b906000526020600020906009020160000160009054906101000a900473ffffffffffffffffffffffffffffffffffffffff1673ffffffffffffffffffffffffffffffffffffffff163373ffffffffffffffffffffffffffffffffffffffff16145b151561162157600080fd5b60008681548110151561163057fe5b906000526020600020906009020193506007600981111561164d57fe5b8460050160009054906101000a900460ff16600981111561166a57fe5b1415156117db576003600981111561167e57fe5b8460050160009054906101000a900460ff16600981111561169b57fe5b14156116cf57600660098111156116ae57fe5b8460050160016101000a81548160ff021916908360ff1602179055506117b4565b600354846004015401421115156116e557600080fd5b600460098111156116f257fe5b8460050160009054906101000a900460ff16600981111561170f57fe5b148061174257506005600981111561172357fe5b8460050160009054906101000a900460ff16600981111561174057fe5b145b8061177457506006600981111561175557fe5b8460050160009054906101000a900460ff16600981111561177257fe5b145b156117b3578360050160009054906101000a900460ff16600981111561179657fe5b8460050160016101000a81548160ff021916908360ff1602179055505b5b60078460050160006101000a81548160ff021916908360098111156117d557fe5b02179055505b600760098111156117e857fe5b8460050160009054906101000a900460ff16600981111561180557fe5b14151561181157600080fd5b6004600981111561181e57fe5b60ff168460050160019054906101000a900460ff1660ff16141561198a578360000160009054906101000a900473ffffffffffffffffffffffffffffffffffffffff1673ffffffffffffffffffffffffffffffffffffffff163373ffffffffffffffffffffffffffffffffffffffff1614151561189a57600080fd5b3373ffffffffffffffffffffffffffffffffffffffff168460000160009054906101000a900473ffffffffffffffffffffffffffffffffffffffff1673ffffffffffffffffffffffffffffffffffffffff161480156118fd575060008460010154115b15611985578360000160009054906101000a900473ffffffffffffffffffffffffffffffffffffffff1673ffffffffffffffffffffffffffffffffffffffff166108fc85600201548660010154019081150290604051600060405180830381858888f19350505050151561197057600080fd5b60008460010181905550600084600201819055505b611cfd565b6005600981111561199757fe5b60ff168460050160019054906101000a900460ff1660ff161415611ae25760008460060160003373ffffffffffffffffffffffffffffffffffffffff1673ffffffffffffffffffffffffffffffffffffffff16815260200190815260200160002060000154111515611a0857600080fd5b600084600201541115611add578360060160003373ffffffffffffffffffffffffffffffffffffffff1673ffffffffffffffffffffffffffffffffffffffff168152602001908152602001600020925082600101548460010160008282540392505081905550826000015484600201600082825403925050819055503373ffffffffffffffffffffffffffffffffffffffff166108fc84600101549081150290604051600060405180830381858888f193505050501515611ac857600080fd5b60008360000181905550600083600101819055505b611cfc565b60066009811115611aef57fe5b60ff168460050160019054906101000a900460ff1660ff161415611cfb573373ffffffffffffffffffffffffffffffffffffffff168460000160009054906101000a900473ffffffffffffffffffffffffffffffffffffffff1673ffffffffffffffffffffffffffffffffffffffff16148015611b70575060008460010154115b15611bec578360000160009054906101000a900473ffffffffffffffffffffffffffffffffffffffff1673ffffffffffffffffffffffffffffffffffffffff166108fc85600101549081150290604051600060405180830381858888f193505050501515611bdd57600080fd5b60008460010181905550611cfa565b60008460060160003373ffffffffffffffffffffffffffffffffffffffff1673ffffffffffffffffffffffffffffffffffffffff168152602001908152602001600020600001541115611cf957600084600201541115611cf8578360060160003373ffffffffffffffffffffffffffffffffffffffff1673ffffffffffffffffffffffffffffffffffffffff1681526020019081526020016000209150816000015484600201600082825403925050819055503373ffffffffffffffffffffffffffffffffffffffff166108fc83600001549081150290604051600060405180830381858888f193505050501515611ce357600080fd5b60008260000181905550600082600101819055505b5b5b5b5b5b60008460020154148015611d15575060008460010154145b15611d415760098460050160006101000a81548160ff02191690836009811115611d3b57fe5b02179055505b7f96c5c49736e4d387aa742d0357695d08b1c8a025d8da70c2751e81ce21b6f2ba868560050160009054906101000a900460ff16866002015487600101548960405180868152602001856009811115611d9657fe5b60ff16815260200184815260200183815260200182600019166000191681526020019550505050505060405180910390a1505050505050565b60008083815481101515611ddf57fe5b9060005260206000209060090201905060006009811115611dfc57fe5b8160050160009054906101000a900460ff166009811115611e1957fe5b1480611e4c575060016009811115611e2d57fe5b8160050160009054906101000a900460ff166009811115611e4a57fe5b145b8015611e585750600034115b8015611e675750806004015442105b1515611e7257600080fd5b60008160080180549050141515611ea05760011515611e9184336122e6565b1515141515611e9f57600080fd5b5b60008160060160003373ffffffffffffffffffffffffffffffffffffffff1673ffffffffffffffffffffffffffffffffffffffff168152602001908152602001600020600001541415611f5357806007018054806001018281611f0391906124e5565b9160005260206000209001600033909190916101000a81548173ffffffffffffffffffffffffffffffffffffffff021916908373ffffffffffffffffffffffffffffffffffffffff160217905550505b348160060160003373ffffffffffffffffffffffffffffffffffffffff1673ffffffffffffffffffffffffffffffffffffffff16815260200190815260200160002060000160008282540192505081905550806003015481600101543402811515611fba57fe5b048160060160003373ffffffffffffffffffffffffffffffffffffffff1673ffffffffffffffffffffffffffffffffffffffff16815260200190815260200160002060010160008282540192505081905550348160020160008282540192505081905550806003015481600201541115151561203557600080fd5b60018160050160006101000a81548160ff0219169083600981111561205657fe5b02179055507ff23535b611e241241be37f692048361bedbc808b0927fc26e4744e36e006f6f5838260050160009054906101000a900460ff168360020154846001015486604051808681526020018560098111156120b057fe5b60ff16815260200184815260200183815260200182600019166000191681526020019550505050505060405180910390a1505050565b600082600080828154811015156120f957fe5b906000526020600020906009020160060160003373ffffffffffffffffffffffffffffffffffffffff1673ffffffffffffffffffffffffffffffffffffffff1681526020019081526020016000206000015411806121c2575060008181548110151561216157fe5b906000526020600020906009020160000160009054906101000a900473ffffffffffffffffffffffffffffffffffffffff1673ffffffffffffffffffffffffffffffffffffffff163373ffffffffffffffffffffffffffffffffffffffff16145b15156121cd57600080fd5b6000848154811015156121dc57fe5b90600052602060002090600902019150600160098111156121f957fe5b8260050160009054906101000a900460ff16600981111561221657fe5b1480156122295750600182600401540242115b151561223457600080fd5b60048260050160006101000a81548160ff0219169083600981111561225557fe5b02179055507fdd5cca0ed14df7fe4d86a947c4d84d85f3452e2efb41917d285c1d5a8b41f8d3848360050160009054906101000a900460ff168460020154856001015487604051808681526020018560098111156122af57fe5b60ff16815260200184815260200183815260200182600019166000191681526020019550505050505060405180910390a150505050565b600080600080858154811015156122f957fe5b90600052602060002090600902019150600090505b81600801805490508110156123a3578373ffffffffffffffffffffffffffffffffffffffff16826008018281548110151561234557fe5b906000526020600020900160009054906101000a900473ffffffffffffffffffffffffffffffffffffffff1673ffffffffffffffffffffffffffffffffffffffff16141561239657600192506123a4565b808060010191505061230e565b5b505092915050565b61012060405190810160405280600073ffffffffffffffffffffffffffffffffffffffff16815260200160008152602001600081526020016000815260200160008152602001600060098111156123ff57fe5b8152602001600060ff168152602001612416612511565b8152602001612423612511565b81525090565b815481835581811511612456576009028160090283600052602060002091820191016124559190612525565b5b505050565b8280548282559060005260206000209081019282156124d4579160200282015b828111156124d35782518260006101000a81548173ffffffffffffffffffffffffffffffffffffffff021916908373ffffffffffffffffffffffffffffffffffffffff1602179055509160200191906001019061247b565b5b5090506124e191906125d3565b5090565b81548183558181151161250c5781836000526020600020918201910161250b9190612616565b5b505050565b602060405190810160405280600081525090565b6125d091905b808211156125cc57600080820160006101000a81549073ffffffffffffffffffffffffffffffffffffffff021916905560018201600090556002820160009055600382016000905560048201600090556005820160006101000a81549060ff02191690556005820160016101000a81549060ff02191690556007820160006125b3919061263b565b6008820160006125c3919061263b565b5060090161252b565b5090565b90565b61261391905b8082111561260f57600081816101000a81549073ffffffffffffffffffffffffffffffffffffffff0219169055506001016125d9565b5090565b90565b61263891905b8082111561263457600081600090555060010161261c565b5090565b90565b50805460008255906000526020600020908101906126599190612616565b505600a165627a7a72305820ce883a7d12ec464b191bc8e22968016097497f3d568e79eba628b95969ac6e520029",
  "source": "pragma solidity ^0.4.18;\n\ncontract BettingHandshake {\n    struct Betor {\n        uint value;\n        uint winValue;\n    }\n\n    enum S { Inited, Shaked, Closed, Cancelled, InitiatorWon, BetorWon, Draw, Accepted, Rejected, Done }\n\n    struct Bet {\n        address initiator;\n        uint escrow;  \n        uint balance;\n        uint goal;\n        uint deadline;\n\n        S state;\n        uint8 result;\n        mapping(address => Betor) betors;\n        address[] addresses;\n        address[] acceptors;\n    }\n\n    Bet[] public bets;\n    address public referee;\n    uint public reviewWindow = 3 days;\n    uint public rejectWindow = 1 days;\n\n    function BettingHandshake() public {\n        referee = msg.sender;\n    } \n\n    modifier onlyInitiator(uint hid) {\n        require(msg.sender == bets[hid].initiator);\n        _;\n    }\n\n    modifier onlyBetor(uint hid) {\n        require(bets[hid].betors[msg.sender].value > 0);\n        _;\n    }\n\n    modifier initiatorOrBetors(uint hid) {\n        require(bets[hid].betors[msg.sender].value > 0 || msg.sender == bets[hid].initiator);\n        _;\n    }\n\n    modifier onlyReferee() {\n        require(msg.sender == referee);\n        _;\n    }\n\n    event __init(uint hid, S state, uint balance, uint escrow, bytes32 offchain); \n\n    /**\n     * @dev Create a new bet.\n     * @param acceptors address of users will receive bet.\n     * @param goal amount money (in Wei) of users join bet.\n     * @param escrow money (in Wei) of initor.\n     * @param deadline duration (in seconds) event happen.\n     * @param offchain key to the offchain database.\n     */\n    function initBet(address[] acceptors, uint goal, uint escrow, uint deadline, bytes32 offchain) public payable {\n        require(msg.value == escrow);\n\n        Bet memory b;\n        b.initiator = msg.sender;\n        b.goal = goal; \n        b.escrow = escrow;\n        b.deadline = now + deadline * 1 seconds;\n        b.state = S.Inited;\n        b.acceptors = acceptors;\n        \n        bets.push(b);\n        __init(bets.length - 1, S.Inited, b.balance, b.escrow, offchain);\n    }\n\n    event __shake(uint hid, S state, uint balance, uint escrow, bytes32 offchain);\n\n    // Payer join bet\n    function shake(uint hid, bytes32 offchain) public payable {\n        Bet storage b = bets[hid];\n        require((b.state == S.Inited || b.state == S.Shaked) && msg.value > 0 && now < b.deadline);\n\n        if (b.acceptors.length != 0) {\n            require(isValidAcceptor(hid, msg.sender) == true);\n        }\n\n        if (b.betors[msg.sender].value == 0) {\n            b.addresses.push(msg.sender);\n        }\n        \n        b.betors[msg.sender].value += msg.value;\n        b.betors[msg.sender].winValue += ((msg.value * b.escrow) / b.goal);\n        b.balance += msg.value;\n        require(b.balance <= b.goal);\n        \n        b.state = S.Shaked;\n        __shake(hid, b.state, b.balance, b.escrow, offchain);\n    }\n\n    event __cancelBet(uint hid, S state, uint balance, uint escrow, bytes32 offchain);\n\n    //  both of initiator or betor can cancel bet if time exceed review window\n    function cancelBet(uint hid, bytes32 offchain) public initiatorOrBetors(hid) {\n        Bet storage b = bets[hid];\n        require(now >= b.deadline + reviewWindow && b.state == S.Shaked);\n\n        b.state = S.Cancelled;\n        __cancelBet(hid, b.state, b.balance, b.escrow, offchain);\n    }\n\n    event __closeBet(uint hid, S state, uint balance, uint escrow, bytes32 offchain);\n\n    // Initiator close bet\n    function closeBet(uint hid, bytes32 offchain) public onlyInitiator(hid) {\n        Bet storage b = bets[hid];\n        require(b.balance < b.goal);\n        if (b.addresses.length == 0 && b.state == S.Inited) {\n            msg.sender.transfer(b.escrow);\n            b.escrow = 0; \n            b.state = S.Closed;\n\n        } else if(b.state == S.Shaked) {\n            uint remainingMoney = b.escrow - ((b.balance * b.escrow) / b.goal);\n            b.escrow -= remainingMoney;\n            b.goal = b.balance;\n            msg.sender.transfer(remainingMoney);\n        }\n        \n        __closeBet(hid, b.state, b.balance, b.escrow, offchain);\n    }\n\n    event __initiatorWon(uint hid, S state, uint balance, uint escrow, bytes32 offchain); \n  \n    function initiatorWon(uint hid, bytes32 offchain) public initiatorOrBetors(hid) {\n        Bet storage b = bets[hid]; \n        require(b.state == S.Shaked && now > b.deadline * 1 seconds); \n        b.state = S.InitiatorWon; \n\n        __initiatorWon(hid, b.state, b.balance, b.escrow, offchain);\n    }\n\n    event __betorWon(uint hid, S state, uint balance, uint escrow, bytes32 offchain); \n\n    function betorWon(uint hid, bytes32 offchain) public initiatorOrBetors(hid) {\n        Bet storage b = bets[hid]; \n        require(b.state == S.Shaked && now > b.deadline * 1 seconds);\n        b.state = S.BetorWon;\n\n        __betorWon(hid, b.state, b.balance, b.escrow, offchain);\n    }\n\n    event __draw(uint hid, S state, uint balance, uint escrow, bytes32 offchain); \n\n    function draw(uint hid, bytes32 offchain) public initiatorOrBetors(hid) {\n        Bet storage b = bets[hid]; \n        require(b.state == S.Shaked && now > b.deadline * 1 seconds); \n        b.state = S.Draw;\n\n        __draw(hid, b.state, b.balance, b.escrow, offchain);\n    }\n\n    event __withdraw(uint hid, S state, uint balance, uint escrow, bytes32 offchain);\n\n    function withdraw(uint hid, bytes32 offchain) public initiatorOrBetors(hid) {\n        Bet storage b = bets[hid]; \n        if (b.state != S.Accepted) {\n            if(b.state == S.Cancelled) {\n                b.result = uint8(S.Draw);\n            } else {\n                require(now > b.deadline + rejectWindow);\n                if (b.state == S.InitiatorWon || b.state == S.BetorWon || b.state == S.Draw) {\n                    b.result = uint8(b.state);\n                }\n            }\n            b.state = S.Accepted;\n        }\n        require(b.state == S.Accepted);\n        if (b.result == uint8(S.InitiatorWon)) {\n            require(msg.sender == b.initiator);\n            if(b.initiator == msg.sender && b.escrow > 0) {\n                b.initiator.transfer(b.escrow + b.balance);\n                b.escrow = 0;\n                b.balance = 0;\n            }\n            \n        } else if (b.result == uint8(S.BetorWon)) {\n            require(b.betors[msg.sender].value > 0);\n            if(b.balance > 0) {\n                Betor storage p = b.betors[msg.sender];\n                b.escrow -= p.winValue;\n                b.balance -= p.value;\n                msg.sender.transfer(p.winValue);\n                p.value = 0;\n                p.winValue = 0;\n            }\n            \n        } else if (b.result == uint8(S.Draw)) { \n            if(b.initiator == msg.sender && b.escrow > 0) {\n                b.initiator.transfer(b.escrow);\n                b.escrow = 0;\n                \n            } else if (b.betors[msg.sender].value > 0) {\n                if(b.balance > 0) {\n                    Betor storage p1 = b.betors[msg.sender];\n                    b.balance -= p1.value;\n                    msg.sender.transfer(p1.value);\n                    p1.value = 0;\n                    p1.winValue = 0;\n                }\n            }\n        }\n\n        // TODO: transfer 1% fee to referee\n        if (b.balance == 0 && b.escrow == 0) {\n            b.state = S.Done;   \n        }\n\n        __withdraw(hid, b.state, b.balance, b.escrow, offchain);\n    }\n\n    event __reject(uint hid, S state, uint balance, uint escrow, bytes32 offchain);\n\n    function reject(uint hid, bytes32 offchain) public initiatorOrBetors(hid) {\n        Bet storage b = bets[hid]; \n        require(b.state == S.InitiatorWon || b.state == S.Draw || b.state == S.BetorWon); \n\n        b.state = S.Rejected;\n        __reject(hid, b.state, b.balance, b.escrow, offchain);\n    }\n\n    event __setWinner(uint hid, S state, uint balance, uint escrow, bytes32 offchain);\n\n    // referee will set the winner if there is a dispute    \n    function setWinner(uint hid, uint8 result, bytes32 offchain) public onlyReferee() {\n        Bet storage b = bets[hid];\n        require(b.state == S.Rejected && (result == uint8(S.InitiatorWon) || result == uint8(S.Draw) || result == uint8(S.BetorWon)));\n        b.state = S.Accepted;\n        b.result = result; \n        __setWinner(hid, b.state, b.balance, b.escrow, offchain);\n    }\n    \n    function isValidAcceptor(uint hid, address acceptor) private view returns (bool value) {\n        Bet storage b = bets[hid];\n        for (uint index = 0; index < b.acceptors.length; index++) {\n            if (b.acceptors[index] == acceptor) {\n                value = true;\n                return;\n            }\n        }\n    }\n\n    function getWinValue(uint hid) public view returns (uint) {\n        Bet storage b = bets[hid];\n        if (msg.sender == b.initiator) {\n            return b.balance;\n        }\n        return b.betors[msg.sender].winValue;\n    }\n}\n",
  "sourcePath": "/Workspace/robotbase/crypto/handshake-protocol/contracts/BettingHandshake.sol",
  "compiler": {
    "name": "solc",
    "version": "0.4.19+commit.c4cbbb05.Emscripten.clang"
  },
  "schemaVersion": "2.0.0",
  "updatedAt": "2018-05-30T04:35:20.610Z"
}