{
  "contractName": "BettingHandshake",
  "abi": [
    {
      "constant": true,
      "inputs": [
        {
          "name": "",
          "type": "uint256"
        }
      ],
      "name": "bets",
      "outputs": [
        {
          "name": "initiator",
          "type": "address"
        },
        {
          "name": "escrow",
          "type": "uint256"
        },
        {
          "name": "balance",
          "type": "uint256"
        },
        {
          "name": "goal",
          "type": "uint256"
        },
        {
          "name": "deadline",
          "type": "uint256"
        },
        {
          "name": "state",
          "type": "uint8"
        },
        {
          "name": "result",
          "type": "uint8"
        }
      ],
      "payable": false,
      "stateMutability": "view",
      "type": "function"
    },
    {
      "constant": true,
      "inputs": [],
      "name": "referee",
      "outputs": [
        {
          "name": "",
          "type": "address"
        }
      ],
      "payable": false,
      "stateMutability": "view",
      "type": "function"
    },
    {
      "constant": true,
      "inputs": [],
      "name": "reviewWindow",
      "outputs": [
        {
          "name": "",
          "type": "uint256"
        }
      ],
      "payable": false,
      "stateMutability": "view",
      "type": "function"
    },
    {
      "constant": true,
      "inputs": [],
      "name": "rejectWindow",
      "outputs": [
        {
          "name": "",
          "type": "uint256"
        }
      ],
      "payable": false,
      "stateMutability": "view",
      "type": "function"
    },
    {
      "inputs": [],
      "payable": false,
      "stateMutability": "nonpayable",
      "type": "constructor"
    },
    {
      "anonymous": false,
      "inputs": [
        {
          "indexed": false,
          "name": "hid",
          "type": "uint256"
        },
        {
          "indexed": false,
          "name": "state",
          "type": "uint8"
        },
        {
          "indexed": false,
          "name": "balance",
          "type": "uint256"
        },
        {
          "indexed": false,
          "name": "escrow",
          "type": "uint256"
        },
        {
          "indexed": false,
          "name": "offchain",
          "type": "bytes32"
        }
      ],
      "name": "__init",
      "type": "event"
    },
    {
      "anonymous": false,
      "inputs": [
        {
          "indexed": false,
          "name": "hid",
          "type": "uint256"
        },
        {
          "indexed": false,
          "name": "state",
          "type": "uint8"
        },
        {
          "indexed": false,
          "name": "balance",
          "type": "uint256"
        },
        {
          "indexed": false,
          "name": "escrow",
          "type": "uint256"
        },
        {
          "indexed": false,
          "name": "offchain",
          "type": "bytes32"
        }
      ],
      "name": "__shake",
      "type": "event"
    },
    {
      "anonymous": false,
      "inputs": [
        {
          "indexed": false,
          "name": "hid",
          "type": "uint256"
        },
        {
          "indexed": false,
          "name": "state",
          "type": "uint8"
        },
        {
          "indexed": false,
          "name": "balance",
          "type": "uint256"
        },
        {
          "indexed": false,
          "name": "escrow",
          "type": "uint256"
        },
        {
          "indexed": false,
          "name": "offchain",
          "type": "bytes32"
        }
      ],
      "name": "__cancelBet",
      "type": "event"
    },
    {
      "anonymous": false,
      "inputs": [
        {
          "indexed": false,
          "name": "hid",
          "type": "uint256"
        },
        {
          "indexed": false,
          "name": "state",
          "type": "uint8"
        },
        {
          "indexed": false,
          "name": "balance",
          "type": "uint256"
        },
        {
          "indexed": false,
          "name": "escrow",
          "type": "uint256"
        },
        {
          "indexed": false,
          "name": "offchain",
          "type": "bytes32"
        }
      ],
      "name": "__closeBet",
      "type": "event"
    },
    {
      "anonymous": false,
      "inputs": [
        {
          "indexed": false,
          "name": "hid",
          "type": "uint256"
        },
        {
          "indexed": false,
          "name": "state",
          "type": "uint8"
        },
        {
          "indexed": false,
          "name": "balance",
          "type": "uint256"
        },
        {
          "indexed": false,
          "name": "escrow",
          "type": "uint256"
        },
        {
          "indexed": false,
          "name": "offchain",
          "type": "bytes32"
        }
      ],
      "name": "__initiatorWon",
      "type": "event"
    },
    {
      "anonymous": false,
      "inputs": [
        {
          "indexed": false,
          "name": "hid",
          "type": "uint256"
        },
        {
          "indexed": false,
          "name": "state",
          "type": "uint8"
        },
        {
          "indexed": false,
          "name": "balance",
          "type": "uint256"
        },
        {
          "indexed": false,
          "name": "escrow",
          "type": "uint256"
        },
        {
          "indexed": false,
          "name": "offchain",
          "type": "bytes32"
        }
      ],
      "name": "__betorWon",
      "type": "event"
    },
    {
      "anonymous": false,
      "inputs": [
        {
          "indexed": false,
          "name": "hid",
          "type": "uint256"
        },
        {
          "indexed": false,
          "name": "state",
          "type": "uint8"
        },
        {
          "indexed": false,
          "name": "balance",
          "type": "uint256"
        },
        {
          "indexed": false,
          "name": "escrow",
          "type": "uint256"
        },
        {
          "indexed": false,
          "name": "offchain",
          "type": "bytes32"
        }
      ],
      "name": "__draw",
      "type": "event"
    },
    {
      "anonymous": false,
      "inputs": [
        {
          "indexed": false,
          "name": "hid",
          "type": "uint256"
        },
        {
          "indexed": false,
          "name": "state",
          "type": "uint8"
        },
        {
          "indexed": false,
          "name": "balance",
          "type": "uint256"
        },
        {
          "indexed": false,
          "name": "escrow",
          "type": "uint256"
        },
        {
          "indexed": false,
          "name": "offchain",
          "type": "bytes32"
        }
      ],
      "name": "__withdraw",
      "type": "event"
    },
    {
      "anonymous": false,
      "inputs": [
        {
          "indexed": false,
          "name": "hid",
          "type": "uint256"
        },
        {
          "indexed": false,
          "name": "state",
          "type": "uint8"
        },
        {
          "indexed": false,
          "name": "balance",
          "type": "uint256"
        },
        {
          "indexed": false,
          "name": "escrow",
          "type": "uint256"
        },
        {
          "indexed": false,
          "name": "offchain",
          "type": "bytes32"
        }
      ],
      "name": "__reject",
      "type": "event"
    },
    {
      "anonymous": false,
      "inputs": [
        {
          "indexed": false,
          "name": "hid",
          "type": "uint256"
        },
        {
          "indexed": false,
          "name": "state",
          "type": "uint8"
        },
        {
          "indexed": false,
          "name": "balance",
          "type": "uint256"
        },
        {
          "indexed": false,
          "name": "escrow",
          "type": "uint256"
        },
        {
          "indexed": false,
          "name": "offchain",
          "type": "bytes32"
        }
      ],
      "name": "__setWinner",
      "type": "event"
    },
    {
      "constant": false,
      "inputs": [
        {
          "name": "acceptors",
          "type": "address[]"
        },
        {
          "name": "goal",
          "type": "uint256"
        },
        {
          "name": "escrow",
          "type": "uint256"
        },
        {
          "name": "deadline",
          "type": "uint256"
        },
        {
          "name": "offchain",
          "type": "bytes32"
        }
      ],
      "name": "initBet",
      "outputs": [],
      "payable": true,
      "stateMutability": "payable",
      "type": "function"
    },
    {
      "constant": false,
      "inputs": [
        {
          "name": "hid",
          "type": "uint256"
        },
        {
          "name": "offchain",
          "type": "bytes32"
        }
      ],
      "name": "shake",
      "outputs": [],
      "payable": true,
      "stateMutability": "payable",
      "type": "function"
    },
    {
      "constant": false,
      "inputs": [
        {
          "name": "hid",
          "type": "uint256"
        },
        {
          "name": "offchain",
          "type": "bytes32"
        }
      ],
      "name": "cancelBet",
      "outputs": [],
      "payable": false,
      "stateMutability": "nonpayable",
      "type": "function"
    },
    {
      "constant": false,
      "inputs": [
        {
          "name": "hid",
          "type": "uint256"
        },
        {
          "name": "offchain",
          "type": "bytes32"
        }
      ],
      "name": "closeBet",
      "outputs": [],
      "payable": false,
      "stateMutability": "nonpayable",
      "type": "function"
    },
    {
      "constant": false,
      "inputs": [
        {
          "name": "hid",
          "type": "uint256"
        },
        {
          "name": "offchain",
          "type": "bytes32"
        }
      ],
      "name": "initiatorWon",
      "outputs": [],
      "payable": false,
      "stateMutability": "nonpayable",
      "type": "function"
    },
    {
      "constant": false,
      "inputs": [
        {
          "name": "hid",
          "type": "uint256"
        },
        {
          "name": "offchain",
          "type": "bytes32"
        }
      ],
      "name": "betorWon",
      "outputs": [],
      "payable": false,
      "stateMutability": "nonpayable",
      "type": "function"
    },
    {
      "constant": false,
      "inputs": [
        {
          "name": "hid",
          "type": "uint256"
        },
        {
          "name": "offchain",
          "type": "bytes32"
        }
      ],
      "name": "draw",
      "outputs": [],
      "payable": false,
      "stateMutability": "nonpayable",
      "type": "function"
    },
    {
      "constant": false,
      "inputs": [
        {
          "name": "hid",
          "type": "uint256"
        },
        {
          "name": "offchain",
          "type": "bytes32"
        }
      ],
      "name": "withdraw",
      "outputs": [],
      "payable": false,
      "stateMutability": "nonpayable",
      "type": "function"
    },
    {
      "constant": false,
      "inputs": [
        {
          "name": "hid",
          "type": "uint256"
        },
        {
          "name": "offchain",
          "type": "bytes32"
        }
      ],
      "name": "reject",
      "outputs": [],
      "payable": false,
      "stateMutability": "nonpayable",
      "type": "function"
    },
    {
      "constant": false,
      "inputs": [
        {
          "name": "hid",
          "type": "uint256"
        },
        {
          "name": "result",
          "type": "uint8"
        },
        {
          "name": "offchain",
          "type": "bytes32"
        }
      ],
      "name": "setWinner",
      "outputs": [],
      "payable": false,
      "stateMutability": "nonpayable",
      "type": "function"
    },
    {
      "constant": true,
      "inputs": [
        {
          "name": "hid",
          "type": "uint256"
        }
      ],
      "name": "getWinValue",
      "outputs": [
        {
          "name": "",
          "type": "uint256"
        }
      ],
      "payable": false,
      "stateMutability": "view",
      "type": "function"
    }
  ],
  "bytecode": "0x60606040526203f48060025562015180600355341561001d57600080fd5b33600160006101000a81548173ffffffffffffffffffffffffffffffffffffffff021916908373ffffffffffffffffffffffffffffffffffffffff1602179055506126c78061006d6000396000f3006060604052600436106100db576000357c0100000000000000000000000000000000000000000000000000000000900463ffffffff1680631d43334d146100e057806322af00fa1461011057806329e93878146101b15780633b1bebd1146101e15780634642d7b9146102365780636be1320b14610266578063755f78d91461029657806381243eb6146102c6578063878716be1461033d5780639ca4218f14610379578063a07a07c4146103a2578063a5ca03b2146103cb578063a8d2021a14610402578063b09b2f8514610432578063faf3239014610457575b600080fd5b34156100eb57600080fd5b61010e600480803590602001909190803560001916906020019091905050610487565b005b341561011b57600080fd5b6101316004808035906020019091905050610736565b604051808873ffffffffffffffffffffffffffffffffffffffff1673ffffffffffffffffffffffffffffffffffffffff16815260200187815260200186815260200185815260200184815260200183600981111561018b57fe5b60ff1681526020018260ff1660ff16815260200197505050505050505060405180910390f35b34156101bc57600080fd5b6101df6004808035906020019091908035600019169060200190919050506107c1565b005b34156101ec57600080fd5b6101f46109c1565b604051808273ffffffffffffffffffffffffffffffffffffffff1673ffffffffffffffffffffffffffffffffffffffff16815260200191505060405180910390f35b341561024157600080fd5b6102646004808035906020019091908035600019169060200190919050506109e7565b005b341561027157600080fd5b610294600480803590602001909190803560001916906020019091905050610bf2565b005b34156102a157600080fd5b6102c4600480803590602001909190803560001916906020019091905050610e15565b005b61033b60048080359060200190820180359060200190808060200260200160405190810160405280939291908181526020018383602002808284378201915050505050509190803590602001909190803590602001909190803590602001909190803560001916906020019091905050611015565b005b341561034857600080fd5b610377600480803590602001909190803560ff169060200190919080356000191690602001909190505061124c565b005b341561038457600080fd5b61038c61140a565b6040518082815260200191505060405180910390f35b34156103ad57600080fd5b6103b5611410565b6040518082815260200191505060405180910390f35b34156103d657600080fd5b6103ec6004808035906020019091905050611416565b6040518082815260200191505060405180910390f35b341561040d57600080fd5b6104306004808035906020019091908035600019169060200190919050506114ea565b005b610455600480803590602001909190803560001916906020019091905050611c5f565b005b341561046257600080fd5b610485600480803590602001909190803560001916906020019091905050611f76565b005b6000808360008181548110151561049a57fe5b906000526020600020906009020160000160009054906101000a900473ffffffffffffffffffffffffffffffffffffffff1673ffffffffffffffffffffffffffffffffffffffff163373ffffffffffffffffffffffffffffffffffffffff1614151561050557600080fd5b60008581548110151561051457fe5b906000526020600020906009020192508260030154836002015410151561053a57600080fd5b6000836007018054905014801561057857506000600981111561055957fe5b8360050160009054906101000a900460ff16600981111561057657fe5b145b156105f6573373ffffffffffffffffffffffffffffffffffffffff166108fc84600101549081150290604051600060405180830381858888f1935050505015156105c157600080fd5b6000836001018190555060028360050160006101000a81548160ff021916908360098111156105ec57fe5b02179055506106a9565b6001600981111561060357fe5b8360050160009054906101000a900460ff16600981111561062057fe5b14156106a8578260030154836001015484600201540281151561063f57fe5b048360010154039150818360010160008282540392505081905550826002015483600301819055503373ffffffffffffffffffffffffffffffffffffffff166108fc839081150290604051600060405180830381858888f1935050505015156106a757600080fd5b5b5b7f9168645179ebefa95b30c1a7fd4a842e6433caf7911467b3a7a868e31276c50b858460050160009054906101000a900460ff168560020154866001015488604051808681526020018560098111156106fe57fe5b60ff16815260200184815260200183815260200182600019166000191681526020019550505050505060405180910390a15050505050565b60008181548110151561074557fe5b90600052602060002090600902016000915090508060000160009054906101000a900473ffffffffffffffffffffffffffffffffffffffff16908060010154908060020154908060030154908060040154908060050160009054906101000a900460ff16908060050160019054906101000a900460ff16905087565b600082600080828154811015156107d457fe5b906000526020600020906009020160060160003373ffffffffffffffffffffffffffffffffffffffff1673ffffffffffffffffffffffffffffffffffffffff16815260200190815260200160002060000154118061089d575060008181548110151561083c57fe5b906000526020600020906009020160000160009054906101000a900473ffffffffffffffffffffffffffffffffffffffff1673ffffffffffffffffffffffffffffffffffffffff163373ffffffffffffffffffffffffffffffffffffffff16145b15156108a857600080fd5b6000848154811015156108b757fe5b90600052602060002090600902019150600160098111156108d457fe5b8260050160009054906101000a900460ff1660098111156108f157fe5b1480156109045750600182600401540242115b151561090f57600080fd5b60068260050160006101000a81548160ff0219169083600981111561093057fe5b02179055507f3d52d48685d5511fd2b49f42bda4929e6c8c8c7e18ff270437f5bb441450f46b848360050160009054906101000a900460ff1684600201548560010154876040518086815260200185600981111561098a57fe5b60ff16815260200184815260200183815260200182600019166000191681526020019550505050505060405180910390a150505050565b600160009054906101000a900473ffffffffffffffffffffffffffffffffffffffff1681565b600082600080828154811015156109fa57fe5b906000526020600020906009020160060160003373ffffffffffffffffffffffffffffffffffffffff1673ffffffffffffffffffffffffffffffffffffffff168152602001908152602001600020600001541180610ac35750600081815481101515610a6257fe5b906000526020600020906009020160000160009054906101000a900473ffffffffffffffffffffffffffffffffffffffff1673ffffffffffffffffffffffffffffffffffffffff163373ffffffffffffffffffffffffffffffffffffffff16145b1515610ace57600080fd5b600084815481101515610add57fe5b906000526020600020906009020191506002548260040154014210158015610b2c575060016009811115610b0d57fe5b8260050160009054906101000a900460ff166009811115610b2a57fe5b145b1515610b3757600080fd5b60038260050160006101000a81548160ff02191690836009811115610b5857fe5b0217905550610b6684612176565b7f72564998f7d47a21dcc7b8805e90213b4037c9a51f72a362c8df036d14e54e06848360050160009054906101000a900460ff16846002015485600101548760405180868152602001856009811115610bbb57fe5b60ff16815260200184815260200183815260200182600019166000191681526020019550505050505060405180910390a150505050565b60008260008082815481101515610c0557fe5b906000526020600020906009020160060160003373ffffffffffffffffffffffffffffffffffffffff1673ffffffffffffffffffffffffffffffffffffffff168152602001908152602001600020600001541180610cce5750600081815481101515610c6d57fe5b906000526020600020906009020160000160009054906101000a900473ffffffffffffffffffffffffffffffffffffffff1673ffffffffffffffffffffffffffffffffffffffff163373ffffffffffffffffffffffffffffffffffffffff16145b1515610cd957600080fd5b600084815481101515610ce857fe5b9060005260206000209060090201915060046009811115610d0557fe5b8260050160009054906101000a900460ff166009811115610d2257fe5b10158015610d58575060066009811115610d3857fe5b8260050160009054906101000a900460ff166009811115610d5557fe5b11155b1515610d6357600080fd5b60088260050160006101000a81548160ff02191690836009811115610d8457fe5b02179055507f38633837e18700599e1454a0eedee49acd45f20cc22e935cc900dcc4e116a881848360050160009054906101000a900460ff16846002015485600101548760405180868152602001856009811115610dde57fe5b60ff16815260200184815260200183815260200182600019166000191681526020019550505050505060405180910390a150505050565b60008260008082815481101515610e2857fe5b906000526020600020906009020160060160003373ffffffffffffffffffffffffffffffffffffffff1673ffffffffffffffffffffffffffffffffffffffff168152602001908152602001600020600001541180610ef15750600081815481101515610e9057fe5b906000526020600020906009020160000160009054906101000a900473ffffffffffffffffffffffffffffffffffffffff1673ffffffffffffffffffffffffffffffffffffffff163373ffffffffffffffffffffffffffffffffffffffff16145b1515610efc57600080fd5b600084815481101515610f0b57fe5b9060005260206000209060090201915060016009811115610f2857fe5b8260050160009054906101000a900460ff166009811115610f4557fe5b148015610f585750600182600401540242115b1515610f6357600080fd5b60058260050160006101000a81548160ff02191690836009811115610f8457fe5b02179055507fcfa63e49674c15073f89588b52a2ce124aea9fc5a0b3ce2d3757c5f262812a95848360050160009054906101000a900460ff16846002015485600101548760405180868152602001856009811115610fde57fe5b60ff16815260200184815260200183815260200182600019166000191681526020019550505050505060405180910390a150505050565b61101d6123eb565b33816000019073ffffffffffffffffffffffffffffffffffffffff16908173ffffffffffffffffffffffffffffffffffffffff1681525050848160600181815250508381602001818152505060018302420181608001818152505060008160a00190600981111561108a57fe5b9081600981111561109757fe5b8152505085816101000181905250600080548060010182816110b99190612468565b9160005260206000209060090201600083909190915060008201518160000160006101000a81548173ffffffffffffffffffffffffffffffffffffffff021916908373ffffffffffffffffffffffffffffffffffffffff1602179055506020820151816001015560408201518160020155606082015181600301556080820151816004015560a08201518160050160006101000a81548160ff0219169083600981111561116257fe5b021790555060c08201518160050160016101000a81548160ff021916908360ff16021790555060e08201518160070190805190602001906111a492919061249a565b506101008201518160080190805190602001906111c292919061249a565b505050507f95ec871c362f3f13b1cf5b875249ba88099e29d15a72677ac2c9b38084dba040600160008054905003600083604001518460200151866040518086815260200185600981111561121357fe5b60ff16815260200184815260200183815260200182600019166000191681526020019550505050505060405180910390a1505050505050565b6000600160009054906101000a900473ffffffffffffffffffffffffffffffffffffffff1673ffffffffffffffffffffffffffffffffffffffff163373ffffffffffffffffffffffffffffffffffffffff161415156112aa57600080fd5b6000848154811015156112b957fe5b90600052602060002090600902019050600860098111156112d657fe5b8160050160009054906101000a900460ff1660098111156112f357fe5b14801561131257506004600981111561130857fe5b60ff168360ff1610155b801561133057506006600981111561132657fe5b60ff168360ff1611155b151561133b57600080fd5b60078160050160006101000a81548160ff0219169083600981111561135c57fe5b0217905550828160050160016101000a81548160ff021916908360ff1602179055507ffed65e414d0493e522bdc10426e13c0c64dbc285d209257f034ee6657e8eaa2c848260050160009054906101000a900460ff168360020154846001015486604051808681526020018560098111156113d357fe5b60ff16815260200184815260200183815260200182600019166000191681526020019550505050505060405180910390a150505050565b60025481565b60035481565b60008060008381548110151561142857fe5b906000526020600020906009020190508060000160009054906101000a900473ffffffffffffffffffffffffffffffffffffffff1673ffffffffffffffffffffffffffffffffffffffff163373ffffffffffffffffffffffffffffffffffffffff16141561149c57806002015491506114e4565b8060060160003373ffffffffffffffffffffffffffffffffffffffff1673ffffffffffffffffffffffffffffffffffffffff1681526020019081526020016000206001015491505b50919050565b6000806000846000808281548110151561150057fe5b906000526020600020906009020160060160003373ffffffffffffffffffffffffffffffffffffffff1673ffffffffffffffffffffffffffffffffffffffff1681526020019081526020016000206000015411806115c9575060008181548110151561156857fe5b906000526020600020906009020160000160009054906101000a900473ffffffffffffffffffffffffffffffffffffffff1673ffffffffffffffffffffffffffffffffffffffff163373ffffffffffffffffffffffffffffffffffffffff16145b15156115d457600080fd5b6000868154811015156115e357fe5b906000526020600020906009020193506003548460040154014211151561160957600080fd5b6004600981111561161657fe5b8460050160009054906101000a900460ff16600981111561163357fe5b1015801561166957506006600981111561164957fe5b8460050160009054906101000a900460ff16600981111561166657fe5b11155b156116ce578360050160009054906101000a900460ff16600981111561168b57fe5b8460050160016101000a81548160ff021916908360ff16021790555060078460050160006101000a81548160ff021916908360098111156116c857fe5b02179055505b600760098111156116db57fe5b8460050160009054906101000a900460ff1660098111156116f857fe5b14151561170457600080fd5b6004600981111561171157fe5b60ff168460050160019054906101000a900460ff1660ff16141561181f573373ffffffffffffffffffffffffffffffffffffffff168460000160009054906101000a900473ffffffffffffffffffffffffffffffffffffffff1673ffffffffffffffffffffffffffffffffffffffff16148015611792575060008460010154115b1561181a578360000160009054906101000a900473ffffffffffffffffffffffffffffffffffffffff1673ffffffffffffffffffffffffffffffffffffffff166108fc85600201548660010154019081150290604051600060405180830381858888f19350505050151561180557600080fd5b60008460010181905550600084600201819055505b611b8d565b6005600981111561182c57fe5b60ff168460050160019054906101000a900460ff1660ff1614156119725760008460060160003373ffffffffffffffffffffffffffffffffffffffff1673ffffffffffffffffffffffffffffffffffffffff16815260200190815260200160002060000154111561196d5760008460020154111561196c578360060160003373ffffffffffffffffffffffffffffffffffffffff1673ffffffffffffffffffffffffffffffffffffffff168152602001908152602001600020925082600101548460010160008282540392505081905550826000015484600201600082825403925050819055503373ffffffffffffffffffffffffffffffffffffffff166108fc84600101549081150290604051600060405180830381858888f19350505050151561195757600080fd5b60008360000181905550600083600101819055505b5b611b8c565b6006600981111561197f57fe5b60ff168460050160019054906101000a900460ff1660ff161415611b8b573373ffffffffffffffffffffffffffffffffffffffff168460000160009054906101000a900473ffffffffffffffffffffffffffffffffffffffff1673ffffffffffffffffffffffffffffffffffffffff16148015611a00575060008460010154115b15611a7c578360000160009054906101000a900473ffffffffffffffffffffffffffffffffffffffff1673ffffffffffffffffffffffffffffffffffffffff166108fc85600101549081150290604051600060405180830381858888f193505050501515611a6d57600080fd5b60008460010181905550611b8a565b60008460060160003373ffffffffffffffffffffffffffffffffffffffff1673ffffffffffffffffffffffffffffffffffffffff168152602001908152602001600020600001541115611b8957600084600201541115611b88578360060160003373ffffffffffffffffffffffffffffffffffffffff1673ffffffffffffffffffffffffffffffffffffffff1681526020019081526020016000209150816000015484600201600082825403925050819055503373ffffffffffffffffffffffffffffffffffffffff166108fc83600001549081150290604051600060405180830381858888f193505050501515611b7357600080fd5b60008260000181905550600082600101819055505b5b5b5b5b5b60008460020154148015611ba5575060008460010154145b15611bd15760098460050160006101000a81548160ff02191690836009811115611bcb57fe5b02179055505b7f96c5c49736e4d387aa742d0357695d08b1c8a025d8da70c2751e81ce21b6f2ba868560050160009054906101000a900460ff16866002015487600101548960405180868152602001856009811115611c2657fe5b60ff16815260200184815260200183815260200182600019166000191681526020019550505050505060405180910390a1505050505050565b60008083815481101515611c6f57fe5b9060005260206000209060090201905060006009811115611c8c57fe5b8160050160009054906101000a900460ff166009811115611ca957fe5b1480611cdc575060016009811115611cbd57fe5b8160050160009054906101000a900460ff166009811115611cda57fe5b145b8015611ce85750600034115b8015611cf75750806004015442105b1515611d0257600080fd5b60008160080180549050141515611d305760011515611d218433612325565b1515141515611d2f57600080fd5b5b60008160060160003373ffffffffffffffffffffffffffffffffffffffff1673ffffffffffffffffffffffffffffffffffffffff168152602001908152602001600020600001541415611de357806007018054806001018281611d939190612524565b9160005260206000209001600033909190916101000a81548173ffffffffffffffffffffffffffffffffffffffff021916908373ffffffffffffffffffffffffffffffffffffffff160217905550505b348160060160003373ffffffffffffffffffffffffffffffffffffffff1673ffffffffffffffffffffffffffffffffffffffff16815260200190815260200160002060000160008282540192505081905550806003015481600101543402811515611e4a57fe5b048160060160003373ffffffffffffffffffffffffffffffffffffffff1673ffffffffffffffffffffffffffffffffffffffff168152602001908152602001600020600101600082825401925050819055503481600201600082825401925050819055508060030154816002015411151515611ec557600080fd5b60018160050160006101000a81548160ff02191690836009811115611ee657fe5b02179055507ff23535b611e241241be37f692048361bedbc808b0927fc26e4744e36e006f6f5838260050160009054906101000a900460ff16836002015484600101548660405180868152602001856009811115611f4057fe5b60ff16815260200184815260200183815260200182600019166000191681526020019550505050505060405180910390a1505050565b60008260008082815481101515611f8957fe5b906000526020600020906009020160060160003373ffffffffffffffffffffffffffffffffffffffff1673ffffffffffffffffffffffffffffffffffffffff1681526020019081526020016000206000015411806120525750600081815481101515611ff157fe5b906000526020600020906009020160000160009054906101000a900473ffffffffffffffffffffffffffffffffffffffff1673ffffffffffffffffffffffffffffffffffffffff163373ffffffffffffffffffffffffffffffffffffffff16145b151561205d57600080fd5b60008481548110151561206c57fe5b906000526020600020906009020191506001600981111561208957fe5b8260050160009054906101000a900460ff1660098111156120a657fe5b1480156120b95750600182600401540242115b15156120c457600080fd5b60048260050160006101000a81548160ff021916908360098111156120e557fe5b02179055507fdd5cca0ed14df7fe4d86a947c4d84d85f3452e2efb41917d285c1d5a8b41f8d3848360050160009054906101000a900460ff1684600201548560010154876040518086815260200185600981111561213f57fe5b60ff16815260200184815260200183815260200182600019166000191681526020019550505050505060405180910390a150505050565b60008060008060008581548110151561218b57fe5b906000526020600020906009020193508360000160009054906101000a900473ffffffffffffffffffffffffffffffffffffffff1673ffffffffffffffffffffffffffffffffffffffff166108fc85600101549081150290604051600060405180830381858888f19350505050151561220357600080fd5b60008460010181905550600092505b836007018054905083101561231e57836007018381548110151561223257fe5b906000526020600020900160009054906101000a900473ffffffffffffffffffffffffffffffffffffffff1691508360060160008373ffffffffffffffffffffffffffffffffffffffff1673ffffffffffffffffffffffffffffffffffffffff1681526020019081526020016000209050806000015484600201600082825403925050819055508173ffffffffffffffffffffffffffffffffffffffff166108fc82600001549081150290604051600060405180830381858888f1935050505015156122fd57600080fd5b60008160000181905550600081600101819055508280600101935050612212565b5050505050565b6000806000808581548110151561233857fe5b90600052602060002090600902019150600090505b81600801805490508110156123e2578373ffffffffffffffffffffffffffffffffffffffff16826008018281548110151561238457fe5b906000526020600020900160009054906101000a900473ffffffffffffffffffffffffffffffffffffffff1673ffffffffffffffffffffffffffffffffffffffff1614156123d557600192506123e3565b808060010191505061234d565b5b505092915050565b61012060405190810160405280600073ffffffffffffffffffffffffffffffffffffffff168152602001600081526020016000815260200160008152602001600081526020016000600981111561243e57fe5b8152602001600060ff168152602001612455612550565b8152602001612462612550565b81525090565b815481835581811511612495576009028160090283600052602060002091820191016124949190612564565b5b505050565b828054828255906000526020600020908101928215612513579160200282015b828111156125125782518260006101000a81548173ffffffffffffffffffffffffffffffffffffffff021916908373ffffffffffffffffffffffffffffffffffffffff160217905550916020019190600101906124ba565b5b5090506125209190612612565b5090565b81548183558181151161254b5781836000526020600020918201910161254a9190612655565b5b505050565b602060405190810160405280600081525090565b61260f91905b8082111561260b57600080820160006101000a81549073ffffffffffffffffffffffffffffffffffffffff021916905560018201600090556002820160009055600382016000905560048201600090556005820160006101000a81549060ff02191690556005820160016101000a81549060ff02191690556007820160006125f2919061267a565b600882016000612602919061267a565b5060090161256a565b5090565b90565b61265291905b8082111561264e57600081816101000a81549073ffffffffffffffffffffffffffffffffffffffff021916905550600101612618565b5090565b90565b61267791905b8082111561267357600081600090555060010161265b565b5090565b90565b50805460008255906000526020600020908101906126989190612655565b505600a165627a7a72305820b652d74e3e03c859a15dc1ef3aab78d7f96782070e40202882afe454c1b5180b0029",
  "source": "pragma solidity ^0.4.18;\n\ncontract BettingHandshake {\n    struct Betor {\n        uint value;\n        uint winValue;\n    }\n\n    enum S { Inited, Shaked, Closed, Cancelled, InitiatorWon, BetorWon, Draw, Accepted, Rejected, Done }\n\n    struct Bet {\n        address initiator;\n        uint escrow;  \n        uint balance;\n        uint goal;\n        uint deadline;\n\n        S state;\n        uint8 result;\n        mapping(address => Betor) betors;\n        address[] addresses;\n        address[] acceptors;\n    }\n\n    Bet[] public bets;\n    address public referee;\n    uint public reviewWindow = 3 days;\n    uint public rejectWindow = 1 days;\n\n    function BettingHandshake() public {\n        referee = msg.sender;\n    } \n\n    modifier onlyInitiator(uint hid) {\n        require(msg.sender == bets[hid].initiator);\n        _;\n    }\n\n    modifier onlyBetor(uint hid) {\n        require(bets[hid].betors[msg.sender].value > 0);\n        _;\n    }\n\n    modifier initiatorOrBetors(uint hid) {\n        require(bets[hid].betors[msg.sender].value > 0 || msg.sender == bets[hid].initiator);\n        _;\n    }\n\n    modifier onlyReferee() {\n        require(msg.sender == referee);\n        _;\n    }\n\n    event __init(uint hid, S state, uint balance, uint escrow, bytes32 offchain); \n\n    /**\n     * @dev Create a new bet.\n     * @param acceptors address of users will receive bet.\n     * @param goal amount money (in Wei) of users join bet.\n     * @param escrow money (in Wei) of initor.\n     * @param deadline duration (in seconds) event happen.\n     * @param offchain key to the offchain database.\n     */\n    function initBet(address[] acceptors, uint goal, uint escrow, uint deadline, bytes32 offchain) public payable {\n        // require(msg.value == escrow);\n\n        Bet memory b;\n        b.initiator = msg.sender;\n        b.goal = goal; \n        b.escrow = escrow;\n        b.deadline = now + deadline * 1 seconds;\n        b.state = S.Inited;\n        b.acceptors = acceptors;\n        \n        bets.push(b);\n        __init(bets.length - 1, S.Inited, b.balance, b.escrow, offchain);\n    }\n\n    event __shake(uint hid, S state, uint balance, uint escrow, bytes32 offchain);\n\n    // Payer join bet\n    function shake(uint hid, bytes32 offchain) public payable {\n        Bet storage b = bets[hid];\n        require((b.state == S.Inited || b.state == S.Shaked) && msg.value > 0 && now < b.deadline);\n\n        if (b.acceptors.length != 0) {\n            require(isValidAcceptor(hid, msg.sender) == true);\n        }\n\n        if (b.betors[msg.sender].value == 0) {\n            b.addresses.push(msg.sender);\n        }\n        \n        b.betors[msg.sender].value += msg.value;\n        b.betors[msg.sender].winValue += ((msg.value * b.escrow) / b.goal);\n        b.balance += msg.value;\n        require(b.balance <= b.goal);\n        \n        b.state = S.Shaked;\n        __shake(hid, b.state, b.balance, b.escrow, offchain);\n    }\n\n    event __cancelBet(uint hid, S state, uint balance, uint escrow, bytes32 offchain);\n\n    //  both of initiator or betor can cancel bet if time exceed review window\n    function cancelBet(uint hid, bytes32 offchain) public initiatorOrBetors(hid) {\n        Bet storage b = bets[hid];\n        require(now >= b.deadline + reviewWindow && b.state == S.Shaked);\n\n        b.state = S.Cancelled;\n        returnMoney(hid);\n\n        __cancelBet(hid, b.state, b.balance, b.escrow, offchain);\n    }\n\n    event __closeBet(uint hid, S state, uint balance, uint escrow, bytes32 offchain);\n\n    // Initiator close bet\n    function closeBet(uint hid, bytes32 offchain) public onlyInitiator(hid) {\n        Bet storage b = bets[hid];\n        require(b.balance < b.goal);\n        if (b.addresses.length == 0 && b.state == S.Inited) {\n            msg.sender.transfer(b.escrow);\n            b.escrow = 0; \n            b.state = S.Closed;\n\n        } else if(b.state == S.Shaked) {\n            uint remainingMoney = b.escrow - ((b.balance * b.escrow) / b.goal);\n            b.escrow -= remainingMoney;\n            b.goal = b.balance;\n            msg.sender.transfer(remainingMoney);\n        }\n        \n        __closeBet(hid, b.state, b.balance, b.escrow, offchain);\n    }\n\n    event __initiatorWon(uint hid, S state, uint balance, uint escrow, bytes32 offchain); \n  \n    function initiatorWon(uint hid, bytes32 offchain) public initiatorOrBetors(hid) {\n        Bet storage b = bets[hid]; \n        require(b.state == S.Shaked && now > b.deadline * 1 seconds); \n        b.state = S.InitiatorWon; \n\n        __initiatorWon(hid, b.state, b.balance, b.escrow, offchain);\n    }\n\n    event __betorWon(uint hid, S state, uint balance, uint escrow, bytes32 offchain); \n\n    function betorWon(uint hid, bytes32 offchain) public initiatorOrBetors(hid) {\n        Bet storage b = bets[hid]; \n        require(b.state == S.Shaked && now > b.deadline * 1 seconds);\n        b.state = S.BetorWon;\n\n        __betorWon(hid, b.state, b.balance, b.escrow, offchain);\n    }\n\n    event __draw(uint hid, S state, uint balance, uint escrow, bytes32 offchain); \n\n    function draw(uint hid, bytes32 offchain) public initiatorOrBetors(hid) {\n        Bet storage b = bets[hid]; \n        require(b.state == S.Shaked && now > b.deadline * 1 seconds); \n        b.state = S.Draw;\n\n        __draw(hid, b.state, b.balance, b.escrow, offchain);\n    }\n\n    event __withdraw(uint hid, S state, uint balance, uint escrow, bytes32 offchain);\n\n    function withdraw(uint hid, bytes32 offchain) public initiatorOrBetors(hid) {\n        Bet storage b = bets[hid]; \n        require(now > b.deadline + rejectWindow); \n\n        if (b.state >= S.InitiatorWon && b.state <= S.Draw) {\n            b.result = uint8(b.state);\n            b.state = S.Accepted;\n        }\n        require(b.state == S.Accepted);\n\n        if (b.result == uint8(S.InitiatorWon)) {\n            if(b.initiator == msg.sender && b.escrow > 0) {\n                b.initiator.transfer(b.escrow + b.balance);\n                b.escrow = 0;\n                b.balance = 0;\n            }\n            \n        } else if (b.result == uint8(S.BetorWon)) {\n            if (b.betors[msg.sender].value > 0) {\n                if(b.balance > 0) {\n                    Betor storage p = b.betors[msg.sender];\n                    b.escrow -= p.winValue;\n                    b.balance -= p.value;\n                    msg.sender.transfer(p.winValue);\n                    p.value = 0;\n                    p.winValue = 0;\n                }\n            }\n            \n        } else if (b.result == uint8(S.Draw)) { \n            if(b.initiator == msg.sender && b.escrow > 0) {\n                b.initiator.transfer(b.escrow);\n                b.escrow = 0;\n                \n            } else if (b.betors[msg.sender].value > 0) {\n                if(b.balance > 0) {\n                    Betor storage p1 = b.betors[msg.sender];\n                    b.balance -= p1.value;\n                    msg.sender.transfer(p1.value);\n                    p1.value = 0;\n                    p1.winValue = 0;\n                }\n            }\n        }\n\n        if (b.balance == 0 && b.escrow == 0) {\n            b.state = S.Done;   \n        }\n\n        __withdraw(hid, b.state, b.balance, b.escrow, offchain);\n    }\n\n    event __reject(uint hid, S state, uint balance, uint escrow, bytes32 offchain);\n\n    function reject(uint hid, bytes32 offchain) public initiatorOrBetors(hid) {\n        Bet storage b = bets[hid]; \n        require(b.state >= S.InitiatorWon && b.state <= S.Draw); \n\n        b.state = S.Rejected;\n        __reject(hid, b.state, b.balance, b.escrow, offchain);\n    }\n\n    event __setWinner(uint hid, S state, uint balance, uint escrow, bytes32 offchain);\n\n    // referee will set the winner if there is a dispute    \n    function setWinner(uint hid, uint8 result, bytes32 offchain) public onlyReferee() {\n        Bet storage b = bets[hid];\n        require(b.state == S.Rejected && result >= uint8(S.InitiatorWon) && result <= uint8(S.Draw));\n        b.state = S.Accepted;\n        b.result = result;\n        __setWinner(hid, b.state, b.balance, b.escrow, offchain);\n    }\n    \n    function sendMoneyToInitiator(uint hid) private {\n        Bet storage b = bets[hid];\n        b.initiator.transfer(b.escrow + b.balance);\n        b.escrow = 0;\n        b.balance = 0;\n    }\n    \n    function sendMoneyToBetors(uint hid) private {\n        Bet storage b = bets[hid];\n        for (uint index = 0; index < b.addresses.length; index++) {\n            address betor = b.addresses[index];\n            Betor storage p = b.betors[betor];\n            b.escrow -= p.winValue;\n            b.balance -= p.value;\n            betor.transfer(p.winValue);\n            p.value = 0;\n            p.winValue = 0;\n        }\n\n        if (b.escrow > 0) {\n            b.initiator.transfer(b.escrow);\n            b.escrow = 0;\n        }\n    }\n    \n    function returnMoney(uint hid) private {\n        Bet storage b = bets[hid];\n        b.initiator.transfer(b.escrow);\n        b.escrow = 0;\n        for (uint index = 0; index < b.addresses.length; index++) {\n            address betor = b.addresses[index];\n            Betor storage p = b.betors[betor];\n            b.balance -= p.value;\n            betor.transfer(p.value);\n            p.value = 0;\n            p.winValue = 0;\n        }\n    }\n\n    function isValidAcceptor(uint hid, address acceptor) private view returns (bool value) {\n        Bet storage b = bets[hid];\n        for (uint index = 0; index < b.acceptors.length; index++) {\n            if (b.acceptors[index] == acceptor) {\n                value = true;\n                return;\n            }\n        }\n    }\n\n    function getWinValue(uint hid) public view returns (uint) {\n        Bet storage b = bets[hid];\n        if (msg.sender == b.initiator) {\n            return b.balance;\n        }\n        return b.betors[msg.sender].winValue;\n    }\n}",
  "sourcePath": "/Workspace/robotbase/crypto/handshake-protocol/contracts/BettingHandshake.sol",
  "compiler": {
    "name": "solc",
    "version": "0.4.19+commit.c4cbbb05.Emscripten.clang"
  },
  "schemaVersion": "2.0.0",
  "updatedAt": "2018-05-28T14:25:38.361Z"
}