{
  "contractName": "BettingHandshake",
  "abi": [
    {
      "constant": true,
      "inputs": [
        {
          "name": "",
          "type": "uint256"
        }
      ],
      "name": "bets",
      "outputs": [
        {
          "name": "payee",
          "type": "address"
        },
        {
          "name": "escrow",
          "type": "uint256"
        },
        {
          "name": "balance",
          "type": "uint256"
        },
        {
          "name": "goal",
          "type": "uint256"
        },
        {
          "name": "deadline",
          "type": "uint256"
        },
        {
          "name": "state",
          "type": "uint8"
        }
      ],
      "payable": false,
      "stateMutability": "view",
      "type": "function"
    },
    {
      "constant": true,
      "inputs": [],
      "name": "referee",
      "outputs": [
        {
          "name": "",
          "type": "address"
        }
      ],
      "payable": false,
      "stateMutability": "view",
      "type": "function"
    },
    {
      "inputs": [],
      "payable": false,
      "stateMutability": "nonpayable",
      "type": "constructor"
    },
    {
      "anonymous": false,
      "inputs": [
        {
          "indexed": false,
          "name": "hid",
          "type": "uint256"
        },
        {
          "indexed": false,
          "name": "state",
          "type": "uint8"
        },
        {
          "indexed": false,
          "name": "offchain",
          "type": "bytes32"
        }
      ],
      "name": "__init",
      "type": "event"
    },
    {
      "anonymous": false,
      "inputs": [
        {
          "indexed": false,
          "name": "hid",
          "type": "uint256"
        },
        {
          "indexed": false,
          "name": "state",
          "type": "uint8"
        },
        {
          "indexed": false,
          "name": "balance",
          "type": "uint256"
        },
        {
          "indexed": false,
          "name": "offchain",
          "type": "bytes32"
        }
      ],
      "name": "__shake",
      "type": "event"
    },
    {
      "anonymous": false,
      "inputs": [
        {
          "indexed": false,
          "name": "hid",
          "type": "uint256"
        },
        {
          "indexed": false,
          "name": "state",
          "type": "uint8"
        },
        {
          "indexed": false,
          "name": "offchain",
          "type": "bytes32"
        }
      ],
      "name": "__cancel",
      "type": "event"
    },
    {
      "anonymous": false,
      "inputs": [
        {
          "indexed": false,
          "name": "hid",
          "type": "uint256"
        },
        {
          "indexed": false,
          "name": "escrow",
          "type": "uint256"
        },
        {
          "indexed": false,
          "name": "offchain",
          "type": "bytes32"
        }
      ],
      "name": "__withdraw",
      "type": "event"
    },
    {
      "anonymous": false,
      "inputs": [
        {
          "indexed": false,
          "name": "hid",
          "type": "uint256"
        },
        {
          "indexed": false,
          "name": "fee",
          "type": "uint256"
        },
        {
          "indexed": false,
          "name": "offchain",
          "type": "bytes32"
        }
      ],
      "name": "__setWinner",
      "type": "event"
    },
    {
      "constant": true,
      "inputs": [
        {
          "name": "hid",
          "type": "uint256"
        }
      ],
      "name": "getState",
      "outputs": [
        {
          "name": "",
          "type": "uint8"
        }
      ],
      "payable": false,
      "stateMutability": "view",
      "type": "function"
    },
    {
      "constant": false,
      "inputs": [
        {
          "name": "goal",
          "type": "uint256"
        },
        {
          "name": "escrow",
          "type": "uint256"
        },
        {
          "name": "deadline",
          "type": "uint256"
        },
        {
          "name": "offchain",
          "type": "bytes32"
        }
      ],
      "name": "initBet",
      "outputs": [],
      "payable": true,
      "stateMutability": "payable",
      "type": "function"
    },
    {
      "constant": false,
      "inputs": [
        {
          "name": "hid",
          "type": "uint256"
        },
        {
          "name": "offchain",
          "type": "bytes32"
        }
      ],
      "name": "shake",
      "outputs": [],
      "payable": true,
      "stateMutability": "payable",
      "type": "function"
    },
    {
      "constant": false,
      "inputs": [
        {
          "name": "hid",
          "type": "uint256"
        },
        {
          "name": "offchain",
          "type": "bytes32"
        }
      ],
      "name": "cancel",
      "outputs": [],
      "payable": false,
      "stateMutability": "nonpayable",
      "type": "function"
    },
    {
      "constant": false,
      "inputs": [
        {
          "name": "hid",
          "type": "uint256"
        },
        {
          "name": "offchain",
          "type": "bytes32"
        }
      ],
      "name": "withdraw",
      "outputs": [],
      "payable": false,
      "stateMutability": "nonpayable",
      "type": "function"
    },
    {
      "constant": false,
      "inputs": [
        {
          "name": "hid",
          "type": "uint256"
        },
        {
          "name": "result",
          "type": "uint8"
        },
        {
          "name": "offchain",
          "type": "bytes32"
        }
      ],
      "name": "setWinner",
      "outputs": [],
      "payable": false,
      "stateMutability": "nonpayable",
      "type": "function"
    },
    {
      "constant": true,
      "inputs": [
        {
          "name": "hid",
          "type": "uint256"
        }
      ],
      "name": "getWinValue",
      "outputs": [
        {
          "name": "",
          "type": "uint256"
        }
      ],
      "payable": false,
      "stateMutability": "view",
      "type": "function"
    },
    {
      "constant": true,
      "inputs": [
        {
          "name": "hid",
          "type": "uint256"
        }
      ],
      "name": "getBetBalance",
      "outputs": [
        {
          "name": "",
          "type": "uint256"
        },
        {
          "name": "",
          "type": "uint256"
        }
      ],
      "payable": false,
      "stateMutability": "view",
      "type": "function"
    },
    {
      "constant": true,
      "inputs": [],
      "name": "getBets",
      "outputs": [
        {
          "name": "",
          "type": "uint256"
        }
      ],
      "payable": false,
      "stateMutability": "view",
      "type": "function"
    }
  ],
  "bytecode": "0x608060405234801561001057600080fd5b5033600160006101000a81548173ffffffffffffffffffffffffffffffffffffffff021916908373ffffffffffffffffffffffffffffffffffffffff1602179055506115d7806100616000396000f3006080604052600436106100af576000357c0100000000000000000000000000000000000000000000000000000000900463ffffffff16806322af00fa146100b45780633b1bebd11461015257806344c9af28146101a9578063855ca0ae146101f8578063878716be14610240578063a5ca03b214610288578063a6afd5fd146102c9578063a8d2021a146102f4578063b09b2f851461032f578063cb61e5791461035d578063eafb64d51461039f575b600080fd5b3480156100c057600080fd5b506100df600480360381019080803590602001909291905050506103da565b604051808773ffffffffffffffffffffffffffffffffffffffff1673ffffffffffffffffffffffffffffffffffffffff16815260200186815260200185815260200184815260200183815260200182600381111561013957fe5b60ff168152602001965050505050505060405180910390f35b34801561015e57600080fd5b50610167610452565b604051808273ffffffffffffffffffffffffffffffffffffffff1673ffffffffffffffffffffffffffffffffffffffff16815260200191505060405180910390f35b3480156101b557600080fd5b506101d460048036038101908080359060200190929190505050610478565b604051808260038111156101e457fe5b60ff16815260200191505060405180910390f35b34801561020457600080fd5b50610223600480360381019080803590602001909291905050506104ae565b604051808381526020018281526020019250505060405180910390f35b34801561024c57600080fd5b5061028660048036038101908080359060200190929190803560ff16906020019092919080356000191690602001909291905050506104ff565b005b34801561029457600080fd5b506102b3600480360381019080803590602001909291905050506106d6565b6040518082815260200191505060405180910390f35b3480156102d557600080fd5b506102de61073f565b6040518082815260200191505060405180910390f35b34801561030057600080fd5b5061032d60048036038101908080359060200190929190803560001916906020019092919050505061074b565b005b61035b6004803603810190808035906020019092919080356000191690602001909291905050506108f4565b005b61039d6004803603810190808035906020019092919080359060200190929190803590602001909291908035600019169060200190929190505050610bd6565b005b3480156103ab57600080fd5b506103d8600480360381019080803590602001909291908035600019169060200190929190505050610e01565b005b6000818154811015156103e957fe5b90600052602060002090600802016000915090508060000160009054906101000a900473ffffffffffffffffffffffffffffffffffffffff16908060010154908060020154908060030154908060040154908060050160009054906101000a900460ff16905086565b600160009054906101000a900473ffffffffffffffffffffffffffffffffffffffff1681565b6000808281548110151561048857fe5b906000526020600020906008020160050160009054906101000a900460ff169050919050565b6000806000838154811015156104c057fe5b9060005260206000209060080201600701805490506000848154811015156104e457fe5b90600052602060002090600802016002015491509150915091565b600080600160009054906101000a900473ffffffffffffffffffffffffffffffffffffffff1673ffffffffffffffffffffffffffffffffffffffff163373ffffffffffffffffffffffffffffffffffffffff1614151561055e57600080fd5b60008581548110151561056d57fe5b906000526020600020906008020191506001600381111561058a57fe5b8260050160009054906101000a900460ff1660038111156105a757fe5b1480156105c65750600060028111156105bc57fe5b60ff168460ff1610155b80156105e357506002808111156105d957fe5b60ff168460ff1611155b15156105ee57600080fd5b60009050600060028111156105ff57fe5b60ff168460ff16141561061c5761061585610fef565b9050610651565b6001600281111561062957fe5b60ff168460ff1614156106465761063f856110ac565b9050610650565b61064f85611281565b5b5b61065a81611409565b60038260050160006101000a81548160ff0219169083600381111561067b57fe5b02179055507fbb8aa5b2d4713ead4f8144b4a4dd3496e17b4ac12dc08d6e3ff26f8accef21bf858285604051808481526020018381526020018260001916600019168152602001935050505060405180910390a15050505050565b600080828154811015156106e657fe5b906000526020600020906008020160060160003373ffffffffffffffffffffffffffffffffffffffff1673ffffffffffffffffffffffffffffffffffffffff168152602001908152602001600020600101549050919050565b60008080549050905090565b6000808360008181548110151561075e57fe5b906000526020600020906008020160000160009054906101000a900473ffffffffffffffffffffffffffffffffffffffff1673ffffffffffffffffffffffffffffffffffffffff163373ffffffffffffffffffffffffffffffffffffffff161415156107c957600080fd5b6000858154811015156107d857fe5b90600052602060002090600802019250600160038111156107f557fe5b8360050160009054906101000a900460ff16600381111561081257fe5b148015610826575082600301548360020154105b151561083157600080fd5b8260030154836001015484600201540281151561084a57fe5b0483600101540391503373ffffffffffffffffffffffffffffffffffffffff166108fc839081150290604051600060405180830381858888f19350505050158015610899573d6000803e3d6000fd5b507fdadf2568e29c3e88d78dc144bd8a1aa52a110f4619f964f33b1889b3eff4de0585846001015486604051808481526020018381526020018260001916600019168152602001935050505060405180910390a15050505050565b6000808381548110151561090457fe5b906000526020600020906008020190506002600381111561092157fe5b8160050160009054906101000a900460ff16600381111561093e57fe5b14158015610973575060038081111561095357fe5b8160050160009054906101000a900460ff16600381111561097057fe5b14155b801561097f5750600034115b801561098e5750806004015442105b151561099957600080fd5b60008160060160003373ffffffffffffffffffffffffffffffffffffffff1673ffffffffffffffffffffffffffffffffffffffff168152602001908152602001600020600001541415610a4f57806007013390806001815401808255809150509060018203906000526020600020016000909192909190916101000a81548173ffffffffffffffffffffffffffffffffffffffff021916908373ffffffffffffffffffffffffffffffffffffffff160217905550505b348160060160003373ffffffffffffffffffffffffffffffffffffffff1673ffffffffffffffffffffffffffffffffffffffff16815260200190815260200160002060000160008282540192505081905550806003015481600101543402811515610ab657fe5b048160060160003373ffffffffffffffffffffffffffffffffffffffff1673ffffffffffffffffffffffffffffffffffffffff168152602001908152602001600020600101600082825401925050819055503481600201600082825401925050819055508060030154816002015411151515610b3157600080fd5b60018160050160006101000a81548160ff02191690836003811115610b5257fe5b02179055507f4b01ba75f4516c27f88e663890c3c0a2186ba3bd58df392921c15182779c65f6838260050160009054906101000a900460ff1683600201548560405180858152602001846003811115610ba757fe5b60ff168152602001838152602001826000191660001916815260200194505050505060405180910390a1505050565b610bde61147f565b8334141515610bec57600080fd5b33816000019073ffffffffffffffffffffffffffffffffffffffff16908173ffffffffffffffffffffffffffffffffffffffff1681525050848160600181815250508381602001818152505060008160400181815250506000604051908082528060200260200182016040528015610c735781602001602082028038833980820191505090505b508160c0018190525060018302420181608001818152505060008160a001906003811115610c9d57fe5b90816003811115610caa57fe5b815250506000819080600181540180825580915050906001820390600052602060002090600802016000909192909190915060008201518160000160006101000a81548173ffffffffffffffffffffffffffffffffffffffff021916908373ffffffffffffffffffffffffffffffffffffffff1602179055506020820151816001015560408201518160020155606082015181600301556080820151816004015560a08201518160050160006101000a81548160ff02191690836003811115610d6f57fe5b021790555060c0820151816007019080519060200190610d909291906114de565b505050507f584229930f00ad9fc2fa6226de458c932992a17ad3ee07e425a6d62178ece0cb60016000805490500360008460405180848152602001836003811115610dd757fe5b60ff1681526020018260001916600019168152602001935050505060405180910390a15050505050565b600082600081815481101515610e1357fe5b906000526020600020906008020160000160009054906101000a900473ffffffffffffffffffffffffffffffffffffffff1673ffffffffffffffffffffffffffffffffffffffff163373ffffffffffffffffffffffffffffffffffffffff16141515610e7e57600080fd5b600084815481101515610e8d57fe5b9060005260206000209060080201915060006003811115610eaa57fe5b8260050160009054906101000a900460ff166003811115610ec757fe5b148015610edb575060008260070180549050145b1515610ee657600080fd5b8160000160009054906101000a900473ffffffffffffffffffffffffffffffffffffffff1673ffffffffffffffffffffffffffffffffffffffff166108fc83600101549081150290604051600060405180830381858888f19350505050158015610f54573d6000803e3d6000fd5b5060028260050160006101000a81548160ff02191690836003811115610f7657fe5b02179055507f2c14f956ce5485dce5b0eee9b6b9dc06b40742167e9eda85e72d5ff3a0f506ac848360050160009054906101000a900460ff168560405180848152602001836003811115610fc657fe5b60ff1681526020018260001916600019168152602001935050505060405180910390a150505050565b60008060008060008581548110151561100457fe5b906000526020600020906008020192506064836002015481151561102457fe5b0491508183600201548460010154010390508260000160009054906101000a900473ffffffffffffffffffffffffffffffffffffffff1673ffffffffffffffffffffffffffffffffffffffff166108fc829081150290604051600060405180830381858888f193505050501580156110a0573d6000803e3d6000fd5b50819350505050919050565b600080600080600080600080888154811015156110c557fe5b9060005260206000209060080201955060009450600093505b85600701805490508410156111f65785600701848154811015156110fe57fe5b9060005260206000200160009054906101000a900473ffffffffffffffffffffffffffffffffffffffff1692508560060160008473ffffffffffffffffffffffffffffffffffffffff1673ffffffffffffffffffffffffffffffffffffffff16815260200190815260200160002091506064826001015481151561117e57fe5b04850194508482600101540390508273ffffffffffffffffffffffffffffffffffffffff166108fc829081150290604051600060405180830381858888f193505050501580156111d2573d6000803e3d6000fd5b508160010154866001016000828254039250508190555083806001019450506110de565b600086600101541115611273578560000160009054906101000a900473ffffffffffffffffffffffffffffffffffffffff1673ffffffffffffffffffffffffffffffffffffffff166108fc87600101549081150290604051600060405180830381858888f19350505050158015611271573d6000803e3d6000fd5b505b849650505050505050919050565b60008060008060008581548110151561129657fe5b906000526020600020906008020193508360000160009054906101000a900473ffffffffffffffffffffffffffffffffffffffff1673ffffffffffffffffffffffffffffffffffffffff166108fc85600101549081150290604051600060405180830381858888f19350505050158015611314573d6000803e3d6000fd5b50600092505b836007018054905083101561140257836007018381548110151561133a57fe5b9060005260206000200160009054906101000a900473ffffffffffffffffffffffffffffffffffffffff1691508360060160008373ffffffffffffffffffffffffffffffffffffffff1673ffffffffffffffffffffffffffffffffffffffff16815260200190815260200160002090508173ffffffffffffffffffffffffffffffffffffffff166108fc82600001549081150290604051600060405180830381858888f193505050501580156113f4573d6000803e3d6000fd5b50828060010193505061131a565b5050505050565b600081111561147c57600160009054906101000a900473ffffffffffffffffffffffffffffffffffffffff1673ffffffffffffffffffffffffffffffffffffffff166108fc829081150290604051600060405180830381858888f1935050505015801561147a573d6000803e3d6000fd5b505b50565b60e060405190810160405280600073ffffffffffffffffffffffffffffffffffffffff16815260200160008152602001600081526020016000815260200160008152602001600060038111156114d157fe5b8152602001606081525090565b828054828255906000526020600020908101928215611557579160200282015b828111156115565782518260006101000a81548173ffffffffffffffffffffffffffffffffffffffff021916908373ffffffffffffffffffffffffffffffffffffffff160217905550916020019190600101906114fe565b5b5090506115649190611568565b5090565b6115a891905b808211156115a457600081816101000a81549073ffffffffffffffffffffffffffffffffffffffff02191690555060010161156e565b5090565b905600a165627a7a72305820abb37bfd55a28ce946cf90a18782341f63b962d3082d4739b37bb8ba6ff4b6cf0029",
  "source": "pragma solidity ^0.4.18;\n\ncontract BettingHandshake {\n    struct Payer {\n        uint value;\n        uint winValue;\n    }\n\n    enum S { Inited, Shaked, Cancelled, Done }\n    enum Result { HomeWin, AwayWin, Draw }\n\n    struct Bet {\n        address payee;\n        uint escrow;  \n        uint balance;\n        uint goal;\n        uint deadline;\n\n        S state;\n        mapping(address => Payer) payers;\n        address[] addresses;\n    }\n\n    Bet[] public bets;\n    address public referee;\n\n    function BettingHandshake() public {\n        referee = msg.sender;\n    } \n\n    modifier onlyPayee(uint hid) {\n        require(msg.sender == bets[hid].payee);\n        _;\n    }\n\n    modifier onlyPayer(uint hid) {\n        require(bets[hid].payers[msg.sender].value > 0);\n        _;\n    }\n\n    modifier onlyReferee() {\n        require(msg.sender == referee);\n        _;\n    }\n\n    function getState(uint hid) public view returns (S) {\n        return bets[hid].state;\n    }\n\n    event __init(uint hid, S state, bytes32 offchain); \n\n\n    /**\n     * @dev Create a new bet.\n     * @param goal money (in Wei) of payers to fund of bet .\n     * @param escrow money (in Wei) for user to fund the bet.\n     * @param deadline duration (in seconds) to distribute the fund to the bet creator.\n     * @param offchain key to the offchain database.\n     */\n    function initBet(uint goal, uint escrow, uint deadline, bytes32 offchain) public payable {\n        require(msg.value == escrow);\n\n        Bet memory b;\n        b.payee = msg.sender;\n        b.goal = goal;\n        b.escrow = escrow;\n        b.balance = 0;\n        b.addresses = new address[](0);\n        b.deadline = now + deadline * 1 seconds;\n        b.state = S.Inited;\n        \n        bets.push(b);\n        __init(bets.length - 1, S.Inited, offchain);\n    }\n\n    event __shake(uint hid, S state, uint balance, bytes32 offchain);\n\n    // payer accept bet\n    function shake(uint hid, bytes32 offchain) public payable {\n        Bet storage b = bets[hid];\n        require(b.state != S.Cancelled && b.state != S.Done && msg.value > 0 && now < b.deadline);\n        if (b.payers[msg.sender].value == 0) {\n            b.addresses.push(msg.sender);\n        }\n        b.payers[msg.sender].value += msg.value;\n        b.payers[msg.sender].winValue += ((msg.value * b.escrow) / b.goal);\n        b.balance += msg.value;\n        require(b.balance <= b.goal);\n        \n        b.state = S.Shaked;\n        __shake(hid, b.state, b.balance, offchain);\n    }\n\n    event __cancel(uint hid, S state, bytes32 offchain);\n\n    // payee cancel bet if there is no any payer\n    function cancel(uint hid, bytes32 offchain) public onlyPayee(hid) {\n        Bet storage b = bets[hid];\n        require(b.state == S.Inited && b.addresses.length == 0);\n        b.payee.transfer(b.escrow);\n\n        b.state = S.Cancelled;\n        __cancel(hid, b.state, offchain);\n    }\n\n    event __withdraw(uint hid, uint escrow, bytes32 offchain);\n    \n    function withdraw(uint hid, bytes32 offchain) public onlyPayee(hid) {\n        Bet storage b = bets[hid];\n        require(b.state == S.Shaked && b.balance < b.goal);\n\n        uint remainingMoney = b.escrow - ((b.balance * b.escrow) / b.goal);\n        msg.sender.transfer(remainingMoney);\n\n        __withdraw(hid, b.escrow, offchain);\n    }\n\n    event __setWinner(uint hid, uint fee, bytes32 offchain);\n\n    function setWinner(uint hid, uint8 result, bytes32 offchain) public onlyReferee() {\n        Bet storage b = bets[hid];\n        require(b.state == S.Shaked && result >= uint8(Result.HomeWin) && result <= uint8(Result.Draw));\n        uint fee = 0;\n\n        if (result == uint8(Result.HomeWin)) {\n            fee = homeWin(hid);\n            \n        } else if (result == uint8(Result.AwayWin)) {\n            fee = awayWin(hid);\n            \n        } else { \n            draw(hid);\n        }\n        \n        sendFee(fee);\n        b.state = S.Done;\n        __setWinner(hid, fee, offchain);\n    }\n    \n    function homeWin(uint hid) private returns (uint) {\n        Bet storage b = bets[hid];\n        uint fee = b.balance / 100;\n        uint remainingMoney = b.escrow + b.balance - fee;\n        b.payee.transfer(remainingMoney);\n        return fee;\n    }\n    \n    function awayWin(uint hid) private returns (uint) {\n        Bet storage b = bets[hid];\n        uint fee = 0;\n        for (uint index = 0; index < b.addresses.length; index++) {\n            address payer = b.addresses[index];\n            Payer storage p = b.payers[payer];\n            \n            fee += p.winValue / 100;\n            uint remainingMoney = p.winValue - fee;\n            payer.transfer(remainingMoney);\n            b.escrow -= p.winValue;\n        }\n\n        if (b.escrow > 0) {\n            b.payee.transfer(b.escrow);\n        }\n        return fee;\n    }\n    \n    function draw(uint hid) private {\n        Bet storage b = bets[hid];\n        b.payee.transfer(b.escrow);\n        for (uint index = 0; index < b.addresses.length; index++) {\n            address payer = b.addresses[index];\n            Payer storage p = b.payers[payer];\n            payer.transfer(p.value);\n        }\n    }\n    \n    function sendFee(uint total) private {\n        if (total > 0) {\n            referee.transfer(total);\n        }\n    }\n\n    function getWinValue(uint hid) public view returns (uint) {\n        return bets[hid].payers[msg.sender].winValue;\n    }\n\n    function getBetBalance(uint hid) public view returns (uint, uint) {\n        return (bets[hid].addresses.length, bets[hid].balance);\n    }\n\n    function getBets() public view returns (uint) {\n        return bets.length;\n    }\n}",
  "sourcePath": "/Users/Phuong_Mac/Dropbox/autonomous/handshake/contracts/core/BettingHandshake.sol",
  "compiler": {
    "name": "solc",
    "version": "0.4.23+commit.124ca40d.Emscripten.clang"
  },
  "schemaVersion": "2.0.0",
  "updatedAt": "2018-05-17T04:37:32.663Z"
}