{
  "contractName": "BettingHandshake",
  "abi": [
    {
      "constant": true,
      "inputs": [
        {
          "name": "",
          "type": "uint256"
        }
      ],
      "name": "bets",
      "outputs": [
        {
          "name": "payee",
          "type": "address"
        },
        {
          "name": "escrow",
          "type": "uint256"
        },
        {
          "name": "balance",
          "type": "uint256"
        },
        {
          "name": "goal",
          "type": "uint256"
        },
        {
          "name": "deadline",
          "type": "uint256"
        },
        {
          "name": "state",
          "type": "uint8"
        }
      ],
      "payable": false,
      "stateMutability": "view",
      "type": "function"
    },
    {
      "constant": true,
      "inputs": [],
      "name": "referee",
      "outputs": [
        {
          "name": "",
          "type": "address"
        }
      ],
      "payable": false,
      "stateMutability": "view",
      "type": "function"
    },
    {
      "inputs": [],
      "payable": false,
      "stateMutability": "nonpayable",
      "type": "constructor"
    },
    {
      "anonymous": false,
      "inputs": [
        {
          "indexed": false,
          "name": "hid",
          "type": "uint256"
        },
        {
          "indexed": false,
          "name": "state",
          "type": "uint8"
        },
        {
          "indexed": false,
          "name": "offchain",
          "type": "bytes32"
        }
      ],
      "name": "__init",
      "type": "event"
    },
    {
      "anonymous": false,
      "inputs": [
        {
          "indexed": false,
          "name": "hid",
          "type": "uint256"
        },
        {
          "indexed": false,
          "name": "state",
          "type": "uint8"
        },
        {
          "indexed": false,
          "name": "balance",
          "type": "uint256"
        },
        {
          "indexed": false,
          "name": "offchain",
          "type": "bytes32"
        }
      ],
      "name": "__shake",
      "type": "event"
    },
    {
      "anonymous": false,
      "inputs": [
        {
          "indexed": false,
          "name": "hid",
          "type": "uint256"
        },
        {
          "indexed": false,
          "name": "state",
          "type": "uint8"
        },
        {
          "indexed": false,
          "name": "offchain",
          "type": "bytes32"
        }
      ],
      "name": "__cancel",
      "type": "event"
    },
    {
      "anonymous": false,
      "inputs": [
        {
          "indexed": false,
          "name": "hid",
          "type": "uint256"
        },
        {
          "indexed": false,
          "name": "escrow",
          "type": "uint256"
        },
        {
          "indexed": false,
          "name": "offchain",
          "type": "bytes32"
        }
      ],
      "name": "__withdraw",
      "type": "event"
    },
    {
      "anonymous": false,
      "inputs": [
        {
          "indexed": false,
          "name": "hid",
          "type": "uint256"
        },
        {
          "indexed": false,
          "name": "fee",
          "type": "uint256"
        },
        {
          "indexed": false,
          "name": "offchain",
          "type": "bytes32"
        }
      ],
      "name": "__setWinner",
      "type": "event"
    },
    {
      "constant": true,
      "inputs": [
        {
          "name": "hid",
          "type": "uint256"
        }
      ],
      "name": "getState",
      "outputs": [
        {
          "name": "",
          "type": "uint8"
        }
      ],
      "payable": false,
      "stateMutability": "view",
      "type": "function"
    },
    {
      "constant": false,
      "inputs": [
        {
          "name": "acceptors",
          "type": "bytes32[]"
        },
        {
          "name": "goal",
          "type": "uint256"
        },
        {
          "name": "escrow",
          "type": "uint256"
        },
        {
          "name": "deadline",
          "type": "uint256"
        },
        {
          "name": "offchain",
          "type": "bytes32"
        }
      ],
      "name": "initBet",
      "outputs": [],
      "payable": true,
      "stateMutability": "payable",
      "type": "function"
    },
    {
      "constant": false,
      "inputs": [
        {
          "name": "acceptor",
          "type": "bytes32"
        },
        {
          "name": "hid",
          "type": "uint256"
        },
        {
          "name": "offchain",
          "type": "bytes32"
        }
      ],
      "name": "shake",
      "outputs": [],
      "payable": true,
      "stateMutability": "payable",
      "type": "function"
    },
    {
      "constant": false,
      "inputs": [
        {
          "name": "hid",
          "type": "uint256"
        },
        {
          "name": "offchain",
          "type": "bytes32"
        }
      ],
      "name": "cancel",
      "outputs": [],
      "payable": false,
      "stateMutability": "nonpayable",
      "type": "function"
    },
    {
      "constant": false,
      "inputs": [
        {
          "name": "hid",
          "type": "uint256"
        },
        {
          "name": "offchain",
          "type": "bytes32"
        }
      ],
      "name": "withdraw",
      "outputs": [],
      "payable": false,
      "stateMutability": "nonpayable",
      "type": "function"
    },
    {
      "constant": false,
      "inputs": [
        {
          "name": "hid",
          "type": "uint256"
        },
        {
          "name": "result",
          "type": "uint8"
        },
        {
          "name": "offchain",
          "type": "bytes32"
        }
      ],
      "name": "setWinner",
      "outputs": [],
      "payable": false,
      "stateMutability": "nonpayable",
      "type": "function"
    },
    {
      "constant": true,
      "inputs": [
        {
          "name": "hid",
          "type": "uint256"
        }
      ],
      "name": "getWinValue",
      "outputs": [
        {
          "name": "",
          "type": "uint256"
        }
      ],
      "payable": false,
      "stateMutability": "view",
      "type": "function"
    },
    {
      "constant": true,
      "inputs": [
        {
          "name": "hid",
          "type": "uint256"
        }
      ],
      "name": "getBetBalance",
      "outputs": [
        {
          "name": "",
          "type": "uint256"
        },
        {
          "name": "",
          "type": "uint256"
        }
      ],
      "payable": false,
      "stateMutability": "view",
      "type": "function"
    },
    {
      "constant": true,
      "inputs": [],
      "name": "getBets",
      "outputs": [
        {
          "name": "",
          "type": "uint256"
        }
      ],
      "payable": false,
      "stateMutability": "view",
      "type": "function"
    }
  ],
  "bytecode": "0x6060604052341561000f57600080fd5b33600160006101000a81548173ffffffffffffffffffffffffffffffffffffffff021916908373ffffffffffffffffffffffffffffffffffffffff16021790555061185f8061005f6000396000f3006060604052600436106100af576000357c0100000000000000000000000000000000000000000000000000000000900463ffffffff16806322af00fa146100b45780633b1bebd11461014857806344c9af281461019d578063855ca0ae146101e2578063878716be146102205780638a6063fe1461025c578063a5ca03b2146102d3578063a6afd5fd1461030a578063a8d2021a14610333578063eafb64d514610363578063ef4e53e014610393575b600080fd5b34156100bf57600080fd5b6100d560048080359060200190919050506103c5565b604051808773ffffffffffffffffffffffffffffffffffffffff1673ffffffffffffffffffffffffffffffffffffffff16815260200186815260200185815260200184815260200183815260200182600381111561012f57fe5b60ff168152602001965050505050505060405180910390f35b341561015357600080fd5b61015b61043d565b604051808273ffffffffffffffffffffffffffffffffffffffff1673ffffffffffffffffffffffffffffffffffffffff16815260200191505060405180910390f35b34156101a857600080fd5b6101be6004808035906020019091905050610463565b604051808260038111156101ce57fe5b60ff16815260200191505060405180910390f35b34156101ed57600080fd5b6102036004808035906020019091905050610499565b604051808381526020018281526020019250505060405180910390f35b341561022b57600080fd5b61025a600480803590602001909190803560ff16906020019091908035600019169060200190919050506104ea565b005b6102d1600480803590602001908201803590602001908080602002602001604051908101604052809392919081815260200183836020028082843782019150505050505091908035906020019091908035906020019091908035906020019091908035600019169060200190919050506106c1565b005b34156102de57600080fd5b6102f460048080359060200190919050506108fe565b6040518082815260200191505060405180910390f35b341561031557600080fd5b61031d610967565b6040518082815260200191505060405180910390f35b341561033e57600080fd5b610361600480803590602001909190803560001916906020019091905050610973565b005b341561036e57600080fd5b610391600480803590602001909190803560001916906020019091905050610b15565b005b6103c360048080356000191690602001909190803590602001909190803560001916906020019091905050610cfc565b005b6000818154811015156103d457fe5b90600052602060002090600902016000915090508060000160009054906101000a900473ffffffffffffffffffffffffffffffffffffffff16908060010154908060020154908060030154908060040154908060060160009054906101000a900460ff16905086565b600160009054906101000a900473ffffffffffffffffffffffffffffffffffffffff1681565b6000808281548110151561047357fe5b906000526020600020906009020160060160009054906101000a900460ff169050919050565b6000806000838154811015156104ab57fe5b9060005260206000209060090201600801805490506000848154811015156104cf57fe5b90600052602060002090600902016002015491509150915091565b600080600160009054906101000a900473ffffffffffffffffffffffffffffffffffffffff1673ffffffffffffffffffffffffffffffffffffffff163373ffffffffffffffffffffffffffffffffffffffff1614151561054957600080fd5b60008581548110151561055857fe5b906000526020600020906009020191506001600381111561057557fe5b8260060160009054906101000a900460ff16600381111561059257fe5b1480156105b15750600060028111156105a757fe5b60ff168460ff1610155b80156105ce57506002808111156105c457fe5b60ff168460ff1611155b15156105d957600080fd5b60009050600060028111156105ea57fe5b60ff168460ff161415610607576106008561100a565b905061063c565b6001600281111561061457fe5b60ff168460ff1614156106315761062a856110c0565b905061063b565b61063a85611288565b5b5b61064581611403565b60038260060160006101000a81548160ff0219169083600381111561066657fe5b02179055507fbb8aa5b2d4713ead4f8144b4a4dd3496e17b4ac12dc08d6e3ff26f8accef21bf858285604051808481526020018381526020018260001916600019168152602001935050505060405180910390a15050505050565b6106c96114f4565b83341415156106d757600080fd5b33816000019073ffffffffffffffffffffffffffffffffffffffff16908173ffffffffffffffffffffffffffffffffffffffff168152505084816060018181525050838160200181815250506000816040018181525050600060405180591061073d5750595b90808252806020026020018201604052508160e0018190525060018302420181608001818152505060008160c00190600381111561077757fe5b9081600381111561078457fe5b81525050858160a00181905250600080548060010182816107a59190611567565b9160005260206000209060090201600083909190915060008201518160000160006101000a81548173ffffffffffffffffffffffffffffffffffffffff021916908373ffffffffffffffffffffffffffffffffffffffff1602179055506020820151816001015560408201518160020155606082015181600301556080820151816004015560a0820151816005019080519060200190610846929190611599565b5060c08201518160060160006101000a81548160ff0219169083600381111561086b57fe5b021790555060e082015181600801908051906020019061088c9291906115ec565b505050507f584229930f00ad9fc2fa6226de458c932992a17ad3ee07e425a6d62178ece0cb600160008054905003600084604051808481526020018360038111156108d357fe5b60ff1681526020018260001916600019168152602001935050505060405180910390a1505050505050565b6000808281548110151561090e57fe5b906000526020600020906009020160070160003373ffffffffffffffffffffffffffffffffffffffff1673ffffffffffffffffffffffffffffffffffffffff168152602001908152602001600020600101549050919050565b60008080549050905090565b6000808360008181548110151561098657fe5b906000526020600020906009020160000160009054906101000a900473ffffffffffffffffffffffffffffffffffffffff1673ffffffffffffffffffffffffffffffffffffffff163373ffffffffffffffffffffffffffffffffffffffff161415156109f157600080fd5b600085815481101515610a0057fe5b9060005260206000209060090201925060016003811115610a1d57fe5b8360060160009054906101000a900460ff166003811115610a3a57fe5b148015610a4e575082600301548360020154105b1515610a5957600080fd5b82600301548360010154846002015402811515610a7257fe5b0483600101540391503373ffffffffffffffffffffffffffffffffffffffff166108fc839081150290604051600060405180830381858888f193505050501515610abb57600080fd5b7fdadf2568e29c3e88d78dc144bd8a1aa52a110f4619f964f33b1889b3eff4de0585846001015486604051808481526020018381526020018260001916600019168152602001935050505060405180910390a15050505050565b600082600081815481101515610b2757fe5b906000526020600020906009020160000160009054906101000a900473ffffffffffffffffffffffffffffffffffffffff1673ffffffffffffffffffffffffffffffffffffffff163373ffffffffffffffffffffffffffffffffffffffff16141515610b9257600080fd5b600084815481101515610ba157fe5b9060005260206000209060090201915060006003811115610bbe57fe5b8260060160009054906101000a900460ff166003811115610bdb57fe5b148015610bef575060008260080180549050145b1515610bfa57600080fd5b8160000160009054906101000a900473ffffffffffffffffffffffffffffffffffffffff1673ffffffffffffffffffffffffffffffffffffffff166108fc83600101549081150290604051600060405180830381858888f193505050501515610c6257600080fd5b60028260060160006101000a81548160ff02191690836003811115610c8357fe5b02179055507f2c14f956ce5485dce5b0eee9b6b9dc06b40742167e9eda85e72d5ff3a0f506ac848360060160009054906101000a900460ff168560405180848152602001836003811115610cd357fe5b60ff1681526020018260001916600019168152602001935050505060405180910390a150505050565b60008083815481101515610d0c57fe5b9060005260206000209060090201905060026003811115610d2957fe5b8160060160009054906101000a900460ff166003811115610d4657fe5b14158015610d7b5750600380811115610d5b57fe5b8160060160009054906101000a900460ff166003811115610d7857fe5b14155b8015610d875750600034115b8015610d965750806004015442105b1515610da157600080fd5b60008160050180549050141515610dcf5760011515610dc08486611472565b1515141515610dce57600080fd5b5b60008160070160003373ffffffffffffffffffffffffffffffffffffffff1673ffffffffffffffffffffffffffffffffffffffff168152602001908152602001600020600001541415610e8257806008018054806001018281610e329190611676565b9160005260206000209001600033909190916101000a81548173ffffffffffffffffffffffffffffffffffffffff021916908373ffffffffffffffffffffffffffffffffffffffff160217905550505b348160070160003373ffffffffffffffffffffffffffffffffffffffff1673ffffffffffffffffffffffffffffffffffffffff16815260200190815260200160002060000160008282540192505081905550806003015481600101543402811515610ee957fe5b048160070160003373ffffffffffffffffffffffffffffffffffffffff1673ffffffffffffffffffffffffffffffffffffffff168152602001908152602001600020600101600082825401925050819055503481600201600082825401925050819055508060030154816002015411151515610f6457600080fd5b60018160060160006101000a81548160ff02191690836003811115610f8557fe5b02179055507f4b01ba75f4516c27f88e663890c3c0a2186ba3bd58df392921c15182779c65f6838260060160009054906101000a900460ff1683600201548560405180858152602001846003811115610fda57fe5b60ff168152602001838152602001826000191660001916815260200194505050505060405180910390a150505050565b60008060008060008581548110151561101f57fe5b906000526020600020906009020192506064836002015481151561103f57fe5b0491508183600201548460010154010390508260000160009054906101000a900473ffffffffffffffffffffffffffffffffffffffff1673ffffffffffffffffffffffffffffffffffffffff166108fc829081150290604051600060405180830381858888f1935050505015156110b557600080fd5b819350505050919050565b600080600080600080600080888154811015156110d957fe5b9060005260206000209060090201955060009450600093505b856008018054905084101561120457856008018481548110151561111257fe5b906000526020600020900160009054906101000a900473ffffffffffffffffffffffffffffffffffffffff1692508560070160008473ffffffffffffffffffffffffffffffffffffffff1673ffffffffffffffffffffffffffffffffffffffff16815260200190815260200160002091506064826001015481151561119357fe5b04850194508482600101540390508273ffffffffffffffffffffffffffffffffffffffff166108fc829081150290604051600060405180830381858888f1935050505015156111e157600080fd5b8160010154866001016000828254039250508190555083806001019450506110f2565b60008660010154111561127a578560000160009054906101000a900473ffffffffffffffffffffffffffffffffffffffff1673ffffffffffffffffffffffffffffffffffffffff166108fc87600101549081150290604051600060405180830381858888f19350505050151561127957600080fd5b5b849650505050505050919050565b60008060008060008581548110151561129d57fe5b906000526020600020906009020193508360000160009054906101000a900473ffffffffffffffffffffffffffffffffffffffff1673ffffffffffffffffffffffffffffffffffffffff166108fc85600101549081150290604051600060405180830381858888f19350505050151561131557600080fd5b600092505b83600801805490508310156113fc57836008018381548110151561133a57fe5b906000526020600020900160009054906101000a900473ffffffffffffffffffffffffffffffffffffffff1691508360070160008373ffffffffffffffffffffffffffffffffffffffff1673ffffffffffffffffffffffffffffffffffffffff16815260200190815260200160002090508173ffffffffffffffffffffffffffffffffffffffff166108fc82600001549081150290604051600060405180830381858888f1935050505015156113ef57600080fd5b828060010193505061131a565b5050505050565b600081111561146f57600160009054906101000a900473ffffffffffffffffffffffffffffffffffffffff1673ffffffffffffffffffffffffffffffffffffffff166108fc829081150290604051600060405180830381858888f19350505050151561146e57600080fd5b5b50565b6000806000808581548110151561148557fe5b90600052602060002090600902019150600090505b81600501805490508110156114eb57836000191682600501828154811015156114bf57fe5b9060005260206000209001546000191614156114de57600192506114ec565b808060010191505061149a565b5b505092915050565b61010060405190810160405280600073ffffffffffffffffffffffffffffffffffffffff168152602001600081526020016000815260200160008152602001600081526020016115426116a2565b81526020016000600381111561155457fe5b81526020016115616116b6565b81525090565b8154818355818115116115945760090281600902836000526020600020918201910161159391906116ca565b5b505050565b8280548282559060005260206000209081019282156115db579160200282015b828111156115da5782518290600019169055916020019190600101906115b9565b5b5090506115e89190611764565b5090565b828054828255906000526020600020908101928215611665579160200282015b828111156116645782518260006101000a81548173ffffffffffffffffffffffffffffffffffffffff021916908373ffffffffffffffffffffffffffffffffffffffff1602179055509160200191906001019061160c565b5b5090506116729190611789565b5090565b81548183558181151161169d5781836000526020600020918201910161169c91906117cc565b5b505050565b602060405190810160405280600081525090565b602060405190810160405280600081525090565b61176191905b8082111561175d57600080820160006101000a81549073ffffffffffffffffffffffffffffffffffffffff0219169055600182016000905560028201600090556003820160009055600482016000905560058201600061173091906117f1565b6006820160006101000a81549060ff02191690556008820160006117549190611812565b506009016116d0565b5090565b90565b61178691905b8082111561178257600081600090555060010161176a565b5090565b90565b6117c991905b808211156117c557600081816101000a81549073ffffffffffffffffffffffffffffffffffffffff02191690555060010161178f565b5090565b90565b6117ee91905b808211156117ea5760008160009055506001016117d2565b5090565b90565b508054600082559060005260206000209081019061180f9190611764565b50565b508054600082559060005260206000209081019061183091906117cc565b505600a165627a7a72305820f3e675d7001352703d7bfed3b656a1ec1a6d340f3802e95bbd90d26592ebfb1f0029",
  "source": "pragma solidity ^0.4.18;\n\ncontract BettingHandshake {\n    struct Payer {\n        uint value;\n        uint winValue;\n    }\n\n    enum S { Inited, Shaked, Cancelled, Done }\n    enum Result { HomeWin, AwayWin, Draw }\n\n    struct Bet {\n        address payee;\n        uint escrow;  \n        uint balance;\n        uint goal;\n        uint deadline;\n        bytes32[] acceptors;\n\n        S state;\n        mapping(address => Payer) payers;\n        address[] addresses;\n    }\n\n    Bet[] public bets;\n    address public referee;\n\n    function BettingHandshake() public {\n        referee = msg.sender;\n    } \n\n    modifier onlyPayee(uint hid) {\n        require(msg.sender == bets[hid].payee);\n        _;\n    }\n\n    modifier onlyPayer(uint hid) {\n        require(bets[hid].payers[msg.sender].value > 0);\n        _;\n    }\n\n    modifier onlyReferee() {\n        require(msg.sender == referee);\n        _;\n    }\n\n    function getState(uint hid) public view returns (S) {\n        return bets[hid].state;\n    }\n\n    event __init(uint hid, S state, bytes32 offchain); \n\n\n    /**\n     * @dev Create a new bet.\n     * @param acceptors array of user's hash in offchain\n     * @param goal money (in Wei) of payers to fund of bet .\n     * @param escrow money (in Wei) for user to fund the bet.\n     * @param deadline duration (in seconds) to distribute the fund to the bet creator.\n     * @param offchain key to the offchain database.\n     */\n    function initBet(bytes32[] acceptors, uint goal, uint escrow, uint deadline, bytes32 offchain) public payable {\n        require(msg.value == escrow);\n\n        Bet memory b;\n        b.payee = msg.sender;\n        b.goal = goal;\n        b.escrow = escrow;\n        b.balance = 0;\n        b.addresses = new address[](0);\n        b.deadline = now + deadline * 1 seconds;\n        b.state = S.Inited;\n        b.acceptors = acceptors;\n        \n        bets.push(b);\n        __init(bets.length - 1, S.Inited, offchain);\n    }\n\n    event __shake(uint hid, S state, uint balance, bytes32 offchain);\n\n    // payer accept bet\n    function shake(bytes32 acceptor, uint hid, bytes32 offchain) public payable {\n        Bet storage b = bets[hid];\n        require(b.state != S.Cancelled && b.state != S.Done && msg.value > 0 && now < b.deadline);\n\n        if (b.acceptors.length != 0) {\n            require(isValidAcceptor(hid, acceptor) == true);\n        }\n\n        if (b.payers[msg.sender].value == 0) {\n            b.addresses.push(msg.sender);\n        }\n        \n        b.payers[msg.sender].value += msg.value;\n        b.payers[msg.sender].winValue += ((msg.value * b.escrow) / b.goal);\n        b.balance += msg.value;\n        require(b.balance <= b.goal);\n        \n        b.state = S.Shaked;\n        __shake(hid, b.state, b.balance, offchain);\n    }\n\n    event __cancel(uint hid, S state, bytes32 offchain);\n\n    // payee cancel bet if there is no any payer\n    function cancel(uint hid, bytes32 offchain) public onlyPayee(hid) {\n        Bet storage b = bets[hid];\n        require(b.state == S.Inited && b.addresses.length == 0);\n        b.payee.transfer(b.escrow);\n\n        b.state = S.Cancelled;\n        __cancel(hid, b.state, offchain);\n    }\n\n    event __withdraw(uint hid, uint escrow, bytes32 offchain);\n    \n    function withdraw(uint hid, bytes32 offchain) public onlyPayee(hid) {\n        Bet storage b = bets[hid];\n        require(b.state == S.Shaked && b.balance < b.goal);\n\n        uint remainingMoney = b.escrow - ((b.balance * b.escrow) / b.goal);\n        msg.sender.transfer(remainingMoney);\n\n        __withdraw(hid, b.escrow, offchain);\n    }\n\n    event __setWinner(uint hid, uint fee, bytes32 offchain);\n\n    function setWinner(uint hid, uint8 result, bytes32 offchain) public onlyReferee() {\n        Bet storage b = bets[hid];\n        require(b.state == S.Shaked && result >= uint8(Result.HomeWin) && result <= uint8(Result.Draw));\n        uint fee = 0;\n\n        if (result == uint8(Result.HomeWin)) {\n            fee = homeWin(hid);\n            \n        } else if (result == uint8(Result.AwayWin)) {\n            fee = awayWin(hid);\n            \n        } else { \n            draw(hid);\n        }\n        \n        sendFee(fee);\n        b.state = S.Done;\n        __setWinner(hid, fee, offchain);\n    }\n    \n    function homeWin(uint hid) private returns (uint) {\n        Bet storage b = bets[hid];\n        uint fee = b.balance / 100;\n        uint remainingMoney = b.escrow + b.balance - fee;\n        b.payee.transfer(remainingMoney);\n        return fee;\n    }\n    \n    function awayWin(uint hid) private returns (uint) {\n        Bet storage b = bets[hid];\n        uint fee = 0;\n        for (uint index = 0; index < b.addresses.length; index++) {\n            address payer = b.addresses[index];\n            Payer storage p = b.payers[payer];\n            \n            fee += p.winValue / 100;\n            uint remainingMoney = p.winValue - fee;\n            payer.transfer(remainingMoney);\n            b.escrow -= p.winValue;\n        }\n\n        if (b.escrow > 0) {\n            b.payee.transfer(b.escrow);\n        }\n        return fee;\n    }\n    \n    function draw(uint hid) private {\n        Bet storage b = bets[hid];\n        b.payee.transfer(b.escrow);\n        for (uint index = 0; index < b.addresses.length; index++) {\n            address payer = b.addresses[index];\n            Payer storage p = b.payers[payer];\n            payer.transfer(p.value);\n        }\n    }\n    \n    function sendFee(uint total) private {\n        if (total > 0) {\n            referee.transfer(total);\n        }\n    }\n\n    function isValidAcceptor(uint hid, bytes32 acceptor) private view returns (bool value) {\n        Bet storage b = bets[hid];\n        for (uint index = 0; index < b.acceptors.length; index++) {\n            if (b.acceptors[index] == acceptor) {\n                value = true;\n                return;\n            }\n        }\n    }\n\n    function getWinValue(uint hid) public view returns (uint) {\n        return bets[hid].payers[msg.sender].winValue;\n    }\n\n    function getBetBalance(uint hid) public view returns (uint, uint) {\n        return (bets[hid].addresses.length, bets[hid].balance);\n    }\n\n    function getBets() public view returns (uint) {\n        return bets.length;\n    }\n}",
  "sourcePath": "/Workspace/robotbase/handshake/contracts/BettingHandshake.sol",
  "compiler": {
    "name": "solc",
    "version": "0.4.19+commit.c4cbbb05.Emscripten.clang"
  },
  "schemaVersion": "2.0.0",
  "updatedAt": "2018-05-17T18:44:22.618Z"
}