{
  "contractName": "CreditATM",
  "abi": [
    {
      "constant": true,
      "inputs": [
        {
          "name": "",
          "type": "uint256"
        }
      ],
      "name": "ex",
      "outputs": [
        {
          "name": "sender",
          "type": "address"
        },
        {
          "name": "percentage",
          "type": "uint256"
        },
        {
          "name": "escrow",
          "type": "uint256"
        }
      ],
      "payable": false,
      "stateMutability": "view",
      "type": "function"
    },
    {
      "constant": false,
      "inputs": [
        {
          "name": "offchain",
          "type": "bytes32"
        },
        {
          "name": "percentage",
          "type": "uint256"
        }
      ],
      "name": "deposit",
      "outputs": [],
      "payable": true,
      "stateMutability": "payable",
      "type": "function"
    },
    {
      "constant": false,
      "inputs": [
        {
          "name": "hid",
          "type": "uint256"
        },
        {
          "name": "customer",
          "type": "address"
        },
        {
          "name": "amount",
          "type": "uint256"
        },
        {
          "name": "offchain",
          "type": "bytes32"
        }
      ],
      "name": "releasePartialFund",
      "outputs": [],
      "payable": false,
      "stateMutability": "nonpayable",
      "type": "function"
    },
    {
      "constant": true,
      "inputs": [
        {
          "name": "hid",
          "type": "uint256"
        }
      ],
      "name": "getDepositList",
      "outputs": [
        {
          "name": "",
          "type": "address"
        },
        {
          "name": "",
          "type": "uint256"
        },
        {
          "name": "",
          "type": "uint256"
        }
      ],
      "payable": false,
      "stateMutability": "view",
      "type": "function"
    },
    {
      "inputs": [],
      "payable": false,
      "stateMutability": "nonpayable",
      "type": "constructor"
    },
    {
      "anonymous": false,
      "inputs": [
        {
          "indexed": false,
          "name": "hid",
          "type": "uint256"
        },
        {
          "indexed": false,
          "name": "stationOwner",
          "type": "address"
        },
        {
          "indexed": false,
          "name": "value",
          "type": "uint256"
        },
        {
          "indexed": false,
          "name": "percentage",
          "type": "uint256"
        },
        {
          "indexed": false,
          "name": "offchain",
          "type": "bytes32"
        }
      ],
      "name": "__deposit",
      "type": "event"
    },
    {
      "anonymous": false,
      "inputs": [
        {
          "indexed": false,
          "name": "hid",
          "type": "uint256"
        },
        {
          "indexed": false,
          "name": "customer",
          "type": "address"
        },
        {
          "indexed": false,
          "name": "amount",
          "type": "uint256"
        },
        {
          "indexed": false,
          "name": "offchain",
          "type": "bytes32"
        }
      ],
      "name": "__releasePartialFund",
      "type": "event"
    }
  ],
  "bytecode": "0x608060405234801561001057600080fd5b50336000806101000a81548173ffffffffffffffffffffffffffffffffffffffff021916908373ffffffffffffffffffffffffffffffffffffffff1602179055506105f2806100606000396000f300608060405260043610610062576000357c0100000000000000000000000000000000000000000000000000000000900463ffffffff1680631089f215146100675780631de26e16146100e257806363d26f2f146101105780639905869014610175575b600080fd5b34801561007357600080fd5b50610092600480360381019080803590602001909291905050506101f0565b604051808473ffffffffffffffffffffffffffffffffffffffff1673ffffffffffffffffffffffffffffffffffffffff168152602001838152602001828152602001935050505060405180910390f35b61010e600480360381019080803560001916906020019092919080359060200190929190505050610249565b005b34801561011c57600080fd5b5061017360048036038101908080359060200190929190803573ffffffffffffffffffffffffffffffffffffffff1690602001909291908035906020019092919080356000191690602001909291905050506103cf565b005b34801561018157600080fd5b506101a06004803603810190808035906020019092919050505061052c565b604051808473ffffffffffffffffffffffffffffffffffffffff1673ffffffffffffffffffffffffffffffffffffffff168152602001838152602001828152602001935050505060405180910390f35b6001818154811015156101ff57fe5b90600052602060002090600302016000915090508060000160009054906101000a900473ffffffffffffffffffffffffffffffffffffffff16908060010154908060020154905083565b61025161058e565b60003411151561026057600080fd5b33816000019073ffffffffffffffffffffffffffffffffffffffff16908173ffffffffffffffffffffffffffffffffffffffff168152505034816040018181525050818160200181815250506001819080600181540180825580915050906001820390600052602060002090600302016000909192909190915060008201518160000160006101000a81548173ffffffffffffffffffffffffffffffffffffffff021916908373ffffffffffffffffffffffffffffffffffffffff16021790555060208201518160010155604082015181600201555050507f2667b1cd4b4faaa3decf032654c25acd379781b7ec53b8494b5c8fe87327a547600180805490500333348587604051808681526020018573ffffffffffffffffffffffffffffffffffffffff1673ffffffffffffffffffffffffffffffffffffffff16815260200184815260200183815260200182600019166000191681526020019550505050505060405180910390a1505050565b6000809054906101000a900473ffffffffffffffffffffffffffffffffffffffff1673ffffffffffffffffffffffffffffffffffffffff163373ffffffffffffffffffffffffffffffffffffffff1614151561042a57600080fd5b60008373ffffffffffffffffffffffffffffffffffffffff16141580156104515750600082115b151561045c57600080fd5b8273ffffffffffffffffffffffffffffffffffffffff166108fc839081150290604051600060405180830381858888f193505050501580156104a2573d6000803e3d6000fd5b507fa8de681159300a7673a54446f9e99457e22b0ba45217abd287e6847a8e13eb3c84848484604051808581526020018473ffffffffffffffffffffffffffffffffffffffff1673ffffffffffffffffffffffffffffffffffffffff168152602001838152602001826000191660001916815260200194505050505060405180910390a150505050565b60008060008060018581548110151561054157fe5b906000526020600020906003020190508060000160009054906101000a900473ffffffffffffffffffffffffffffffffffffffff1681600201548260010154935093509350509193909250565b606060405190810160405280600073ffffffffffffffffffffffffffffffffffffffff168152602001600081526020016000815250905600a165627a7a72305820a887c66d2824e58dd9de589f55ff0082527ed375c40232956cad1782884d188b0029",
  "source": "pragma solidity ^0.4.24;\n\ncontract CreditATM {\n\n    address owner;\n\n    constructor() public {\n        owner = msg.sender;\n    }\n\n    struct Exchange {\n        address sender;\n        uint percentage;\n        uint escrow;\n    }\n\n    Exchange[] public ex;\n\n    event __deposit(uint hid, address stationOwner, uint value,uint percentage, bytes32 offchain);\n    event __releasePartialFund(uint hid,address customer,uint amount,bytes32 offchain);\n\n\n    //success if sender is owner\n    modifier onlyOwner() {\n        require(msg.sender == owner);\n        _;\n    }\n\n    /**\n    * @dev deposit coin to escrow\n    * @param offchain record ID in offchain backend database\n    */\n    function deposit(\n        bytes32 offchain,\n        uint percentage\n    )\n        public\n        payable\n    {\n        require(msg.value > 0);\n        Exchange memory p;\n        p.sender = msg.sender;\n        p.escrow = msg.value;\n        p.percentage = percentage;\n        ex.push(p);\n        emit __deposit(ex.length - 1, msg.sender, msg.value, percentage, offchain);\n    }\n\n\n    //Owner releaseFundByStationOwner transaction\n    function releasePartialFund(uint hid,address customer,uint amount, bytes32 offchain) public onlyOwner()\n    {\n        require(customer != 0x0 && amount > 0);\n        customer.transfer(amount);\n        emit __releasePartialFund(hid,customer, amount, offchain);\n    }\n\n    //get deposit info by hid\n    function getDepositList(uint hid) public constant returns(address, uint, uint ){\n        Exchange storage p = ex[hid];\n        return (p.sender, p.escrow, p.percentage);\n    }\n\n}\n",
  "sourcePath": "/Autonomous/handshake-protocol/contracts/CreditATM.sol",
  "compiler": {
    "name": "solc",
    "version": "0.4.24+commit.e67f0147.Emscripten.clang"
  },
  "schemaVersion": "1.0.1",
  "updatedAt": "2018-08-25T16:00:03.066Z"
}