{
  "contractName": "CrowdsaleHandshake",
  "abi": [
    {
      "constant": true,
      "inputs": [
        {
          "name": "",
          "type": "uint256"
        }
      ],
      "name": "cs",
      "outputs": [
        {
          "name": "payee",
          "type": "address"
        },
        {
          "name": "totalValue",
          "type": "uint256"
        },
        {
          "name": "balance",
          "type": "uint256"
        },
        {
          "name": "goal",
          "type": "uint256"
        },
        {
          "name": "saletime",
          "type": "uint256"
        },
        {
          "name": "deadline",
          "type": "uint256"
        },
        {
          "name": "lastIncrease",
          "type": "uint256"
        },
        {
          "name": "state",
          "type": "uint8"
        },
        {
          "name": "m",
          "type": "uint256"
        }
      ],
      "payable": false,
      "stateMutability": "view",
      "type": "function"
    },
    {
      "anonymous": false,
      "inputs": [
        {
          "indexed": false,
          "name": "hid",
          "type": "uint256"
        },
        {
          "indexed": false,
          "name": "state",
          "type": "uint8"
        },
        {
          "indexed": false,
          "name": "offchain",
          "type": "bytes32"
        }
      ],
      "name": "__init",
      "type": "event"
    },
    {
      "anonymous": false,
      "inputs": [
        {
          "indexed": false,
          "name": "hid",
          "type": "uint256"
        },
        {
          "indexed": false,
          "name": "state",
          "type": "uint8"
        },
        {
          "indexed": false,
          "name": "balance",
          "type": "uint256"
        },
        {
          "indexed": false,
          "name": "offchain",
          "type": "bytes32"
        }
      ],
      "name": "__shake",
      "type": "event"
    },
    {
      "anonymous": false,
      "inputs": [
        {
          "indexed": false,
          "name": "hid",
          "type": "uint256"
        },
        {
          "indexed": false,
          "name": "state",
          "type": "uint8"
        },
        {
          "indexed": false,
          "name": "balance",
          "type": "uint256"
        },
        {
          "indexed": false,
          "name": "offchain",
          "type": "bytes32"
        }
      ],
      "name": "__unshake",
      "type": "event"
    },
    {
      "anonymous": false,
      "inputs": [
        {
          "indexed": false,
          "name": "hid",
          "type": "uint256"
        },
        {
          "indexed": false,
          "name": "state",
          "type": "uint8"
        },
        {
          "indexed": false,
          "name": "offchain",
          "type": "bytes32"
        }
      ],
      "name": "__cancel",
      "type": "event"
    },
    {
      "anonymous": false,
      "inputs": [
        {
          "indexed": false,
          "name": "hid",
          "type": "uint256"
        },
        {
          "indexed": false,
          "name": "state",
          "type": "uint8"
        },
        {
          "indexed": false,
          "name": "offchain",
          "type": "bytes32"
        }
      ],
      "name": "__stop",
      "type": "event"
    },
    {
      "anonymous": false,
      "inputs": [
        {
          "indexed": false,
          "name": "hid",
          "type": "uint256"
        },
        {
          "indexed": false,
          "name": "state",
          "type": "uint8"
        },
        {
          "indexed": false,
          "name": "offchain",
          "type": "bytes32"
        }
      ],
      "name": "__refund",
      "type": "event"
    },
    {
      "anonymous": false,
      "inputs": [
        {
          "indexed": false,
          "name": "hid",
          "type": "uint256"
        },
        {
          "indexed": false,
          "name": "amount",
          "type": "uint256"
        },
        {
          "indexed": false,
          "name": "offchain",
          "type": "bytes32"
        }
      ],
      "name": "__withdraw",
      "type": "event"
    },
    {
      "constant": true,
      "inputs": [
        {
          "name": "hid",
          "type": "uint256"
        }
      ],
      "name": "getState",
      "outputs": [
        {
          "name": "",
          "type": "uint8"
        }
      ],
      "payable": false,
      "stateMutability": "view",
      "type": "function"
    },
    {
      "constant": false,
      "inputs": [
        {
          "name": "goal",
          "type": "uint256"
        },
        {
          "name": "saletime",
          "type": "uint256"
        },
        {
          "name": "deadline",
          "type": "uint256"
        },
        {
          "name": "offchain",
          "type": "bytes32"
        }
      ],
      "name": "initCrowdsale",
      "outputs": [],
      "payable": false,
      "stateMutability": "nonpayable",
      "type": "function"
    },
    {
      "constant": false,
      "inputs": [
        {
          "name": "hid",
          "type": "uint256"
        },
        {
          "name": "offchain",
          "type": "bytes32"
        }
      ],
      "name": "shake",
      "outputs": [],
      "payable": true,
      "stateMutability": "payable",
      "type": "function"
    },
    {
      "constant": false,
      "inputs": [
        {
          "name": "hid",
          "type": "uint256"
        },
        {
          "name": "offchain",
          "type": "bytes32"
        }
      ],
      "name": "unshake",
      "outputs": [],
      "payable": false,
      "stateMutability": "nonpayable",
      "type": "function"
    },
    {
      "constant": false,
      "inputs": [
        {
          "name": "hid",
          "type": "uint256"
        },
        {
          "name": "offchain",
          "type": "bytes32"
        }
      ],
      "name": "cancel",
      "outputs": [],
      "payable": false,
      "stateMutability": "nonpayable",
      "type": "function"
    },
    {
      "constant": false,
      "inputs": [
        {
          "name": "hid",
          "type": "uint256"
        },
        {
          "name": "offchain",
          "type": "bytes32"
        }
      ],
      "name": "stop",
      "outputs": [],
      "payable": false,
      "stateMutability": "nonpayable",
      "type": "function"
    },
    {
      "constant": false,
      "inputs": [
        {
          "name": "hid",
          "type": "uint256"
        },
        {
          "name": "offchain",
          "type": "bytes32"
        }
      ],
      "name": "refund",
      "outputs": [],
      "payable": false,
      "stateMutability": "nonpayable",
      "type": "function"
    },
    {
      "constant": true,
      "inputs": [
        {
          "name": "hid",
          "type": "uint256"
        }
      ],
      "name": "additionalPettyCash",
      "outputs": [
        {
          "name": "",
          "type": "uint256"
        }
      ],
      "payable": false,
      "stateMutability": "view",
      "type": "function"
    },
    {
      "constant": false,
      "inputs": [
        {
          "name": "hid",
          "type": "uint256"
        },
        {
          "name": "offchain",
          "type": "bytes32"
        }
      ],
      "name": "withdraw",
      "outputs": [],
      "payable": false,
      "stateMutability": "nonpayable",
      "type": "function"
    }
  ],
  "bytecode": "0x608060405234801561001057600080fd5b50611391806100206000396000f3006080604052600436106100a4576000357c0100000000000000000000000000000000000000000000000000000000900463ffffffff16806335a7b5dc146100a95780633b0cbd941461015c57806343f24af51461019757806344c9af28146101d257806356c8a2db1461022157806371eedb8814610262578063a82042211461029d578063a8d2021a146102ec578063b09b2f8514610327578063eafb64d514610355575b600080fd5b3480156100b557600080fd5b506100d460048036038101908080359060200190929190505050610390565b604051808a73ffffffffffffffffffffffffffffffffffffffff1673ffffffffffffffffffffffffffffffffffffffff16815260200189815260200188815260200187815260200186815260200185815260200184815260200183600281111561013a57fe5b60ff168152602001828152602001995050505050505050505060405180910390f35b34801561016857600080fd5b5061019560048036038101908080359060200190929190803560001916906020019092919050505061041a565b005b3480156101a357600080fd5b506101d0600480360381019080803590602001909291908035600019169060200190929190505050610550565b005b3480156101de57600080fd5b506101fd600480360381019080803590602001909291905050506107e5565b6040518082600281111561020d57fe5b60ff16815260200191505060405180910390f35b34801561022d57600080fd5b5061024c6004803603810190808035906020019092919050505061081b565b6040518082815260200191505060405180910390f35b34801561026e57600080fd5b5061029b600480360381019080803590602001909291908035600019169060200190929190505050610952565b005b3480156102a957600080fd5b506102ea6004803603810190808035906020019092919080359060200190929190803590602001909291908035600019169060200190929190505050610bd1565b005b3480156102f857600080fd5b50610325600480360381019080803590602001909291908035600019169060200190929190505050610da3565b005b610353600480360381019080803590602001909291908035600019169060200190929190505050610f49565b005b34801561036157600080fd5b5061038e6004803603810190808035906020019092919080356000191690602001909291905050506110e2565b005b60008181548110151561039f57fe5b90600052602060002090600a02016000915090508060000160009054906101000a900473ffffffffffffffffffffffffffffffffffffffff16908060010154908060020154908060030154908060040154908060050154908060060154908060070160009054906101000a900460ff16908060080154905089565b60008260008181548110151561042c57fe5b90600052602060002090600a020160000160009054906101000a900473ffffffffffffffffffffffffffffffffffffffff1673ffffffffffffffffffffffffffffffffffffffff163373ffffffffffffffffffffffffffffffffffffffff1614151561049757600080fd5b6000848154811015156104a657fe5b90600052602060002090600a0201915060028260070160006101000a81548160ff021916908360028111156104d757fe5b02179055507fe18634326e882acaa1a0e3829b8608959be9172f83c5d9f7801de1b5a2d3cc27848360070160009054906101000a900460ff16856040518084815260200183600281111561052757fe5b60ff1681526020018260001916600019168152602001935050505060405180910390a150505050565b600080836000808281548110151561056457fe5b90600052602060002090600a020160090160003373ffffffffffffffffffffffffffffffffffffffff1673ffffffffffffffffffffffffffffffffffffffff168152602001908152602001600020600001541115156105c257600080fd5b6000858154811015156105d157fe5b90600052602060002090600a020192508260090160003373ffffffffffffffffffffffffffffffffffffffff1673ffffffffffffffffffffffffffffffffffffffff16815260200190815260200160002060000154915082600401544210801561063f575081836002015410155b151561064a57600080fd5b60008360090160003373ffffffffffffffffffffffffffffffffffffffff1673ffffffffffffffffffffffffffffffffffffffff1681526020019081526020016000206000018190555081836002016000828254039250508190555082600201548360010181905550600160028111156106c057fe5b8360070160009054906101000a900460ff1660028111156106dd57fe5b1480156106f1575082600301548360020154105b1561071d5760008360070160006101000a81548160ff0219169083600281111561071757fe5b02179055505b3373ffffffffffffffffffffffffffffffffffffffff166108fc839081150290604051600060405180830381858888f19350505050158015610763573d6000803e3d6000fd5b507fa4a7ed41433d5a4d266c4bbcee340993acd057cc8256571f20f6db4ae297304f858460070160009054906101000a900460ff16856002015487604051808581526020018460028111156107b457fe5b60ff168152602001838152602001826000191660001916815260200194505050505060405180910390a15050505050565b600080828154811015156107f557fe5b90600052602060002090600a020160070160009054906101000a900460ff169050919050565b600080600080600080935060008681548110151561083557fe5b90600052602060002090600a020160040154421015156109465742925060008681548110151561086157fe5b90600052602060002090600a020160050154915060008681548110151561088457fe5b90600052602060002090600a020160060154905081831015156108a5578192505b6000811415610904576064601e6000888154811015156108c157fe5b90600052602060002090600a020160020154028115156108dd57fe5b0493506000868154811015156108ef57fe5b90600052602060002090600a02016004015490505b80821115610945578082038460008881548110151561091f57fe5b90600052602060002090600a020160020154038285030281151561093f57fe5b04840193505b5b83945050505050919050565b60008060008060008681548110151561096757fe5b90600052602060002090600a020193506000600281111561098457fe5b8460070160009054906101000a900460ff1660028111156109a157fe5b1480156109b2575083600401544210155b80156109c5575083600301548460020154105b156109f15760028460070160006101000a81548160ff021916908360028111156109eb57fe5b02179055505b8360070160009054906101000a900460ff169250600280811115610a1157fe5b836002811115610a1d57fe5b1415610bc9578360090160003373ffffffffffffffffffffffffffffffffffffffff1673ffffffffffffffffffffffffffffffffffffffff168152602001908152602001600020600001549150836001015484600201548302811515610a7f57fe5b04905083600201548111158015610a9a575083600101548211155b1515610aa557600080fd5b80846002016000828254039250508190555081846001016000828254039250508190555060008460090160003373ffffffffffffffffffffffffffffffffffffffff1673ffffffffffffffffffffffffffffffffffffffff168152602001908152602001600020600001819055503373ffffffffffffffffffffffffffffffffffffffff166108fc829081150290604051600060405180830381858888f19350505050158015610b59573d6000803e3d6000fd5b507fadd42748782b14b5e685863800eceaedf8f3534dd06473719669ee0f0ce9c525868560070160009054906101000a900460ff168760405180848152602001836002811115610ba557fe5b60ff1681526020018260001916600019168152602001935050505060405180910390a15b505050505050565b8282111515610bdf57600080fd5b6000610120604051908101604052803373ffffffffffffffffffffffffffffffffffffffff1681526020016000815260200160008152602001868152602001600186024201815260200160018502420181526020016000815260200160006002811115610c4857fe5b815260200160008152509080600181540180825580915050906001820390600052602060002090600a02016000909192909190915060008201518160000160006101000a81548173ffffffffffffffffffffffffffffffffffffffff021916908373ffffffffffffffffffffffffffffffffffffffff1602179055506020820151816001015560408201518160020155606082015181600301556080820151816004015560a0820151816005015560c0820151816006015560e08201518160070160006101000a81548160ff02191690836002811115610d2457fe5b021790555061010082015181600801555050507f584229930f00ad9fc2fa6226de458c932992a17ad3ee07e425a6d62178ece0cb60016000805490500360008360405180848152602001836002811115610d7a57fe5b60ff1681526020018260001916600019168152602001935050505060405180910390a150505050565b60008083600081815481101515610db657fe5b90600052602060002090600a020160000160009054906101000a900473ffffffffffffffffffffffffffffffffffffffff1673ffffffffffffffffffffffffffffffffffffffff163373ffffffffffffffffffffffffffffffffffffffff16141515610e2157600080fd5b600085815481101515610e3057fe5b90600052602060002090600a0201925060016002811115610e4d57fe5b8360070160009054906101000a900460ff166002811115610e6a57fe5b148015610e7b575082600401544210155b1515610e8657600080fd5b610e8f8561081b565b91504283600601819055508183600201600082825403925050819055503373ffffffffffffffffffffffffffffffffffffffff166108fc839081150290604051600060405180830381858888f19350505050158015610ef2573d6000803e3d6000fd5b507fdadf2568e29c3e88d78dc144bd8a1aa52a110f4619f964f33b1889b3eff4de05858386604051808481526020018381526020018260001916600019168152602001935050505060405180910390a15050505050565b60008083815481101515610f5957fe5b90600052602060002090600a02019050600034118015610f7c5750806004015442105b1515610f8757600080fd5b348160090160003373ffffffffffffffffffffffffffffffffffffffff1673ffffffffffffffffffffffffffffffffffffffff16815260200190815260200160002060000160008282540192505081905550348160020160008282540192505081905550806002015481600101819055506000600281111561100557fe5b8160070160009054906101000a900460ff16600281111561102257fe5b14801561103757508060030154816002015410155b156110635760018160070160006101000a81548160ff0219169083600281111561105d57fe5b02179055505b7f4b01ba75f4516c27f88e663890c3c0a2186ba3bd58df392921c15182779c65f6838260070160009054906101000a900460ff16836002015485604051808581526020018460028111156110b357fe5b60ff168152602001838152602001826000191660001916815260200194505050505060405180910390a1505050565b600082600080828154811015156110f557fe5b90600052602060002090600a020160090160003373ffffffffffffffffffffffffffffffffffffffff1673ffffffffffffffffffffffffffffffffffffffff1681526020019081526020016000206000015411151561115357600080fd5b60008481548110151561116257fe5b90600052602060002090600a020191506001600281111561117f57fe5b8260070160009054906101000a900460ff16600281111561119c57fe5b1480156111ad575081600401544210155b80156111bc5750816005015442105b801561120c575060008260090160003373ffffffffffffffffffffffffffffffffffffffff1673ffffffffffffffffffffffffffffffffffffffff16815260200190815260200160002060010154145b151561121757600080fd5b60018260090160003373ffffffffffffffffffffffffffffffffffffffff1673ffffffffffffffffffffffffffffffffffffffff168152602001908152602001600020600101819055508160090160003373ffffffffffffffffffffffffffffffffffffffff1673ffffffffffffffffffffffffffffffffffffffff1681526020019081526020016000206000015482600801600082825401925050819055508160010154600283600801540211156112f15760028260070160006101000a81548160ff021916908360028111156112eb57fe5b02179055505b7f2c14f956ce5485dce5b0eee9b6b9dc06b40742167e9eda85e72d5ff3a0f506ac848360070160009054906101000a900460ff16856040518084815260200183600281111561133c57fe5b60ff1681526020018260001916600019168152602001935050505060405180910390a1505050505600a165627a7a72305820bbb31fd0e5320a4a526883e096f07e7a4cd80b827c085efd4d256dc0b98ec83b0029",
  "source": "pragma solidity ^0.4.18;\n\n/**\n * Contract represents a crowdsale as a handshake between a payee (crowdsale owner/creator) with multiple payers (crowdsale backers).\n * After creating the handshake, for a fixed duration, users can fund the crowdsale by shaking.\n * If the handshake doesn't meet the goal after the sale time, users can get a full refund.\n * Otherwise, for a fixed duration after the sale, the fund will be distribute linearly to the crowdsale creator for the to build the  * products.\n * At all time, the backers can vote to cancel the crowdsale if they are not happy with the progress. If the total contributions of the * voted users exceed half the raised fund, the crowdsale is cancelled.\n * The remaining fund that hasn't been distributed to the creator will be refunded to the backers proportionally to there initial  * * * contribution.\n */\ncontract CrowdsaleHandshake {\n    struct Payer {\n        uint value;  // total contribution, in wei\n        uint vote;  // 0: not voted, 1: cancel\n    }\n\n    enum S { Inited, Shaked, Cancelled }\n\n    struct Crowdsale {\n        address payee;\n        uint totalValue;  // total contribution of all backers\n        uint balance;  // current funds (in Weis) of the crowdsale\n        uint goal;  // in Weis\n\n        uint saletime;  // before saletime, users can back crowdfund and creator cannot withdraw from it\n        uint deadline;  // the fund is distributed linearly to the creator between saletime and deadline\n        uint lastIncrease;  // last withdraw\n\n        S state;\n        uint m;  // #votes (to cancel crowdsale)\n        mapping(address => Payer) payers;\n    }\n\n    Crowdsale[] public cs;\n\n    modifier onlyPayee(uint hid) {\n        require(msg.sender == cs[hid].payee);\n        _;\n    }\n\n    modifier onlyPayer(uint hid) {\n        require(cs[hid].payers[msg.sender].value > 0);\n        _;\n    }\n\n    function getState(uint hid) public view returns (S) {\n        return cs[hid].state;\n    }\n\n    event __init(uint hid, S state, bytes32 offchain);\n\n    /**\n     * @dev Create a new crowdsale.\n     * @param goal minimum Weis of the crowdsale to pass funding stage.\n     * @param saletime duration (in seconds) for user to fund the crowdsale.\n     * @param deadline duration (in seconds) to distribute the fund to the crowdsale creator.\n     * @param offchain key to the offchain database.\n     */\n    function initCrowdsale(uint goal, uint saletime, uint deadline, bytes32 offchain) public {\n        require(deadline > saletime);\n        cs.push(Crowdsale(msg.sender, 0, 0, goal,\n                          now + saletime * 1 seconds,\n                          now + deadline * 1 seconds,\n                          0,\n                          S.Inited, 0));\n        __init(cs.length - 1, S.Inited, offchain);\n    }\n\n    event __shake(uint hid, S state, uint balance, bytes32 offchain);\n\n    /**\n     * @dev Fund the crowdsale with Ether.\n     * @param hid id of the crowdsale to fund.\n     * @param offchain key to the offchain database.\n     */\n    function shake(uint hid, bytes32 offchain) public payable {\n        Crowdsale storage c = cs[hid];\n        require(msg.value > 0 && now < c.saletime);  // not accept any shake after saletime\n        c.payers[msg.sender].value += msg.value;\n        c.balance += msg.value;\n        c.totalValue = c.balance;  // before payee withdraws, the total contribution is also the balance of the crowdsale\n        if (c.state == S.Inited && c.balance >= c.goal) {\n            c.state = S.Shaked;\n        }\n        __shake(hid, c.state, c.balance, offchain);\n    }\n\n    event __unshake(uint hid, S state, uint balance, bytes32 offchain);\n\n    /**\n     * @dev Cancel a crowdsale funding if it's before saletime.\n     */\n    function unshake(uint hid, bytes32 offchain) public onlyPayer(hid) {\n        Crowdsale storage c = cs[hid];\n        uint val = c.payers[msg.sender].value;\n        require(now < c.saletime && c.balance >= val);\n\n        // Before saletime, creator cannot withdraw; therefore we make full refund to the backer\n        c.payers[msg.sender].value = 0;\n        c.balance -= val;\n        c.totalValue = c.balance;\n        if (c.state == S.Shaked && c.balance < c.goal) {\n            c.state = S.Inited;\n        }\n        msg.sender.transfer(val);\n        __unshake(hid, c.state, c.balance, offchain);\n    }\n\n    event __cancel(uint hid, S state, bytes32 offchain);\n\n    /**\n     * @dev Vote to cancel a crowdsale.\n     */\n    function cancel(uint hid, bytes32 offchain) public onlyPayer(hid) {\n        Crowdsale storage c = cs[hid];\n\n        // Only allow to vote if the goal is met and the crowdfund is in the stage of building product\n        require(c.state == S.Shaked &&\n                now >= c.saletime && now < c.deadline &&\n                c.payers[msg.sender].vote == 0);\n        c.payers[msg.sender].vote = 1;\n        c.m += c.payers[msg.sender].value;\n        if (c.m * 2 > c.totalValue) {  // over 50% of the total contribution of all backers\n            c.state = S.Cancelled;\n        }\n        __cancel(hid, c.state, offchain);\n    }\n\n    event __stop(uint hid, S state, bytes32 offchain);\n\n    /**\n     * @dev Creator stops the crowdsale.\n     */\n    function stop(uint hid, bytes32 offchain) public onlyPayee(hid) {\n        Crowdsale storage c = cs[hid];\n        c.state = S.Cancelled;\n        __stop(hid, c.state, offchain);\n    }\n\n    event __refund(uint hid, S state, bytes32 offchain);\n\n    /**\n     * @dev Get a refund from a cancelled crowdsale.\n     */\n    function refund(uint hid, bytes32 offchain) public {\n        // Cancel crowdfund if goal not reached after saletime\n        Crowdsale storage c = cs[hid];\n        if (c.state == S.Inited && now >= c.saletime && c.balance < c.goal) {\n            c.state = S.Cancelled;\n        }\n\n        S s = c.state;\n        if (s == S.Cancelled) {\n            uint val = c.payers[msg.sender].value;\n            // Distribute the amount left in the crowdsale based on the user's initial contribution.\n            // E.g., the crowdsale raised 10 ETH (totalValue) with 3 ETH funded by msg.sender and the creator already used 4 ETH,\n            // they will be refund back (10 - 4) * (3 / 10) = 1.8 ETH\n            uint amount = val * c.balance / c.totalValue;\n            require(amount <= c.balance && val <= c.totalValue);\n            c.balance -= amount;\n            c.totalValue -= val;\n            c.payers[msg.sender].value = 0;\n\n            msg.sender.transfer(amount);\n            __refund(hid, c.state, offchain);\n        }\n    }\n\n    /**\n     * @dev Get the additional Weis available for the crowdsale creator to withdraw right now.\n     */\n    function additionalPettyCash(uint hid) public view returns (uint) {\n        uint amount = 0;\n        if (now >= cs[hid].saletime) {\n            uint x = now;\n            uint deadline = cs[hid].deadline;\n            uint lastIncrease = cs[hid].lastIncrease;\n            if (x >= deadline)\n                x = deadline;\n\n            // First withdrawal: get at least 30% of the fund\n            if (lastIncrease == 0) {\n                amount = cs[hid].balance * 30 / 100;\n                lastIncrease = cs[hid].saletime;\n            }\n\n            // Distribute linearly between saletime and deadline\n            if (deadline > lastIncrease)\n                amount += (x - lastIncrease) * (cs[hid].balance - amount) / (deadline - lastIncrease);\n        }\n        return amount;\n    }\n\n    event __withdraw(uint hid, uint amount, bytes32 offchain);\n\n    /**\n     * @dev Transfer all available funds right now to the crowdsale creator.\n     */\n    function withdraw(uint hid, bytes32 offchain) public onlyPayee(hid) {\n        Crowdsale storage c = cs[hid];\n        require(c.state == S.Shaked && now >= c.saletime);\n        uint amount = additionalPettyCash(hid);\n        c.lastIncrease = now;\n        c.balance -= amount;  // decrease the balance but not the total amount raised\n        msg.sender.transfer(amount);\n        __withdraw(hid, amount, offchain);\n    }\n}\n",
  "sourcePath": "/Users/Phuong_Mac/Dropbox/autonomous/handshake/contracts/core/CrowdsaleHandshake.sol",
  "compiler": {
    "name": "solc",
    "version": "0.4.23+commit.124ca40d.Emscripten.clang"
  },
  "schemaVersion": "2.0.0",
  "updatedAt": "2018-05-17T04:37:30.600Z"
}