{
  "contractName": "ExchangeCash",
  "abi": [
    {
      "constant": true,
      "inputs": [
        {
          "name": "",
          "type": "uint256"
        }
      ],
      "name": "ex",
      "outputs": [
        {
          "name": "stationOwner",
          "type": "address"
        },
        {
          "name": "customer",
          "type": "address"
        },
        {
          "name": "escrow",
          "type": "uint256"
        },
        {
          "name": "state",
          "type": "uint8"
        },
        {
          "name": "exType",
          "type": "uint8"
        }
      ],
      "payable": false,
      "stateMutability": "view",
      "type": "function"
    },
    {
      "constant": false,
      "inputs": [
        {
          "name": "hid",
          "type": "uint256"
        },
        {
          "name": "customer",
          "type": "address"
        },
        {
          "name": "amount",
          "type": "uint256"
        },
        {
          "name": "offchainP",
          "type": "bytes32"
        },
        {
          "name": "offchainC",
          "type": "bytes32"
        }
      ],
      "name": "releasePartialFund",
      "outputs": [],
      "payable": false,
      "stateMutability": "nonpayable",
      "type": "function"
    },
    {
      "constant": true,
      "inputs": [
        {
          "name": "hid",
          "type": "uint256"
        }
      ],
      "name": "getBalance",
      "outputs": [
        {
          "name": "",
          "type": "uint256"
        }
      ],
      "payable": false,
      "stateMutability": "view",
      "type": "function"
    },
    {
      "constant": false,
      "inputs": [
        {
          "name": "hid",
          "type": "uint256"
        },
        {
          "name": "offchain",
          "type": "bytes32"
        }
      ],
      "name": "finish",
      "outputs": [],
      "payable": false,
      "stateMutability": "nonpayable",
      "type": "function"
    },
    {
      "constant": true,
      "inputs": [
        {
          "name": "hid",
          "type": "uint256"
        }
      ],
      "name": "getState",
      "outputs": [
        {
          "name": "",
          "type": "uint8"
        }
      ],
      "payable": false,
      "stateMutability": "view",
      "type": "function"
    },
    {
      "constant": false,
      "inputs": [
        {
          "name": "offchain",
          "type": "bytes32"
        }
      ],
      "name": "resetAllStation",
      "outputs": [],
      "payable": false,
      "stateMutability": "nonpayable",
      "type": "function"
    },
    {
      "constant": false,
      "inputs": [
        {
          "name": "f",
          "type": "uint256"
        }
      ],
      "name": "setFee",
      "outputs": [],
      "payable": false,
      "stateMutability": "nonpayable",
      "type": "function"
    },
    {
      "constant": false,
      "inputs": [
        {
          "name": "hid",
          "type": "uint256"
        },
        {
          "name": "offchain",
          "type": "bytes32"
        }
      ],
      "name": "reject",
      "outputs": [],
      "payable": false,
      "stateMutability": "nonpayable",
      "type": "function"
    },
    {
      "constant": false,
      "inputs": [
        {
          "name": "hid",
          "type": "uint256"
        },
        {
          "name": "offchain",
          "type": "bytes32"
        }
      ],
      "name": "addInventory",
      "outputs": [],
      "payable": true,
      "stateMutability": "payable",
      "type": "function"
    },
    {
      "constant": false,
      "inputs": [
        {
          "name": "stationOwner",
          "type": "address"
        },
        {
          "name": "offchain",
          "type": "bytes32"
        }
      ],
      "name": "initByCustomer",
      "outputs": [],
      "payable": true,
      "stateMutability": "payable",
      "type": "function"
    },
    {
      "constant": false,
      "inputs": [
        {
          "name": "hid",
          "type": "uint256"
        },
        {
          "name": "offchain",
          "type": "bytes32"
        }
      ],
      "name": "shake",
      "outputs": [],
      "payable": false,
      "stateMutability": "nonpayable",
      "type": "function"
    },
    {
      "constant": false,
      "inputs": [
        {
          "name": "offchain",
          "type": "bytes32"
        }
      ],
      "name": "initByStationOwner",
      "outputs": [],
      "payable": true,
      "stateMutability": "payable",
      "type": "function"
    },
    {
      "constant": false,
      "inputs": [
        {
          "name": "hid",
          "type": "uint256"
        },
        {
          "name": "offchain",
          "type": "bytes32"
        }
      ],
      "name": "cancel",
      "outputs": [],
      "payable": false,
      "stateMutability": "nonpayable",
      "type": "function"
    },
    {
      "constant": false,
      "inputs": [
        {
          "name": "hid",
          "type": "uint256"
        },
        {
          "name": "offchain",
          "type": "bytes32"
        }
      ],
      "name": "closeByStationOwner",
      "outputs": [],
      "payable": false,
      "stateMutability": "nonpayable",
      "type": "function"
    },
    {
      "inputs": [],
      "payable": false,
      "stateMutability": "nonpayable",
      "type": "constructor"
    },
    {
      "anonymous": false,
      "inputs": [
        {
          "indexed": false,
          "name": "fee",
          "type": "uint256"
        }
      ],
      "name": "__setFee",
      "type": "event"
    },
    {
      "anonymous": false,
      "inputs": [
        {
          "indexed": false,
          "name": "hid",
          "type": "uint256"
        },
        {
          "indexed": false,
          "name": "stationOwner",
          "type": "address"
        },
        {
          "indexed": false,
          "name": "value",
          "type": "uint256"
        },
        {
          "indexed": false,
          "name": "offchain",
          "type": "bytes32"
        }
      ],
      "name": "__initByStationOwner",
      "type": "event"
    },
    {
      "anonymous": false,
      "inputs": [
        {
          "indexed": false,
          "name": "hid",
          "type": "uint256"
        },
        {
          "indexed": false,
          "name": "offchain",
          "type": "bytes32"
        }
      ],
      "name": "__closeByStationOwner",
      "type": "event"
    },
    {
      "anonymous": false,
      "inputs": [
        {
          "indexed": false,
          "name": "hid",
          "type": "uint256"
        },
        {
          "indexed": false,
          "name": "customer",
          "type": "address"
        },
        {
          "indexed": false,
          "name": "amount",
          "type": "uint256"
        },
        {
          "indexed": false,
          "name": "offchainP",
          "type": "bytes32"
        },
        {
          "indexed": false,
          "name": "offchainC",
          "type": "bytes32"
        }
      ],
      "name": "__releasePartialFund",
      "type": "event"
    },
    {
      "anonymous": false,
      "inputs": [
        {
          "indexed": false,
          "name": "hid",
          "type": "uint256"
        },
        {
          "indexed": false,
          "name": "offchain",
          "type": "bytes32"
        }
      ],
      "name": "__addInventory",
      "type": "event"
    },
    {
      "anonymous": false,
      "inputs": [
        {
          "indexed": false,
          "name": "hid",
          "type": "uint256"
        },
        {
          "indexed": false,
          "name": "customer",
          "type": "address"
        },
        {
          "indexed": false,
          "name": "stationOwner",
          "type": "address"
        },
        {
          "indexed": false,
          "name": "value",
          "type": "uint256"
        },
        {
          "indexed": false,
          "name": "offchain",
          "type": "bytes32"
        }
      ],
      "name": "__initByCustomer",
      "type": "event"
    },
    {
      "anonymous": false,
      "inputs": [
        {
          "indexed": false,
          "name": "hid",
          "type": "uint256"
        },
        {
          "indexed": false,
          "name": "offchain",
          "type": "bytes32"
        }
      ],
      "name": "__cancel",
      "type": "event"
    },
    {
      "anonymous": false,
      "inputs": [
        {
          "indexed": false,
          "name": "hid",
          "type": "uint256"
        },
        {
          "indexed": false,
          "name": "offchain",
          "type": "bytes32"
        }
      ],
      "name": "__shake",
      "type": "event"
    },
    {
      "anonymous": false,
      "inputs": [
        {
          "indexed": false,
          "name": "hid",
          "type": "uint256"
        },
        {
          "indexed": false,
          "name": "offchain",
          "type": "bytes32"
        }
      ],
      "name": "__reject",
      "type": "event"
    },
    {
      "anonymous": false,
      "inputs": [
        {
          "indexed": false,
          "name": "hid",
          "type": "uint256"
        },
        {
          "indexed": false,
          "name": "offchain",
          "type": "bytes32"
        }
      ],
      "name": "__finish",
      "type": "event"
    },
    {
      "anonymous": false,
      "inputs": [
        {
          "indexed": false,
          "name": "offchain",
          "type": "bytes32"
        },
        {
          "indexed": false,
          "name": "hid",
          "type": "uint256"
        }
      ],
      "name": "__resetAllStation",
      "type": "event"
    }
  ],
  "bytecode": "0x6080604052600060015534801561001557600080fd5b50336000806101000a81548173ffffffffffffffffffffffffffffffffffffffff021916908373ffffffffffffffffffffffffffffffffffffffff160217905550611ecf806100656000396000f3006080604052600436106100d0576000357c0100000000000000000000000000000000000000000000000000000000900463ffffffff1680631089f215146100d557806315d85cee146101a65780631e0104391461021957806335e8b2df1461025a57806344c9af28146102955780635dccb051146102dc57806369fe0e2d1461030d5780636be1320b1461033a57806393341a0b14610375578063a3b2ea71146103a3578063b09b2f85146103e7578063b4bd5dbb14610422578063eafb64d514610446578063ef3ae61214610481575b600080fd5b3480156100e157600080fd5b50610100600480360381019080803590602001909291905050506104bc565b604051808673ffffffffffffffffffffffffffffffffffffffff1673ffffffffffffffffffffffffffffffffffffffff1681526020018573ffffffffffffffffffffffffffffffffffffffff1673ffffffffffffffffffffffffffffffffffffffff16815260200184815260200183600481111561017a57fe5b60ff16815260200182600181111561018e57fe5b60ff1681526020019550505050505060405180910390f35b3480156101b257600080fd5b5061021760048036038101908080359060200190929190803573ffffffffffffffffffffffffffffffffffffffff169060200190929190803590602001909291908035600019169060200190929190803560001916906020019092919050505061055b565b005b34801561022557600080fd5b5061024460048036038101908080359060200190929190505050610877565b6040518082815260200191505060405180910390f35b34801561026657600080fd5b506102936004803603810190808035906020019092919080356000191690602001909291905050506108a6565b005b3480156102a157600080fd5b506102c060048036038101908080359060200190929190505050610b50565b604051808260ff1660ff16815260200191505060405180910390f35b3480156102e857600080fd5b5061030b6004803603810190808035600019169060200190929190505050610b97565b005b34801561031957600080fd5b5061033860048036038101908080359060200190929190505050610eef565b005b34801561034657600080fd5b50610373600480360381019080803590602001909291908035600019169060200190929190505050610f8d565b005b6103a160048036038101908080359060200190929190803560001916906020019092919050505061118b565b005b6103e5600480360381019080803573ffffffffffffffffffffffffffffffffffffffff1690602001909291908035600019169060200190929190505050611312565b005b3480156103f357600080fd5b506104206004803603810190808035906020019092919080356000191690602001909291905050506115c8565b005b61044460048036038101908080356000191690602001909291905050506117c8565b005b34801561045257600080fd5b5061047f600480360381019080803590602001909291908035600019169060200190929190505050611a11565b005b34801561048d57600080fd5b506104ba600480360381019080803590602001909291908035600019169060200190929190505050611c41565b005b6002818154811015156104cb57fe5b90600052602060002090600402016000915090508060000160009054906101000a900473ffffffffffffffffffffffffffffffffffffffff16908060010160009054906101000a900473ffffffffffffffffffffffffffffffffffffffff16908060020154908060030160009054906101000a900460ff16908060030160019054906101000a900460ff16905085565b60008060008760028181548110151561057057fe5b906000526020600020906004020160000160009054906101000a900473ffffffffffffffffffffffffffffffffffffffff1673ffffffffffffffffffffffffffffffffffffffff163373ffffffffffffffffffffffffffffffffffffffff161415156105db57600080fd5b6000896002818154811015156105ed57fe5b906000526020600020906004020160030160009054906101000a900460ff16600481111561061757fe5b82600481111561062357fe5b14151561062f57600080fd5b60008a73ffffffffffffffffffffffffffffffffffffffff16141580156106565750600089115b151561066157600080fd5b60028b81548110151561067057fe5b906000526020600020906004020195506000600181111561068d57fe5b8660030160019054906101000a900460ff1660018111156106aa57fe5b1415156106b657600080fd5b6103e86001548a028115156106c757fe5b0494508489019350838660020154101515156106e257600080fd5b8386600201600082825403925050819055506000809054906101000a900473ffffffffffffffffffffffffffffffffffffffff1673ffffffffffffffffffffffffffffffffffffffff166108fc869081150290604051600060405180830381858888f1935050505015801561075b573d6000803e3d6000fd5b508973ffffffffffffffffffffffffffffffffffffffff166108fc8a9081150290604051600060405180830381858888f193505050501580156107a2573d6000803e3d6000fd5b506000866002015414156107d75760048660030160006101000a81548160ff021916908360048111156107d157fe5b02179055505b7ff83285d8d874832066930a6cd961e4fa4156c7a28dcdfb4bc9aaa13e0be2bfcc8b8b8b8b8b604051808681526020018573ffffffffffffffffffffffffffffffffffffffff1673ffffffffffffffffffffffffffffffffffffffff168152602001848152602001836000191660001916815260200182600019166000191681526020019550505050505060405180910390a15050505050505050505050565b60008060028381548110151561088957fe5b906000526020600020906004020190508060020154915050919050565b600080836002818154811015156108b957fe5b906000526020600020906004020160010160009054906101000a900473ffffffffffffffffffffffffffffffffffffffff1673ffffffffffffffffffffffffffffffffffffffff163373ffffffffffffffffffffffffffffffffffffffff1614151561092457600080fd5b60018560028181548110151561093657fe5b906000526020600020906004020160030160009054906101000a900460ff16600481111561096057fe5b82600481111561096c57fe5b14151561097857600080fd5b60028781548110151561098757fe5b90600052602060002090600402019450600085600201541115156109aa57600080fd5b6001808111156109b657fe5b8560030160019054906101000a900460ff1660018111156109d357fe5b1415156109df57600080fd5b6103e86001548660020154028115156109f457fe5b0493508460000160009054906101000a900473ffffffffffffffffffffffffffffffffffffffff1673ffffffffffffffffffffffffffffffffffffffff166108fc858760020154039081150290604051600060405180830381858888f19350505050158015610a67573d6000803e3d6000fd5b506000809054906101000a900473ffffffffffffffffffffffffffffffffffffffff1673ffffffffffffffffffffffffffffffffffffffff166108fc859081150290604051600060405180830381858888f19350505050158015610acf573d6000803e3d6000fd5b506000856002018190555060048560030160006101000a81548160ff02191690836004811115610afb57fe5b02179055507ffda1b0d3f21a187df4a198a15b2361d3cc73501a41bf582d8bcadc9d266da83a87876040518083815260200182600019166000191681526020019250505060405180910390a150505050505050565b600080600283815481101515610b6257fe5b906000526020600020906004020190508060030160009054906101000a900460ff166004811115610b8f57fe5b915050919050565b6000806000809054906101000a900473ffffffffffffffffffffffffffffffffffffffff1673ffffffffffffffffffffffffffffffffffffffff163373ffffffffffffffffffffffffffffffffffffffff16141515610bf557600080fd5b600091505b600280549050821015610eea57600282815481101515610c1657fe5b9060005260206000209060040201905060008160020154118015610c93575060006004811115610c4257fe5b8160030160009054906101000a900460ff166004811115610c5f57fe5b1480610c92575060016004811115610c7357fe5b8160030160009054906101000a900460ff166004811115610c9057fe5b145b5b15610edd5760006001811115610ca557fe5b8160030160019054906101000a900460ff166001811115610cc257fe5b148015610d0a575060008160000160009054906101000a900473ffffffffffffffffffffffffffffffffffffffff1673ffffffffffffffffffffffffffffffffffffffff1614155b15610d7f578060000160009054906101000a900473ffffffffffffffffffffffffffffffffffffffff1673ffffffffffffffffffffffffffffffffffffffff166108fc82600201549081150290604051600060405180830381858888f19350505050158015610d7d573d6000803e3d6000fd5b505b600180811115610d8b57fe5b8160030160019054906101000a900460ff166001811115610da857fe5b148015610df0575060008160010160009054906101000a900473ffffffffffffffffffffffffffffffffffffffff1673ffffffffffffffffffffffffffffffffffffffff1614155b15610e65578060010160009054906101000a900473ffffffffffffffffffffffffffffffffffffffff1673ffffffffffffffffffffffffffffffffffffffff166108fc82600201549081150290604051600060405180830381858888f19350505050158015610e63573d6000803e3d6000fd5b505b6000816002018190555060038160030160006101000a81548160ff02191690836004811115610e9057fe5b02179055507f662e91d90d55337d5d94803948f0c8af02b95ffe65407b3412119e88666787c983836040518083600019166000191681526020018281526020019250505060405180910390a15b8180600101925050610bfa565b505050565b6000809054906101000a900473ffffffffffffffffffffffffffffffffffffffff1673ffffffffffffffffffffffffffffffffffffffff163373ffffffffffffffffffffffffffffffffffffffff16141515610f4a57600080fd5b806001819055507f1941cda5868c57eb88923fbcebe63c45bf133819cf0720c99865546a2615f4a76001546040518082815260200191505060405180910390a150565b600082600281815481101515610f9f57fe5b906000526020600020906004020160000160009054906101000a900473ffffffffffffffffffffffffffffffffffffffff1673ffffffffffffffffffffffffffffffffffffffff163373ffffffffffffffffffffffffffffffffffffffff161480611075575060028181548110151561101457fe5b906000526020600020906004020160010160009054906101000a900473ffffffffffffffffffffffffffffffffffffffff1673ffffffffffffffffffffffffffffffffffffffff163373ffffffffffffffffffffffffffffffffffffffff16145b151561108057600080fd5b60028481548110151561108f57fe5b9060005260206000209060040201915060028260030160006101000a81548160ff021916908360048111156110c057fe5b02179055508160010160009054906101000a900473ffffffffffffffffffffffffffffffffffffffff1673ffffffffffffffffffffffffffffffffffffffff166108fc83600201549081150290604051600060405180830381858888f19350505050158015611133573d6000803e3d6000fd5b50600082600201819055507fae76720f3a5d319b91bc94d8a6c2e3096a4f3554c8cb897e3aedfced5824a10a84846040518083815260200182600019166000191681526020019250505060405180910390a150505050565b60008260028181548110151561119d57fe5b906000526020600020906004020160000160009054906101000a900473ffffffffffffffffffffffffffffffffffffffff1673ffffffffffffffffffffffffffffffffffffffff163373ffffffffffffffffffffffffffffffffffffffff1614151561120857600080fd5b60008460028181548110151561121a57fe5b906000526020600020906004020160030160009054906101000a900460ff16600481111561124457fe5b82600481111561125057fe5b14151561125c57600080fd5b60028681548110151561126b57fe5b906000526020600020906004020193506000600181111561128857fe5b8460030160019054906101000a900460ff1660018111156112a557fe5b1415156112b157600080fd5b3484600201600082825401925050819055507f414b45f3f079051d7402c185b2031c6033fd30f7ff54ea87dbc22ec69c62645286866040518083815260200182600019166000191681526020019250505060405180910390a1505050505050565b61131a611e31565b60003411151561132957600080fd5b33816020019073ffffffffffffffffffffffffffffffffffffffff16908173ffffffffffffffffffffffffffffffffffffffff168152505082816000019073ffffffffffffffffffffffffffffffffffffffff16908173ffffffffffffffffffffffffffffffffffffffff1681525050348160400181815250506000816060019060048111156113b557fe5b908160048111156113c257fe5b815250506001816080019060018111156113d857fe5b908160018111156113e557fe5b815250506002819080600181540180825580915050906001820390600052602060002090600402016000909192909190915060008201518160000160006101000a81548173ffffffffffffffffffffffffffffffffffffffff021916908373ffffffffffffffffffffffffffffffffffffffff16021790555060208201518160010160006101000a81548173ffffffffffffffffffffffffffffffffffffffff021916908373ffffffffffffffffffffffffffffffffffffffff1602179055506040820151816002015560608201518160030160006101000a81548160ff021916908360048111156114d357fe5b021790555060808201518160030160016101000a81548160ff021916908360018111156114fc57fe5b02179055505050507faa539cf6b39fbef365d4e0d2b9d8017bd6b1a36893a02b2a7f0324a705e8309460016002805490500333853486604051808681526020018573ffffffffffffffffffffffffffffffffffffffff1673ffffffffffffffffffffffffffffffffffffffff1681526020018473ffffffffffffffffffffffffffffffffffffffff1673ffffffffffffffffffffffffffffffffffffffff16815260200183815260200182600019166000191681526020019550505050505060405180910390a1505050565b6000826002818154811015156115da57fe5b906000526020600020906004020160000160009054906101000a900473ffffffffffffffffffffffffffffffffffffffff1673ffffffffffffffffffffffffffffffffffffffff163373ffffffffffffffffffffffffffffffffffffffff1614151561164557600080fd5b60008460028181548110151561165757fe5b906000526020600020906004020160030160009054906101000a900460ff16600481111561168157fe5b82600481111561168d57fe5b14151561169957600080fd5b6002868154811015156116a857fe5b9060005260206000209060040201935060008460010160009054906101000a900473ffffffffffffffffffffffffffffffffffffffff1673ffffffffffffffffffffffffffffffffffffffff161415151561170257600080fd5b60018081111561170e57fe5b8460030160019054906101000a900460ff16600181111561172b57fe5b14151561173757600080fd5b600160028781548110151561174857fe5b906000526020600020906004020160030160006101000a81548160ff0219169083600481111561177457fe5b02179055507f6a5ee55c9df2daa4375d2b5e4ec8b9e5662f1863207bcbe6e38c6f5fe3c2430086866040518083815260200182600019166000191681526020019250505060405180910390a1505050505050565b6117d0611e31565b6000341115156117df57600080fd5b33816000019073ffffffffffffffffffffffffffffffffffffffff16908173ffffffffffffffffffffffffffffffffffffffff16815250503481604001818152505060008160600190600481111561183357fe5b9081600481111561184057fe5b8152505060008160800190600181111561185657fe5b9081600181111561186357fe5b815250506002819080600181540180825580915050906001820390600052602060002090600402016000909192909190915060008201518160000160006101000a81548173ffffffffffffffffffffffffffffffffffffffff021916908373ffffffffffffffffffffffffffffffffffffffff16021790555060208201518160010160006101000a81548173ffffffffffffffffffffffffffffffffffffffff021916908373ffffffffffffffffffffffffffffffffffffffff1602179055506040820151816002015560608201518160030160006101000a81548160ff0219169083600481111561195157fe5b021790555060808201518160030160016101000a81548160ff0219169083600181111561197a57fe5b02179055505050507f04d411f10f50ce6fe597ddd1436d44c2118417e90cbb982e009b8215ee689c79600160028054905003333485604051808581526020018473ffffffffffffffffffffffffffffffffffffffff1673ffffffffffffffffffffffffffffffffffffffff168152602001838152602001826000191660001916815260200194505050505060405180910390a15050565b600082600281815481101515611a2357fe5b906000526020600020906004020160000160009054906101000a900473ffffffffffffffffffffffffffffffffffffffff1673ffffffffffffffffffffffffffffffffffffffff163373ffffffffffffffffffffffffffffffffffffffff161480611af95750600281815481101515611a9857fe5b906000526020600020906004020160010160009054906101000a900473ffffffffffffffffffffffffffffffffffffffff1673ffffffffffffffffffffffffffffffffffffffff163373ffffffffffffffffffffffffffffffffffffffff16145b1515611b0457600080fd5b600084600281815481101515611b1657fe5b906000526020600020906004020160030160009054906101000a900460ff166004811115611b4057fe5b826004811115611b4c57fe5b141515611b5857600080fd5b600286815481101515611b6757fe5b9060005260206000209060040201935060038460030160006101000a81548160ff02191690836004811115611b9857fe5b02179055503373ffffffffffffffffffffffffffffffffffffffff166108fc85600201549081150290604051600060405180830381858888f19350505050158015611be7573d6000803e3d6000fd5b50600084600201819055507fcb720f90f098c425fad2e9df556017c076f9bf7aefa096d1c904a06027ae046086866040518083815260200182600019166000191681526020019250505060405180910390a1505050505050565b600082600281815481101515611c5357fe5b906000526020600020906004020160000160009054906101000a900473ffffffffffffffffffffffffffffffffffffffff1673ffffffffffffffffffffffffffffffffffffffff163373ffffffffffffffffffffffffffffffffffffffff16141515611cbe57600080fd5b600084600281815481101515611cd057fe5b906000526020600020906004020160030160009054906101000a900460ff166004811115611cfa57fe5b826004811115611d0657fe5b141515611d1257600080fd5b600286815481101515611d2157fe5b9060005260206000209060040201935060006001811115611d3e57fe5b8460030160019054906101000a900460ff166001811115611d5b57fe5b141515611d6757600080fd5b60038460030160006101000a81548160ff02191690836004811115611d8857fe5b02179055503373ffffffffffffffffffffffffffffffffffffffff166108fc85600201549081150290604051600060405180830381858888f19350505050158015611dd7573d6000803e3d6000fd5b50600084600201819055507fa4b2dfc35c48bbe07f2063bd9fcf0afa08891ebf8b417a983f957ac8708612a386866040518083815260200182600019166000191681526020019250505060405180910390a1505050505050565b60a060405190810160405280600073ffffffffffffffffffffffffffffffffffffffff168152602001600073ffffffffffffffffffffffffffffffffffffffff1681526020016000815260200160006004811115611e8b57fe5b815260200160006001811115611e9d57fe5b815250905600a165627a7a723058203b91ae19b0f5b8fc617c2a9fb37028320dfaeb5edde7e54c91344c7e8ed8dccd0029",
  "source": "pragma solidity ^0.4.24;\n\ncontract ExchangeCash {\n\n    address owner;\n\n    constructor() public {\n        owner = msg.sender;\n    }\n    uint fee = 0;// 0%\n\n    enum S { Inited, Shaked, Rejected, Cancelled,Done }\n    enum T { Station, Customer }\n\n    struct Exchange {\n        address stationOwner;\n        address customer;\n        uint escrow;\n        S state;\n        T exType;\n    }\n\n    Exchange[] public ex;\n    event __setFee(uint fee);\n\n    event __initByStationOwner(uint hid, address stationOwner, uint value,bytes32 offchain);\n    event __closeByStationOwner(uint hid, bytes32 offchain);\n    event __releasePartialFund(uint hid,address customer,uint amount,bytes32 offchainP,bytes32 offchainC);\n    event __addInventory(uint hid, bytes32 offchain);\n\n    event __initByCustomer(uint hid, address customer, address stationOwner, uint value,bytes32 offchain);\n    event __cancel(uint hid, bytes32 offchain);\n    event __shake(uint hid, bytes32 offchain);\n    event __reject(uint hid, bytes32 offchain);\n    event __finish(uint hid, bytes32 offchain);\n    event __resetAllStation(bytes32 offchain,uint hid);\n\n\n    //success if sender is stationOwner\n    modifier onlyStationOwner(uint hid) {\n        require(msg.sender == ex[hid].stationOwner);\n        _;\n    }\n\n    //success if sender is customer\n    modifier onlyCustomer(uint hid) {\n        require(msg.sender == ex[hid].customer);\n        _;\n    }\n\n\n    //success if sender is stationOwner or customer\n    modifier onlyStationOwnerOrCustomer(uint hid) {\n        require(msg.sender == ex[hid].stationOwner || msg.sender == ex[hid].customer);\n        _;\n    }\n\n    //success if sender is owner\n    modifier onlyOwner() {\n        require(msg.sender == owner);\n        _;\n    }\n\n    modifier atState(S _s, uint hid) {\n        require(_s == ex[hid].state);\n        _;\n    }\n\n    /**\n        * @dev Initiate exchange fee by owner\n        * @param f exchange fee\n        */\n    function setFee(\n        uint f\n    )\n        public\n        onlyOwner()\n    {\n        fee = f;\n        emit __setFee(fee);\n    }\n    /**\n    * @dev Initiate handshake by stationOwner\n    * @param offchain record ID in offchain backend database\n    */\n    function initByStationOwner(\n        bytes32 offchain\n    )\n        public\n        payable\n    {\n        require(msg.value > 0);\n        Exchange memory p;\n        p.stationOwner = msg.sender;\n        p.escrow = msg.value;\n        p.state = S.Inited;\n        p.exType = T.Station;\n        ex.push(p);\n        emit __initByStationOwner(ex.length - 1, msg.sender, msg.value, offchain);\n    }\n\n    //CashOwner close the transaction after init\n    function closeByStationOwner(uint hid, bytes32 offchain) public onlyStationOwner(hid)\n        atState(S.Inited, hid)\n    {\n        Exchange storage p = ex[hid];\n        require(p.exType == T.Station);\n        p.state = S.Cancelled;\n        msg.sender.transfer(p.escrow);\n        p.escrow = 0;\n        emit __closeByStationOwner(hid, offchain);\n    }\n\n    //CashOwner close the transaction after init\n    function addInventory(uint hid, bytes32 offchain)\n        public\n        payable\n        onlyStationOwner(hid)\n        atState(S.Inited, hid)\n    {\n        Exchange storage p = ex[hid];\n        require(p.exType == T.Station);\n        p.escrow += msg.value;\n        emit __addInventory(hid, offchain);\n    }\n\n    //CoinOwner releaseFundByStationOwner transaction\n    function releasePartialFund(uint hid,address customer,uint amount, bytes32 offchainP, bytes32 offchainC) public onlyStationOwner(hid)\n        atState(S.Inited, hid)\n    {\n        require(customer != 0x0 && amount > 0);\n        Exchange storage p = ex[hid];\n        require(p.exType == T.Station);\n\n        uint f = (amount * fee) / 1000;\n        uint t = amount + f;\n        require(p.escrow >= t);\n        p.escrow -= t;\n        owner.transfer(f);\n        customer.transfer(amount);\n        if (p.escrow == 0) p.state = S.Done;\n        emit __releasePartialFund(hid,customer, amount, offchainP, offchainC);\n    }\n\n\n\n    /**\n    * @dev Initiate handshake by Customer\n    */\n    function initByCustomer(\n        address stationOwner,\n        bytes32 offchain\n    )\n        public\n        payable\n    {\n        require(msg.value > 0);\n        Exchange memory p;\n        p.customer = msg.sender;\n        p.stationOwner = stationOwner;\n        p.escrow = msg.value;\n        p.state = S.Inited;\n        p.exType = T.Customer;\n        ex.push(p);\n        emit __initByCustomer(ex.length - 1, msg.sender,stationOwner,msg.value, offchain);\n    }\n\n\n    //coinOwner cancel the handshake\n    function cancel(uint hid, bytes32 offchain) public\n        onlyStationOwnerOrCustomer(hid)\n        atState(S.Inited, hid)\n    {\n        Exchange storage p = ex[hid];\n        p.state = S.Cancelled;\n        msg.sender.transfer(p.escrow);\n        p.escrow = 0;\n        emit __cancel(hid, offchain);\n    }\n\n    //stationOwner agree and make a handshake\n    function shake(uint hid, bytes32 offchain) public\n        onlyStationOwner(hid)\n        atState(S.Inited, hid)\n    {\n        Exchange storage p = ex[hid];\n\n        require(p.customer != 0x0);\n        require(p.exType == T.Customer);\n\n        ex[hid].state = S.Shaked;\n        emit __shake(hid, offchain);\n\n    }\n\n    //customer finish transaction for sending the coin to stationOwner\n    function finish(uint hid, bytes32 offchain) public onlyCustomer(hid)\n        atState(S.Shaked, hid)\n    {\n        Exchange storage p = ex[hid];\n        require(p.escrow > 0);\n        require(p.exType == T.Customer);\n        uint f = (p.escrow * fee) / 1000;\n\n        p.stationOwner.transfer(p.escrow-f);\n        owner.transfer(f);\n        p.escrow = 0;\n        p.state = S.Done;\n        emit __finish(hid, offchain);\n    }\n\n\n    //CashOwner reject the transaction\n    function reject(uint hid, bytes32 offchain) public\n        onlyStationOwnerOrCustomer(hid)\n    {\n        Exchange storage p = ex[hid];\n        p.state = S.Rejected;\n        p.customer.transfer(p.escrow);\n        p.escrow = 0;\n        emit __reject(hid, offchain);\n    }\n\n    //get handshake stage by hid\n     function getState(uint hid) public constant returns(uint8){\n        Exchange storage p = ex[hid];\n        return uint8(p.state);\n     }\n\n      //get handshake balance by hid\n      function getBalance(uint hid) public constant returns(uint){\n         Exchange storage p = ex[hid];\n         return p.escrow;\n      }\n\n     function resetAllStation(bytes32 offchain) public onlyOwner {\n\n         for (uint i = 0; i < ex.length; i++) {\n             Exchange storage p = ex[i];\n             if(p.escrow > 0 && (p.state == S.Inited || p.state == S.Shaked)){\n                 if(p.exType == T.Station && p.stationOwner != 0x0){\n                    p.stationOwner.transfer(p.escrow);\n                 }\n                 if(p.exType == T.Customer && p.customer != 0x0){\n                    p.customer.transfer(p.escrow);\n                 }\n                 p.escrow = 0;\n                 p.state = S.Cancelled;\n                 emit __resetAllStation(offchain,i);\n             }\n         }\n     }\n\n}\n",
  "sourcePath": "/Autonomous/handshake-protocol/contracts/ExchangeCash.sol",
  "compiler": {
    "name": "solc",
    "version": "0.4.24+commit.e67f0147.Emscripten.clang"
  },
  "schemaVersion": "1.0.1",
  "updatedAt": "2018-07-16T05:03:20.621Z"
}