{
  "contractName": "ExchangeHandshake",
  "abi": [
    {
      "constant": true,
      "inputs": [
        {
          "name": "",
          "type": "uint256"
        }
      ],
      "name": "ex",
      "outputs": [
        {
          "name": "coinOwner",
          "type": "address"
        },
        {
          "name": "cashOwner",
          "type": "address"
        },
        {
          "name": "exchanger",
          "type": "address"
        },
        {
          "name": "adrFeeRefund",
          "type": "address"
        },
        {
          "name": "fee",
          "type": "uint256"
        },
        {
          "name": "feeRefund",
          "type": "uint256"
        },
        {
          "name": "value",
          "type": "uint256"
        },
        {
          "name": "state",
          "type": "uint8"
        }
      ],
      "payable": false,
      "stateMutability": "view",
      "type": "function"
    },
    {
      "constant": false,
      "inputs": [
        {
          "name": "exchanger",
          "type": "address"
        },
        {
          "name": "adrFeeRefund",
          "type": "address"
        },
        {
          "name": "value",
          "type": "uint256"
        },
        {
          "name": "offchain",
          "type": "bytes32"
        }
      ],
      "name": "initByCoinOwner",
      "outputs": [],
      "payable": true,
      "stateMutability": "payable",
      "type": "function"
    },
    {
      "constant": false,
      "inputs": [
        {
          "name": "hid",
          "type": "uint256"
        },
        {
          "name": "offchain",
          "type": "bytes32"
        }
      ],
      "name": "accept",
      "outputs": [],
      "payable": false,
      "stateMutability": "nonpayable",
      "type": "function"
    },
    {
      "constant": false,
      "inputs": [
        {
          "name": "f",
          "type": "uint256"
        },
        {
          "name": "fr",
          "type": "uint256"
        }
      ],
      "name": "setFee",
      "outputs": [],
      "payable": false,
      "stateMutability": "nonpayable",
      "type": "function"
    },
    {
      "constant": false,
      "inputs": [
        {
          "name": "hid",
          "type": "uint256"
        },
        {
          "name": "offchain",
          "type": "bytes32"
        }
      ],
      "name": "reject",
      "outputs": [],
      "payable": false,
      "stateMutability": "nonpayable",
      "type": "function"
    },
    {
      "constant": true,
      "inputs": [],
      "name": "owner",
      "outputs": [
        {
          "name": "",
          "type": "address"
        }
      ],
      "payable": false,
      "stateMutability": "view",
      "type": "function"
    },
    {
      "constant": false,
      "inputs": [
        {
          "name": "exchanger",
          "type": "address"
        },
        {
          "name": "adrFeeRefund",
          "type": "address"
        },
        {
          "name": "value",
          "type": "uint256"
        },
        {
          "name": "offchain",
          "type": "bytes32"
        }
      ],
      "name": "init",
      "outputs": [],
      "payable": false,
      "stateMutability": "nonpayable",
      "type": "function"
    },
    {
      "constant": false,
      "inputs": [
        {
          "name": "hid",
          "type": "uint256"
        },
        {
          "name": "offchain",
          "type": "bytes32"
        }
      ],
      "name": "withdraw",
      "outputs": [],
      "payable": false,
      "stateMutability": "nonpayable",
      "type": "function"
    },
    {
      "constant": false,
      "inputs": [
        {
          "name": "hid",
          "type": "uint256"
        },
        {
          "name": "offchain",
          "type": "bytes32"
        }
      ],
      "name": "shake",
      "outputs": [],
      "payable": true,
      "stateMutability": "payable",
      "type": "function"
    },
    {
      "constant": false,
      "inputs": [
        {
          "name": "hid",
          "type": "uint256"
        },
        {
          "name": "offchain",
          "type": "bytes32"
        }
      ],
      "name": "cancel",
      "outputs": [],
      "payable": false,
      "stateMutability": "nonpayable",
      "type": "function"
    },
    {
      "inputs": [],
      "payable": false,
      "stateMutability": "nonpayable",
      "type": "constructor"
    },
    {
      "anonymous": false,
      "inputs": [
        {
          "indexed": false,
          "name": "fee",
          "type": "uint256"
        },
        {
          "indexed": false,
          "name": "feeRefund",
          "type": "uint256"
        }
      ],
      "name": "__setFee",
      "type": "event"
    },
    {
      "anonymous": false,
      "inputs": [
        {
          "indexed": false,
          "name": "hid",
          "type": "uint256"
        },
        {
          "indexed": false,
          "name": "initiator",
          "type": "address"
        },
        {
          "indexed": false,
          "name": "offchain",
          "type": "bytes32"
        }
      ],
      "name": "__init",
      "type": "event"
    },
    {
      "anonymous": false,
      "inputs": [
        {
          "indexed": false,
          "name": "hid",
          "type": "uint256"
        },
        {
          "indexed": false,
          "name": "offchain",
          "type": "bytes32"
        }
      ],
      "name": "__shake",
      "type": "event"
    },
    {
      "anonymous": false,
      "inputs": [
        {
          "indexed": false,
          "name": "hid",
          "type": "uint256"
        },
        {
          "indexed": false,
          "name": "offchain",
          "type": "bytes32"
        }
      ],
      "name": "__withdraw",
      "type": "event"
    },
    {
      "anonymous": false,
      "inputs": [
        {
          "indexed": false,
          "name": "hid",
          "type": "uint256"
        },
        {
          "indexed": false,
          "name": "offchain",
          "type": "bytes32"
        }
      ],
      "name": "__reject",
      "type": "event"
    },
    {
      "anonymous": false,
      "inputs": [
        {
          "indexed": false,
          "name": "hid",
          "type": "uint256"
        },
        {
          "indexed": false,
          "name": "offchain",
          "type": "bytes32"
        }
      ],
      "name": "__accept",
      "type": "event"
    },
    {
      "anonymous": false,
      "inputs": [
        {
          "indexed": false,
          "name": "hid",
          "type": "uint256"
        },
        {
          "indexed": false,
          "name": "offchain",
          "type": "bytes32"
        }
      ],
      "name": "__cancel",
      "type": "event"
    }
  ],
  "bytecode": "0x6060604052341561000f57600080fd5b336000806101000a81548173ffffffffffffffffffffffffffffffffffffffff021916908373ffffffffffffffffffffffffffffffffffffffff16021790555061176c8061005e6000396000f3006060604052600436106100a4576000357c0100000000000000000000000000000000000000000000000000000000900463ffffffff1680631089f215146100a95780631178a48a146101cf5780635203dcda1461023257806352f7c988146102625780636be1320b1461028e5780638da5cb5b146102be5780638ffaa81314610313578063a8d2021a14610381578063b09b2f85146103b1578063eafb64d5146103d6575b600080fd5b34156100b457600080fd5b6100ca6004808035906020019091905050610406565b604051808973ffffffffffffffffffffffffffffffffffffffff1673ffffffffffffffffffffffffffffffffffffffff1681526020018873ffffffffffffffffffffffffffffffffffffffff1673ffffffffffffffffffffffffffffffffffffffff1681526020018773ffffffffffffffffffffffffffffffffffffffff1673ffffffffffffffffffffffffffffffffffffffff1681526020018673ffffffffffffffffffffffffffffffffffffffff1673ffffffffffffffffffffffffffffffffffffffff1681526020018581526020018481526020018381526020018260058111156101b457fe5b60ff1681526020019850505050505050505060405180910390f35b610230600480803573ffffffffffffffffffffffffffffffffffffffff1690602001909190803573ffffffffffffffffffffffffffffffffffffffff16906020019091908035906020019091908035600019169060200190919050506104ea565b005b341561023d57600080fd5b6102606004808035906020019091908035600019169060200190919050506107f0565b005b341561026d57600080fd5b61028c6004808035906020019091908035906020019091905050610955565b005b341561029957600080fd5b6102bc600480803590602001909190803560001916906020019091905050610a05565b005b34156102c957600080fd5b6102d1610b63565b604051808273ffffffffffffffffffffffffffffffffffffffff1673ffffffffffffffffffffffffffffffffffffffff16815260200191505060405180910390f35b341561031e57600080fd5b61037f600480803573ffffffffffffffffffffffffffffffffffffffff1690602001909190803573ffffffffffffffffffffffffffffffffffffffff1690602001909190803590602001909190803560001916906020019091905050610b88565b005b341561038c57600080fd5b6103af600480803590602001909190803560001916906020019091905050610e97565b005b6103d4600480803590602001909190803560001916906020019091905050611046565b005b34156103e157600080fd5b6104046004808035906020019091908035600019169060200190919050506113c3565b005b60038181548110151561041557fe5b90600052602060002090600802016000915090508060000160009054906101000a900473ffffffffffffffffffffffffffffffffffffffff16908060010160009054906101000a900473ffffffffffffffffffffffffffffffffffffffff16908060020160009054906101000a900473ffffffffffffffffffffffffffffffffffffffff16908060030160009054906101000a900473ffffffffffffffffffffffffffffffffffffffff16908060040154908060050154908060060154908060070160009054906101000a900460ff16905088565b6104f261157e565b82341015151561050157600080fd5b33816000019073ffffffffffffffffffffffffffffffffffffffff16908173ffffffffffffffffffffffffffffffffffffffff168152505084816040019073ffffffffffffffffffffffffffffffffffffffff16908173ffffffffffffffffffffffffffffffffffffffff168152505083816060019073ffffffffffffffffffffffffffffffffffffffff16908173ffffffffffffffffffffffffffffffffffffffff1681525050828160c001818152505060008160e0019060058111156105c557fe5b908160058111156105d257fe5b81525050600380548060010182816105ea9190611627565b9160005260206000209060080201600083909190915060008201518160000160006101000a81548173ffffffffffffffffffffffffffffffffffffffff021916908373ffffffffffffffffffffffffffffffffffffffff16021790555060208201518160010160006101000a81548173ffffffffffffffffffffffffffffffffffffffff021916908373ffffffffffffffffffffffffffffffffffffffff16021790555060408201518160020160006101000a81548173ffffffffffffffffffffffffffffffffffffffff021916908373ffffffffffffffffffffffffffffffffffffffff16021790555060608201518160030160006101000a81548173ffffffffffffffffffffffffffffffffffffffff021916908373ffffffffffffffffffffffffffffffffffffffff1602179055506080820151816004015560a0820151816005015560c0820151816006015560e08201518160070160006101000a81548160ff0219169083600581111561075e57fe5b02179055505050507f990e202d3eafbdb3a78c2bdb0ccac83faeb62de32e68a0e9b081a25a66e2f7556001600380549050033384604051808481526020018373ffffffffffffffffffffffffffffffffffffffff1673ffffffffffffffffffffffffffffffffffffffff1681526020018260001916600019168152602001935050505060405180910390a15050505050565b60008260038181548110151561080257fe5b906000526020600020906008020160000160009054906101000a900473ffffffffffffffffffffffffffffffffffffffff1673ffffffffffffffffffffffffffffffffffffffff163373ffffffffffffffffffffffffffffffffffffffff1614151561086d57600080fd5b60018460038181548110151561087f57fe5b906000526020600020906008020160070160009054906101000a900460ff1660058111156108a957fe5b8260058111156108b557fe5b1415156108c157600080fd5b6003868154811015156108d057fe5b9060005260206000209060080201935060028460070160006101000a81548160ff0219169083600581111561090157fe5b02179055507fbda7bc7c8123a85aa855c777d3191b2dc42bec38c45638643006fb84e76abf7a86866040518083815260200182600019166000191681526020019250505060405180910390a1505050505050565b6000809054906101000a900473ffffffffffffffffffffffffffffffffffffffff1673ffffffffffffffffffffffffffffffffffffffff163373ffffffffffffffffffffffffffffffffffffffff161415156109b057600080fd5b81600181905550806002819055507fda33b66207af71514f4eb8f9fee7b74ba441e293e937e20f099781f435c2786b600154600254604051808381526020018281526020019250505060405180910390a15050565b81600381815481101515610a1557fe5b906000526020600020906008020160010160009054906101000a900473ffffffffffffffffffffffffffffffffffffffff1673ffffffffffffffffffffffffffffffffffffffff163373ffffffffffffffffffffffffffffffffffffffff16141515610a8057600080fd5b600183600381815481101515610a9257fe5b906000526020600020906008020160070160009054906101000a900460ff166005811115610abc57fe5b826005811115610ac857fe5b141515610ad457600080fd5b60038086815481101515610ae457fe5b906000526020600020906008020160070160006101000a81548160ff02191690836005811115610b1057fe5b02179055507fae76720f3a5d319b91bc94d8a6c2e3096a4f3554c8cb897e3aedfced5824a10a85856040518083815260200182600019166000191681526020019250505060405180910390a15050505050565b6000809054906101000a900473ffffffffffffffffffffffffffffffffffffffff1681565b610b9061157e565b33816020019073ffffffffffffffffffffffffffffffffffffffff16908173ffffffffffffffffffffffffffffffffffffffff168152505084816040019073ffffffffffffffffffffffffffffffffffffffff16908173ffffffffffffffffffffffffffffffffffffffff168152505083816060019073ffffffffffffffffffffffffffffffffffffffff16908173ffffffffffffffffffffffffffffffffffffffff1681525050828160c00181815250506001548160800181815250506002548160a001818152505060008160e001906005811115610c6c57fe5b90816005811115610c7957fe5b8152505060038054806001018281610c919190611627565b9160005260206000209060080201600083909190915060008201518160000160006101000a81548173ffffffffffffffffffffffffffffffffffffffff021916908373ffffffffffffffffffffffffffffffffffffffff16021790555060208201518160010160006101000a81548173ffffffffffffffffffffffffffffffffffffffff021916908373ffffffffffffffffffffffffffffffffffffffff16021790555060408201518160020160006101000a81548173ffffffffffffffffffffffffffffffffffffffff021916908373ffffffffffffffffffffffffffffffffffffffff16021790555060608201518160030160006101000a81548173ffffffffffffffffffffffffffffffffffffffff021916908373ffffffffffffffffffffffffffffffffffffffff1602179055506080820151816004015560a0820151816005015560c0820151816006015560e08201518160070160006101000a81548160ff02191690836005811115610e0557fe5b02179055505050507f990e202d3eafbdb3a78c2bdb0ccac83faeb62de32e68a0e9b081a25a66e2f7556001600380549050033384604051808481526020018373ffffffffffffffffffffffffffffffffffffffff1673ffffffffffffffffffffffffffffffffffffffff1681526020018260001916600019168152602001935050505060405180910390a15050505050565b600082600381815481101515610ea957fe5b906000526020600020906008020160010160009054906101000a900473ffffffffffffffffffffffffffffffffffffffff1673ffffffffffffffffffffffffffffffffffffffff163373ffffffffffffffffffffffffffffffffffffffff16141515610f1457600080fd5b600284600381815481101515610f2657fe5b906000526020600020906008020160070160009054906101000a900460ff166005811115610f5057fe5b826005811115610f5c57fe5b141515610f6857600080fd5b600386815481101515610f7757fe5b9060005260206000209060080201935060048460070160006101000a81548160ff02191690836005811115610fa857fe5b02179055503373ffffffffffffffffffffffffffffffffffffffff166108fc85600401548660060154039081150290604051600060405180830381858888f193505050501515610ff757600080fd5b7f86e48a712d324364a79089a18be31e993ed6bda36550b789f988e7aaf9ed7cf886866040518083815260200182600019166000191681526020019250505060405180910390a1505050505050565b60008260038181548110151561105857fe5b906000526020600020906008020160070160009054906101000a900460ff16600581111561108257fe5b82600581111561108e57fe5b14151561109a57600080fd5b60006003858154811015156110ab57fe5b906000526020600020906008020160000160009054906101000a900473ffffffffffffffffffffffffffffffffffffffff1673ffffffffffffffffffffffffffffffffffffffff16148015611120575060038481548110151561110a57fe5b9060005260206000209060080201600601543410155b15611185573360038581548110151561113557fe5b906000526020600020906008020160000160006101000a81548173ffffffffffffffffffffffffffffffffffffffff021916908373ffffffffffffffffffffffffffffffffffffffff1602179055505b600060038581548110151561119657fe5b906000526020600020906008020160010160009054906101000a900473ffffffffffffffffffffffffffffffffffffffff1673ffffffffffffffffffffffffffffffffffffffff16141561124457336003858154811015156111f457fe5b906000526020600020906008020160010160006101000a81548173ffffffffffffffffffffffffffffffffffffffff021916908373ffffffffffffffffffffffffffffffffffffffff1602179055505b60038481548110151561125357fe5b906000526020600020906008020160000160009054906101000a900473ffffffffffffffffffffffffffffffffffffffff1673ffffffffffffffffffffffffffffffffffffffff163373ffffffffffffffffffffffffffffffffffffffff16148061132957506003848154811015156112c857fe5b906000526020600020906008020160010160009054906101000a900473ffffffffffffffffffffffffffffffffffffffff1673ffffffffffffffffffffffffffffffffffffffff163373ffffffffffffffffffffffffffffffffffffffff16145b151561133457600080fd5b7f6a5ee55c9df2daa4375d2b5e4ec8b9e5662f1863207bcbe6e38c6f5fe3c2430084846040518083815260200182600019166000191681526020019250505060405180910390a1600160038581548110151561138c57fe5b906000526020600020906008020160070160006101000a81548160ff021916908360058111156113b857fe5b021790555050505050565b6000826003818154811015156113d557fe5b906000526020600020906008020160000160009054906101000a900473ffffffffffffffffffffffffffffffffffffffff1673ffffffffffffffffffffffffffffffffffffffff163373ffffffffffffffffffffffffffffffffffffffff1614151561144057600080fd5b60038481548110151561144f57fe5b906000526020600020906008020191506003600581111561146c57fe5b8260070160009054906101000a900460ff16600581111561148957fe5b14806114bc57506001600581111561149d57fe5b8260070160009054906101000a900460ff1660058111156114ba57fe5b145b15156114c757600080fd5b60058260070160006101000a81548160ff021916908360058111156114e857fe5b02179055503373ffffffffffffffffffffffffffffffffffffffff166108fc83600601549081150290604051600060405180830381858888f19350505050151561153157600080fd5b7fcb720f90f098c425fad2e9df556017c076f9bf7aefa096d1c904a06027ae046084846040518083815260200182600019166000191681526020019250505060405180910390a150505050565b61010060405190810160405280600073ffffffffffffffffffffffffffffffffffffffff168152602001600073ffffffffffffffffffffffffffffffffffffffff168152602001600073ffffffffffffffffffffffffffffffffffffffff168152602001600073ffffffffffffffffffffffffffffffffffffffff1681526020016000815260200160008152602001600081526020016000600581111561162157fe5b81525090565b815481835581811511611654576008028160080283600052602060002091820191016116539190611659565b5b505050565b61173d91905b8082111561173957600080820160006101000a81549073ffffffffffffffffffffffffffffffffffffffff02191690556001820160006101000a81549073ffffffffffffffffffffffffffffffffffffffff02191690556002820160006101000a81549073ffffffffffffffffffffffffffffffffffffffff02191690556003820160006101000a81549073ffffffffffffffffffffffffffffffffffffffff02191690556004820160009055600582016000905560068201600090556007820160006101000a81549060ff02191690555060080161165f565b5090565b905600a165627a7a72305820ca3a3f64374ea765d2e1050482eda015e30627a8e96e2a4fbaa8191e80ae0c510029",
  "source": "pragma solidity ^0.4.18;\n\ncontract ExchangeHandshake {\n\n    address public owner;\n\n    function ExchangeHandshake() public {\n    \towner = msg.sender;\n\t}\n    uint fee;\n    uint feeRefund;\n\n    enum S { Inited, Shaked, Accepted, Rejected, Done, Cancelled }\n\n    struct Exchange {\n        address coinOwner;\n        address cashOwner;\n        address exchanger;\n        address adrFeeRefund;\n        uint fee;\n        uint feeRefund;\n        uint value;\n        S state;\n    }\n\n    Exchange[] public ex;\n\n    event __setFee(uint fee, uint feeRefund);\n    event __init(uint hid, address initiator, bytes32 offchain);\n    event __shake(uint hid, bytes32 offchain);\n    event __withdraw(uint hid, bytes32 offchain);\n    event __reject(uint hid, bytes32 offchain);\n    event __accept(uint hid, bytes32 offchain);\n    event __cancel(uint hid, bytes32 offchain);\n\n    //success if sender is coinOwner\n    modifier onlyCoinOwner(uint hid) {\n        require(msg.sender == ex[hid].coinOwner);\n        _;\n    }\n\n    //success if sender is cashOwner\n    modifier onlyCashOwner(uint hid) {\n        require(msg.sender == ex[hid].cashOwner);\n        _;\n    }\n\n    //success if sender is owner\n    modifier onlyOwner() {\n        require(msg.sender == owner);\n        _;\n    }\n    modifier atState(S _s, uint hid) {\n        require(_s == ex[hid].state);\n        _;\n    }\n\n     /**\n        * @dev Initiate exchange fee by owner\n        * @param f exchange fee\n        * @param fr %fee send back to initiator\n        */\n    function setFee(\n        uint f,\n        uint fr\n    )\n        public\n        onlyOwner()\n    {\n        fee = f;\n        feeRefund = fr;\n        __setFee(fee, feeRefund);\n    }\n\n\n    /**\n    * @dev Initiate handshake by cashOwner\n    * @param exchanger exchanger address\n    * @param adrFeeRefund adrFeeRefund address\n    * @param value funds required for this handshake\n    * @param offchain record ID in offchain backend database\n    */\n    function init(\n        address exchanger,\n        address adrFeeRefund,\n        uint value,\n        bytes32 offchain\n    )\n        public\n    {\n        Exchange memory p;\n        p.cashOwner = msg.sender;\n        p.exchanger = exchanger;\n        p.adrFeeRefund = adrFeeRefund;\n        p.value = value;\n        p.fee = fee;\n        p.feeRefund = feeRefund;\n        p.state = S.Inited;\n        ex.push(p);\n        __init(ex.length - 1, msg.sender, offchain);\n    }\n\n    /**\n    * @dev Initiate handshake by CoinOwner\n    */\n    function initByCoinOwner(\n        address exchanger,\n        address adrFeeRefund,\n        uint value,\n        bytes32 offchain\n    )\n        public\n        payable\n    {\n        require(msg.value >= value);\n        Exchange memory p;\n        p.coinOwner = msg.sender;\n        p.exchanger = exchanger;\n        p.adrFeeRefund = adrFeeRefund;\n        p.value = value;\n        //todo set fee\n        //p.fee = fee;\n        //p.feeBack = feeBack;\n        p.state = S.Inited;\n        ex.push(p);\n        __init(ex.length - 1, msg.sender, offchain);\n    }\n\n    //shaker agree and make a handshake\n    function shake(uint hid, bytes32 offchain) public payable\n        atState(S.Inited, hid)\n    {\n        if (ex[hid].coinOwner == 0x0 && msg.value >= ex[hid].value) ex[hid].coinOwner = msg.sender;\n\n        if (ex[hid].cashOwner == 0x0) ex[hid].cashOwner = msg.sender;\n\n        require(msg.sender == ex[hid].coinOwner || msg.sender == ex[hid].cashOwner);\n        __shake(hid, offchain);\n        ex[hid].state = S.Shaked;\n    }\n\n    //CoinOwner accept transaction\n    function accept(uint hid, bytes32 offchain) public onlyCoinOwner(hid)\n        atState(S.Shaked, hid)\n    {\n        Exchange storage p = ex[hid];\n        p.state = S.Accepted;\n        __accept(hid, offchain);\n    }\n\n    //CashOwner withdraw funds from a handshake\n    function withdraw(uint hid, bytes32 offchain) public onlyCashOwner(hid)\n        atState(S.Accepted, hid)\n    {\n        Exchange storage p = ex[hid];\n        p.state = S.Done;\n\n        msg.sender.transfer(p.value - p.fee);\n\n        //todo fee\n        //p.exchanger.transfer(p.fee);\n        //p.adrFeeRefund.transfer(p.feeBack);\n\n        __withdraw(hid, offchain);\n    }\n\n    //CashOwner reject the transaction\n    function reject(uint hid, bytes32 offchain) public onlyCashOwner(hid)\n        atState(S.Shaked, hid)\n    {\n        ex[hid].state = S.Rejected;\n        __reject(hid, offchain);\n    }\n\n    //coinOwner cancel the handshake\n    function cancel(uint hid, bytes32 offchain) public onlyCoinOwner(hid) {\n        Exchange storage p = ex[hid];\n        require(p.state == S.Rejected\n                || p.state == S.Shaked);\n        p.state = S.Cancelled;\n        msg.sender.transfer(p.value);\n        __cancel(hid, offchain);\n    }\n}\n",
  "sourcePath": "/Autonomous/handshake-protocol/contracts/ExchangeHandshake.sol",
  "compiler": {
    "name": "solc",
    "version": "0.4.18+commit.9cf6e910.Emscripten.clang"
  },
  "schemaVersion": "1.0.1",
  "updatedAt": "2018-05-30T07:09:49.067Z"
}