{
  "contractName": "ExchangeHandshake",
  "abi": [
    {
      "constant": true,
      "inputs": [
        {
          "name": "",
          "type": "uint256"
        }
      ],
      "name": "ex",
      "outputs": [
        {
          "name": "coinOwner",
          "type": "address"
        },
        {
          "name": "cashOwner",
          "type": "address"
        },
        {
          "name": "exchanger",
          "type": "address"
        },
        {
          "name": "adrFeeRefund",
          "type": "address"
        },
        {
          "name": "fee",
          "type": "uint256"
        },
        {
          "name": "feeRefund",
          "type": "uint256"
        },
        {
          "name": "value",
          "type": "uint256"
        },
        {
          "name": "state",
          "type": "uint8"
        }
      ],
      "payable": false,
      "stateMutability": "view",
      "type": "function"
    },
    {
      "constant": false,
      "inputs": [
        {
          "name": "exchanger",
          "type": "address"
        },
        {
          "name": "adrFeeRefund",
          "type": "address"
        },
        {
          "name": "value",
          "type": "uint256"
        },
        {
          "name": "offchain",
          "type": "bytes32"
        }
      ],
      "name": "initByCoinOwner",
      "outputs": [],
      "payable": true,
      "stateMutability": "payable",
      "type": "function"
    },
    {
      "constant": false,
      "inputs": [
        {
          "name": "exchanger",
          "type": "address"
        },
        {
          "name": "adrFeeRefund",
          "type": "address"
        },
        {
          "name": "value",
          "type": "uint256"
        },
        {
          "name": "offchain",
          "type": "bytes32"
        }
      ],
      "name": "initByCashOwner",
      "outputs": [],
      "payable": false,
      "stateMutability": "nonpayable",
      "type": "function"
    },
    {
      "constant": true,
      "inputs": [
        {
          "name": "hid",
          "type": "uint256"
        }
      ],
      "name": "getState",
      "outputs": [
        {
          "name": "",
          "type": "uint8"
        }
      ],
      "payable": false,
      "stateMutability": "view",
      "type": "function"
    },
    {
      "constant": false,
      "inputs": [
        {
          "name": "hid",
          "type": "uint256"
        },
        {
          "name": "offchain",
          "type": "bytes32"
        }
      ],
      "name": "accept",
      "outputs": [],
      "payable": false,
      "stateMutability": "nonpayable",
      "type": "function"
    },
    {
      "constant": false,
      "inputs": [
        {
          "name": "f",
          "type": "uint256"
        },
        {
          "name": "fr",
          "type": "uint256"
        }
      ],
      "name": "setFee",
      "outputs": [],
      "payable": false,
      "stateMutability": "nonpayable",
      "type": "function"
    },
    {
      "constant": false,
      "inputs": [
        {
          "name": "hid",
          "type": "uint256"
        },
        {
          "name": "offchain",
          "type": "bytes32"
        }
      ],
      "name": "reject",
      "outputs": [],
      "payable": false,
      "stateMutability": "nonpayable",
      "type": "function"
    },
    {
      "constant": false,
      "inputs": [
        {
          "name": "hid",
          "type": "uint256"
        },
        {
          "name": "offchain",
          "type": "bytes32"
        }
      ],
      "name": "withdraw",
      "outputs": [],
      "payable": false,
      "stateMutability": "nonpayable",
      "type": "function"
    },
    {
      "constant": false,
      "inputs": [
        {
          "name": "hid",
          "type": "uint256"
        },
        {
          "name": "offchain",
          "type": "bytes32"
        }
      ],
      "name": "shake",
      "outputs": [],
      "payable": true,
      "stateMutability": "payable",
      "type": "function"
    },
    {
      "constant": false,
      "inputs": [
        {
          "name": "hid",
          "type": "uint256"
        },
        {
          "name": "offchain",
          "type": "bytes32"
        }
      ],
      "name": "closeByCashOwner",
      "outputs": [],
      "payable": false,
      "stateMutability": "nonpayable",
      "type": "function"
    },
    {
      "constant": false,
      "inputs": [
        {
          "name": "hid",
          "type": "uint256"
        },
        {
          "name": "offchain",
          "type": "bytes32"
        }
      ],
      "name": "cancel",
      "outputs": [],
      "payable": false,
      "stateMutability": "nonpayable",
      "type": "function"
    },
    {
      "inputs": [],
      "payable": false,
      "stateMutability": "nonpayable",
      "type": "constructor"
    },
    {
      "anonymous": false,
      "inputs": [
        {
          "indexed": false,
          "name": "fee",
          "type": "uint256"
        },
        {
          "indexed": false,
          "name": "feeRefund",
          "type": "uint256"
        }
      ],
      "name": "__setFee",
      "type": "event"
    },
    {
      "anonymous": false,
      "inputs": [
        {
          "indexed": false,
          "name": "hid",
          "type": "uint256"
        },
        {
          "indexed": false,
          "name": "coinOwner",
          "type": "address"
        },
        {
          "indexed": false,
          "name": "offchain",
          "type": "bytes32"
        }
      ],
      "name": "__initByCoinOwner",
      "type": "event"
    },
    {
      "anonymous": false,
      "inputs": [
        {
          "indexed": false,
          "name": "hid",
          "type": "uint256"
        },
        {
          "indexed": false,
          "name": "cashOwner",
          "type": "address"
        },
        {
          "indexed": false,
          "name": "offchain",
          "type": "bytes32"
        }
      ],
      "name": "__initByCashOwner",
      "type": "event"
    },
    {
      "anonymous": false,
      "inputs": [
        {
          "indexed": false,
          "name": "hid",
          "type": "uint256"
        },
        {
          "indexed": false,
          "name": "offchain",
          "type": "bytes32"
        }
      ],
      "name": "__shake",
      "type": "event"
    },
    {
      "anonymous": false,
      "inputs": [
        {
          "indexed": false,
          "name": "hid",
          "type": "uint256"
        },
        {
          "indexed": false,
          "name": "offchain",
          "type": "bytes32"
        }
      ],
      "name": "__withdraw",
      "type": "event"
    },
    {
      "anonymous": false,
      "inputs": [
        {
          "indexed": false,
          "name": "hid",
          "type": "uint256"
        },
        {
          "indexed": false,
          "name": "offchain",
          "type": "bytes32"
        }
      ],
      "name": "__reject",
      "type": "event"
    },
    {
      "anonymous": false,
      "inputs": [
        {
          "indexed": false,
          "name": "hid",
          "type": "uint256"
        },
        {
          "indexed": false,
          "name": "offchain",
          "type": "bytes32"
        }
      ],
      "name": "__accept",
      "type": "event"
    },
    {
      "anonymous": false,
      "inputs": [
        {
          "indexed": false,
          "name": "hid",
          "type": "uint256"
        },
        {
          "indexed": false,
          "name": "offchain",
          "type": "bytes32"
        }
      ],
      "name": "__cancel",
      "type": "event"
    },
    {
      "anonymous": false,
      "inputs": [
        {
          "indexed": false,
          "name": "hid",
          "type": "uint256"
        },
        {
          "indexed": false,
          "name": "offchain",
          "type": "bytes32"
        }
      ],
      "name": "__closeByCoinOwner",
      "type": "event"
    },
    {
      "anonymous": false,
      "inputs": [
        {
          "indexed": false,
          "name": "hid",
          "type": "uint256"
        },
        {
          "indexed": false,
          "name": "offchain",
          "type": "bytes32"
        }
      ],
      "name": "__closeByCashOwner",
      "type": "event"
    }
  ],
  "bytecode": "0x60806040526005600155600560025534801561001a57600080fd5b50336000806101000a81548173ffffffffffffffffffffffffffffffffffffffff021916908373ffffffffffffffffffffffffffffffffffffffff1602179055506119db8061006a6000396000f3006080604052600436106100af576000357c0100000000000000000000000000000000000000000000000000000000900463ffffffff1680631089f215146100b45780631178a48a146101e45780633ebad1a21461025257806344c9af28146102cd5780635203dcda1461031457806352f7c9881461034f5780636be1320b14610386578063a8d2021a146103c1578063b09b2f85146103fc578063bf1e459f1461042a578063eafb64d514610465575b600080fd5b3480156100c057600080fd5b506100df600480360381019080803590602001909291905050506104a0565b604051808973ffffffffffffffffffffffffffffffffffffffff1673ffffffffffffffffffffffffffffffffffffffff1681526020018873ffffffffffffffffffffffffffffffffffffffff1673ffffffffffffffffffffffffffffffffffffffff1681526020018773ffffffffffffffffffffffffffffffffffffffff1673ffffffffffffffffffffffffffffffffffffffff1681526020018673ffffffffffffffffffffffffffffffffffffffff1673ffffffffffffffffffffffffffffffffffffffff1681526020018581526020018481526020018381526020018260058111156101c957fe5b60ff1681526020019850505050505050505060405180910390f35b610250600480360381019080803573ffffffffffffffffffffffffffffffffffffffff169060200190929190803573ffffffffffffffffffffffffffffffffffffffff169060200190929190803590602001909291908035600019169060200190929190505050610584565b005b34801561025e57600080fd5b506102cb600480360381019080803573ffffffffffffffffffffffffffffffffffffffff169060200190929190803573ffffffffffffffffffffffffffffffffffffffff1690602001909291908035906020019092919080356000191690602001909291905050506108a6565b005b3480156102d957600080fd5b506102f860048036038101908080359060200190929190505050610bb9565b604051808260ff1660ff16815260200191505060405180910390f35b34801561032057600080fd5b5061034d600480360381019080803590602001909291908035600019169060200190929190505050610c00565b005b34801561035b57600080fd5b506103846004803603810190808035906020019092919080359060200190929190505050610d65565b005b34801561039257600080fd5b506103bf600480360381019080803590602001909291908035600019169060200190929190505050610e15565b005b3480156103cd57600080fd5b506103fa600480360381019080803590602001909291908035600019169060200190929190505050610f73565b005b610428600480360381019080803590602001909291908035600019169060200190929190505050611236565b005b34801561043657600080fd5b506104636004803603810190808035906020019092919080356000191690602001909291905050506115b3565b005b34801561047157600080fd5b5061049e600480360381019080803590602001909291908035600019169060200190929190505050611712565b005b6003818154811015156104af57fe5b90600052602060002090600802016000915090508060000160009054906101000a900473ffffffffffffffffffffffffffffffffffffffff16908060010160009054906101000a900473ffffffffffffffffffffffffffffffffffffffff16908060020160009054906101000a900473ffffffffffffffffffffffffffffffffffffffff16908060030160009054906101000a900473ffffffffffffffffffffffffffffffffffffffff16908060040154908060050154908060060154908060070160009054906101000a900460ff16905088565b61058c611906565b82341015151561059b57600080fd5b33816000019073ffffffffffffffffffffffffffffffffffffffff16908173ffffffffffffffffffffffffffffffffffffffff168152505084816040019073ffffffffffffffffffffffffffffffffffffffff16908173ffffffffffffffffffffffffffffffffffffffff168152505083816060019073ffffffffffffffffffffffffffffffffffffffff16908173ffffffffffffffffffffffffffffffffffffffff1681525050828160c00181815250506001548160800181815250506002548160a001818152505060008160e00190600581111561067757fe5b9081600581111561068457fe5b815250506003819080600181540180825580915050906001820390600052602060002090600802016000909192909190915060008201518160000160006101000a81548173ffffffffffffffffffffffffffffffffffffffff021916908373ffffffffffffffffffffffffffffffffffffffff16021790555060208201518160010160006101000a81548173ffffffffffffffffffffffffffffffffffffffff021916908373ffffffffffffffffffffffffffffffffffffffff16021790555060408201518160020160006101000a81548173ffffffffffffffffffffffffffffffffffffffff021916908373ffffffffffffffffffffffffffffffffffffffff16021790555060608201518160030160006101000a81548173ffffffffffffffffffffffffffffffffffffffff021916908373ffffffffffffffffffffffffffffffffffffffff1602179055506080820151816004015560a0820151816005015560c0820151816006015560e08201518160070160006101000a81548160ff0219169083600581111561081457fe5b02179055505050507f2fd154f5b4d50fb27d0311b078ca858c2a8d52d40cad8d62881f416b0b7a469f6001600380549050033384604051808481526020018373ffffffffffffffffffffffffffffffffffffffff1673ffffffffffffffffffffffffffffffffffffffff1681526020018260001916600019168152602001935050505060405180910390a15050505050565b6108ae611906565b33816020019073ffffffffffffffffffffffffffffffffffffffff16908173ffffffffffffffffffffffffffffffffffffffff168152505084816040019073ffffffffffffffffffffffffffffffffffffffff16908173ffffffffffffffffffffffffffffffffffffffff168152505083816060019073ffffffffffffffffffffffffffffffffffffffff16908173ffffffffffffffffffffffffffffffffffffffff1681525050828160c00181815250506001548160800181815250506002548160a001818152505060008160e00190600581111561098a57fe5b9081600581111561099757fe5b815250506003819080600181540180825580915050906001820390600052602060002090600802016000909192909190915060008201518160000160006101000a81548173ffffffffffffffffffffffffffffffffffffffff021916908373ffffffffffffffffffffffffffffffffffffffff16021790555060208201518160010160006101000a81548173ffffffffffffffffffffffffffffffffffffffff021916908373ffffffffffffffffffffffffffffffffffffffff16021790555060408201518160020160006101000a81548173ffffffffffffffffffffffffffffffffffffffff021916908373ffffffffffffffffffffffffffffffffffffffff16021790555060608201518160030160006101000a81548173ffffffffffffffffffffffffffffffffffffffff021916908373ffffffffffffffffffffffffffffffffffffffff1602179055506080820151816004015560a0820151816005015560c0820151816006015560e08201518160070160006101000a81548160ff02191690836005811115610b2757fe5b02179055505050507fe4601f4f89d9b0b9deb2ee9ecb6f89b91ef95b0ae1f73a28e49b1159aeec729f6001600380549050033384604051808481526020018373ffffffffffffffffffffffffffffffffffffffff1673ffffffffffffffffffffffffffffffffffffffff1681526020018260001916600019168152602001935050505060405180910390a15050505050565b600080600383815481101515610bcb57fe5b906000526020600020906008020190508060070160009054906101000a900460ff166005811115610bf857fe5b915050919050565b600082600381815481101515610c1257fe5b906000526020600020906008020160000160009054906101000a900473ffffffffffffffffffffffffffffffffffffffff1673ffffffffffffffffffffffffffffffffffffffff163373ffffffffffffffffffffffffffffffffffffffff16141515610c7d57600080fd5b600184600381815481101515610c8f57fe5b906000526020600020906008020160070160009054906101000a900460ff166005811115610cb957fe5b826005811115610cc557fe5b141515610cd157600080fd5b600386815481101515610ce057fe5b9060005260206000209060080201935060028460070160006101000a81548160ff02191690836005811115610d1157fe5b02179055507fbda7bc7c8123a85aa855c777d3191b2dc42bec38c45638643006fb84e76abf7a86866040518083815260200182600019166000191681526020019250505060405180910390a1505050505050565b6000809054906101000a900473ffffffffffffffffffffffffffffffffffffffff1673ffffffffffffffffffffffffffffffffffffffff163373ffffffffffffffffffffffffffffffffffffffff16141515610dc057600080fd5b81600181905550806002819055507fda33b66207af71514f4eb8f9fee7b74ba441e293e937e20f099781f435c2786b600154600254604051808381526020018281526020019250505060405180910390a15050565b81600381815481101515610e2557fe5b906000526020600020906008020160010160009054906101000a900473ffffffffffffffffffffffffffffffffffffffff1673ffffffffffffffffffffffffffffffffffffffff163373ffffffffffffffffffffffffffffffffffffffff16141515610e9057600080fd5b600183600381815481101515610ea257fe5b906000526020600020906008020160070160009054906101000a900460ff166005811115610ecc57fe5b826005811115610ed857fe5b141515610ee457600080fd5b60038086815481101515610ef457fe5b906000526020600020906008020160070160006101000a81548160ff02191690836005811115610f2057fe5b02179055507fae76720f3a5d319b91bc94d8a6c2e3096a4f3554c8cb897e3aedfced5824a10a85856040518083815260200182600019166000191681526020019250505060405180910390a15050505050565b600080600084600381815481101515610f8857fe5b906000526020600020906008020160010160009054906101000a900473ffffffffffffffffffffffffffffffffffffffff1673ffffffffffffffffffffffffffffffffffffffff163373ffffffffffffffffffffffffffffffffffffffff16141515610ff357600080fd5b60028660038181548110151561100557fe5b906000526020600020906008020160070160009054906101000a900460ff16600581111561102f57fe5b82600581111561103b57fe5b14151561104757600080fd5b60038881548110151561105657fe5b9060005260206000209060080201955060048660070160006101000a81548160ff0219169083600581111561108757fe5b02179055506103e886600401548760060154028115156110a357fe5b0494506103e886600501548760060154028115156110bd57fe5b0493508560020160009054906101000a900473ffffffffffffffffffffffffffffffffffffffff1673ffffffffffffffffffffffffffffffffffffffff166108fc869081150290604051600060405180830381858888f1935050505015801561112a573d6000803e3d6000fd5b508560030160009054906101000a900473ffffffffffffffffffffffffffffffffffffffff1673ffffffffffffffffffffffffffffffffffffffff166108fc859081150290604051600060405180830381858888f19350505050158015611195573d6000803e3d6000fd5b503373ffffffffffffffffffffffffffffffffffffffff166108fc8587896006015403039081150290604051600060405180830381858888f193505050501580156111e4573d6000803e3d6000fd5b507f86e48a712d324364a79089a18be31e993ed6bda36550b789f988e7aaf9ed7cf888886040518083815260200182600019166000191681526020019250505060405180910390a15050505050505050565b60008260038181548110151561124857fe5b906000526020600020906008020160070160009054906101000a900460ff16600581111561127257fe5b82600581111561127e57fe5b14151561128a57600080fd5b600060038581548110151561129b57fe5b906000526020600020906008020160000160009054906101000a900473ffffffffffffffffffffffffffffffffffffffff1673ffffffffffffffffffffffffffffffffffffffff1614801561131057506003848154811015156112fa57fe5b9060005260206000209060080201600601543410155b15611375573360038581548110151561132557fe5b906000526020600020906008020160000160006101000a81548173ffffffffffffffffffffffffffffffffffffffff021916908373ffffffffffffffffffffffffffffffffffffffff1602179055505b600060038581548110151561138657fe5b906000526020600020906008020160010160009054906101000a900473ffffffffffffffffffffffffffffffffffffffff1673ffffffffffffffffffffffffffffffffffffffff16141561143457336003858154811015156113e457fe5b906000526020600020906008020160010160006101000a81548173ffffffffffffffffffffffffffffffffffffffff021916908373ffffffffffffffffffffffffffffffffffffffff1602179055505b60038481548110151561144357fe5b906000526020600020906008020160000160009054906101000a900473ffffffffffffffffffffffffffffffffffffffff1673ffffffffffffffffffffffffffffffffffffffff163373ffffffffffffffffffffffffffffffffffffffff16148061151957506003848154811015156114b857fe5b906000526020600020906008020160010160009054906101000a900473ffffffffffffffffffffffffffffffffffffffff1673ffffffffffffffffffffffffffffffffffffffff163373ffffffffffffffffffffffffffffffffffffffff16145b151561152457600080fd5b7f6a5ee55c9df2daa4375d2b5e4ec8b9e5662f1863207bcbe6e38c6f5fe3c2430084846040518083815260200182600019166000191681526020019250505060405180910390a1600160038581548110151561157c57fe5b906000526020600020906008020160070160006101000a81548160ff021916908360058111156115a857fe5b021790555050505050565b816003818154811015156115c357fe5b906000526020600020906008020160010160009054906101000a900473ffffffffffffffffffffffffffffffffffffffff1673ffffffffffffffffffffffffffffffffffffffff163373ffffffffffffffffffffffffffffffffffffffff1614151561162e57600080fd5b60008360038181548110151561164057fe5b906000526020600020906008020160070160009054906101000a900460ff16600581111561166a57fe5b82600581111561167657fe5b14151561168257600080fd5b600560038681548110151561169357fe5b906000526020600020906008020160070160006101000a81548160ff021916908360058111156116bf57fe5b02179055507f3d2fb2dfea1905d22bfa4e006af321688700e6bf97ce5156cfd9a10dc4735dc685856040518083815260200182600019166000191681526020019250505060405180910390a15050505050565b60008260038181548110151561172457fe5b906000526020600020906008020160000160009054906101000a900473ffffffffffffffffffffffffffffffffffffffff1673ffffffffffffffffffffffffffffffffffffffff163373ffffffffffffffffffffffffffffffffffffffff1614151561178f57600080fd5b60038481548110151561179e57fe5b90600052602060002090600802019150600360058111156117bb57fe5b8260070160009054906101000a900460ff1660058111156117d857fe5b148061180b5750600160058111156117ec57fe5b8260070160009054906101000a900460ff16600581111561180957fe5b145b8061183d57506000600581111561181e57fe5b8260070160009054906101000a900460ff16600581111561183b57fe5b145b151561184857600080fd5b60058260070160006101000a81548160ff0219169083600581111561186957fe5b02179055503373ffffffffffffffffffffffffffffffffffffffff166108fc83600601549081150290604051600060405180830381858888f193505050501580156118b8573d6000803e3d6000fd5b507fcb720f90f098c425fad2e9df556017c076f9bf7aefa096d1c904a06027ae046084846040518083815260200182600019166000191681526020019250505060405180910390a150505050565b61010060405190810160405280600073ffffffffffffffffffffffffffffffffffffffff168152602001600073ffffffffffffffffffffffffffffffffffffffff168152602001600073ffffffffffffffffffffffffffffffffffffffff168152602001600073ffffffffffffffffffffffffffffffffffffffff168152602001600081526020016000815260200160008152602001600060058111156119a957fe5b815250905600a165627a7a723058201a3f21a34101f5c41c9c866f77c83c91789c5c71336d8cfe0fac0a60d94333cf0029",
  "source": "pragma solidity ^0.4.18;\n\ncontract ExchangeHandshake {\n\n    address owner;\n\n     constructor() public {\n    \towner = msg.sender;\n\t}\n    uint fee = 5;\n    uint feeRefund = 5;\n\n    enum S { Inited, Shaked, Accepted, Rejected, Done, Cancelled }\n\n    struct Exchange {\n        address coinOwner;\n        address cashOwner;\n        address exchanger;\n        address adrFeeRefund;\n        uint fee; //percentage\n        uint feeRefund;//percentage\n        uint value;\n        S state;\n    }\n\n    Exchange[] public ex;\n\n    event __setFee(uint fee, uint feeRefund);\n    event __initByCoinOwner(uint hid, address coinOwner, bytes32 offchain);\n    event __initByCashOwner(uint hid, address cashOwner, bytes32 offchain);\n    event __shake(uint hid, bytes32 offchain);\n    event __withdraw(uint hid, bytes32 offchain);\n    event __reject(uint hid, bytes32 offchain);\n    event __accept(uint hid, bytes32 offchain);\n    event __cancel(uint hid, bytes32 offchain);\n    event __closeByCoinOwner(uint hid, bytes32 offchain);\n    event __closeByCashOwner(uint hid, bytes32 offchain);\n\n    //success if sender is coinOwner\n    modifier onlyCoinOwner(uint hid) {\n        require(msg.sender == ex[hid].coinOwner);\n        _;\n    }\n\n    //success if sender is cashOwner\n    modifier onlyCashOwner(uint hid) {\n        require(msg.sender == ex[hid].cashOwner);\n        _;\n    }\n\n    //success if sender is owner\n    modifier onlyOwner() {\n        require(msg.sender == owner);\n        _;\n    }\n\n    modifier atState(S _s, uint hid) {\n        require(_s == ex[hid].state);\n        _;\n    }\n\n     /**\n        * @dev Initiate exchange fee by owner\n        * @param f exchange fee\n        * @param fr %fee send back to initiator\n        */\n    function setFee(\n        uint f,\n        uint fr\n    )\n        public\n        onlyOwner()\n    {\n        fee = f;\n        feeRefund = fr;\n        emit __setFee(fee, feeRefund);\n    }\n\n\n    /**\n    * @dev Initiate handshake by cashOwner\n    * @param exchanger exchanger address\n    * @param adrFeeRefund adrFeeRefund address\n    * @param value funds required for this handshake\n    * @param offchain record ID in offchain backend database\n    */\n    function initByCashOwner(\n        address exchanger,\n        address adrFeeRefund,\n        uint value,\n        bytes32 offchain\n    )\n        public\n    {\n        Exchange memory p;\n        p.cashOwner = msg.sender;\n        p.exchanger = exchanger;\n        p.adrFeeRefund = adrFeeRefund;\n        p.value = value;\n        p.fee = fee;\n        p.feeRefund = feeRefund;\n        p.state = S.Inited;\n        ex.push(p);\n        emit __initByCashOwner(ex.length - 1, msg.sender, offchain);\n    }\n\n    /**\n    * @dev Initiate handshake by CoinOwner\n    */\n    function initByCoinOwner(\n        address exchanger,\n        address adrFeeRefund,\n        uint value,\n        bytes32 offchain\n    )\n        public\n        payable\n    {\n        require(msg.value >= value);\n        Exchange memory p;\n        p.coinOwner = msg.sender;\n        p.exchanger = exchanger;\n        p.adrFeeRefund = adrFeeRefund;\n        p.value = value;\n        p.fee = fee;\n        p.feeRefund = feeRefund;\n        p.state = S.Inited;\n        ex.push(p);\n        emit __initByCoinOwner(ex.length - 1, msg.sender, offchain);\n    }\n\n    //CashOwner close the transaction after init\n    function closeByCashOwner(uint hid, bytes32 offchain) public onlyCashOwner(hid)\n        atState(S.Inited, hid)\n    {\n        ex[hid].state = S.Cancelled;\n        emit __closeByCashOwner(hid, offchain);\n    }\n\n    //shaker agree and make a handshake\n    function shake(uint hid, bytes32 offchain) public payable\n        atState(S.Inited, hid)\n    {\n        if (ex[hid].coinOwner == 0x0 && msg.value >= ex[hid].value) ex[hid].coinOwner = msg.sender;\n\n        if (ex[hid].cashOwner == 0x0) ex[hid].cashOwner = msg.sender;\n\n        require(msg.sender == ex[hid].coinOwner || msg.sender == ex[hid].cashOwner);\n        emit __shake(hid, offchain);\n        ex[hid].state = S.Shaked;\n    }\n\n    //CoinOwner accept transaction\n    function accept(uint hid, bytes32 offchain) public onlyCoinOwner(hid)\n        atState(S.Shaked, hid)\n    {\n        Exchange storage p = ex[hid];\n        p.state = S.Accepted;\n        emit __accept(hid, offchain);\n    }\n\n    //CashOwner withdraw funds from a handshake\n    function withdraw(uint hid, bytes32 offchain) public onlyCashOwner(hid)\n        atState(S.Accepted, hid)\n    {\n        Exchange storage p = ex[hid];\n        p.state = S.Done;\n        uint f = (p.value * p.fee) / 1000;\n        uint fr = (p.value * p.feeRefund) / 1000;\n        p.exchanger.transfer(f);\n        p.adrFeeRefund.transfer(fr);\n        msg.sender.transfer(p.value - f - fr);\n\n        emit __withdraw(hid, offchain);\n    }\n\n    //CashOwner reject the transaction\n    function reject(uint hid, bytes32 offchain) public onlyCashOwner(hid)\n        atState(S.Shaked, hid)\n    {\n        ex[hid].state = S.Rejected;\n        emit __reject(hid, offchain);\n    }\n\n    //coinOwner cancel the handshake\n    function cancel(uint hid, bytes32 offchain) public onlyCoinOwner(hid) {\n        Exchange storage p = ex[hid];\n        require(p.state == S.Rejected\n                || p.state == S.Shaked || p.state == S.Inited);\n        p.state = S.Cancelled;\n        msg.sender.transfer(p.value);\n\n        emit __cancel(hid, offchain);\n    }\n\n    //get handshake stage by hid\n     function getState(uint hid) public constant returns(uint8){\n        Exchange storage p = ex[hid];\n        return uint8(p.state);\n     }\n\n}\n",
  "sourcePath": "/Autonomous/handshake-protocol/contracts/ExchangeHandshake.sol",
  "compiler": {
    "name": "solc",
    "version": "0.4.24+commit.e67f0147.Emscripten.clang"
  },
  "schemaVersion": "1.0.1",
  "updatedAt": "2018-06-02T04:54:24.267Z"
}