{
  "contractName": "ExchangeShop",
  "abi": [
    {
      "constant": true,
      "inputs": [
        {
          "name": "",
          "type": "uint256"
        }
      ],
      "name": "ex",
      "outputs": [
        {
          "name": "shopOwner",
          "type": "address"
        },
        {
          "name": "customer",
          "type": "address"
        },
        {
          "name": "escrow",
          "type": "uint256"
        },
        {
          "name": "state",
          "type": "uint8"
        }
      ],
      "payable": false,
      "stateMutability": "view",
      "type": "function"
    },
    {
      "constant": false,
      "inputs": [
        {
          "name": "hid",
          "type": "uint256"
        },
        {
          "name": "customer",
          "type": "address"
        },
        {
          "name": "amount",
          "type": "uint256"
        },
        {
          "name": "offchainP",
          "type": "bytes32"
        },
        {
          "name": "offchainC",
          "type": "bytes32"
        }
      ],
      "name": "releasePartialFund",
      "outputs": [],
      "payable": false,
      "stateMutability": "nonpayable",
      "type": "function"
    },
    {
      "constant": false,
      "inputs": [
        {
          "name": "shopOwner",
          "type": "address"
        },
        {
          "name": "value",
          "type": "uint256"
        },
        {
          "name": "offchain",
          "type": "bytes32"
        }
      ],
      "name": "initByCustomer",
      "outputs": [],
      "payable": true,
      "stateMutability": "payable",
      "type": "function"
    },
    {
      "constant": true,
      "inputs": [
        {
          "name": "hid",
          "type": "uint256"
        }
      ],
      "name": "getBalance",
      "outputs": [
        {
          "name": "",
          "type": "uint256"
        }
      ],
      "payable": false,
      "stateMutability": "view",
      "type": "function"
    },
    {
      "constant": false,
      "inputs": [
        {
          "name": "hid",
          "type": "uint256"
        },
        {
          "name": "offchain",
          "type": "bytes32"
        }
      ],
      "name": "finish",
      "outputs": [],
      "payable": false,
      "stateMutability": "nonpayable",
      "type": "function"
    },
    {
      "constant": true,
      "inputs": [
        {
          "name": "hid",
          "type": "uint256"
        }
      ],
      "name": "getState",
      "outputs": [
        {
          "name": "",
          "type": "uint8"
        }
      ],
      "payable": false,
      "stateMutability": "view",
      "type": "function"
    },
    {
      "constant": false,
      "inputs": [
        {
          "name": "hid",
          "type": "uint256"
        },
        {
          "name": "offchain",
          "type": "bytes32"
        }
      ],
      "name": "reject",
      "outputs": [],
      "payable": false,
      "stateMutability": "nonpayable",
      "type": "function"
    },
    {
      "constant": false,
      "inputs": [
        {
          "name": "hid",
          "type": "uint256"
        },
        {
          "name": "offchain",
          "type": "bytes32"
        }
      ],
      "name": "closeByShopOwner",
      "outputs": [],
      "payable": false,
      "stateMutability": "nonpayable",
      "type": "function"
    },
    {
      "constant": false,
      "inputs": [
        {
          "name": "hid",
          "type": "uint256"
        },
        {
          "name": "offchain",
          "type": "bytes32"
        }
      ],
      "name": "shake",
      "outputs": [],
      "payable": false,
      "stateMutability": "nonpayable",
      "type": "function"
    },
    {
      "constant": false,
      "inputs": [
        {
          "name": "value",
          "type": "uint256"
        },
        {
          "name": "offchain",
          "type": "bytes32"
        }
      ],
      "name": "initByShopOwner",
      "outputs": [],
      "payable": true,
      "stateMutability": "payable",
      "type": "function"
    },
    {
      "constant": false,
      "inputs": [
        {
          "name": "hid",
          "type": "uint256"
        },
        {
          "name": "offchain",
          "type": "bytes32"
        }
      ],
      "name": "cancel",
      "outputs": [],
      "payable": false,
      "stateMutability": "nonpayable",
      "type": "function"
    },
    {
      "anonymous": false,
      "inputs": [
        {
          "indexed": false,
          "name": "hid",
          "type": "uint256"
        },
        {
          "indexed": false,
          "name": "shopOwner",
          "type": "address"
        },
        {
          "indexed": false,
          "name": "value",
          "type": "uint256"
        },
        {
          "indexed": false,
          "name": "offchain",
          "type": "bytes32"
        }
      ],
      "name": "__initByShopOwner",
      "type": "event"
    },
    {
      "anonymous": false,
      "inputs": [
        {
          "indexed": false,
          "name": "hid",
          "type": "uint256"
        },
        {
          "indexed": false,
          "name": "offchain",
          "type": "bytes32"
        }
      ],
      "name": "__closeByShopOwner",
      "type": "event"
    },
    {
      "anonymous": false,
      "inputs": [
        {
          "indexed": false,
          "name": "hid",
          "type": "uint256"
        },
        {
          "indexed": false,
          "name": "customer",
          "type": "address"
        },
        {
          "indexed": false,
          "name": "amount",
          "type": "uint256"
        },
        {
          "indexed": false,
          "name": "offchainP",
          "type": "bytes32"
        },
        {
          "indexed": false,
          "name": "offchainC",
          "type": "bytes32"
        }
      ],
      "name": "__releasePartialFund",
      "type": "event"
    },
    {
      "anonymous": false,
      "inputs": [
        {
          "indexed": false,
          "name": "hid",
          "type": "uint256"
        },
        {
          "indexed": false,
          "name": "customer",
          "type": "address"
        },
        {
          "indexed": false,
          "name": "shopOwner",
          "type": "address"
        },
        {
          "indexed": false,
          "name": "value",
          "type": "uint256"
        },
        {
          "indexed": false,
          "name": "offchain",
          "type": "bytes32"
        }
      ],
      "name": "__initByCustomer",
      "type": "event"
    },
    {
      "anonymous": false,
      "inputs": [
        {
          "indexed": false,
          "name": "hid",
          "type": "uint256"
        },
        {
          "indexed": false,
          "name": "offchain",
          "type": "bytes32"
        }
      ],
      "name": "__cancel",
      "type": "event"
    },
    {
      "anonymous": false,
      "inputs": [
        {
          "indexed": false,
          "name": "hid",
          "type": "uint256"
        },
        {
          "indexed": false,
          "name": "offchain",
          "type": "bytes32"
        }
      ],
      "name": "__shake",
      "type": "event"
    },
    {
      "anonymous": false,
      "inputs": [
        {
          "indexed": false,
          "name": "hid",
          "type": "uint256"
        },
        {
          "indexed": false,
          "name": "offchain",
          "type": "bytes32"
        }
      ],
      "name": "__reject",
      "type": "event"
    },
    {
      "anonymous": false,
      "inputs": [
        {
          "indexed": false,
          "name": "hid",
          "type": "uint256"
        },
        {
          "indexed": false,
          "name": "offchain",
          "type": "bytes32"
        }
      ],
      "name": "__accept",
      "type": "event"
    }
  ],
  "bytecode": "0x608060405234801561001057600080fd5b50611599806100206000396000f3006080604052600436106100af576000357c0100000000000000000000000000000000000000000000000000000000900463ffffffff1680631089f215146100b457806315d85cee146101705780631746049d146101e35780631e0104391461023157806335e8b2df1461027257806344c9af28146102ad5780636be1320b146102f45780639d21288f1461032f578063b09b2f851461036a578063d1d72e38146103a5578063eafb64d5146103d3575b600080fd5b3480156100c057600080fd5b506100df6004803603810190808035906020019092919050505061040e565b604051808573ffffffffffffffffffffffffffffffffffffffff1673ffffffffffffffffffffffffffffffffffffffff1681526020018473ffffffffffffffffffffffffffffffffffffffff1673ffffffffffffffffffffffffffffffffffffffff16815260200183815260200182600481111561015957fe5b60ff16815260200194505050505060405180910390f35b34801561017c57600080fd5b506101e160048036038101908080359060200190929190803573ffffffffffffffffffffffffffffffffffffffff169060200190929190803590602001909291908035600019169060200190929190803560001916906020019092919050505061049a565b005b61022f600480360381019080803573ffffffffffffffffffffffffffffffffffffffff16906020019092919080359060200190929190803560001916906020019092919050505061071e565b005b34801561023d57600080fd5b5061025c60048036038101908080359060200190929190505050610989565b6040518082815260200191505060405180910390f35b34801561027e57600080fd5b506102ab6004803603810190808035906020019092919080356000191690602001909291905050506109bb565b005b3480156102b957600080fd5b506102d860048036038101908080359060200190929190505050610b99565b604051808260ff1660ff16815260200191505060405180910390f35b34801561030057600080fd5b5061032d600480360381019080803590602001909291908035600019169060200190929190505050610be0565b005b34801561033b57600080fd5b50610368600480360381019080803590602001909291908035600019169060200190929190505050610df0565b005b34801561037657600080fd5b506103a3600480360381019080803590602001909291908035600019169060200190929190505050610fa0565b005b6103d1600480360381019080803590602001909291908035600019169060200190929190505050611164565b005b3480156103df57600080fd5b5061040c600480360381019080803590602001909291908035600019169060200190929190505050611353565b005b60008181548110151561041d57fe5b90600052602060002090600402016000915090508060000160009054906101000a900473ffffffffffffffffffffffffffffffffffffffff16908060010160009054906101000a900473ffffffffffffffffffffffffffffffffffffffff16908060020154908060030160009054906101000a900460ff16905084565b6000856000818154811015156104ac57fe5b906000526020600020906004020160000160009054906101000a900473ffffffffffffffffffffffffffffffffffffffff1673ffffffffffffffffffffffffffffffffffffffff163373ffffffffffffffffffffffffffffffffffffffff1614151561051757600080fd5b60008760008181548110151561052957fe5b906000526020600020906004020160030160009054906101000a900460ff16600481111561055357fe5b82600481111561055f57fe5b14151561056b57600080fd5b60008873ffffffffffffffffffffffffffffffffffffffff16141580156105925750600087115b151561059d57600080fd5b6000898154811015156105ac57fe5b90600052602060002090600402019350868460020154101515156105cf57600080fd5b8684600201600082825403925050819055508360010160009054906101000a900473ffffffffffffffffffffffffffffffffffffffff1673ffffffffffffffffffffffffffffffffffffffff166108fc889081150290604051600060405180830381858888f1935050505015801561064b573d6000803e3d6000fd5b506000846002015414156106805760038460030160006101000a81548160ff0219169083600481111561067a57fe5b02179055505b7ff83285d8d874832066930a6cd961e4fa4156c7a28dcdfb4bc9aaa13e0be2bfcc8989898989604051808681526020018573ffffffffffffffffffffffffffffffffffffffff1673ffffffffffffffffffffffffffffffffffffffff168152602001848152602001836000191660001916815260200182600019166000191681526020019550505050505060405180910390a1505050505050505050565b61072661150d565b82341015151561073557600080fd5b33816020019073ffffffffffffffffffffffffffffffffffffffff16908173ffffffffffffffffffffffffffffffffffffffff168152505083816000019073ffffffffffffffffffffffffffffffffffffffff16908173ffffffffffffffffffffffffffffffffffffffff1681525050828160400181815250506000816060019060048111156107c157fe5b908160048111156107ce57fe5b815250506000819080600181540180825580915050906001820390600052602060002090600402016000909192909190915060008201518160000160006101000a81548173ffffffffffffffffffffffffffffffffffffffff021916908373ffffffffffffffffffffffffffffffffffffffff16021790555060208201518160010160006101000a81548173ffffffffffffffffffffffffffffffffffffffff021916908373ffffffffffffffffffffffffffffffffffffffff1602179055506040820151816002015560608201518160030160006101000a81548160ff021916908360048111156108bc57fe5b02179055505050507faa539cf6b39fbef365d4e0d2b9d8017bd6b1a36893a02b2a7f0324a705e8309460016000805490500333868686604051808681526020018573ffffffffffffffffffffffffffffffffffffffff1673ffffffffffffffffffffffffffffffffffffffff1681526020018473ffffffffffffffffffffffffffffffffffffffff1673ffffffffffffffffffffffffffffffffffffffff16815260200183815260200182600019166000191681526020019550505050505060405180910390a150505050565b60008060008381548110151561099b57fe5b90600052602060002090600402019050806002015460ff16915050919050565b6000826000818154811015156109cd57fe5b906000526020600020906004020160010160009054906101000a900473ffffffffffffffffffffffffffffffffffffffff1673ffffffffffffffffffffffffffffffffffffffff163373ffffffffffffffffffffffffffffffffffffffff16141515610a3857600080fd5b600184600081815481101515610a4a57fe5b906000526020600020906004020160030160009054906101000a900460ff166004811115610a7457fe5b826004811115610a8057fe5b141515610a8c57600080fd5b600086815481101515610a9b57fe5b906000526020600020906004020193508360000160009054906101000a900473ffffffffffffffffffffffffffffffffffffffff1673ffffffffffffffffffffffffffffffffffffffff166108fc85600201549081150290604051600060405180830381858888f19350505050158015610b19573d6000803e3d6000fd5b506000846002018190555060038460030160006101000a81548160ff02191690836004811115610b4557fe5b02179055507fbda7bc7c8123a85aa855c777d3191b2dc42bec38c45638643006fb84e76abf7a86866040518083815260200182600019166000191681526020019250505060405180910390a1505050505050565b600080600083815481101515610bab57fe5b906000526020600020906004020190508060030160009054906101000a900460ff166004811115610bd857fe5b915050919050565b6000600183600081815481101515610bf457fe5b906000526020600020906004020160030160009054906101000a900460ff166004811115610c1e57fe5b826004811115610c2a57fe5b141515610c3657600080fd5b600085815481101515610c4557fe5b906000526020600020906004020192508260000160009054906101000a900473ffffffffffffffffffffffffffffffffffffffff1673ffffffffffffffffffffffffffffffffffffffff163373ffffffffffffffffffffffffffffffffffffffff161480610d0257508260010160009054906101000a900473ffffffffffffffffffffffffffffffffffffffff1673ffffffffffffffffffffffffffffffffffffffff163373ffffffffffffffffffffffffffffffffffffffff16145b1515610d0d57600080fd5b60048360030160006101000a81548160ff02191690836004811115610d2e57fe5b02179055508260010160009054906101000a900473ffffffffffffffffffffffffffffffffffffffff1673ffffffffffffffffffffffffffffffffffffffff166108fc84600201549081150290604051600060405180830381858888f19350505050158015610da1573d6000803e3d6000fd5b507fae76720f3a5d319b91bc94d8a6c2e3096a4f3554c8cb897e3aedfced5824a10a85856040518083815260200182600019166000191681526020019250505060405180910390a15050505050565b600082600081815481101515610e0257fe5b906000526020600020906004020160000160009054906101000a900473ffffffffffffffffffffffffffffffffffffffff1673ffffffffffffffffffffffffffffffffffffffff163373ffffffffffffffffffffffffffffffffffffffff16141515610e6d57600080fd5b600084600081815481101515610e7f57fe5b906000526020600020906004020160030160009054906101000a900460ff166004811115610ea957fe5b826004811115610eb557fe5b141515610ec157600080fd5b600086815481101515610ed057fe5b9060005260206000209060040201935060048460030160006101000a81548160ff02191690836004811115610f0157fe5b02179055503373ffffffffffffffffffffffffffffffffffffffff166108fc85600201549081150290604051600060405180830381858888f19350505050158015610f50573d6000803e3d6000fd5b507f23ad9e1b0211e48a066f4dccf880a274bb12ce0e8449bb30fcf58aa03c0298a386866040518083815260200182600019166000191681526020019250505060405180910390a1505050505050565b81600081815481101515610fb057fe5b906000526020600020906004020160000160009054906101000a900473ffffffffffffffffffffffffffffffffffffffff1673ffffffffffffffffffffffffffffffffffffffff163373ffffffffffffffffffffffffffffffffffffffff1614151561101b57600080fd5b60008360008181548110151561102d57fe5b906000526020600020906004020160030160009054906101000a900460ff16600481111561105757fe5b82600481111561106357fe5b14151561106f57600080fd5b6000808681548110151561107f57fe5b906000526020600020906004020160010160009054906101000a900473ffffffffffffffffffffffffffffffffffffffff1673ffffffffffffffffffffffffffffffffffffffff16141515156110d457600080fd5b60016000868154811015156110e557fe5b906000526020600020906004020160030160006101000a81548160ff0219169083600481111561111157fe5b02179055507f6a5ee55c9df2daa4375d2b5e4ec8b9e5662f1863207bcbe6e38c6f5fe3c2430085856040518083815260200182600019166000191681526020019250505060405180910390a15050505050565b61116c61150d565b33816000019073ffffffffffffffffffffffffffffffffffffffff16908173ffffffffffffffffffffffffffffffffffffffff1681525050828160400181815250506000816060019060048111156111c057fe5b908160048111156111cd57fe5b815250506000819080600181540180825580915050906001820390600052602060002090600402016000909192909190915060008201518160000160006101000a81548173ffffffffffffffffffffffffffffffffffffffff021916908373ffffffffffffffffffffffffffffffffffffffff16021790555060208201518160010160006101000a81548173ffffffffffffffffffffffffffffffffffffffff021916908373ffffffffffffffffffffffffffffffffffffffff1602179055506040820151816002015560608201518160030160006101000a81548160ff021916908360048111156112bb57fe5b02179055505050507f311669895ce0216ae436745ebfab7e15a10c540ff3459e2b74abef58a43545fd600160008054905003338585604051808581526020018473ffffffffffffffffffffffffffffffffffffffff1673ffffffffffffffffffffffffffffffffffffffff168152602001838152602001826000191660001916815260200194505050505060405180910390a1505050565b60008260008181548110151561136557fe5b906000526020600020906004020160000160009054906101000a900473ffffffffffffffffffffffffffffffffffffffff1673ffffffffffffffffffffffffffffffffffffffff163373ffffffffffffffffffffffffffffffffffffffff161415156113d057600080fd5b6000846000818154811015156113e257fe5b906000526020600020906004020160030160009054906101000a900460ff16600481111561140c57fe5b82600481111561141857fe5b14151561142457600080fd5b60008681548110151561143357fe5b9060005260206000209060040201935060048460030160006101000a81548160ff0219169083600481111561146457fe5b02179055503373ffffffffffffffffffffffffffffffffffffffff166108fc85600201549081150290604051600060405180830381858888f193505050501580156114b3573d6000803e3d6000fd5b50600084600201819055507fcb720f90f098c425fad2e9df556017c076f9bf7aefa096d1c904a06027ae046086866040518083815260200182600019166000191681526020019250505060405180910390a1505050505050565b608060405190810160405280600073ffffffffffffffffffffffffffffffffffffffff168152602001600073ffffffffffffffffffffffffffffffffffffffff168152602001600081526020016000600481111561156757fe5b815250905600a165627a7a72305820f8d65a158118c25e31d25a577ee59428fd606debe7a36b77ac122e45bff235e80029",
  "source": "pragma solidity ^0.4.24;\n\ncontract ExchangeShop {\n\n    enum S { Inited, Shaked, Rejected, Done, Cancelled }\n\n    struct Exchange {\n        address shopOwner;\n        address customer;\n        uint escrow;\n        S state;\n    }\n\n    Exchange[] public ex;\n\n    event __initByShopOwner(uint hid, address shopOwner, uint value,bytes32 offchain);\n    event __closeByShopOwner(uint hid, bytes32 offchain);\n    event __releasePartialFund(uint hid,address customer,uint amount,bytes32 offchainP,bytes32 offchainC);\n\n\n    event __initByCustomer(uint hid, address customer, address shopOwner, uint value,bytes32 offchain);\n    event __cancel(uint hid, bytes32 offchain);\n    event __shake(uint hid, bytes32 offchain);\n    event __reject(uint hid, bytes32 offchain);\n    event __accept(uint hid, bytes32 offchain);\n\n\n    //success if sender is shopOwner\n    modifier onlyShopOwner(uint hid) {\n        require(msg.sender == ex[hid].shopOwner);\n        _;\n    }\n\n    //success if sender is customer\n    modifier onlyCustomer(uint hid) {\n        require(msg.sender == ex[hid].customer);\n        _;\n    }\n\n    modifier atState(S _s, uint hid) {\n        require(_s == ex[hid].state);\n        _;\n    }\n\n    /**\n    * @dev Initiate handshake by shopOwner\n    * @param value funds required for this handshake\n    * @param offchain record ID in offchain backend database\n    */\n    function initByShopOwner(\n        uint value,\n        bytes32 offchain\n    )\n        public\n        payable\n    {\n        Exchange memory p;\n        p.shopOwner = msg.sender;\n        p.escrow = value;\n        p.state = S.Inited;\n        ex.push(p);\n        emit __initByShopOwner(ex.length - 1, msg.sender, value, offchain);\n    }\n\n    //CashOwner close the transaction after init\n    function closeByShopOwner(uint hid, bytes32 offchain) public onlyShopOwner(hid)\n        atState(S.Inited, hid)\n    {\n        Exchange storage p = ex[hid];\n        p.state = S.Cancelled;\n        msg.sender.transfer(p.escrow);\n        emit __closeByShopOwner(hid, offchain);\n    }\n\n    //CoinOwner releaseFundByShopOwner transaction\n    function releasePartialFund(uint hid,address customer,uint amount, bytes32 offchainP, bytes32 offchainC) public onlyShopOwner(hid)\n        atState(S.Inited, hid)\n    {\n        require(customer != 0x0 && amount > 0);\n        Exchange storage p = ex[hid];\n        require(p.escrow >= amount);\n        p.escrow -= amount;\n        p.customer.transfer(amount);\n        if (p.escrow == 0) p.state = S.Done;\n        emit __releasePartialFund(hid,customer, amount, offchainP, offchainC);\n    }\n\n     //get handshake balance by hid\n     function getBalance(uint hid) public constant returns(uint){\n        Exchange storage p = ex[hid];\n        return uint8(p.escrow);\n     }\n\n    /**\n    * @dev Initiate handshake by Customer\n    */\n    function initByCustomer(\n        address shopOwner,\n        uint value,\n        bytes32 offchain\n    )\n        public\n        payable\n    {\n        require(msg.value >= value);\n        Exchange memory p;\n        p.customer = msg.sender;\n        p.shopOwner = shopOwner;\n        p.escrow = value;\n        p.state = S.Inited;\n        ex.push(p);\n        emit __initByCustomer(ex.length - 1, msg.sender,shopOwner,value, offchain);\n    }\n\n\n    //coinOwner cancel the handshake\n    function cancel(uint hid, bytes32 offchain) public\n        onlyShopOwner(hid)\n        atState(S.Inited, hid)\n    {\n        Exchange storage p = ex[hid];\n        p.state = S.Cancelled;\n        msg.sender.transfer(p.escrow);\n        p.escrow = 0;\n        emit __cancel(hid, offchain);\n    }\n\n    //shopOwner agree and make a handshake\n    function shake(uint hid, bytes32 offchain) public\n        onlyShopOwner(hid)\n        atState(S.Inited, hid)\n    {\n        require(ex[hid].customer != 0x0);\n        ex[hid].state = S.Shaked;\n        emit __shake(hid, offchain);\n\n    }\n\n    //customer finish transaction for sending the coin to shopOwner\n    function finish(uint hid, bytes32 offchain) public onlyCustomer(hid)\n        atState(S.Shaked, hid)\n    {\n        Exchange storage p = ex[hid];\n        p.shopOwner.transfer(p.escrow);\n        p.escrow = 0;\n        p.state = S.Done;\n        emit __accept(hid, offchain);\n    }\n\n\n    //CashOwner reject the transaction\n    function reject(uint hid, bytes32 offchain) public\n        atState(S.Shaked, hid)\n    {\n        Exchange storage p = ex[hid];\n        require(msg.sender == p.shopOwner\n                ||  msg.sender == p.customer);\n        p.state = S.Cancelled;\n        p.customer.transfer(p.escrow);\n        emit __reject(hid, offchain);\n    }\n\n    //get handshake stage by hid\n     function getState(uint hid) public constant returns(uint8){\n        Exchange storage p = ex[hid];\n        return uint8(p.state);\n     }\n\n}\n",
  "sourcePath": "/Autonomous/handshake-protocol/contracts/ExchangeShop.sol",
  "compiler": {
    "name": "solc",
    "version": "0.4.24+commit.e67f0147.Emscripten.clang"
  },
  "schemaVersion": "1.0.1",
  "updatedAt": "2018-06-07T10:00:41.014Z"
}