{
  "contractName": "ExchangeShop",
  "abi": [
    {
      "constant": true,
      "inputs": [
        {
          "name": "",
          "type": "uint256"
        }
      ],
      "name": "ex",
      "outputs": [
        {
          "name": "shopOwner",
          "type": "address"
        },
        {
          "name": "customer",
          "type": "address"
        },
        {
          "name": "escrow",
          "type": "uint256"
        },
        {
          "name": "state",
          "type": "uint8"
        }
      ],
      "payable": false,
      "stateMutability": "view",
      "type": "function"
    },
    {
      "constant": false,
      "inputs": [
        {
          "name": "hid",
          "type": "uint256"
        },
        {
          "name": "customer",
          "type": "address"
        },
        {
          "name": "amount",
          "type": "uint256"
        },
        {
          "name": "offchainP",
          "type": "bytes32"
        },
        {
          "name": "offchainC",
          "type": "bytes32"
        }
      ],
      "name": "releasePartialFund",
      "outputs": [],
      "payable": false,
      "stateMutability": "nonpayable",
      "type": "function"
    },
    {
      "constant": true,
      "inputs": [
        {
          "name": "hid",
          "type": "uint256"
        }
      ],
      "name": "getBalance",
      "outputs": [
        {
          "name": "",
          "type": "uint256"
        }
      ],
      "payable": false,
      "stateMutability": "view",
      "type": "function"
    },
    {
      "constant": false,
      "inputs": [
        {
          "name": "offchain",
          "type": "bytes32"
        }
      ],
      "name": "initByShopOwner",
      "outputs": [],
      "payable": true,
      "stateMutability": "payable",
      "type": "function"
    },
    {
      "constant": false,
      "inputs": [
        {
          "name": "hid",
          "type": "uint256"
        },
        {
          "name": "offchain",
          "type": "bytes32"
        }
      ],
      "name": "finish",
      "outputs": [],
      "payable": false,
      "stateMutability": "nonpayable",
      "type": "function"
    },
    {
      "constant": true,
      "inputs": [
        {
          "name": "hid",
          "type": "uint256"
        }
      ],
      "name": "getState",
      "outputs": [
        {
          "name": "",
          "type": "uint8"
        }
      ],
      "payable": false,
      "stateMutability": "view",
      "type": "function"
    },
    {
      "constant": false,
      "inputs": [
        {
          "name": "f",
          "type": "uint256"
        }
      ],
      "name": "setFee",
      "outputs": [],
      "payable": false,
      "stateMutability": "nonpayable",
      "type": "function"
    },
    {
      "constant": false,
      "inputs": [
        {
          "name": "hid",
          "type": "uint256"
        },
        {
          "name": "offchain",
          "type": "bytes32"
        }
      ],
      "name": "reject",
      "outputs": [],
      "payable": false,
      "stateMutability": "nonpayable",
      "type": "function"
    },
    {
      "constant": false,
      "inputs": [
        {
          "name": "hid",
          "type": "uint256"
        },
        {
          "name": "offchain",
          "type": "bytes32"
        }
      ],
      "name": "closeByShopOwner",
      "outputs": [],
      "payable": false,
      "stateMutability": "nonpayable",
      "type": "function"
    },
    {
      "constant": false,
      "inputs": [
        {
          "name": "shopOwner",
          "type": "address"
        },
        {
          "name": "offchain",
          "type": "bytes32"
        }
      ],
      "name": "initByCustomer",
      "outputs": [],
      "payable": true,
      "stateMutability": "payable",
      "type": "function"
    },
    {
      "constant": false,
      "inputs": [
        {
          "name": "hid",
          "type": "uint256"
        },
        {
          "name": "offchain",
          "type": "bytes32"
        }
      ],
      "name": "shake",
      "outputs": [],
      "payable": false,
      "stateMutability": "nonpayable",
      "type": "function"
    },
    {
      "constant": false,
      "inputs": [
        {
          "name": "hid",
          "type": "uint256"
        },
        {
          "name": "offchain",
          "type": "bytes32"
        }
      ],
      "name": "cancel",
      "outputs": [],
      "payable": false,
      "stateMutability": "nonpayable",
      "type": "function"
    },
    {
      "inputs": [],
      "payable": false,
      "stateMutability": "nonpayable",
      "type": "constructor"
    },
    {
      "anonymous": false,
      "inputs": [
        {
          "indexed": false,
          "name": "fee",
          "type": "uint256"
        }
      ],
      "name": "__setFee",
      "type": "event"
    },
    {
      "anonymous": false,
      "inputs": [
        {
          "indexed": false,
          "name": "hid",
          "type": "uint256"
        },
        {
          "indexed": false,
          "name": "shopOwner",
          "type": "address"
        },
        {
          "indexed": false,
          "name": "value",
          "type": "uint256"
        },
        {
          "indexed": false,
          "name": "offchain",
          "type": "bytes32"
        }
      ],
      "name": "__initByShopOwner",
      "type": "event"
    },
    {
      "anonymous": false,
      "inputs": [
        {
          "indexed": false,
          "name": "hid",
          "type": "uint256"
        },
        {
          "indexed": false,
          "name": "offchain",
          "type": "bytes32"
        }
      ],
      "name": "__closeByShopOwner",
      "type": "event"
    },
    {
      "anonymous": false,
      "inputs": [
        {
          "indexed": false,
          "name": "hid",
          "type": "uint256"
        },
        {
          "indexed": false,
          "name": "customer",
          "type": "address"
        },
        {
          "indexed": false,
          "name": "amount",
          "type": "uint256"
        },
        {
          "indexed": false,
          "name": "offchainP",
          "type": "bytes32"
        },
        {
          "indexed": false,
          "name": "offchainC",
          "type": "bytes32"
        }
      ],
      "name": "__releasePartialFund",
      "type": "event"
    },
    {
      "anonymous": false,
      "inputs": [
        {
          "indexed": false,
          "name": "hid",
          "type": "uint256"
        },
        {
          "indexed": false,
          "name": "customer",
          "type": "address"
        },
        {
          "indexed": false,
          "name": "shopOwner",
          "type": "address"
        },
        {
          "indexed": false,
          "name": "value",
          "type": "uint256"
        },
        {
          "indexed": false,
          "name": "offchain",
          "type": "bytes32"
        }
      ],
      "name": "__initByCustomer",
      "type": "event"
    },
    {
      "anonymous": false,
      "inputs": [
        {
          "indexed": false,
          "name": "hid",
          "type": "uint256"
        },
        {
          "indexed": false,
          "name": "offchain",
          "type": "bytes32"
        }
      ],
      "name": "__cancel",
      "type": "event"
    },
    {
      "anonymous": false,
      "inputs": [
        {
          "indexed": false,
          "name": "hid",
          "type": "uint256"
        },
        {
          "indexed": false,
          "name": "offchain",
          "type": "bytes32"
        }
      ],
      "name": "__shake",
      "type": "event"
    },
    {
      "anonymous": false,
      "inputs": [
        {
          "indexed": false,
          "name": "hid",
          "type": "uint256"
        },
        {
          "indexed": false,
          "name": "offchain",
          "type": "bytes32"
        }
      ],
      "name": "__reject",
      "type": "event"
    },
    {
      "anonymous": false,
      "inputs": [
        {
          "indexed": false,
          "name": "hid",
          "type": "uint256"
        },
        {
          "indexed": false,
          "name": "offchain",
          "type": "bytes32"
        }
      ],
      "name": "__finish",
      "type": "event"
    }
  ],
  "bytecode": "0x6080604052600060015534801561001557600080fd5b50336000806101000a81548173ffffffffffffffffffffffffffffffffffffffff021916908373ffffffffffffffffffffffffffffffffffffffff1602179055506117f1806100656000396000f3006080604052600436106100ba576000357c0100000000000000000000000000000000000000000000000000000000900463ffffffff1680631089f215146100bf57806315d85cee1461017b5780631e010439146101ee57806327b6bcaa1461022f57806335e8b2df1461025357806344c9af281461028e57806369fe0e2d146102d55780636be1320b146103025780639d21288f1461033d578063a3b2ea7114610378578063b09b2f85146103bc578063eafb64d5146103f7575b600080fd5b3480156100cb57600080fd5b506100ea60048036038101908080359060200190929190505050610432565b604051808573ffffffffffffffffffffffffffffffffffffffff1673ffffffffffffffffffffffffffffffffffffffff1681526020018473ffffffffffffffffffffffffffffffffffffffff1673ffffffffffffffffffffffffffffffffffffffff16815260200183815260200182600481111561016457fe5b60ff16815260200194505050505060405180910390f35b34801561018757600080fd5b506101ec60048036038101908080359060200190929190803573ffffffffffffffffffffffffffffffffffffffff16906020019092919080359060200190929190803560001916906020019092919080356000191690602001909291905050506104be565b005b3480156101fa57600080fd5b50610219600480360381019080803590602001909291905050506107c8565b6040518082815260200191505060405180910390f35b61025160048036038101908080356000191690602001909291905050506107f7565b005b34801561025f57600080fd5b5061028c6004803603810190808035906020019092919080356000191690602001909291905050506109f4565b005b34801561029a57600080fd5b506102b960048036038101908080359060200190929190505050610c69565b604051808260ff1660ff16815260200191505060405180910390f35b3480156102e157600080fd5b5061030060048036038101908080359060200190929190505050610cb0565b005b34801561030e57600080fd5b5061033b600480360381019080803590602001909291908035600019169060200190929190505050610d4e565b005b34801561034957600080fd5b50610376600480360381019080803590602001909291908035600019169060200190929190505050610f4c565b005b6103ba600480360381019080803573ffffffffffffffffffffffffffffffffffffffff1690602001909291908035600019169060200190929190505050611106565b005b3480156103c857600080fd5b506103f5600480360381019080803590602001909291908035600019169060200190929190505050611370565b005b34801561040357600080fd5b50610430600480360381019080803590602001909291908035600019169060200190929190505050611535565b005b60028181548110151561044157fe5b90600052602060002090600402016000915090508060000160009054906101000a900473ffffffffffffffffffffffffffffffffffffffff16908060010160009054906101000a900473ffffffffffffffffffffffffffffffffffffffff16908060020154908060030160009054906101000a900460ff16905084565b6000806000876002818154811015156104d357fe5b906000526020600020906004020160000160009054906101000a900473ffffffffffffffffffffffffffffffffffffffff1673ffffffffffffffffffffffffffffffffffffffff163373ffffffffffffffffffffffffffffffffffffffff1614151561053e57600080fd5b60008960028181548110151561055057fe5b906000526020600020906004020160030160009054906101000a900460ff16600481111561057a57fe5b82600481111561058657fe5b14151561059257600080fd5b60008a73ffffffffffffffffffffffffffffffffffffffff16141580156105b95750600089115b15156105c457600080fd5b60028b8154811015156105d357fe5b906000526020600020906004020195506103e86001548a028115156105f457fe5b04945084890193508386600201541015151561060f57600080fd5b8386600201600082825403925050819055506000809054906101000a900473ffffffffffffffffffffffffffffffffffffffff1673ffffffffffffffffffffffffffffffffffffffff166108fc869081150290604051600060405180830381858888f19350505050158015610688573d6000803e3d6000fd5b508560010160009054906101000a900473ffffffffffffffffffffffffffffffffffffffff1673ffffffffffffffffffffffffffffffffffffffff166108fc8a9081150290604051600060405180830381858888f193505050501580156106f3573d6000803e3d6000fd5b506000866002015414156107285760048660030160006101000a81548160ff0219169083600481111561072257fe5b02179055505b7ff83285d8d874832066930a6cd961e4fa4156c7a28dcdfb4bc9aaa13e0be2bfcc8b8b8b8b8b604051808681526020018573ffffffffffffffffffffffffffffffffffffffff1673ffffffffffffffffffffffffffffffffffffffff168152602001848152602001836000191660001916815260200182600019166000191681526020019550505050505060405180910390a15050505050505050505050565b6000806002838154811015156107da57fe5b906000526020600020906004020190508060020154915050919050565b6107ff611765565b60003411151561080e57600080fd5b33816000019073ffffffffffffffffffffffffffffffffffffffff16908173ffffffffffffffffffffffffffffffffffffffff16815250503481604001818152505060008160600190600481111561086257fe5b9081600481111561086f57fe5b815250506002819080600181540180825580915050906001820390600052602060002090600402016000909192909190915060008201518160000160006101000a81548173ffffffffffffffffffffffffffffffffffffffff021916908373ffffffffffffffffffffffffffffffffffffffff16021790555060208201518160010160006101000a81548173ffffffffffffffffffffffffffffffffffffffff021916908373ffffffffffffffffffffffffffffffffffffffff1602179055506040820151816002015560608201518160030160006101000a81548160ff0219169083600481111561095d57fe5b02179055505050507f311669895ce0216ae436745ebfab7e15a10c540ff3459e2b74abef58a43545fd600160028054905003333485604051808581526020018473ffffffffffffffffffffffffffffffffffffffff1673ffffffffffffffffffffffffffffffffffffffff168152602001838152602001826000191660001916815260200194505050505060405180910390a15050565b60008083600281815481101515610a0757fe5b906000526020600020906004020160010160009054906101000a900473ffffffffffffffffffffffffffffffffffffffff1673ffffffffffffffffffffffffffffffffffffffff163373ffffffffffffffffffffffffffffffffffffffff16141515610a7257600080fd5b600185600281815481101515610a8457fe5b906000526020600020906004020160030160009054906101000a900460ff166004811115610aae57fe5b826004811115610aba57fe5b141515610ac657600080fd5b600287815481101515610ad557fe5b9060005260206000209060040201945060008560020154111515610af857600080fd5b6103e8600154866002015402811515610b0d57fe5b0493508460000160009054906101000a900473ffffffffffffffffffffffffffffffffffffffff1673ffffffffffffffffffffffffffffffffffffffff166108fc858760020154039081150290604051600060405180830381858888f19350505050158015610b80573d6000803e3d6000fd5b506000809054906101000a900473ffffffffffffffffffffffffffffffffffffffff1673ffffffffffffffffffffffffffffffffffffffff166108fc859081150290604051600060405180830381858888f19350505050158015610be8573d6000803e3d6000fd5b506000856002018190555060048560030160006101000a81548160ff02191690836004811115610c1457fe5b02179055507ffda1b0d3f21a187df4a198a15b2361d3cc73501a41bf582d8bcadc9d266da83a87876040518083815260200182600019166000191681526020019250505060405180910390a150505050505050565b600080600283815481101515610c7b57fe5b906000526020600020906004020190508060030160009054906101000a900460ff166004811115610ca857fe5b915050919050565b6000809054906101000a900473ffffffffffffffffffffffffffffffffffffffff1673ffffffffffffffffffffffffffffffffffffffff163373ffffffffffffffffffffffffffffffffffffffff16141515610d0b57600080fd5b806001819055507f1941cda5868c57eb88923fbcebe63c45bf133819cf0720c99865546a2615f4a76001546040518082815260200191505060405180910390a150565b600082600281815481101515610d6057fe5b906000526020600020906004020160000160009054906101000a900473ffffffffffffffffffffffffffffffffffffffff1673ffffffffffffffffffffffffffffffffffffffff163373ffffffffffffffffffffffffffffffffffffffff161480610e365750600281815481101515610dd557fe5b906000526020600020906004020160010160009054906101000a900473ffffffffffffffffffffffffffffffffffffffff1673ffffffffffffffffffffffffffffffffffffffff163373ffffffffffffffffffffffffffffffffffffffff16145b1515610e4157600080fd5b600284815481101515610e5057fe5b9060005260206000209060040201915060028260030160006101000a81548160ff02191690836004811115610e8157fe5b02179055508160010160009054906101000a900473ffffffffffffffffffffffffffffffffffffffff1673ffffffffffffffffffffffffffffffffffffffff166108fc83600201549081150290604051600060405180830381858888f19350505050158015610ef4573d6000803e3d6000fd5b50600082600201819055507fae76720f3a5d319b91bc94d8a6c2e3096a4f3554c8cb897e3aedfced5824a10a84846040518083815260200182600019166000191681526020019250505060405180910390a150505050565b600082600281815481101515610f5e57fe5b906000526020600020906004020160000160009054906101000a900473ffffffffffffffffffffffffffffffffffffffff1673ffffffffffffffffffffffffffffffffffffffff163373ffffffffffffffffffffffffffffffffffffffff16141515610fc957600080fd5b600084600281815481101515610fdb57fe5b906000526020600020906004020160030160009054906101000a900460ff16600481111561100557fe5b82600481111561101157fe5b14151561101d57600080fd5b60028681548110151561102c57fe5b9060005260206000209060040201935060038460030160006101000a81548160ff0219169083600481111561105d57fe5b02179055503373ffffffffffffffffffffffffffffffffffffffff166108fc85600201549081150290604051600060405180830381858888f193505050501580156110ac573d6000803e3d6000fd5b50600084600201819055507f23ad9e1b0211e48a066f4dccf880a274bb12ce0e8449bb30fcf58aa03c0298a386866040518083815260200182600019166000191681526020019250505060405180910390a1505050505050565b61110e611765565b60003411151561111d57600080fd5b33816020019073ffffffffffffffffffffffffffffffffffffffff16908173ffffffffffffffffffffffffffffffffffffffff168152505082816000019073ffffffffffffffffffffffffffffffffffffffff16908173ffffffffffffffffffffffffffffffffffffffff1681525050348160400181815250506000816060019060048111156111a957fe5b908160048111156111b657fe5b815250506002819080600181540180825580915050906001820390600052602060002090600402016000909192909190915060008201518160000160006101000a81548173ffffffffffffffffffffffffffffffffffffffff021916908373ffffffffffffffffffffffffffffffffffffffff16021790555060208201518160010160006101000a81548173ffffffffffffffffffffffffffffffffffffffff021916908373ffffffffffffffffffffffffffffffffffffffff1602179055506040820151816002015560608201518160030160006101000a81548160ff021916908360048111156112a457fe5b02179055505050507faa539cf6b39fbef365d4e0d2b9d8017bd6b1a36893a02b2a7f0324a705e8309460016002805490500333853486604051808681526020018573ffffffffffffffffffffffffffffffffffffffff1673ffffffffffffffffffffffffffffffffffffffff1681526020018473ffffffffffffffffffffffffffffffffffffffff1673ffffffffffffffffffffffffffffffffffffffff16815260200183815260200182600019166000191681526020019550505050505060405180910390a1505050565b8160028181548110151561138057fe5b906000526020600020906004020160000160009054906101000a900473ffffffffffffffffffffffffffffffffffffffff1673ffffffffffffffffffffffffffffffffffffffff163373ffffffffffffffffffffffffffffffffffffffff161415156113eb57600080fd5b6000836002818154811015156113fd57fe5b906000526020600020906004020160030160009054906101000a900460ff16600481111561142757fe5b82600481111561143357fe5b14151561143f57600080fd5b600060028681548110151561145057fe5b906000526020600020906004020160010160009054906101000a900473ffffffffffffffffffffffffffffffffffffffff1673ffffffffffffffffffffffffffffffffffffffff16141515156114a557600080fd5b60016002868154811015156114b657fe5b906000526020600020906004020160030160006101000a81548160ff021916908360048111156114e257fe5b02179055507f6a5ee55c9df2daa4375d2b5e4ec8b9e5662f1863207bcbe6e38c6f5fe3c2430085856040518083815260200182600019166000191681526020019250505060405180910390a15050505050565b60008260028181548110151561154757fe5b906000526020600020906004020160000160009054906101000a900473ffffffffffffffffffffffffffffffffffffffff1673ffffffffffffffffffffffffffffffffffffffff163373ffffffffffffffffffffffffffffffffffffffff16148061161d57506002818154811015156115bc57fe5b906000526020600020906004020160010160009054906101000a900473ffffffffffffffffffffffffffffffffffffffff1673ffffffffffffffffffffffffffffffffffffffff163373ffffffffffffffffffffffffffffffffffffffff16145b151561162857600080fd5b60008460028181548110151561163a57fe5b906000526020600020906004020160030160009054906101000a900460ff16600481111561166457fe5b82600481111561167057fe5b14151561167c57600080fd5b60028681548110151561168b57fe5b9060005260206000209060040201935060038460030160006101000a81548160ff021916908360048111156116bc57fe5b02179055503373ffffffffffffffffffffffffffffffffffffffff166108fc85600201549081150290604051600060405180830381858888f1935050505015801561170b573d6000803e3d6000fd5b50600084600201819055507fcb720f90f098c425fad2e9df556017c076f9bf7aefa096d1c904a06027ae046086866040518083815260200182600019166000191681526020019250505060405180910390a1505050505050565b608060405190810160405280600073ffffffffffffffffffffffffffffffffffffffff168152602001600073ffffffffffffffffffffffffffffffffffffffff16815260200160008152602001600060048111156117bf57fe5b815250905600a165627a7a72305820279b81e0415316ffd9239b9ea267953988e469ad72341f294001ffdad6a48d970029",
  "source": "pragma solidity ^0.4.24;\n\ncontract ExchangeShop {\n\n    address owner;\n\n    constructor() public {\n        owner = msg.sender;\n    }\n    uint fee = 0;// 0%\n\n    enum S { Inited, Shaked, Rejected, Cancelled,Done }\n\n    struct Exchange {\n        address shopOwner;\n        address customer;\n        uint escrow;\n        S state;\n    }\n\n    Exchange[] public ex;\n    event __setFee(uint fee);\n\n    event __initByShopOwner(uint hid, address shopOwner, uint value,bytes32 offchain);\n    event __closeByShopOwner(uint hid, bytes32 offchain);\n    event __releasePartialFund(uint hid,address customer,uint amount,bytes32 offchainP,bytes32 offchainC);\n\n\n    event __initByCustomer(uint hid, address customer, address shopOwner, uint value,bytes32 offchain);\n    event __cancel(uint hid, bytes32 offchain);\n    event __shake(uint hid, bytes32 offchain);\n    event __reject(uint hid, bytes32 offchain);\n    event __finish(uint hid, bytes32 offchain);\n\n\n    //success if sender is shopOwner\n    modifier onlyShopOwner(uint hid) {\n        require(msg.sender == ex[hid].shopOwner);\n        _;\n    }\n\n    //success if sender is customer\n    modifier onlyCustomer(uint hid) {\n        require(msg.sender == ex[hid].customer);\n        _;\n    }\n\n\n    //success if sender is shopOwner or customer\n    modifier onlyShopOwnerOrCustomer(uint hid) {\n        require(msg.sender == ex[hid].shopOwner || msg.sender == ex[hid].customer);\n        _;\n    }\n\n    //success if sender is owner\n    modifier onlyOwner() {\n        require(msg.sender == owner);\n        _;\n    }\n\n    modifier atState(S _s, uint hid) {\n        require(_s == ex[hid].state);\n        _;\n    }\n\n    /**\n        * @dev Initiate exchange fee by owner\n        * @param f exchange fee\n        */\n    function setFee(\n        uint f\n    )\n        public\n        onlyOwner()\n    {\n        fee = f;\n        emit __setFee(fee);\n    }\n    /**\n    * @dev Initiate handshake by shopOwner\n    * @param offchain record ID in offchain backend database\n    */\n    function initByShopOwner(\n        bytes32 offchain\n    )\n        public\n        payable\n    {\n        require(msg.value > 0);\n        Exchange memory p;\n        p.shopOwner = msg.sender;\n        p.escrow = msg.value;\n        p.state = S.Inited;\n        ex.push(p);\n        emit __initByShopOwner(ex.length - 1, msg.sender, msg.value, offchain);\n    }\n\n    //CashOwner close the transaction after init\n    function closeByShopOwner(uint hid, bytes32 offchain) public onlyShopOwner(hid)\n        atState(S.Inited, hid)\n    {\n        Exchange storage p = ex[hid];\n        p.state = S.Cancelled;\n        msg.sender.transfer(p.escrow);\n        p.escrow = 0;\n        emit __closeByShopOwner(hid, offchain);\n    }\n\n    //CoinOwner releaseFundByShopOwner transaction\n    function releasePartialFund(uint hid,address customer,uint amount, bytes32 offchainP, bytes32 offchainC) public onlyShopOwner(hid)\n        atState(S.Inited, hid)\n    {\n        require(customer != 0x0 && amount > 0);\n        Exchange storage p = ex[hid];\n        uint f = (amount * fee) / 1000;\n        uint t = amount + f;\n        require(p.escrow >= t);\n        p.escrow -= t;\n        owner.transfer(f);\n        p.customer.transfer(amount);\n        if (p.escrow == 0) p.state = S.Done;\n        emit __releasePartialFund(hid,customer, amount, offchainP, offchainC);\n    }\n\n     //get handshake balance by hid\n     function getBalance(uint hid) public constant returns(uint){\n        Exchange storage p = ex[hid];\n        return p.escrow;\n     }\n\n    /**\n    * @dev Initiate handshake by Customer\n    */\n    function initByCustomer(\n        address shopOwner,\n        bytes32 offchain\n    )\n        public\n        payable\n    {\n        require(msg.value > 0);\n        Exchange memory p;\n        p.customer = msg.sender;\n        p.shopOwner = shopOwner;\n        p.escrow = msg.value;\n        p.state = S.Inited;\n        ex.push(p);\n        emit __initByCustomer(ex.length - 1, msg.sender,shopOwner,msg.value, offchain);\n    }\n\n\n    //coinOwner cancel the handshake\n    function cancel(uint hid, bytes32 offchain) public\n        onlyShopOwnerOrCustomer(hid)\n        atState(S.Inited, hid)\n    {\n        Exchange storage p = ex[hid];\n        p.state = S.Cancelled;\n        msg.sender.transfer(p.escrow);\n        p.escrow = 0;\n        emit __cancel(hid, offchain);\n    }\n\n    //shopOwner agree and make a handshake\n    function shake(uint hid, bytes32 offchain) public\n        onlyShopOwner(hid)\n        atState(S.Inited, hid)\n    {\n        require(ex[hid].customer != 0x0);\n        ex[hid].state = S.Shaked;\n        emit __shake(hid, offchain);\n\n    }\n\n    //customer finish transaction for sending the coin to shopOwner\n    function finish(uint hid, bytes32 offchain) public onlyCustomer(hid)\n        atState(S.Shaked, hid)\n    {\n        Exchange storage p = ex[hid];\n        require(p.escrow > 0);\n\n        uint f = (p.escrow * fee) / 1000;\n\n        p.shopOwner.transfer(p.escrow-f);\n        owner.transfer(f);\n        p.escrow = 0;\n        p.state = S.Done;\n        emit __finish(hid, offchain);\n    }\n\n\n    //CashOwner reject the transaction\n    function reject(uint hid, bytes32 offchain) public\n        onlyShopOwnerOrCustomer(hid)\n    {\n        Exchange storage p = ex[hid];\n        p.state = S.Rejected;\n        p.customer.transfer(p.escrow);\n        p.escrow = 0;\n        emit __reject(hid, offchain);\n    }\n\n    //get handshake stage by hid\n     function getState(uint hid) public constant returns(uint8){\n        Exchange storage p = ex[hid];\n        return uint8(p.state);\n     }\n\n}\n",
  "sourcePath": "/Autonomous/handshake-protocol/contracts/ExchangeShop.sol",
  "compiler": {
    "name": "solc",
    "version": "0.4.24+commit.e67f0147.Emscripten.clang"
  },
  "schemaVersion": "1.0.1",
  "updatedAt": "2018-06-13T07:18:05.343Z"
}