{
  "contractName": "ExchangeCash",
  "abi": [
    {
      "constant": true,
      "inputs": [
        {
          "name": "",
          "type": "uint256"
        }
      ],
      "name": "ex",
      "outputs": [
        {
          "name": "stationOwner",
          "type": "address"
        },
        {
          "name": "customer",
          "type": "address"
        },
        {
          "name": "escrow",
          "type": "uint256"
        },
        {
          "name": "state",
          "type": "uint8"
        },
        {
          "name": "exType",
          "type": "uint8"
        }
      ],
      "payable": false,
      "stateMutability": "view",
      "type": "function"
    },
    {
      "constant": false,
      "inputs": [
        {
          "name": "hid",
          "type": "uint256"
        },
        {
          "name": "customer",
          "type": "address"
        },
        {
          "name": "amount",
          "type": "uint256"
        },
        {
          "name": "offchainP",
          "type": "bytes32"
        },
        {
          "name": "offchainC",
          "type": "bytes32"
        }
      ],
      "name": "releasePartialFund",
      "outputs": [],
      "payable": false,
      "stateMutability": "nonpayable",
      "type": "function"
    },
    {
      "constant": true,
      "inputs": [
        {
          "name": "hid",
          "type": "uint256"
        }
      ],
      "name": "getBalance",
      "outputs": [
        {
          "name": "",
          "type": "uint256"
        }
      ],
      "payable": false,
      "stateMutability": "view",
      "type": "function"
    },
    {
      "constant": false,
      "inputs": [
        {
          "name": "hid",
          "type": "uint256"
        },
        {
          "name": "offchain",
          "type": "bytes32"
        }
      ],
      "name": "finish",
      "outputs": [],
      "payable": false,
      "stateMutability": "nonpayable",
      "type": "function"
    },
    {
      "constant": true,
      "inputs": [
        {
          "name": "hid",
          "type": "uint256"
        }
      ],
      "name": "getState",
      "outputs": [
        {
          "name": "",
          "type": "uint8"
        }
      ],
      "payable": false,
      "stateMutability": "view",
      "type": "function"
    },
    {
      "constant": false,
      "inputs": [
        {
          "name": "offchain",
          "type": "bytes32"
        }
      ],
      "name": "resetAllStation",
      "outputs": [],
      "payable": false,
      "stateMutability": "nonpayable",
      "type": "function"
    },
    {
      "constant": false,
      "inputs": [
        {
          "name": "f",
          "type": "uint256"
        }
      ],
      "name": "setFee",
      "outputs": [],
      "payable": false,
      "stateMutability": "nonpayable",
      "type": "function"
    },
    {
      "constant": false,
      "inputs": [
        {
          "name": "hid",
          "type": "uint256"
        },
        {
          "name": "offchain",
          "type": "bytes32"
        }
      ],
      "name": "reject",
      "outputs": [],
      "payable": false,
      "stateMutability": "nonpayable",
      "type": "function"
    },
    {
      "constant": false,
      "inputs": [
        {
          "name": "hid",
          "type": "uint256"
        },
        {
          "name": "offchain",
          "type": "bytes32"
        }
      ],
      "name": "addInventory",
      "outputs": [],
      "payable": true,
      "stateMutability": "payable",
      "type": "function"
    },
    {
      "constant": false,
      "inputs": [
        {
          "name": "stationOwner",
          "type": "address"
        },
        {
          "name": "offchain",
          "type": "bytes32"
        }
      ],
      "name": "initByCustomer",
      "outputs": [],
      "payable": true,
      "stateMutability": "payable",
      "type": "function"
    },
    {
      "constant": false,
      "inputs": [
        {
          "name": "offchain",
          "type": "bytes32"
        }
      ],
      "name": "initByStationOwner",
      "outputs": [],
      "payable": true,
      "stateMutability": "payable",
      "type": "function"
    },
    {
      "constant": false,
      "inputs": [
        {
          "name": "hid",
          "type": "uint256"
        },
        {
          "name": "offchain",
          "type": "bytes32"
        }
      ],
      "name": "cancel",
      "outputs": [],
      "payable": false,
      "stateMutability": "nonpayable",
      "type": "function"
    },
    {
      "constant": false,
      "inputs": [
        {
          "name": "hid",
          "type": "uint256"
        },
        {
          "name": "offchain",
          "type": "bytes32"
        }
      ],
      "name": "closeByStationOwner",
      "outputs": [],
      "payable": false,
      "stateMutability": "nonpayable",
      "type": "function"
    },
    {
      "inputs": [],
      "payable": false,
      "stateMutability": "nonpayable",
      "type": "constructor"
    },
    {
      "anonymous": false,
      "inputs": [
        {
          "indexed": false,
          "name": "fee",
          "type": "uint256"
        }
      ],
      "name": "__setFee",
      "type": "event"
    },
    {
      "anonymous": false,
      "inputs": [
        {
          "indexed": false,
          "name": "hid",
          "type": "uint256"
        },
        {
          "indexed": false,
          "name": "stationOwner",
          "type": "address"
        },
        {
          "indexed": false,
          "name": "value",
          "type": "uint256"
        },
        {
          "indexed": false,
          "name": "offchain",
          "type": "bytes32"
        }
      ],
      "name": "__initByStationOwner",
      "type": "event"
    },
    {
      "anonymous": false,
      "inputs": [
        {
          "indexed": false,
          "name": "hid",
          "type": "uint256"
        },
        {
          "indexed": false,
          "name": "offchain",
          "type": "bytes32"
        }
      ],
      "name": "__closeByStationOwner",
      "type": "event"
    },
    {
      "anonymous": false,
      "inputs": [
        {
          "indexed": false,
          "name": "hid",
          "type": "uint256"
        },
        {
          "indexed": false,
          "name": "customer",
          "type": "address"
        },
        {
          "indexed": false,
          "name": "amount",
          "type": "uint256"
        },
        {
          "indexed": false,
          "name": "offchainP",
          "type": "bytes32"
        },
        {
          "indexed": false,
          "name": "offchainC",
          "type": "bytes32"
        }
      ],
      "name": "__releasePartialFund",
      "type": "event"
    },
    {
      "anonymous": false,
      "inputs": [
        {
          "indexed": false,
          "name": "hid",
          "type": "uint256"
        },
        {
          "indexed": false,
          "name": "offchain",
          "type": "bytes32"
        }
      ],
      "name": "__addInventory",
      "type": "event"
    },
    {
      "anonymous": false,
      "inputs": [
        {
          "indexed": false,
          "name": "hid",
          "type": "uint256"
        },
        {
          "indexed": false,
          "name": "customer",
          "type": "address"
        },
        {
          "indexed": false,
          "name": "stationOwner",
          "type": "address"
        },
        {
          "indexed": false,
          "name": "value",
          "type": "uint256"
        },
        {
          "indexed": false,
          "name": "offchain",
          "type": "bytes32"
        }
      ],
      "name": "__initByCustomer",
      "type": "event"
    },
    {
      "anonymous": false,
      "inputs": [
        {
          "indexed": false,
          "name": "hid",
          "type": "uint256"
        },
        {
          "indexed": false,
          "name": "offchain",
          "type": "bytes32"
        }
      ],
      "name": "__cancel",
      "type": "event"
    },
    {
      "anonymous": false,
      "inputs": [
        {
          "indexed": false,
          "name": "hid",
          "type": "uint256"
        },
        {
          "indexed": false,
          "name": "offchain",
          "type": "bytes32"
        }
      ],
      "name": "__reject",
      "type": "event"
    },
    {
      "anonymous": false,
      "inputs": [
        {
          "indexed": false,
          "name": "hid",
          "type": "uint256"
        },
        {
          "indexed": false,
          "name": "offchain",
          "type": "bytes32"
        }
      ],
      "name": "__finish",
      "type": "event"
    },
    {
      "anonymous": false,
      "inputs": [
        {
          "indexed": false,
          "name": "offchain",
          "type": "bytes32"
        },
        {
          "indexed": false,
          "name": "hid",
          "type": "uint256"
        }
      ],
      "name": "__resetStation",
      "type": "event"
    }
  ],
  "bytecode": "0x6080604052600a60015534801561001557600080fd5b50336000806101000a81548173ffffffffffffffffffffffffffffffffffffffff021916908373ffffffffffffffffffffffffffffffffffffffff160217905550611c57806100656000396000f3006080604052600436106100c5576000357c0100000000000000000000000000000000000000000000000000000000900463ffffffff1680631089f215146100ca57806315d85cee1461019b5780631e0104391461020e57806335e8b2df1461024f57806344c9af281461028a5780635dccb051146102d157806369fe0e2d146103025780636be1320b1461032f57806393341a0b1461036a578063a3b2ea7114610398578063b4bd5dbb146103dc578063eafb64d514610400578063ef3ae6121461043b575b600080fd5b3480156100d657600080fd5b506100f560048036038101908080359060200190929190505050610476565b604051808673ffffffffffffffffffffffffffffffffffffffff1673ffffffffffffffffffffffffffffffffffffffff1681526020018573ffffffffffffffffffffffffffffffffffffffff1673ffffffffffffffffffffffffffffffffffffffff16815260200184815260200183600381111561016f57fe5b60ff16815260200182600181111561018357fe5b60ff1681526020019550505050505060405180910390f35b3480156101a757600080fd5b5061020c60048036038101908080359060200190929190803573ffffffffffffffffffffffffffffffffffffffff1690602001909291908035906020019092919080356000191690602001909291908035600019169060200190929190505050610515565b005b34801561021a57600080fd5b5061023960048036038101908080359060200190929190505050610831565b6040518082815260200191505060405180910390f35b34801561025b57600080fd5b50610288600480360381019080803590602001909291908035600019169060200190929190505050610860565b005b34801561029657600080fd5b506102b560048036038101908080359060200190929190505050610b0a565b604051808260ff1660ff16815260200191505060405180910390f35b3480156102dd57600080fd5b506103006004803603810190808035600019169060200190929190505050610b51565b005b34801561030e57600080fd5b5061032d60048036038101908080359060200190929190505050610e77565b005b34801561033b57600080fd5b50610368600480360381019080803590602001909291908035600019169060200190929190505050610f15565b005b610396600480360381019080803590602001909291908035600019169060200190929190505050611113565b005b6103da600480360381019080803573ffffffffffffffffffffffffffffffffffffffff169060200190929190803560001916906020019092919050505061129a565b005b6103fe6004803603810190808035600019169060200190929190505050611550565b005b34801561040c57600080fd5b50610439600480360381019080803590602001909291908035600019169060200190929190505050611799565b005b34801561044757600080fd5b506104746004803603810190808035906020019092919080356000191690602001909291905050506119c9565b005b60028181548110151561048557fe5b90600052602060002090600402016000915090508060000160009054906101000a900473ffffffffffffffffffffffffffffffffffffffff16908060010160009054906101000a900473ffffffffffffffffffffffffffffffffffffffff16908060020154908060030160009054906101000a900460ff16908060030160019054906101000a900460ff16905085565b60008060008760028181548110151561052a57fe5b906000526020600020906004020160000160009054906101000a900473ffffffffffffffffffffffffffffffffffffffff1673ffffffffffffffffffffffffffffffffffffffff163373ffffffffffffffffffffffffffffffffffffffff1614151561059557600080fd5b6000896002818154811015156105a757fe5b906000526020600020906004020160030160009054906101000a900460ff1660038111156105d157fe5b8260038111156105dd57fe5b1415156105e957600080fd5b60008a73ffffffffffffffffffffffffffffffffffffffff16141580156106105750600089115b151561061b57600080fd5b60028b81548110151561062a57fe5b906000526020600020906004020195506000600181111561064757fe5b8660030160019054906101000a900460ff16600181111561066457fe5b14151561067057600080fd5b6103e86001548a0281151561068157fe5b04945084890193508386600201541015151561069c57600080fd5b8386600201600082825403925050819055506000809054906101000a900473ffffffffffffffffffffffffffffffffffffffff1673ffffffffffffffffffffffffffffffffffffffff166108fc869081150290604051600060405180830381858888f19350505050158015610715573d6000803e3d6000fd5b508973ffffffffffffffffffffffffffffffffffffffff166108fc8a9081150290604051600060405180830381858888f1935050505015801561075c573d6000803e3d6000fd5b506000866002015414156107915760038660030160006101000a81548160ff0219169083600381111561078b57fe5b02179055505b7ff83285d8d874832066930a6cd961e4fa4156c7a28dcdfb4bc9aaa13e0be2bfcc8b8b8b8b8b604051808681526020018573ffffffffffffffffffffffffffffffffffffffff1673ffffffffffffffffffffffffffffffffffffffff168152602001848152602001836000191660001916815260200182600019166000191681526020019550505050505060405180910390a15050505050505050505050565b60008060028381548110151561084357fe5b906000526020600020906004020190508060020154915050919050565b6000808360028181548110151561087357fe5b906000526020600020906004020160010160009054906101000a900473ffffffffffffffffffffffffffffffffffffffff1673ffffffffffffffffffffffffffffffffffffffff163373ffffffffffffffffffffffffffffffffffffffff161415156108de57600080fd5b6000856002818154811015156108f057fe5b906000526020600020906004020160030160009054906101000a900460ff16600381111561091a57fe5b82600381111561092657fe5b14151561093257600080fd5b60028781548110151561094157fe5b906000526020600020906004020194506000856002015411151561096457600080fd5b60018081111561097057fe5b8560030160019054906101000a900460ff16600181111561098d57fe5b14151561099957600080fd5b6103e86001548660020154028115156109ae57fe5b0493508460000160009054906101000a900473ffffffffffffffffffffffffffffffffffffffff1673ffffffffffffffffffffffffffffffffffffffff166108fc858760020154039081150290604051600060405180830381858888f19350505050158015610a21573d6000803e3d6000fd5b506000809054906101000a900473ffffffffffffffffffffffffffffffffffffffff1673ffffffffffffffffffffffffffffffffffffffff166108fc859081150290604051600060405180830381858888f19350505050158015610a89573d6000803e3d6000fd5b506000856002018190555060038560030160006101000a81548160ff02191690836003811115610ab557fe5b02179055507ffda1b0d3f21a187df4a198a15b2361d3cc73501a41bf582d8bcadc9d266da83a87876040518083815260200182600019166000191681526020019250505060405180910390a150505050505050565b600080600283815481101515610b1c57fe5b906000526020600020906004020190508060030160009054906101000a900460ff166003811115610b4957fe5b915050919050565b6000806000809054906101000a900473ffffffffffffffffffffffffffffffffffffffff1673ffffffffffffffffffffffffffffffffffffffff163373ffffffffffffffffffffffffffffffffffffffff16141515610baf57600080fd5b600091505b600280549050821015610e7257600282815481101515610bd057fe5b9060005260206000209060040201905060008160020154118015610c1b575060006003811115610bfc57fe5b8160030160009054906101000a900460ff166003811115610c1957fe5b145b15610e655760006001811115610c2d57fe5b8160030160019054906101000a900460ff166001811115610c4a57fe5b148015610c92575060008160000160009054906101000a900473ffffffffffffffffffffffffffffffffffffffff1673ffffffffffffffffffffffffffffffffffffffff1614155b15610d07578060000160009054906101000a900473ffffffffffffffffffffffffffffffffffffffff1673ffffffffffffffffffffffffffffffffffffffff166108fc82600201549081150290604051600060405180830381858888f19350505050158015610d05573d6000803e3d6000fd5b505b600180811115610d1357fe5b8160030160019054906101000a900460ff166001811115610d3057fe5b148015610d78575060008160010160009054906101000a900473ffffffffffffffffffffffffffffffffffffffff1673ffffffffffffffffffffffffffffffffffffffff1614155b15610ded578060010160009054906101000a900473ffffffffffffffffffffffffffffffffffffffff1673ffffffffffffffffffffffffffffffffffffffff166108fc82600201549081150290604051600060405180830381858888f19350505050158015610deb573d6000803e3d6000fd5b505b6000816002018190555060028160030160006101000a81548160ff02191690836003811115610e1857fe5b02179055507f73d8ef4b77a16350f9072178ca21a79e0d68298007b2a92c870e2b2c66f7868a83836040518083600019166000191681526020018281526020019250505060405180910390a15b8180600101925050610bb4565b505050565b6000809054906101000a900473ffffffffffffffffffffffffffffffffffffffff1673ffffffffffffffffffffffffffffffffffffffff163373ffffffffffffffffffffffffffffffffffffffff16141515610ed257600080fd5b806001819055507f1941cda5868c57eb88923fbcebe63c45bf133819cf0720c99865546a2615f4a76001546040518082815260200191505060405180910390a150565b600082600281815481101515610f2757fe5b906000526020600020906004020160000160009054906101000a900473ffffffffffffffffffffffffffffffffffffffff1673ffffffffffffffffffffffffffffffffffffffff163373ffffffffffffffffffffffffffffffffffffffff161480610ffd5750600281815481101515610f9c57fe5b906000526020600020906004020160010160009054906101000a900473ffffffffffffffffffffffffffffffffffffffff1673ffffffffffffffffffffffffffffffffffffffff163373ffffffffffffffffffffffffffffffffffffffff16145b151561100857600080fd5b60028481548110151561101757fe5b9060005260206000209060040201915060018260030160006101000a81548160ff0219169083600381111561104857fe5b02179055508160010160009054906101000a900473ffffffffffffffffffffffffffffffffffffffff1673ffffffffffffffffffffffffffffffffffffffff166108fc83600201549081150290604051600060405180830381858888f193505050501580156110bb573d6000803e3d6000fd5b50600082600201819055507fae76720f3a5d319b91bc94d8a6c2e3096a4f3554c8cb897e3aedfced5824a10a84846040518083815260200182600019166000191681526020019250505060405180910390a150505050565b60008260028181548110151561112557fe5b906000526020600020906004020160000160009054906101000a900473ffffffffffffffffffffffffffffffffffffffff1673ffffffffffffffffffffffffffffffffffffffff163373ffffffffffffffffffffffffffffffffffffffff1614151561119057600080fd5b6000846002818154811015156111a257fe5b906000526020600020906004020160030160009054906101000a900460ff1660038111156111cc57fe5b8260038111156111d857fe5b1415156111e457600080fd5b6002868154811015156111f357fe5b906000526020600020906004020193506000600181111561121057fe5b8460030160019054906101000a900460ff16600181111561122d57fe5b14151561123957600080fd5b3484600201600082825401925050819055507f414b45f3f079051d7402c185b2031c6033fd30f7ff54ea87dbc22ec69c62645286866040518083815260200182600019166000191681526020019250505060405180910390a1505050505050565b6112a2611bb9565b6000341115156112b157600080fd5b33816020019073ffffffffffffffffffffffffffffffffffffffff16908173ffffffffffffffffffffffffffffffffffffffff168152505082816000019073ffffffffffffffffffffffffffffffffffffffff16908173ffffffffffffffffffffffffffffffffffffffff16815250503481604001818152505060008160600190600381111561133d57fe5b9081600381111561134a57fe5b8152505060018160800190600181111561136057fe5b9081600181111561136d57fe5b815250506002819080600181540180825580915050906001820390600052602060002090600402016000909192909190915060008201518160000160006101000a81548173ffffffffffffffffffffffffffffffffffffffff021916908373ffffffffffffffffffffffffffffffffffffffff16021790555060208201518160010160006101000a81548173ffffffffffffffffffffffffffffffffffffffff021916908373ffffffffffffffffffffffffffffffffffffffff1602179055506040820151816002015560608201518160030160006101000a81548160ff0219169083600381111561145b57fe5b021790555060808201518160030160016101000a81548160ff0219169083600181111561148457fe5b02179055505050507faa539cf6b39fbef365d4e0d2b9d8017bd6b1a36893a02b2a7f0324a705e8309460016002805490500333853486604051808681526020018573ffffffffffffffffffffffffffffffffffffffff1673ffffffffffffffffffffffffffffffffffffffff1681526020018473ffffffffffffffffffffffffffffffffffffffff1673ffffffffffffffffffffffffffffffffffffffff16815260200183815260200182600019166000191681526020019550505050505060405180910390a1505050565b611558611bb9565b60003411151561156757600080fd5b33816000019073ffffffffffffffffffffffffffffffffffffffff16908173ffffffffffffffffffffffffffffffffffffffff1681525050348160400181815250506000816060019060038111156115bb57fe5b908160038111156115c857fe5b815250506000816080019060018111156115de57fe5b908160018111156115eb57fe5b815250506002819080600181540180825580915050906001820390600052602060002090600402016000909192909190915060008201518160000160006101000a81548173ffffffffffffffffffffffffffffffffffffffff021916908373ffffffffffffffffffffffffffffffffffffffff16021790555060208201518160010160006101000a81548173ffffffffffffffffffffffffffffffffffffffff021916908373ffffffffffffffffffffffffffffffffffffffff1602179055506040820151816002015560608201518160030160006101000a81548160ff021916908360038111156116d957fe5b021790555060808201518160030160016101000a81548160ff0219169083600181111561170257fe5b02179055505050507f04d411f10f50ce6fe597ddd1436d44c2118417e90cbb982e009b8215ee689c79600160028054905003333485604051808581526020018473ffffffffffffffffffffffffffffffffffffffff1673ffffffffffffffffffffffffffffffffffffffff168152602001838152602001826000191660001916815260200194505050505060405180910390a15050565b6000826002818154811015156117ab57fe5b906000526020600020906004020160000160009054906101000a900473ffffffffffffffffffffffffffffffffffffffff1673ffffffffffffffffffffffffffffffffffffffff163373ffffffffffffffffffffffffffffffffffffffff161480611881575060028181548110151561182057fe5b906000526020600020906004020160010160009054906101000a900473ffffffffffffffffffffffffffffffffffffffff1673ffffffffffffffffffffffffffffffffffffffff163373ffffffffffffffffffffffffffffffffffffffff16145b151561188c57600080fd5b60008460028181548110151561189e57fe5b906000526020600020906004020160030160009054906101000a900460ff1660038111156118c857fe5b8260038111156118d457fe5b1415156118e057600080fd5b6002868154811015156118ef57fe5b9060005260206000209060040201935060028460030160006101000a81548160ff0219169083600381111561192057fe5b02179055503373ffffffffffffffffffffffffffffffffffffffff166108fc85600201549081150290604051600060405180830381858888f1935050505015801561196f573d6000803e3d6000fd5b50600084600201819055507fcb720f90f098c425fad2e9df556017c076f9bf7aefa096d1c904a06027ae046086866040518083815260200182600019166000191681526020019250505060405180910390a1505050505050565b6000826002818154811015156119db57fe5b906000526020600020906004020160000160009054906101000a900473ffffffffffffffffffffffffffffffffffffffff1673ffffffffffffffffffffffffffffffffffffffff163373ffffffffffffffffffffffffffffffffffffffff16141515611a4657600080fd5b600084600281815481101515611a5857fe5b906000526020600020906004020160030160009054906101000a900460ff166003811115611a8257fe5b826003811115611a8e57fe5b141515611a9a57600080fd5b600286815481101515611aa957fe5b9060005260206000209060040201935060006001811115611ac657fe5b8460030160019054906101000a900460ff166001811115611ae357fe5b141515611aef57600080fd5b60028460030160006101000a81548160ff02191690836003811115611b1057fe5b02179055503373ffffffffffffffffffffffffffffffffffffffff166108fc85600201549081150290604051600060405180830381858888f19350505050158015611b5f573d6000803e3d6000fd5b50600084600201819055507fa4b2dfc35c48bbe07f2063bd9fcf0afa08891ebf8b417a983f957ac8708612a386866040518083815260200182600019166000191681526020019250505060405180910390a1505050505050565b60a060405190810160405280600073ffffffffffffffffffffffffffffffffffffffff168152602001600073ffffffffffffffffffffffffffffffffffffffff1681526020016000815260200160006003811115611c1357fe5b815260200160006001811115611c2557fe5b815250905600a165627a7a723058206862901c1d83abdd5d95821ae22f9a1eb9e7cb76c5fb405ef3f5f59bb93bab990029",
  "source": "pragma solidity ^0.4.24;\n\ncontract ExchangeCash {\n\n    address owner;\n\n    constructor() public {\n        owner = msg.sender;\n    }\n    uint fee = 10;// 1%\n\n    enum S { Inited, Rejected, Cancelled,Done }\n    enum T { Station, Customer }\n\n    struct Exchange {\n        address stationOwner;\n        address customer;\n        uint escrow;\n        S state;\n        T exType;\n    }\n\n    Exchange[] public ex;\n    event __setFee(uint fee);\n\n    event __initByStationOwner(uint hid, address stationOwner, uint value,bytes32 offchain);\n    event __closeByStationOwner(uint hid, bytes32 offchain);\n    event __releasePartialFund(uint hid,address customer,uint amount,bytes32 offchainP,bytes32 offchainC);\n    event __addInventory(uint hid, bytes32 offchain);\n\n    event __initByCustomer(uint hid, address customer, address stationOwner, uint value,bytes32 offchain);\n    event __cancel(uint hid, bytes32 offchain);\n    event __reject(uint hid, bytes32 offchain);\n    event __finish(uint hid, bytes32 offchain);\n    event __resetStation(bytes32 offchain, uint hid);\n\n\n    //success if sender is stationOwner\n    modifier onlyStationOwner(uint hid) {\n        require(msg.sender == ex[hid].stationOwner);\n        _;\n    }\n\n    //success if sender is customer\n    modifier onlyCustomer(uint hid) {\n        require(msg.sender == ex[hid].customer);\n        _;\n    }\n\n\n    //success if sender is stationOwner or customer\n    modifier onlyStationOwnerOrCustomer(uint hid) {\n        require(msg.sender == ex[hid].stationOwner || msg.sender == ex[hid].customer);\n        _;\n    }\n\n    //success if sender is owner\n    modifier onlyOwner() {\n        require(msg.sender == owner);\n        _;\n    }\n\n    modifier atState(S _s, uint hid) {\n        require(_s == ex[hid].state);\n        _;\n    }\n\n    /**\n        * @dev Initiate exchange fee by owner\n        * @param f exchange fee\n        */\n    function setFee(\n        uint f\n    )\n        public\n        onlyOwner()\n    {\n        fee = f;\n        emit __setFee(fee);\n    }\n    /**\n    * @dev Initiate handshake by stationOwner\n    * @param offchain record ID in offchain backend database\n    */\n    function initByStationOwner(\n        bytes32 offchain\n    )\n        public\n        payable\n    {\n        require(msg.value > 0);\n        Exchange memory p;\n        p.stationOwner = msg.sender;\n        p.escrow = msg.value;\n        p.state = S.Inited;\n        p.exType = T.Station;\n        ex.push(p);\n        emit __initByStationOwner(ex.length - 1, msg.sender, msg.value, offchain);\n    }\n\n    //CashOwner close the transaction after init\n    function closeByStationOwner(uint hid, bytes32 offchain) public onlyStationOwner(hid)\n        atState(S.Inited, hid)\n    {\n        Exchange storage p = ex[hid];\n        require(p.exType == T.Station);\n        p.state = S.Cancelled;\n        msg.sender.transfer(p.escrow);\n        p.escrow = 0;\n        emit __closeByStationOwner(hid, offchain);\n    }\n\n    //CashOwner close the transaction after init\n    function addInventory(uint hid, bytes32 offchain)\n        public\n        payable\n        onlyStationOwner(hid)\n        atState(S.Inited, hid)\n    {\n        Exchange storage p = ex[hid];\n        require(p.exType == T.Station);\n        p.escrow += msg.value;\n        emit __addInventory(hid, offchain);\n    }\n\n    //CoinOwner releaseFundByStationOwner transaction\n    function releasePartialFund(uint hid,address customer,uint amount, bytes32 offchainP, bytes32 offchainC) public onlyStationOwner(hid)\n        atState(S.Inited, hid)\n    {\n        require(customer != 0x0 && amount > 0);\n        Exchange storage p = ex[hid];\n        require(p.exType == T.Station);\n\n        uint f = (amount * fee) / 1000;\n        uint t = amount + f;\n        require(p.escrow >= t);\n        p.escrow -= t;\n        owner.transfer(f);\n        customer.transfer(amount);\n        if (p.escrow == 0) p.state = S.Done;\n        emit __releasePartialFund(hid,customer, amount, offchainP, offchainC);\n    }\n\n\n\n    /**\n    * @dev Initiate handshake by Customer\n    */\n    function initByCustomer(\n        address stationOwner,\n        bytes32 offchain\n    )\n        public\n        payable\n    {\n        require(msg.value > 0);\n        Exchange memory p;\n        p.customer = msg.sender;\n        p.stationOwner = stationOwner;\n        p.escrow = msg.value;\n        p.state = S.Inited;\n        p.exType = T.Customer;\n        ex.push(p);\n        emit __initByCustomer(ex.length - 1, msg.sender,stationOwner,msg.value, offchain);\n    }\n\n\n    //coinOwner cancel the handshake\n    function cancel(uint hid, bytes32 offchain) public\n        onlyStationOwnerOrCustomer(hid)\n        atState(S.Inited, hid)\n    {\n        Exchange storage p = ex[hid];\n        p.state = S.Cancelled;\n        msg.sender.transfer(p.escrow);\n        p.escrow = 0;\n        emit __cancel(hid, offchain);\n    }\n\n    //customer finish transaction for sending the coin to stationOwner\n    function finish(uint hid, bytes32 offchain) public onlyCustomer(hid)\n        atState(S.Inited, hid)\n    {\n        Exchange storage p = ex[hid];\n        require(p.escrow > 0);\n        require(p.exType == T.Customer);\n        uint f = (p.escrow * fee) / 1000;\n\n        p.stationOwner.transfer(p.escrow-f);\n        owner.transfer(f);\n        p.escrow = 0;\n        p.state = S.Done;\n        emit __finish(hid, offchain);\n    }\n\n\n    //CashOwner reject the transaction\n    function reject(uint hid, bytes32 offchain) public\n        onlyStationOwnerOrCustomer(hid)\n    {\n        Exchange storage p = ex[hid];\n        p.state = S.Rejected;\n        p.customer.transfer(p.escrow);\n        p.escrow = 0;\n        emit __reject(hid, offchain);\n    }\n\n    //get handshake stage by hid\n     function getState(uint hid) public constant returns(uint8){\n        Exchange storage p = ex[hid];\n        return uint8(p.state);\n     }\n\n      //get handshake balance by hid\n      function getBalance(uint hid) public constant returns(uint){\n         Exchange storage p = ex[hid];\n         return p.escrow;\n      }\n\n\n     // TODO: remove this function after 3 months once the system is stable\n     function resetAllStation(bytes32 offchain) public onlyOwner {\n         for (uint i = 0; i < ex.length; i++) {\n             Exchange storage p = ex[i];\n             if(p.escrow > 0 && p.state == S.Inited){\n                 if(p.exType == T.Station && p.stationOwner != 0x0){\n                    p.stationOwner.transfer(p.escrow);\n                 }\n                 if(p.exType == T.Customer && p.customer != 0x0){\n                    p.customer.transfer(p.escrow);\n                 }\n                 p.escrow = 0;\n                 p.state = S.Cancelled;\n                 emit __resetStation(offchain,i);\n             }\n         }\n     }\n\n}\n",
  "sourcePath": "/Autonomous/handshake-protocol/contracts/ExchangeCash.sol",
  "compiler": {
    "name": "solc",
    "version": "0.4.24+commit.e67f0147.Emscripten.clang"
  },
  "schemaVersion": "1.0.1",
  "updatedAt": "2018-07-17T02:58:08.171Z"
}