{
  "contractName": "ExchangeHandshake",
  "abi": [
    {
      "constant": true,
      "inputs": [
        {
          "name": "",
          "type": "uint256"
        }
      ],
      "name": "ex",
      "outputs": [
        {
          "name": "coinOwner",
          "type": "address"
        },
        {
          "name": "cashOwner",
          "type": "address"
        },
        {
          "name": "exchanger",
          "type": "address"
        },
        {
          "name": "adrFeeRefund",
          "type": "address"
        },
        {
          "name": "fee",
          "type": "uint256"
        },
        {
          "name": "feeRefund",
          "type": "uint256"
        },
        {
          "name": "value",
          "type": "uint256"
        },
        {
          "name": "state",
          "type": "uint8"
        }
      ],
      "payable": false,
      "stateMutability": "view",
      "type": "function"
    },
    {
      "constant": false,
      "inputs": [
        {
          "name": "exchanger",
          "type": "address"
        },
        {
          "name": "adrFeeRefund",
          "type": "address"
        },
        {
          "name": "value",
          "type": "uint256"
        },
        {
          "name": "offchain",
          "type": "bytes32"
        }
      ],
      "name": "initByCoinOwner",
      "outputs": [],
      "payable": true,
      "stateMutability": "payable",
      "type": "function"
    },
    {
      "constant": true,
      "inputs": [
        {
          "name": "hid",
          "type": "uint256"
        }
      ],
      "name": "getState",
      "outputs": [
        {
          "name": "",
          "type": "uint8"
        }
      ],
      "payable": false,
      "stateMutability": "view",
      "type": "function"
    },
    {
      "constant": false,
      "inputs": [
        {
          "name": "hid",
          "type": "uint256"
        },
        {
          "name": "offchain",
          "type": "bytes32"
        }
      ],
      "name": "accept",
      "outputs": [],
      "payable": false,
      "stateMutability": "nonpayable",
      "type": "function"
    },
    {
      "constant": false,
      "inputs": [
        {
          "name": "f",
          "type": "uint256"
        },
        {
          "name": "fr",
          "type": "uint256"
        }
      ],
      "name": "setFee",
      "outputs": [],
      "payable": false,
      "stateMutability": "nonpayable",
      "type": "function"
    },
    {
      "constant": false,
      "inputs": [
        {
          "name": "hid",
          "type": "uint256"
        },
        {
          "name": "offchain",
          "type": "bytes32"
        }
      ],
      "name": "reject",
      "outputs": [],
      "payable": false,
      "stateMutability": "nonpayable",
      "type": "function"
    },
    {
      "constant": false,
      "inputs": [
        {
          "name": "exchanger",
          "type": "address"
        },
        {
          "name": "adrFeeRefund",
          "type": "address"
        },
        {
          "name": "value",
          "type": "uint256"
        },
        {
          "name": "offchain",
          "type": "bytes32"
        }
      ],
      "name": "init",
      "outputs": [],
      "payable": false,
      "stateMutability": "nonpayable",
      "type": "function"
    },
    {
      "constant": false,
      "inputs": [
        {
          "name": "hid",
          "type": "uint256"
        },
        {
          "name": "offchain",
          "type": "bytes32"
        }
      ],
      "name": "withdraw",
      "outputs": [],
      "payable": false,
      "stateMutability": "nonpayable",
      "type": "function"
    },
    {
      "constant": false,
      "inputs": [
        {
          "name": "hid",
          "type": "uint256"
        },
        {
          "name": "offchain",
          "type": "bytes32"
        }
      ],
      "name": "shake",
      "outputs": [],
      "payable": true,
      "stateMutability": "payable",
      "type": "function"
    },
    {
      "constant": false,
      "inputs": [
        {
          "name": "hid",
          "type": "uint256"
        },
        {
          "name": "offchain",
          "type": "bytes32"
        }
      ],
      "name": "cancel",
      "outputs": [],
      "payable": false,
      "stateMutability": "nonpayable",
      "type": "function"
    },
    {
      "inputs": [],
      "payable": false,
      "stateMutability": "nonpayable",
      "type": "constructor"
    },
    {
      "anonymous": false,
      "inputs": [
        {
          "indexed": false,
          "name": "fee",
          "type": "uint256"
        },
        {
          "indexed": false,
          "name": "feeRefund",
          "type": "uint256"
        }
      ],
      "name": "__setFee",
      "type": "event"
    },
    {
      "anonymous": false,
      "inputs": [
        {
          "indexed": false,
          "name": "hid",
          "type": "uint256"
        },
        {
          "indexed": false,
          "name": "initiator",
          "type": "address"
        },
        {
          "indexed": false,
          "name": "offchain",
          "type": "bytes32"
        }
      ],
      "name": "__init",
      "type": "event"
    },
    {
      "anonymous": false,
      "inputs": [
        {
          "indexed": false,
          "name": "hid",
          "type": "uint256"
        },
        {
          "indexed": false,
          "name": "offchain",
          "type": "bytes32"
        }
      ],
      "name": "__shake",
      "type": "event"
    },
    {
      "anonymous": false,
      "inputs": [
        {
          "indexed": false,
          "name": "hid",
          "type": "uint256"
        },
        {
          "indexed": false,
          "name": "offchain",
          "type": "bytes32"
        }
      ],
      "name": "__withdraw",
      "type": "event"
    },
    {
      "anonymous": false,
      "inputs": [
        {
          "indexed": false,
          "name": "hid",
          "type": "uint256"
        },
        {
          "indexed": false,
          "name": "offchain",
          "type": "bytes32"
        }
      ],
      "name": "__reject",
      "type": "event"
    },
    {
      "anonymous": false,
      "inputs": [
        {
          "indexed": false,
          "name": "hid",
          "type": "uint256"
        },
        {
          "indexed": false,
          "name": "offchain",
          "type": "bytes32"
        }
      ],
      "name": "__accept",
      "type": "event"
    },
    {
      "anonymous": false,
      "inputs": [
        {
          "indexed": false,
          "name": "hid",
          "type": "uint256"
        },
        {
          "indexed": false,
          "name": "offchain",
          "type": "bytes32"
        }
      ],
      "name": "__cancel",
      "type": "event"
    }
  ],
  "bytecode": "0x606060405260056001556005600255341561001957600080fd5b336000806101000a81548173ffffffffffffffffffffffffffffffffffffffff021916908373ffffffffffffffffffffffffffffffffffffffff16021790555061188d806100686000396000f3006060604052600436106100a4576000357c0100000000000000000000000000000000000000000000000000000000900463ffffffff1680631089f215146100a95780631178a48a146101cf57806344c9af28146102325780635203dcda1461026f57806352f7c9881461029f5780636be1320b146102cb5780638ffaa813146102fb578063a8d2021a14610369578063b09b2f8514610399578063eafb64d5146103be575b600080fd5b34156100b457600080fd5b6100ca60048080359060200190919050506103ee565b604051808973ffffffffffffffffffffffffffffffffffffffff1673ffffffffffffffffffffffffffffffffffffffff1681526020018873ffffffffffffffffffffffffffffffffffffffff1673ffffffffffffffffffffffffffffffffffffffff1681526020018773ffffffffffffffffffffffffffffffffffffffff1673ffffffffffffffffffffffffffffffffffffffff1681526020018673ffffffffffffffffffffffffffffffffffffffff1673ffffffffffffffffffffffffffffffffffffffff1681526020018581526020018481526020018381526020018260058111156101b457fe5b60ff1681526020019850505050505050505060405180910390f35b610230600480803573ffffffffffffffffffffffffffffffffffffffff1690602001909190803573ffffffffffffffffffffffffffffffffffffffff16906020019091908035906020019091908035600019169060200190919050506104d2565b005b341561023d57600080fd5b61025360048080359060200190919050506107f0565b604051808260ff1660ff16815260200191505060405180910390f35b341561027a57600080fd5b61029d600480803590602001909190803560001916906020019091905050610837565b005b34156102aa57600080fd5b6102c9600480803590602001909190803590602001909190505061099c565b005b34156102d657600080fd5b6102f9600480803590602001909190803560001916906020019091905050610a4c565b005b341561030657600080fd5b610367600480803573ffffffffffffffffffffffffffffffffffffffff1690602001909190803573ffffffffffffffffffffffffffffffffffffffff1690602001909190803590602001909190803560001916906020019091905050610baa565b005b341561037457600080fd5b610397600480803590602001909190803560001916906020019091905050610eb9565b005b6103bc600480803590602001909190803560001916906020019091905050611167565b005b34156103c957600080fd5b6103ec6004808035906020019091908035600019169060200190919050506114e4565b005b6003818154811015156103fd57fe5b90600052602060002090600802016000915090508060000160009054906101000a900473ffffffffffffffffffffffffffffffffffffffff16908060010160009054906101000a900473ffffffffffffffffffffffffffffffffffffffff16908060020160009054906101000a900473ffffffffffffffffffffffffffffffffffffffff16908060030160009054906101000a900473ffffffffffffffffffffffffffffffffffffffff16908060040154908060050154908060060154908060070160009054906101000a900460ff16905088565b6104da61169f565b8234101515156104e957600080fd5b33816000019073ffffffffffffffffffffffffffffffffffffffff16908173ffffffffffffffffffffffffffffffffffffffff168152505084816040019073ffffffffffffffffffffffffffffffffffffffff16908173ffffffffffffffffffffffffffffffffffffffff168152505083816060019073ffffffffffffffffffffffffffffffffffffffff16908173ffffffffffffffffffffffffffffffffffffffff1681525050828160c00181815250506001548160800181815250506002548160a001818152505060008160e0019060058111156105c557fe5b908160058111156105d257fe5b81525050600380548060010182816105ea9190611748565b9160005260206000209060080201600083909190915060008201518160000160006101000a81548173ffffffffffffffffffffffffffffffffffffffff021916908373ffffffffffffffffffffffffffffffffffffffff16021790555060208201518160010160006101000a81548173ffffffffffffffffffffffffffffffffffffffff021916908373ffffffffffffffffffffffffffffffffffffffff16021790555060408201518160020160006101000a81548173ffffffffffffffffffffffffffffffffffffffff021916908373ffffffffffffffffffffffffffffffffffffffff16021790555060608201518160030160006101000a81548173ffffffffffffffffffffffffffffffffffffffff021916908373ffffffffffffffffffffffffffffffffffffffff1602179055506080820151816004015560a0820151816005015560c0820151816006015560e08201518160070160006101000a81548160ff0219169083600581111561075e57fe5b02179055505050507f990e202d3eafbdb3a78c2bdb0ccac83faeb62de32e68a0e9b081a25a66e2f7556001600380549050033384604051808481526020018373ffffffffffffffffffffffffffffffffffffffff1673ffffffffffffffffffffffffffffffffffffffff1681526020018260001916600019168152602001935050505060405180910390a15050505050565b60008060038381548110151561080257fe5b906000526020600020906008020190508060070160009054906101000a900460ff16600581111561082f57fe5b915050919050565b60008260038181548110151561084957fe5b906000526020600020906008020160000160009054906101000a900473ffffffffffffffffffffffffffffffffffffffff1673ffffffffffffffffffffffffffffffffffffffff163373ffffffffffffffffffffffffffffffffffffffff161415156108b457600080fd5b6001846003818154811015156108c657fe5b906000526020600020906008020160070160009054906101000a900460ff1660058111156108f057fe5b8260058111156108fc57fe5b14151561090857600080fd5b60038681548110151561091757fe5b9060005260206000209060080201935060028460070160006101000a81548160ff0219169083600581111561094857fe5b02179055507fbda7bc7c8123a85aa855c777d3191b2dc42bec38c45638643006fb84e76abf7a86866040518083815260200182600019166000191681526020019250505060405180910390a1505050505050565b6000809054906101000a900473ffffffffffffffffffffffffffffffffffffffff1673ffffffffffffffffffffffffffffffffffffffff163373ffffffffffffffffffffffffffffffffffffffff161415156109f757600080fd5b81600181905550806002819055507fda33b66207af71514f4eb8f9fee7b74ba441e293e937e20f099781f435c2786b600154600254604051808381526020018281526020019250505060405180910390a15050565b81600381815481101515610a5c57fe5b906000526020600020906008020160010160009054906101000a900473ffffffffffffffffffffffffffffffffffffffff1673ffffffffffffffffffffffffffffffffffffffff163373ffffffffffffffffffffffffffffffffffffffff16141515610ac757600080fd5b600183600381815481101515610ad957fe5b906000526020600020906008020160070160009054906101000a900460ff166005811115610b0357fe5b826005811115610b0f57fe5b141515610b1b57600080fd5b60038086815481101515610b2b57fe5b906000526020600020906008020160070160006101000a81548160ff02191690836005811115610b5757fe5b02179055507fae76720f3a5d319b91bc94d8a6c2e3096a4f3554c8cb897e3aedfced5824a10a85856040518083815260200182600019166000191681526020019250505060405180910390a15050505050565b610bb261169f565b33816020019073ffffffffffffffffffffffffffffffffffffffff16908173ffffffffffffffffffffffffffffffffffffffff168152505084816040019073ffffffffffffffffffffffffffffffffffffffff16908173ffffffffffffffffffffffffffffffffffffffff168152505083816060019073ffffffffffffffffffffffffffffffffffffffff16908173ffffffffffffffffffffffffffffffffffffffff1681525050828160c00181815250506001548160800181815250506002548160a001818152505060008160e001906005811115610c8e57fe5b90816005811115610c9b57fe5b8152505060038054806001018281610cb39190611748565b9160005260206000209060080201600083909190915060008201518160000160006101000a81548173ffffffffffffffffffffffffffffffffffffffff021916908373ffffffffffffffffffffffffffffffffffffffff16021790555060208201518160010160006101000a81548173ffffffffffffffffffffffffffffffffffffffff021916908373ffffffffffffffffffffffffffffffffffffffff16021790555060408201518160020160006101000a81548173ffffffffffffffffffffffffffffffffffffffff021916908373ffffffffffffffffffffffffffffffffffffffff16021790555060608201518160030160006101000a81548173ffffffffffffffffffffffffffffffffffffffff021916908373ffffffffffffffffffffffffffffffffffffffff1602179055506080820151816004015560a0820151816005015560c0820151816006015560e08201518160070160006101000a81548160ff02191690836005811115610e2757fe5b02179055505050507f990e202d3eafbdb3a78c2bdb0ccac83faeb62de32e68a0e9b081a25a66e2f7556001600380549050033384604051808481526020018373ffffffffffffffffffffffffffffffffffffffff1673ffffffffffffffffffffffffffffffffffffffff1681526020018260001916600019168152602001935050505060405180910390a15050505050565b600080600084600381815481101515610ece57fe5b906000526020600020906008020160010160009054906101000a900473ffffffffffffffffffffffffffffffffffffffff1673ffffffffffffffffffffffffffffffffffffffff163373ffffffffffffffffffffffffffffffffffffffff16141515610f3957600080fd5b600286600381815481101515610f4b57fe5b906000526020600020906008020160070160009054906101000a900460ff166005811115610f7557fe5b826005811115610f8157fe5b141515610f8d57600080fd5b600388815481101515610f9c57fe5b9060005260206000209060080201955060048660070160006101000a81548160ff02191690836005811115610fcd57fe5b02179055506103e88660040154876006015402811515610fe957fe5b0494506103e8866005015487600601540281151561100357fe5b0493508560020160009054906101000a900473ffffffffffffffffffffffffffffffffffffffff1673ffffffffffffffffffffffffffffffffffffffff166108fc869081150290604051600060405180830381858888f19350505050151561106a57600080fd5b8560030160009054906101000a900473ffffffffffffffffffffffffffffffffffffffff1673ffffffffffffffffffffffffffffffffffffffff166108fc859081150290604051600060405180830381858888f1935050505015156110ce57600080fd5b3373ffffffffffffffffffffffffffffffffffffffff166108fc8587896006015403039081150290604051600060405180830381858888f19350505050151561111657600080fd5b7f86e48a712d324364a79089a18be31e993ed6bda36550b789f988e7aaf9ed7cf888886040518083815260200182600019166000191681526020019250505060405180910390a15050505050505050565b60008260038181548110151561117957fe5b906000526020600020906008020160070160009054906101000a900460ff1660058111156111a357fe5b8260058111156111af57fe5b1415156111bb57600080fd5b60006003858154811015156111cc57fe5b906000526020600020906008020160000160009054906101000a900473ffffffffffffffffffffffffffffffffffffffff1673ffffffffffffffffffffffffffffffffffffffff16148015611241575060038481548110151561122b57fe5b9060005260206000209060080201600601543410155b156112a6573360038581548110151561125657fe5b906000526020600020906008020160000160006101000a81548173ffffffffffffffffffffffffffffffffffffffff021916908373ffffffffffffffffffffffffffffffffffffffff1602179055505b60006003858154811015156112b757fe5b906000526020600020906008020160010160009054906101000a900473ffffffffffffffffffffffffffffffffffffffff1673ffffffffffffffffffffffffffffffffffffffff161415611365573360038581548110151561131557fe5b906000526020600020906008020160010160006101000a81548173ffffffffffffffffffffffffffffffffffffffff021916908373ffffffffffffffffffffffffffffffffffffffff1602179055505b60038481548110151561137457fe5b906000526020600020906008020160000160009054906101000a900473ffffffffffffffffffffffffffffffffffffffff1673ffffffffffffffffffffffffffffffffffffffff163373ffffffffffffffffffffffffffffffffffffffff16148061144a57506003848154811015156113e957fe5b906000526020600020906008020160010160009054906101000a900473ffffffffffffffffffffffffffffffffffffffff1673ffffffffffffffffffffffffffffffffffffffff163373ffffffffffffffffffffffffffffffffffffffff16145b151561145557600080fd5b7f6a5ee55c9df2daa4375d2b5e4ec8b9e5662f1863207bcbe6e38c6f5fe3c2430084846040518083815260200182600019166000191681526020019250505060405180910390a160016003858154811015156114ad57fe5b906000526020600020906008020160070160006101000a81548160ff021916908360058111156114d957fe5b021790555050505050565b6000826003818154811015156114f657fe5b906000526020600020906008020160000160009054906101000a900473ffffffffffffffffffffffffffffffffffffffff1673ffffffffffffffffffffffffffffffffffffffff163373ffffffffffffffffffffffffffffffffffffffff1614151561156157600080fd5b60038481548110151561157057fe5b906000526020600020906008020191506003600581111561158d57fe5b8260070160009054906101000a900460ff1660058111156115aa57fe5b14806115dd5750600160058111156115be57fe5b8260070160009054906101000a900460ff1660058111156115db57fe5b145b15156115e857600080fd5b60058260070160006101000a81548160ff0219169083600581111561160957fe5b02179055503373ffffffffffffffffffffffffffffffffffffffff166108fc83600601549081150290604051600060405180830381858888f19350505050151561165257600080fd5b7fcb720f90f098c425fad2e9df556017c076f9bf7aefa096d1c904a06027ae046084846040518083815260200182600019166000191681526020019250505060405180910390a150505050565b61010060405190810160405280600073ffffffffffffffffffffffffffffffffffffffff168152602001600073ffffffffffffffffffffffffffffffffffffffff168152602001600073ffffffffffffffffffffffffffffffffffffffff168152602001600073ffffffffffffffffffffffffffffffffffffffff1681526020016000815260200160008152602001600081526020016000600581111561174257fe5b81525090565b81548183558181151161177557600802816008028360005260206000209182019101611774919061177a565b5b505050565b61185e91905b8082111561185a57600080820160006101000a81549073ffffffffffffffffffffffffffffffffffffffff02191690556001820160006101000a81549073ffffffffffffffffffffffffffffffffffffffff02191690556002820160006101000a81549073ffffffffffffffffffffffffffffffffffffffff02191690556003820160006101000a81549073ffffffffffffffffffffffffffffffffffffffff02191690556004820160009055600582016000905560068201600090556007820160006101000a81549060ff021916905550600801611780565b5090565b905600a165627a7a72305820da4016d535c8ec4b3a5d94afd8ee71fe60833a14367b32130fe5da35eb7a86570029",
  "source": "pragma solidity ^0.4.18;\n\ncontract ExchangeHandshake {\n\n    address owner;\n\n    function ExchangeHandshake() public {\n    \towner = msg.sender;\n\t}\n    uint fee = 5;\n    uint feeRefund = 5;\n\n    enum S { Inited, Shaked, Accepted, Rejected, Done, Cancelled }\n\n    struct Exchange {\n        address coinOwner;\n        address cashOwner;\n        address exchanger;\n        address adrFeeRefund;\n        uint fee; //percentage\n        uint feeRefund;//percentage\n        uint value;\n        S state;\n    }\n\n    Exchange[] public ex;\n\n    event __setFee(uint fee, uint feeRefund);\n    event __init(uint hid, address initiator, bytes32 offchain);\n    event __shake(uint hid, bytes32 offchain);\n    event __withdraw(uint hid, bytes32 offchain);\n    event __reject(uint hid, bytes32 offchain);\n    event __accept(uint hid, bytes32 offchain);\n    event __cancel(uint hid, bytes32 offchain);\n\n    //success if sender is coinOwner\n    modifier onlyCoinOwner(uint hid) {\n        require(msg.sender == ex[hid].coinOwner);\n        _;\n    }\n\n    //success if sender is cashOwner\n    modifier onlyCashOwner(uint hid) {\n        require(msg.sender == ex[hid].cashOwner);\n        _;\n    }\n\n    //success if sender is owner\n    modifier onlyOwner() {\n        require(msg.sender == owner);\n        _;\n    }\n\n    modifier atState(S _s, uint hid) {\n        require(_s == ex[hid].state);\n        _;\n    }\n\n     /**\n        * @dev Initiate exchange fee by owner\n        * @param f exchange fee\n        * @param fr %fee send back to initiator\n        */\n    function setFee(\n        uint f,\n        uint fr\n    )\n        public\n        onlyOwner()\n    {\n        fee = f;\n        feeRefund = fr;\n        __setFee(fee, feeRefund);\n    }\n\n\n    /**\n    * @dev Initiate handshake by cashOwner\n    * @param exchanger exchanger address\n    * @param adrFeeRefund adrFeeRefund address\n    * @param value funds required for this handshake\n    * @param offchain record ID in offchain backend database\n    */\n    function init(\n        address exchanger,\n        address adrFeeRefund,\n        uint value,\n        bytes32 offchain\n    )\n        public\n    {\n        Exchange memory p;\n        p.cashOwner = msg.sender;\n        p.exchanger = exchanger;\n        p.adrFeeRefund = adrFeeRefund;\n        p.value = value;\n        p.fee = fee;\n        p.feeRefund = feeRefund;\n        p.state = S.Inited;\n        ex.push(p);\n        __init(ex.length - 1, msg.sender, offchain);\n    }\n\n    /**\n    * @dev Initiate handshake by CoinOwner\n    */\n    function initByCoinOwner(\n        address exchanger,\n        address adrFeeRefund,\n        uint value,\n        bytes32 offchain\n    )\n        public\n        payable\n    {\n        require(msg.value >= value);\n        Exchange memory p;\n        p.coinOwner = msg.sender;\n        p.exchanger = exchanger;\n        p.adrFeeRefund = adrFeeRefund;\n        p.value = value;\n        p.fee = fee;\n        p.feeRefund = feeRefund;\n        p.state = S.Inited;\n        ex.push(p);\n        __init(ex.length - 1, msg.sender, offchain);\n    }\n\n    //shaker agree and make a handshake\n    function shake(uint hid, bytes32 offchain) public payable\n        atState(S.Inited, hid)\n    {\n        if (ex[hid].coinOwner == 0x0 && msg.value >= ex[hid].value) ex[hid].coinOwner = msg.sender;\n\n        if (ex[hid].cashOwner == 0x0) ex[hid].cashOwner = msg.sender;\n\n        require(msg.sender == ex[hid].coinOwner || msg.sender == ex[hid].cashOwner);\n        __shake(hid, offchain);\n        ex[hid].state = S.Shaked;\n    }\n\n    //CoinOwner accept transaction\n    function accept(uint hid, bytes32 offchain) public onlyCoinOwner(hid)\n        atState(S.Shaked, hid)\n    {\n        Exchange storage p = ex[hid];\n        p.state = S.Accepted;\n        __accept(hid, offchain);\n    }\n\n    //CashOwner withdraw funds from a handshake\n    function withdraw(uint hid, bytes32 offchain) public onlyCashOwner(hid)\n        atState(S.Accepted, hid)\n    {\n        Exchange storage p = ex[hid];\n        p.state = S.Done;\n        uint f = (p.value * p.fee) / 1000;\n        uint fr = (p.value * p.feeRefund) / 1000;\n        p.exchanger.transfer(f);\n        p.adrFeeRefund.transfer(fr);\n        msg.sender.transfer(p.value - f - fr);\n\n        __withdraw(hid, offchain);\n    }\n\n    //CashOwner reject the transaction\n    function reject(uint hid, bytes32 offchain) public onlyCashOwner(hid)\n        atState(S.Shaked, hid)\n    {\n        ex[hid].state = S.Rejected;\n        __reject(hid, offchain);\n    }\n\n    //coinOwner cancel the handshake\n    function cancel(uint hid, bytes32 offchain) public onlyCoinOwner(hid) {\n        Exchange storage p = ex[hid];\n        require(p.state == S.Rejected\n                || p.state == S.Shaked);\n        p.state = S.Cancelled;\n        msg.sender.transfer(p.value);\n\n        __cancel(hid, offchain);\n    }\n\n    //get handshake stage by hid\n     function getState(uint hid) public constant returns(uint8){\n        Exchange storage p = ex[hid];\n        return uint8(p.state);\n     }\n\n}\n",
  "sourcePath": "/Autonomous/handshake-protocol/contracts/ExchangeHandshake.sol",
  "compiler": {
    "name": "solc",
    "version": "0.4.18+commit.9cf6e910.Emscripten.clang"
  },
  "schemaVersion": "1.0.1",
  "updatedAt": "2018-06-01T11:08:03.728Z"
}