{
  "contractName": "ExchangeCash",
  "abi": [
    {
      "constant": true,
      "inputs": [
        {
          "name": "",
          "type": "uint256"
        }
      ],
      "name": "ex",
      "outputs": [
        {
          "name": "stationOwner",
          "type": "address"
        },
        {
          "name": "customer",
          "type": "address"
        },
        {
          "name": "escrow",
          "type": "uint256"
        },
        {
          "name": "state",
          "type": "uint8"
        },
        {
          "name": "exType",
          "type": "uint8"
        }
      ],
      "payable": false,
      "stateMutability": "view",
      "type": "function"
    },
    {
      "constant": false,
      "inputs": [
        {
          "name": "hid",
          "type": "uint256"
        },
        {
          "name": "customer",
          "type": "address"
        },
        {
          "name": "amount",
          "type": "uint256"
        },
        {
          "name": "offchainP",
          "type": "bytes32"
        },
        {
          "name": "offchainC",
          "type": "bytes32"
        }
      ],
      "name": "releasePartialFund",
      "outputs": [],
      "payable": false,
      "stateMutability": "nonpayable",
      "type": "function"
    },
    {
      "constant": true,
      "inputs": [
        {
          "name": "hid",
          "type": "uint256"
        }
      ],
      "name": "getBalance",
      "outputs": [
        {
          "name": "",
          "type": "uint256"
        }
      ],
      "payable": false,
      "stateMutability": "view",
      "type": "function"
    },
    {
      "constant": false,
      "inputs": [
        {
          "name": "hid",
          "type": "uint256"
        },
        {
          "name": "offchain",
          "type": "bytes32"
        }
      ],
      "name": "finish",
      "outputs": [],
      "payable": false,
      "stateMutability": "nonpayable",
      "type": "function"
    },
    {
      "constant": true,
      "inputs": [
        {
          "name": "hid",
          "type": "uint256"
        }
      ],
      "name": "getState",
      "outputs": [
        {
          "name": "",
          "type": "uint8"
        }
      ],
      "payable": false,
      "stateMutability": "view",
      "type": "function"
    },
    {
      "constant": false,
      "inputs": [
        {
          "name": "offchain",
          "type": "bytes32"
        }
      ],
      "name": "resetAllStation",
      "outputs": [],
      "payable": false,
      "stateMutability": "nonpayable",
      "type": "function"
    },
    {
      "constant": false,
      "inputs": [
        {
          "name": "f",
          "type": "uint256"
        }
      ],
      "name": "setFee",
      "outputs": [],
      "payable": false,
      "stateMutability": "nonpayable",
      "type": "function"
    },
    {
      "constant": false,
      "inputs": [
        {
          "name": "hid",
          "type": "uint256"
        },
        {
          "name": "offchain",
          "type": "bytes32"
        }
      ],
      "name": "reject",
      "outputs": [],
      "payable": false,
      "stateMutability": "nonpayable",
      "type": "function"
    },
    {
      "constant": false,
      "inputs": [
        {
          "name": "hid",
          "type": "uint256"
        },
        {
          "name": "offchain",
          "type": "bytes32"
        }
      ],
      "name": "addInventory",
      "outputs": [],
      "payable": true,
      "stateMutability": "payable",
      "type": "function"
    },
    {
      "constant": false,
      "inputs": [
        {
          "name": "stationOwner",
          "type": "address"
        },
        {
          "name": "offchain",
          "type": "bytes32"
        }
      ],
      "name": "initByCustomer",
      "outputs": [],
      "payable": true,
      "stateMutability": "payable",
      "type": "function"
    },
    {
      "constant": false,
      "inputs": [
        {
          "name": "offchain",
          "type": "bytes32"
        }
      ],
      "name": "initByStationOwner",
      "outputs": [],
      "payable": true,
      "stateMutability": "payable",
      "type": "function"
    },
    {
      "constant": false,
      "inputs": [
        {
          "name": "hid",
          "type": "uint256"
        },
        {
          "name": "offchain",
          "type": "bytes32"
        }
      ],
      "name": "cancel",
      "outputs": [],
      "payable": false,
      "stateMutability": "nonpayable",
      "type": "function"
    },
    {
      "constant": false,
      "inputs": [
        {
          "name": "hid",
          "type": "uint256"
        },
        {
          "name": "offchain",
          "type": "bytes32"
        }
      ],
      "name": "closeByStationOwner",
      "outputs": [],
      "payable": false,
      "stateMutability": "nonpayable",
      "type": "function"
    },
    {
      "inputs": [],
      "payable": false,
      "stateMutability": "nonpayable",
      "type": "constructor"
    },
    {
      "anonymous": false,
      "inputs": [
        {
          "indexed": false,
          "name": "fee",
          "type": "uint256"
        }
      ],
      "name": "__setFee",
      "type": "event"
    },
    {
      "anonymous": false,
      "inputs": [
        {
          "indexed": false,
          "name": "hid",
          "type": "uint256"
        },
        {
          "indexed": false,
          "name": "stationOwner",
          "type": "address"
        },
        {
          "indexed": false,
          "name": "value",
          "type": "uint256"
        },
        {
          "indexed": false,
          "name": "offchain",
          "type": "bytes32"
        }
      ],
      "name": "__initByStationOwner",
      "type": "event"
    },
    {
      "anonymous": false,
      "inputs": [
        {
          "indexed": false,
          "name": "hid",
          "type": "uint256"
        },
        {
          "indexed": false,
          "name": "offchain",
          "type": "bytes32"
        }
      ],
      "name": "__closeByStationOwner",
      "type": "event"
    },
    {
      "anonymous": false,
      "inputs": [
        {
          "indexed": false,
          "name": "hid",
          "type": "uint256"
        },
        {
          "indexed": false,
          "name": "customer",
          "type": "address"
        },
        {
          "indexed": false,
          "name": "amount",
          "type": "uint256"
        },
        {
          "indexed": false,
          "name": "offchainP",
          "type": "bytes32"
        },
        {
          "indexed": false,
          "name": "offchainC",
          "type": "bytes32"
        }
      ],
      "name": "__releasePartialFund",
      "type": "event"
    },
    {
      "anonymous": false,
      "inputs": [
        {
          "indexed": false,
          "name": "hid",
          "type": "uint256"
        },
        {
          "indexed": false,
          "name": "offchain",
          "type": "bytes32"
        }
      ],
      "name": "__addInventory",
      "type": "event"
    },
    {
      "anonymous": false,
      "inputs": [
        {
          "indexed": false,
          "name": "hid",
          "type": "uint256"
        },
        {
          "indexed": false,
          "name": "customer",
          "type": "address"
        },
        {
          "indexed": false,
          "name": "stationOwner",
          "type": "address"
        },
        {
          "indexed": false,
          "name": "value",
          "type": "uint256"
        },
        {
          "indexed": false,
          "name": "offchain",
          "type": "bytes32"
        }
      ],
      "name": "__initByCustomer",
      "type": "event"
    },
    {
      "anonymous": false,
      "inputs": [
        {
          "indexed": false,
          "name": "hid",
          "type": "uint256"
        },
        {
          "indexed": false,
          "name": "offchain",
          "type": "bytes32"
        }
      ],
      "name": "__cancel",
      "type": "event"
    },
    {
      "anonymous": false,
      "inputs": [
        {
          "indexed": false,
          "name": "hid",
          "type": "uint256"
        },
        {
          "indexed": false,
          "name": "offchain",
          "type": "bytes32"
        }
      ],
      "name": "__reject",
      "type": "event"
    },
    {
      "anonymous": false,
      "inputs": [
        {
          "indexed": false,
          "name": "hid",
          "type": "uint256"
        },
        {
          "indexed": false,
          "name": "offchain",
          "type": "bytes32"
        }
      ],
      "name": "__finish",
      "type": "event"
    },
    {
      "anonymous": false,
      "inputs": [
        {
          "indexed": false,
          "name": "offchain",
          "type": "bytes32"
        },
        {
          "indexed": false,
          "name": "hid",
          "type": "uint256"
        }
      ],
      "name": "__resetStation",
      "type": "event"
    }
  ],
  "bytecode": "0x6080604052600a60015534801561001557600080fd5b50336000806101000a81548173ffffffffffffffffffffffffffffffffffffffff021916908373ffffffffffffffffffffffffffffffffffffffff160217905550611e14806100656000396000f3006080604052600436106100c5576000357c0100000000000000000000000000000000000000000000000000000000900463ffffffff1680631089f215146100ca57806315d85cee1461019b5780631e0104391461020e57806335e8b2df1461024f57806344c9af281461028a5780635dccb051146102d157806369fe0e2d146103025780636be1320b1461032f57806393341a0b1461036a578063a3b2ea7114610398578063b4bd5dbb146103dc578063eafb64d514610400578063ef3ae6121461043b575b600080fd5b3480156100d657600080fd5b506100f560048036038101908080359060200190929190505050610476565b604051808673ffffffffffffffffffffffffffffffffffffffff1673ffffffffffffffffffffffffffffffffffffffff1681526020018573ffffffffffffffffffffffffffffffffffffffff1673ffffffffffffffffffffffffffffffffffffffff16815260200184815260200183600381111561016f57fe5b60ff16815260200182600181111561018357fe5b60ff1681526020019550505050505060405180910390f35b3480156101a757600080fd5b5061020c60048036038101908080359060200190929190803573ffffffffffffffffffffffffffffffffffffffff1690602001909291908035906020019092919080356000191690602001909291908035600019169060200190929190505050610515565b005b34801561021a57600080fd5b506102396004803603810190808035906020019092919050505061081d565b6040518082815260200191505060405180910390f35b34801561025b57600080fd5b5061028860048036038101908080359060200190929190803560001916906020019092919050505061084c565b005b34801561029657600080fd5b506102b560048036038101908080359060200190929190505050610b16565b604051808260ff1660ff16815260200191505060405180910390f35b3480156102dd57600080fd5b506103006004803603810190808035600019169060200190929190505050610b5d565b005b34801561030e57600080fd5b5061032d60048036038101908080359060200190929190505050610e83565b005b34801561033b57600080fd5b50610368600480360381019080803590602001909291908035600019169060200190929190505050610f21565b005b6103966004803603810190808035906020019092919080356000191690602001909291905050506110ff565b005b6103da600480360381019080803573ffffffffffffffffffffffffffffffffffffffff16906020019092919080356000191690602001909291905050506112b5565b005b6103fe600480360381019080803560001916906020019092919050505061156b565b005b34801561040c57600080fd5b506104396004803603810190808035906020019092919080356000191690602001909291905050506117b4565b005b34801561044757600080fd5b50610474600480360381019080803590602001909291908035600019169060200190929190505050611b66565b005b60028181548110151561048557fe5b90600052602060002090600402016000915090508060000160009054906101000a900473ffffffffffffffffffffffffffffffffffffffff16908060010160009054906101000a900473ffffffffffffffffffffffffffffffffffffffff16908060020154908060030160009054906101000a900460ff16908060030160019054906101000a900460ff16905085565b60008060008760028181548110151561052a57fe5b906000526020600020906004020160000160009054906101000a900473ffffffffffffffffffffffffffffffffffffffff1673ffffffffffffffffffffffffffffffffffffffff163373ffffffffffffffffffffffffffffffffffffffff1614151561059557600080fd5b6000896002818154811015156105a757fe5b906000526020600020906004020160030160009054906101000a900460ff1660038111156105d157fe5b8260038111156105dd57fe5b1415156105e957600080fd5b60008b6002818154811015156105fb57fe5b906000526020600020906004020160030160019054906101000a900460ff16600181111561062557fe5b82600181111561063157fe5b14151561063d57600080fd5b60008c73ffffffffffffffffffffffffffffffffffffffff1614158015610664575060008b115b151561066f57600080fd5b60028d81548110151561067e57fe5b906000526020600020906004020197506103e86001548c0281151561069f57fe5b049650868b019550858860020154101515156106ba57600080fd5b8588600201600082825403925050819055506000809054906101000a900473ffffffffffffffffffffffffffffffffffffffff1673ffffffffffffffffffffffffffffffffffffffff166108fc889081150290604051600060405180830381858888f19350505050158015610733573d6000803e3d6000fd5b508b73ffffffffffffffffffffffffffffffffffffffff166108fc8c9081150290604051600060405180830381858888f1935050505015801561077a573d6000803e3d6000fd5b507ff83285d8d874832066930a6cd961e4fa4156c7a28dcdfb4bc9aaa13e0be2bfcc8d8d8d8d8d604051808681526020018573ffffffffffffffffffffffffffffffffffffffff1673ffffffffffffffffffffffffffffffffffffffff168152602001848152602001836000191660001916815260200182600019166000191681526020019550505050505060405180910390a150505050505050505050505050565b60008060028381548110151561082f57fe5b906000526020600020906004020190508060020154915050919050565b6000808360028181548110151561085f57fe5b906000526020600020906004020160010160009054906101000a900473ffffffffffffffffffffffffffffffffffffffff1673ffffffffffffffffffffffffffffffffffffffff163373ffffffffffffffffffffffffffffffffffffffff161415156108ca57600080fd5b6000856002818154811015156108dc57fe5b906000526020600020906004020160030160009054906101000a900460ff16600381111561090657fe5b82600381111561091257fe5b14151561091e57600080fd5b60018760028181548110151561093057fe5b906000526020600020906004020160030160019054906101000a900460ff16600181111561095a57fe5b82600181111561096657fe5b14151561097257600080fd5b60028981548110151561098157fe5b906000526020600020906004020196506103e86001548860020154028115156109a657fe5b0495508587600201541115156109bb57600080fd5b8660000160009054906101000a900473ffffffffffffffffffffffffffffffffffffffff1673ffffffffffffffffffffffffffffffffffffffff166108fc878960020154039081150290604051600060405180830381858888f19350505050158015610a2b573d6000803e3d6000fd5b506000809054906101000a900473ffffffffffffffffffffffffffffffffffffffff1673ffffffffffffffffffffffffffffffffffffffff166108fc879081150290604051600060405180830381858888f19350505050158015610a93573d6000803e3d6000fd5b506000876002018190555060038760030160006101000a81548160ff02191690836003811115610abf57fe5b02179055507ffda1b0d3f21a187df4a198a15b2361d3cc73501a41bf582d8bcadc9d266da83a89896040518083815260200182600019166000191681526020019250505060405180910390a1505050505050505050565b600080600283815481101515610b2857fe5b906000526020600020906004020190508060030160009054906101000a900460ff166003811115610b5557fe5b915050919050565b6000806000809054906101000a900473ffffffffffffffffffffffffffffffffffffffff1673ffffffffffffffffffffffffffffffffffffffff163373ffffffffffffffffffffffffffffffffffffffff16141515610bbb57600080fd5b600091505b600280549050821015610e7e57600282815481101515610bdc57fe5b9060005260206000209060040201905060008160020154118015610c27575060006003811115610c0857fe5b8160030160009054906101000a900460ff166003811115610c2557fe5b145b15610e715760006001811115610c3957fe5b8160030160019054906101000a900460ff166001811115610c5657fe5b148015610c9e575060008160000160009054906101000a900473ffffffffffffffffffffffffffffffffffffffff1673ffffffffffffffffffffffffffffffffffffffff1614155b15610d13578060000160009054906101000a900473ffffffffffffffffffffffffffffffffffffffff1673ffffffffffffffffffffffffffffffffffffffff166108fc82600201549081150290604051600060405180830381858888f19350505050158015610d11573d6000803e3d6000fd5b505b600180811115610d1f57fe5b8160030160019054906101000a900460ff166001811115610d3c57fe5b148015610d84575060008160010160009054906101000a900473ffffffffffffffffffffffffffffffffffffffff1673ffffffffffffffffffffffffffffffffffffffff1614155b15610df9578060010160009054906101000a900473ffffffffffffffffffffffffffffffffffffffff1673ffffffffffffffffffffffffffffffffffffffff166108fc82600201549081150290604051600060405180830381858888f19350505050158015610df7573d6000803e3d6000fd5b505b6000816002018190555060028160030160006101000a81548160ff02191690836003811115610e2457fe5b02179055507f73d8ef4b77a16350f9072178ca21a79e0d68298007b2a92c870e2b2c66f7868a83836040518083600019166000191681526020018281526020019250505060405180910390a15b8180600101925050610bc0565b505050565b6000809054906101000a900473ffffffffffffffffffffffffffffffffffffffff1673ffffffffffffffffffffffffffffffffffffffff163373ffffffffffffffffffffffffffffffffffffffff16141515610ede57600080fd5b806001819055507f1941cda5868c57eb88923fbcebe63c45bf133819cf0720c99865546a2615f4a76001546040518082815260200191505060405180910390a150565b600082600281815481101515610f3357fe5b906000526020600020906004020160000160009054906101000a900473ffffffffffffffffffffffffffffffffffffffff1673ffffffffffffffffffffffffffffffffffffffff163373ffffffffffffffffffffffffffffffffffffffff16141515610f9e57600080fd5b600184600281815481101515610fb057fe5b906000526020600020906004020160030160019054906101000a900460ff166001811115610fda57fe5b826001811115610fe657fe5b141515610ff257600080fd5b60028681548110151561100157fe5b906000526020600020906004020193508360010160009054906101000a900473ffffffffffffffffffffffffffffffffffffffff1673ffffffffffffffffffffffffffffffffffffffff166108fc85600201549081150290604051600060405180830381858888f1935050505015801561107f573d6000803e3d6000fd5b506000846002018190555060018460030160006101000a81548160ff021916908360038111156110ab57fe5b02179055507fae76720f3a5d319b91bc94d8a6c2e3096a4f3554c8cb897e3aedfced5824a10a86866040518083815260200182600019166000191681526020019250505060405180910390a1505050505050565b60008260028181548110151561111157fe5b906000526020600020906004020160000160009054906101000a900473ffffffffffffffffffffffffffffffffffffffff1673ffffffffffffffffffffffffffffffffffffffff163373ffffffffffffffffffffffffffffffffffffffff1614151561117c57600080fd5b60008460028181548110151561118e57fe5b906000526020600020906004020160030160009054906101000a900460ff1660038111156111b857fe5b8260038111156111c457fe5b1415156111d057600080fd5b6000866002818154811015156111e257fe5b906000526020600020906004020160030160019054906101000a900460ff16600181111561120c57fe5b82600181111561121857fe5b14151561122457600080fd5b60003411151561123357600080fd5b60028881548110151561124257fe5b906000526020600020906004020195503486600201600082825401925050819055507f414b45f3f079051d7402c185b2031c6033fd30f7ff54ea87dbc22ec69c62645288886040518083815260200182600019166000191681526020019250505060405180910390a15050505050505050565b6112bd611d76565b6000341115156112cc57600080fd5b33816020019073ffffffffffffffffffffffffffffffffffffffff16908173ffffffffffffffffffffffffffffffffffffffff168152505082816000019073ffffffffffffffffffffffffffffffffffffffff16908173ffffffffffffffffffffffffffffffffffffffff16815250503481604001818152505060008160600190600381111561135857fe5b9081600381111561136557fe5b8152505060018160800190600181111561137b57fe5b9081600181111561138857fe5b815250506002819080600181540180825580915050906001820390600052602060002090600402016000909192909190915060008201518160000160006101000a81548173ffffffffffffffffffffffffffffffffffffffff021916908373ffffffffffffffffffffffffffffffffffffffff16021790555060208201518160010160006101000a81548173ffffffffffffffffffffffffffffffffffffffff021916908373ffffffffffffffffffffffffffffffffffffffff1602179055506040820151816002015560608201518160030160006101000a81548160ff0219169083600381111561147657fe5b021790555060808201518160030160016101000a81548160ff0219169083600181111561149f57fe5b02179055505050507faa539cf6b39fbef365d4e0d2b9d8017bd6b1a36893a02b2a7f0324a705e8309460016002805490500333853486604051808681526020018573ffffffffffffffffffffffffffffffffffffffff1673ffffffffffffffffffffffffffffffffffffffff1681526020018473ffffffffffffffffffffffffffffffffffffffff1673ffffffffffffffffffffffffffffffffffffffff16815260200183815260200182600019166000191681526020019550505050505060405180910390a1505050565b611573611d76565b60003411151561158257600080fd5b33816000019073ffffffffffffffffffffffffffffffffffffffff16908173ffffffffffffffffffffffffffffffffffffffff1681525050348160400181815250506000816060019060038111156115d657fe5b908160038111156115e357fe5b815250506000816080019060018111156115f957fe5b9081600181111561160657fe5b815250506002819080600181540180825580915050906001820390600052602060002090600402016000909192909190915060008201518160000160006101000a81548173ffffffffffffffffffffffffffffffffffffffff021916908373ffffffffffffffffffffffffffffffffffffffff16021790555060208201518160010160006101000a81548173ffffffffffffffffffffffffffffffffffffffff021916908373ffffffffffffffffffffffffffffffffffffffff1602179055506040820151816002015560608201518160030160006101000a81548160ff021916908360038111156116f457fe5b021790555060808201518160030160016101000a81548160ff0219169083600181111561171d57fe5b02179055505050507f04d411f10f50ce6fe597ddd1436d44c2118417e90cbb982e009b8215ee689c79600160028054905003333485604051808581526020018473ffffffffffffffffffffffffffffffffffffffff1673ffffffffffffffffffffffffffffffffffffffff168152602001838152602001826000191660001916815260200194505050505060405180910390a15050565b6000826002818154811015156117c657fe5b906000526020600020906004020160000160009054906101000a900473ffffffffffffffffffffffffffffffffffffffff1673ffffffffffffffffffffffffffffffffffffffff163373ffffffffffffffffffffffffffffffffffffffff16148061189c575060028181548110151561183b57fe5b906000526020600020906004020160010160009054906101000a900473ffffffffffffffffffffffffffffffffffffffff1673ffffffffffffffffffffffffffffffffffffffff163373ffffffffffffffffffffffffffffffffffffffff16145b15156118a757600080fd5b6000846002818154811015156118b957fe5b906000526020600020906004020160030160009054906101000a900460ff1660038111156118e357fe5b8260038111156118ef57fe5b1415156118fb57600080fd5b60028681548110151561190a57fe5b906000526020600020906004020193506000600181111561192757fe5b8460030160019054906101000a900460ff16600181111561194457fe5b14801561198c575060008460000160009054906101000a900473ffffffffffffffffffffffffffffffffffffffff1673ffffffffffffffffffffffffffffffffffffffff1614155b15611a01578360000160009054906101000a900473ffffffffffffffffffffffffffffffffffffffff1673ffffffffffffffffffffffffffffffffffffffff166108fc85600201549081150290604051600060405180830381858888f193505050501580156119ff573d6000803e3d6000fd5b505b600180811115611a0d57fe5b8460030160019054906101000a900460ff166001811115611a2a57fe5b148015611a72575060008460010160009054906101000a900473ffffffffffffffffffffffffffffffffffffffff1673ffffffffffffffffffffffffffffffffffffffff1614155b15611ae7578360010160009054906101000a900473ffffffffffffffffffffffffffffffffffffffff1673ffffffffffffffffffffffffffffffffffffffff166108fc85600201549081150290604051600060405180830381858888f19350505050158015611ae5573d6000803e3d6000fd5b505b6000846002018190555060028460030160006101000a81548160ff02191690836003811115611b1257fe5b02179055507fcb720f90f098c425fad2e9df556017c076f9bf7aefa096d1c904a06027ae046086866040518083815260200182600019166000191681526020019250505060405180910390a1505050505050565b600082600281815481101515611b7857fe5b906000526020600020906004020160000160009054906101000a900473ffffffffffffffffffffffffffffffffffffffff1673ffffffffffffffffffffffffffffffffffffffff163373ffffffffffffffffffffffffffffffffffffffff16141515611be357600080fd5b600084600281815481101515611bf557fe5b906000526020600020906004020160030160009054906101000a900460ff166003811115611c1f57fe5b826003811115611c2b57fe5b141515611c3757600080fd5b600086600281815481101515611c4957fe5b906000526020600020906004020160030160019054906101000a900460ff166001811115611c7357fe5b826001811115611c7f57fe5b141515611c8b57600080fd5b600288815481101515611c9a57fe5b9060005260206000209060040201955060028660030160006101000a81548160ff02191690836003811115611ccb57fe5b02179055503373ffffffffffffffffffffffffffffffffffffffff166108fc87600201549081150290604051600060405180830381858888f19350505050158015611d1a573d6000803e3d6000fd5b50600086600201819055507fa4b2dfc35c48bbe07f2063bd9fcf0afa08891ebf8b417a983f957ac8708612a388886040518083815260200182600019166000191681526020019250505060405180910390a15050505050505050565b60a060405190810160405280600073ffffffffffffffffffffffffffffffffffffffff168152602001600073ffffffffffffffffffffffffffffffffffffffff1681526020016000815260200160006003811115611dd057fe5b815260200160006001811115611de257fe5b815250905600a165627a7a7230582052aceaaa809adf5e9a2cad36bd13b3edc3d99bb55065f1558e5c6597b0a1d16b0029",
  "source": "pragma solidity ^0.4.24;\n\ncontract ExchangeCash {\n\n    address owner;\n\n    constructor() public {\n        owner = msg.sender;\n    }\n    uint fee = 10;// 1%\n\n    enum S { Inited, Rejected, Cancelled,Done }\n    enum T { Station, Customer }\n\n    struct Exchange {\n        address stationOwner;\n        address customer;\n        uint escrow;\n        S state;\n        T exType;\n    }\n\n    Exchange[] public ex;\n    event __setFee(uint fee);\n\n    event __initByStationOwner(uint hid, address stationOwner, uint value,bytes32 offchain);\n    event __closeByStationOwner(uint hid, bytes32 offchain);\n    event __releasePartialFund(uint hid,address customer,uint amount,bytes32 offchainP,bytes32 offchainC);\n    event __addInventory(uint hid, bytes32 offchain);\n\n    event __initByCustomer(uint hid, address customer, address stationOwner, uint value,bytes32 offchain);\n    event __cancel(uint hid, bytes32 offchain);\n    event __reject(uint hid, bytes32 offchain);\n    event __finish(uint hid, bytes32 offchain);\n    event __resetStation(bytes32 offchain, uint hid);\n\n\n    //success if sender is stationOwner\n    modifier onlyStationOwner(uint hid) {\n        require(msg.sender == ex[hid].stationOwner);\n        _;\n    }\n\n    //success if sender is customer\n    modifier onlyCustomer(uint hid) {\n        require(msg.sender == ex[hid].customer);\n        _;\n    }\n\n\n    //success if sender is stationOwner or customer\n    modifier onlyStationOwnerOrCustomer(uint hid) {\n        require(msg.sender == ex[hid].stationOwner || msg.sender == ex[hid].customer);\n        _;\n    }\n\n    //success if sender is owner\n    modifier onlyOwner() {\n        require(msg.sender == owner);\n        _;\n    }\n\n    modifier atState(S _s, uint hid) {\n        require(_s == ex[hid].state);\n        _;\n    }\n\n    modifier atType(T _t, uint hid) {\n        require(_t == ex[hid].exType);\n        _;\n    }\n\n    /**\n        * @dev Initiate exchange fee by owner\n        * @param f exchange fee\n        */\n    function setFee(\n        uint f\n    )\n        public\n        onlyOwner()\n    {\n        fee = f;\n        emit __setFee(fee);\n    }\n    /**\n    * @dev Initiate handshake by stationOwner\n    * @param offchain record ID in offchain backend database\n    */\n    function initByStationOwner(\n        bytes32 offchain\n    )\n        public\n        payable\n    {\n        require(msg.value > 0);\n        Exchange memory p;\n        p.stationOwner = msg.sender;\n        p.escrow = msg.value;\n        p.state = S.Inited;\n        p.exType = T.Station;\n        ex.push(p);\n        emit __initByStationOwner(ex.length - 1, msg.sender, msg.value, offchain);\n    }\n\n    //CashOwner close the transaction after init\n    function closeByStationOwner(uint hid, bytes32 offchain) public onlyStationOwner(hid)\n        atState(S.Inited, hid)\n        atType(T.Station, hid)\n    {\n        Exchange storage p = ex[hid];\n        p.state = S.Cancelled;\n        msg.sender.transfer(p.escrow);\n        p.escrow = 0;\n        emit __closeByStationOwner(hid, offchain);\n    }\n\n    //CashOwner close the transaction after init\n    function addInventory(uint hid, bytes32 offchain)\n        public\n        payable\n        onlyStationOwner(hid)\n        atState(S.Inited, hid)\n        atType(T.Station, hid)\n    {\n        require(msg.value > 0);\n        Exchange storage p = ex[hid];\n        p.escrow += msg.value;\n        emit __addInventory(hid, offchain);\n    }\n\n    //CoinOwner releaseFundByStationOwner transaction\n    function releasePartialFund(uint hid,address customer,uint amount, bytes32 offchainP, bytes32 offchainC) public onlyStationOwner(hid)\n        atState(S.Inited, hid)\n        atType(T.Station, hid)\n    {\n        require(customer != 0x0 && amount > 0);\n        Exchange storage p = ex[hid];\n        uint f = (amount * fee) / 1000;\n        uint t = amount + f;\n        require(p.escrow >= t);\n        p.escrow -= t;\n        owner.transfer(f);\n        customer.transfer(amount);\n        emit __releasePartialFund(hid,customer, amount, offchainP, offchainC);\n    }\n\n\n    /**\n    * @dev Initiate handshake by Customer\n    */\n    function initByCustomer(\n        address stationOwner,\n        bytes32 offchain\n    )\n        public\n        payable\n    {\n        require(msg.value > 0);\n        Exchange memory p;\n        p.customer = msg.sender;\n        p.stationOwner = stationOwner;\n        p.escrow = msg.value;\n        p.state = S.Inited;\n        p.exType = T.Customer;\n        ex.push(p);\n        emit __initByCustomer(ex.length - 1, msg.sender,stationOwner,msg.value, offchain);\n    }\n\n\n    //coinOwner cancel the handshake\n    function cancel(uint hid, bytes32 offchain) public\n        onlyStationOwnerOrCustomer(hid)\n        atState(S.Inited, hid)\n    {\n        Exchange storage p = ex[hid];\n        if(p.exType == T.Station && p.stationOwner != 0x0){\n            p.stationOwner.transfer(p.escrow);\n         }\n         if(p.exType == T.Customer && p.customer != 0x0){\n            p.customer.transfer(p.escrow);\n         }\n        p.escrow = 0;\n        p.state = S.Cancelled;\n        emit __cancel(hid, offchain);\n    }\n\n    //customer finish transaction for sending the coin to stationOwner\n    function finish(uint hid, bytes32 offchain) public onlyCustomer(hid)\n        atState(S.Inited, hid)\n        atType(T.Customer, hid)\n    {\n        Exchange storage p = ex[hid];\n        uint f = (p.escrow * fee) / 1000;\n        require(p.escrow > f);\n        p.stationOwner.transfer(p.escrow-f);\n        owner.transfer(f);\n        p.escrow = 0;\n        p.state = S.Done;\n        emit __finish(hid, offchain);\n    }\n\n\n    //CashOwner reject the transaction\n    function reject(uint hid, bytes32 offchain) public\n        onlyStationOwner(hid)\n        atType(T.Customer, hid)\n    {\n        Exchange storage p = ex[hid];\n        p.customer.transfer(p.escrow);\n        p.escrow = 0;\n        p.state = S.Rejected;\n        emit __reject(hid, offchain);\n    }\n\n    //get handshake stage by hid\n     function getState(uint hid) public constant returns(uint8){\n        Exchange storage p = ex[hid];\n        return uint8(p.state);\n     }\n\n      //get handshake balance by hid\n      function getBalance(uint hid) public constant returns(uint){\n         Exchange storage p = ex[hid];\n         return p.escrow;\n      }\n\n\n     // TODO: remove this function after 3 months once the system is stable\n     function resetAllStation(bytes32 offchain) public onlyOwner {\n         for (uint i = 0; i < ex.length; i++) {\n             Exchange storage p = ex[i];\n             if(p.escrow > 0 && p.state == S.Inited){\n                 if(p.exType == T.Station && p.stationOwner != 0x0){\n                    p.stationOwner.transfer(p.escrow);\n                 }\n                 if(p.exType == T.Customer && p.customer != 0x0){\n                    p.customer.transfer(p.escrow);\n                 }\n                 p.escrow = 0;\n                 p.state = S.Cancelled;\n                 emit __resetStation(offchain,i);\n             }\n         }\n     }\n\n}\n",
  "sourcePath": "/Autonomous/handshake-protocol/contracts/ExchangeCash.sol",
  "compiler": {
    "name": "solc",
    "version": "0.4.24+commit.e67f0147.Emscripten.clang"
  },
  "schemaVersion": "1.0.1",
  "updatedAt": "2018-07-18T08:00:56.079Z"
}