{
  "contractName": "ExchangeHandshake",
  "abi": [
    {
      "constant": true,
      "inputs": [
        {
          "name": "",
          "type": "uint256"
        }
      ],
      "name": "ex",
      "outputs": [
        {
          "name": "coinOwner",
          "type": "address"
        },
        {
          "name": "cashOwner",
          "type": "address"
        },
        {
          "name": "exchanger",
          "type": "address"
        },
        {
          "name": "fee",
          "type": "uint256"
        },
        {
          "name": "value",
          "type": "uint256"
        },
        {
          "name": "state",
          "type": "uint8"
        }
      ],
      "payable": false,
      "stateMutability": "view",
      "type": "function"
    },
    {
      "constant": true,
      "inputs": [
        {
          "name": "hid",
          "type": "uint256"
        }
      ],
      "name": "getState",
      "outputs": [
        {
          "name": "",
          "type": "uint8"
        }
      ],
      "payable": false,
      "stateMutability": "view",
      "type": "function"
    },
    {
      "constant": false,
      "inputs": [
        {
          "name": "hid",
          "type": "uint256"
        },
        {
          "name": "offchain",
          "type": "bytes32"
        }
      ],
      "name": "accept",
      "outputs": [],
      "payable": false,
      "stateMutability": "nonpayable",
      "type": "function"
    },
    {
      "constant": false,
      "inputs": [
        {
          "name": "exchanger",
          "type": "address"
        },
        {
          "name": "offchain",
          "type": "bytes32"
        }
      ],
      "name": "initByCoinOwner",
      "outputs": [],
      "payable": true,
      "stateMutability": "payable",
      "type": "function"
    },
    {
      "constant": false,
      "inputs": [
        {
          "name": "f",
          "type": "uint256"
        }
      ],
      "name": "setFee",
      "outputs": [],
      "payable": false,
      "stateMutability": "nonpayable",
      "type": "function"
    },
    {
      "constant": false,
      "inputs": [
        {
          "name": "hid",
          "type": "uint256"
        },
        {
          "name": "offchain",
          "type": "bytes32"
        }
      ],
      "name": "reject",
      "outputs": [],
      "payable": false,
      "stateMutability": "nonpayable",
      "type": "function"
    },
    {
      "constant": false,
      "inputs": [
        {
          "name": "hid",
          "type": "uint256"
        },
        {
          "name": "offchain",
          "type": "bytes32"
        }
      ],
      "name": "withdraw",
      "outputs": [],
      "payable": false,
      "stateMutability": "nonpayable",
      "type": "function"
    },
    {
      "constant": false,
      "inputs": [
        {
          "name": "hid",
          "type": "uint256"
        },
        {
          "name": "offchain",
          "type": "bytes32"
        }
      ],
      "name": "shake",
      "outputs": [],
      "payable": true,
      "stateMutability": "payable",
      "type": "function"
    },
    {
      "constant": false,
      "inputs": [
        {
          "name": "exchanger",
          "type": "address"
        },
        {
          "name": "value",
          "type": "uint256"
        },
        {
          "name": "offchain",
          "type": "bytes32"
        }
      ],
      "name": "initByCashOwner",
      "outputs": [],
      "payable": false,
      "stateMutability": "nonpayable",
      "type": "function"
    },
    {
      "constant": false,
      "inputs": [
        {
          "name": "hid",
          "type": "uint256"
        },
        {
          "name": "offchain",
          "type": "bytes32"
        }
      ],
      "name": "closeByCashOwner",
      "outputs": [],
      "payable": false,
      "stateMutability": "nonpayable",
      "type": "function"
    },
    {
      "constant": false,
      "inputs": [
        {
          "name": "hid",
          "type": "uint256"
        },
        {
          "name": "offchain",
          "type": "bytes32"
        }
      ],
      "name": "cancel",
      "outputs": [],
      "payable": false,
      "stateMutability": "nonpayable",
      "type": "function"
    },
    {
      "inputs": [],
      "payable": false,
      "stateMutability": "nonpayable",
      "type": "constructor"
    },
    {
      "anonymous": false,
      "inputs": [
        {
          "indexed": false,
          "name": "fee",
          "type": "uint256"
        }
      ],
      "name": "__setFee",
      "type": "event"
    },
    {
      "anonymous": false,
      "inputs": [
        {
          "indexed": false,
          "name": "hid",
          "type": "uint256"
        },
        {
          "indexed": false,
          "name": "coinOwner",
          "type": "address"
        },
        {
          "indexed": false,
          "name": "offchain",
          "type": "bytes32"
        }
      ],
      "name": "__initByCoinOwner",
      "type": "event"
    },
    {
      "anonymous": false,
      "inputs": [
        {
          "indexed": false,
          "name": "hid",
          "type": "uint256"
        },
        {
          "indexed": false,
          "name": "cashOwner",
          "type": "address"
        },
        {
          "indexed": false,
          "name": "offchain",
          "type": "bytes32"
        }
      ],
      "name": "__initByCashOwner",
      "type": "event"
    },
    {
      "anonymous": false,
      "inputs": [
        {
          "indexed": false,
          "name": "hid",
          "type": "uint256"
        },
        {
          "indexed": false,
          "name": "amount",
          "type": "uint256"
        },
        {
          "indexed": false,
          "name": "offchain",
          "type": "bytes32"
        }
      ],
      "name": "__shake",
      "type": "event"
    },
    {
      "anonymous": false,
      "inputs": [
        {
          "indexed": false,
          "name": "hid",
          "type": "uint256"
        },
        {
          "indexed": false,
          "name": "value",
          "type": "uint256"
        },
        {
          "indexed": false,
          "name": "offchain",
          "type": "bytes32"
        }
      ],
      "name": "__withdraw",
      "type": "event"
    },
    {
      "anonymous": false,
      "inputs": [
        {
          "indexed": false,
          "name": "hid",
          "type": "uint256"
        },
        {
          "indexed": false,
          "name": "offchain",
          "type": "bytes32"
        }
      ],
      "name": "__reject",
      "type": "event"
    },
    {
      "anonymous": false,
      "inputs": [
        {
          "indexed": false,
          "name": "hid",
          "type": "uint256"
        },
        {
          "indexed": false,
          "name": "offchain",
          "type": "bytes32"
        }
      ],
      "name": "__accept",
      "type": "event"
    },
    {
      "anonymous": false,
      "inputs": [
        {
          "indexed": false,
          "name": "hid",
          "type": "uint256"
        },
        {
          "indexed": false,
          "name": "offchain",
          "type": "bytes32"
        }
      ],
      "name": "__cancel",
      "type": "event"
    },
    {
      "anonymous": false,
      "inputs": [
        {
          "indexed": false,
          "name": "hid",
          "type": "uint256"
        },
        {
          "indexed": false,
          "name": "offchain",
          "type": "bytes32"
        }
      ],
      "name": "__closeByCashOwner",
      "type": "event"
    }
  ],
  "bytecode": "0x6080604052600060015534801561001557600080fd5b50336000806101000a81548173ffffffffffffffffffffffffffffffffffffffff021916908373ffffffffffffffffffffffffffffffffffffffff16021790555061175d806100656000396000f3006080604052600436106100af576000357c0100000000000000000000000000000000000000000000000000000000900463ffffffff1680631089f215146100b457806344c9af28146101aa5780635203dcda146101f15780635d3fa2201461022c57806369fe0e2d146102705780636be1320b1461029d578063a8d2021a146102d8578063b09b2f8514610313578063b878a1e014610341578063bf1e459f1461039c578063eafb64d5146103d7575b600080fd5b3480156100c057600080fd5b506100df60048036038101908080359060200190929190505050610412565b604051808773ffffffffffffffffffffffffffffffffffffffff1673ffffffffffffffffffffffffffffffffffffffff1681526020018673ffffffffffffffffffffffffffffffffffffffff1673ffffffffffffffffffffffffffffffffffffffff1681526020018573ffffffffffffffffffffffffffffffffffffffff1673ffffffffffffffffffffffffffffffffffffffff16815260200184815260200183815260200182600581111561019157fe5b60ff168152602001965050505050505060405180910390f35b3480156101b657600080fd5b506101d5600480360381019080803590602001909291905050506104ca565b604051808260ff1660ff16815260200191505060405180910390f35b3480156101fd57600080fd5b5061022a600480360381019080803590602001909291908035600019169060200190929190505050610511565b005b61026e600480360381019080803573ffffffffffffffffffffffffffffffffffffffff1690602001909291908035600019169060200190929190505050610676565b005b34801561027c57600080fd5b5061029b60048036038101908080359060200190929190505050610902565b005b3480156102a957600080fd5b506102d66004803603810190808035906020019092919080356000191690602001909291905050506109a0565b005b3480156102e457600080fd5b50610311600480360381019080803590602001909291908035600019169060200190929190505050610aff565b005b61033f600480360381019080803590602001909291908035600019169060200190929190505050610d4e565b005b34801561034d57600080fd5b5061039a600480360381019080803573ffffffffffffffffffffffffffffffffffffffff1690602001909291908035906020019092919080356000191690602001909291905050506110d3565b005b3480156103a857600080fd5b506103d5600480360381019080803590602001909291908035600019169060200190929190505050611350565b005b3480156103e357600080fd5b506104106004803603810190808035906020019092919080356000191690602001909291905050506114af565b005b60028181548110151561042157fe5b90600052602060002090600602016000915090508060000160009054906101000a900473ffffffffffffffffffffffffffffffffffffffff16908060010160009054906101000a900473ffffffffffffffffffffffffffffffffffffffff16908060020160009054906101000a900473ffffffffffffffffffffffffffffffffffffffff16908060030154908060040154908060050160009054906101000a900460ff16905086565b6000806002838154811015156104dc57fe5b906000526020600020906006020190508060050160009054906101000a900460ff16600581111561050957fe5b915050919050565b60008260028181548110151561052357fe5b906000526020600020906006020160000160009054906101000a900473ffffffffffffffffffffffffffffffffffffffff1673ffffffffffffffffffffffffffffffffffffffff163373ffffffffffffffffffffffffffffffffffffffff1614151561058e57600080fd5b6001846002818154811015156105a057fe5b906000526020600020906006020160050160009054906101000a900460ff1660058111156105ca57fe5b8260058111156105d657fe5b1415156105e257600080fd5b6002868154811015156105f157fe5b9060005260206000209060060201935060028460050160006101000a81548160ff0219169083600581111561062257fe5b02179055507fbda7bc7c8123a85aa855c777d3191b2dc42bec38c45638643006fb84e76abf7a86866040518083815260200182600019166000191681526020019250505060405180910390a1505050505050565b61067e6116ad565b6000341015151561068e57600080fd5b33816000019073ffffffffffffffffffffffffffffffffffffffff16908173ffffffffffffffffffffffffffffffffffffffff168152505082816040019073ffffffffffffffffffffffffffffffffffffffff16908173ffffffffffffffffffffffffffffffffffffffff16815250503481608001818152505060015481606001818152505060008160a00190600581111561072657fe5b9081600581111561073357fe5b815250506002819080600181540180825580915050906001820390600052602060002090600602016000909192909190915060008201518160000160006101000a81548173ffffffffffffffffffffffffffffffffffffffff021916908373ffffffffffffffffffffffffffffffffffffffff16021790555060208201518160010160006101000a81548173ffffffffffffffffffffffffffffffffffffffff021916908373ffffffffffffffffffffffffffffffffffffffff16021790555060408201518160020160006101000a81548173ffffffffffffffffffffffffffffffffffffffff021916908373ffffffffffffffffffffffffffffffffffffffff160217905550606082015181600301556080820151816004015560a08201518160050160006101000a81548160ff0219169083600581111561087257fe5b02179055505050507f2fd154f5b4d50fb27d0311b078ca858c2a8d52d40cad8d62881f416b0b7a469f6001600280549050033384604051808481526020018373ffffffffffffffffffffffffffffffffffffffff1673ffffffffffffffffffffffffffffffffffffffff1681526020018260001916600019168152602001935050505060405180910390a1505050565b6000809054906101000a900473ffffffffffffffffffffffffffffffffffffffff1673ffffffffffffffffffffffffffffffffffffffff163373ffffffffffffffffffffffffffffffffffffffff1614151561095d57600080fd5b806001819055507f1941cda5868c57eb88923fbcebe63c45bf133819cf0720c99865546a2615f4a76001546040518082815260200191505060405180910390a150565b816002818154811015156109b057fe5b906000526020600020906006020160010160009054906101000a900473ffffffffffffffffffffffffffffffffffffffff1673ffffffffffffffffffffffffffffffffffffffff163373ffffffffffffffffffffffffffffffffffffffff16141515610a1b57600080fd5b600183600281815481101515610a2d57fe5b906000526020600020906006020160050160009054906101000a900460ff166005811115610a5757fe5b826005811115610a6357fe5b141515610a6f57600080fd5b6003600286815481101515610a8057fe5b906000526020600020906006020160050160006101000a81548160ff02191690836005811115610aac57fe5b02179055507fae76720f3a5d319b91bc94d8a6c2e3096a4f3554c8cb897e3aedfced5824a10a85856040518083815260200182600019166000191681526020019250505060405180910390a15050505050565b60008083600281815481101515610b1257fe5b906000526020600020906006020160010160009054906101000a900473ffffffffffffffffffffffffffffffffffffffff1673ffffffffffffffffffffffffffffffffffffffff163373ffffffffffffffffffffffffffffffffffffffff16141515610b7d57600080fd5b600285600281815481101515610b8f57fe5b906000526020600020906006020160050160009054906101000a900460ff166005811115610bb957fe5b826005811115610bc557fe5b141515610bd157600080fd5b600287815481101515610be057fe5b9060005260206000209060060201945060048560050160006101000a81548160ff02191690836005811115610c1157fe5b02179055506103e88560030154866004015402811515610c2d57fe5b0493508460020160009054906101000a900473ffffffffffffffffffffffffffffffffffffffff1673ffffffffffffffffffffffffffffffffffffffff166108fc859081150290604051600060405180830381858888f19350505050158015610c9a573d6000803e3d6000fd5b503373ffffffffffffffffffffffffffffffffffffffff166108fc858760040154039081150290604051600060405180830381858888f19350505050158015610ce7573d6000803e3d6000fd5b50600085600401819055507fdadf2568e29c3e88d78dc144bd8a1aa52a110f4619f964f33b1889b3eff4de0587866004015488604051808481526020018381526020018260001916600019168152602001935050505060405180910390a150505050505050565b600082600281815481101515610d6057fe5b906000526020600020906006020160050160009054906101000a900460ff166005811115610d8a57fe5b826005811115610d9657fe5b141515610da257600080fd5b6000600285815481101515610db357fe5b906000526020600020906006020160000160009054906101000a900473ffffffffffffffffffffffffffffffffffffffff1673ffffffffffffffffffffffffffffffffffffffff16148015610e285750600284815481101515610e1257fe5b9060005260206000209060060201600401543410155b15610e8d5733600285815481101515610e3d57fe5b906000526020600020906006020160000160006101000a81548173ffffffffffffffffffffffffffffffffffffffff021916908373ffffffffffffffffffffffffffffffffffffffff1602179055505b6000600285815481101515610e9e57fe5b906000526020600020906006020160010160009054906101000a900473ffffffffffffffffffffffffffffffffffffffff1673ffffffffffffffffffffffffffffffffffffffff161415610f4c5733600285815481101515610efc57fe5b906000526020600020906006020160010160006101000a81548173ffffffffffffffffffffffffffffffffffffffff021916908373ffffffffffffffffffffffffffffffffffffffff1602179055505b600284815481101515610f5b57fe5b906000526020600020906006020160000160009054906101000a900473ffffffffffffffffffffffffffffffffffffffff1673ffffffffffffffffffffffffffffffffffffffff163373ffffffffffffffffffffffffffffffffffffffff1614806110315750600284815481101515610fd057fe5b906000526020600020906006020160010160009054906101000a900473ffffffffffffffffffffffffffffffffffffffff1673ffffffffffffffffffffffffffffffffffffffff163373ffffffffffffffffffffffffffffffffffffffff16145b151561103c57600080fd5b600160028581548110151561104d57fe5b906000526020600020906006020160050160006101000a81548160ff0219169083600581111561107957fe5b02179055507f70cca63b44e7bf0f315e5cedef0180e185bb1c269ee655a36ef5b48a179ba664843485604051808481526020018381526020018260001916600019168152602001935050505060405180910390a150505050565b6110db6116ad565b33816020019073ffffffffffffffffffffffffffffffffffffffff16908173ffffffffffffffffffffffffffffffffffffffff168152505083816040019073ffffffffffffffffffffffffffffffffffffffff16908173ffffffffffffffffffffffffffffffffffffffff16815250508281608001818152505060015481606001818152505060008160a00190600581111561117357fe5b9081600581111561118057fe5b815250506002819080600181540180825580915050906001820390600052602060002090600602016000909192909190915060008201518160000160006101000a81548173ffffffffffffffffffffffffffffffffffffffff021916908373ffffffffffffffffffffffffffffffffffffffff16021790555060208201518160010160006101000a81548173ffffffffffffffffffffffffffffffffffffffff021916908373ffffffffffffffffffffffffffffffffffffffff16021790555060408201518160020160006101000a81548173ffffffffffffffffffffffffffffffffffffffff021916908373ffffffffffffffffffffffffffffffffffffffff160217905550606082015181600301556080820151816004015560a08201518160050160006101000a81548160ff021916908360058111156112bf57fe5b02179055505050507fe4601f4f89d9b0b9deb2ee9ecb6f89b91ef95b0ae1f73a28e49b1159aeec729f6001600280549050033384604051808481526020018373ffffffffffffffffffffffffffffffffffffffff1673ffffffffffffffffffffffffffffffffffffffff1681526020018260001916600019168152602001935050505060405180910390a150505050565b8160028181548110151561136057fe5b906000526020600020906006020160010160009054906101000a900473ffffffffffffffffffffffffffffffffffffffff1673ffffffffffffffffffffffffffffffffffffffff163373ffffffffffffffffffffffffffffffffffffffff161415156113cb57600080fd5b6000836002818154811015156113dd57fe5b906000526020600020906006020160050160009054906101000a900460ff16600581111561140757fe5b82600581111561141357fe5b14151561141f57600080fd5b600560028681548110151561143057fe5b906000526020600020906006020160050160006101000a81548160ff0219169083600581111561145c57fe5b02179055507f3d2fb2dfea1905d22bfa4e006af321688700e6bf97ce5156cfd9a10dc4735dc685856040518083815260200182600019166000191681526020019250505060405180910390a15050505050565b6000826002818154811015156114c157fe5b906000526020600020906006020160000160009054906101000a900473ffffffffffffffffffffffffffffffffffffffff1673ffffffffffffffffffffffffffffffffffffffff163373ffffffffffffffffffffffffffffffffffffffff1614151561152c57600080fd5b60028481548110151561153b57fe5b906000526020600020906006020191506003600581111561155857fe5b8260050160009054906101000a900460ff16600581111561157557fe5b14806115a857506001600581111561158957fe5b8260050160009054906101000a900460ff1660058111156115a657fe5b145b806115da5750600060058111156115bb57fe5b8260050160009054906101000a900460ff1660058111156115d857fe5b145b15156115e557600080fd5b60058260050160006101000a81548160ff0219169083600581111561160657fe5b02179055503373ffffffffffffffffffffffffffffffffffffffff166108fc83600401549081150290604051600060405180830381858888f19350505050158015611655573d6000803e3d6000fd5b50600082600401819055507fcb720f90f098c425fad2e9df556017c076f9bf7aefa096d1c904a06027ae046084846040518083815260200182600019166000191681526020019250505060405180910390a150505050565b60c060405190810160405280600073ffffffffffffffffffffffffffffffffffffffff168152602001600073ffffffffffffffffffffffffffffffffffffffff168152602001600073ffffffffffffffffffffffffffffffffffffffff16815260200160008152602001600081526020016000600581111561172b57fe5b815250905600a165627a7a7230582015ef22893d61feab456cbc903817b83ad3a2d8dbe866584b4bb7219fbd89b7b20029",
  "source": "pragma solidity ^0.4.24;\n\ncontract ExchangeHandshake {\n\n    address owner;\n\n     constructor() public {\n        owner = msg.sender;\n    }\n    uint fee = 0;\n\n    enum S { Inited, Shaked, Accepted, Rejected, Done, Cancelled }\n\n    struct Exchange {\n        address coinOwner;\n        address cashOwner;\n        address exchanger;\n        uint fee; //percentage\n        uint value;\n        S state;\n    }\n\n    Exchange[] public ex;\n\n    event __setFee(uint fee);\n    event __initByCoinOwner(uint hid, address coinOwner, bytes32 offchain);\n    event __initByCashOwner(uint hid, address cashOwner, bytes32 offchain);\n    event __shake(uint hid,uint amount, bytes32 offchain);\n    event __withdraw(uint hid, uint value, bytes32 offchain);\n    event __reject(uint hid, bytes32 offchain);\n    event __accept(uint hid, bytes32 offchain);\n    event __cancel(uint hid, bytes32 offchain);\n    event __closeByCashOwner(uint hid, bytes32 offchain);\n\n    //success if sender is coinOwner\n    modifier onlyCoinOwner(uint hid) {\n        require(msg.sender == ex[hid].coinOwner);\n        _;\n    }\n\n    //success if sender is cashOwner\n    modifier onlyCashOwner(uint hid) {\n        require(msg.sender == ex[hid].cashOwner);\n        _;\n    }\n\n    //success if sender is owner\n    modifier onlyOwner() {\n        require(msg.sender == owner);\n        _;\n    }\n\n    modifier atState(S _s, uint hid) {\n        require(_s == ex[hid].state);\n        _;\n    }\n\n     /**\n        * @dev Initiate exchange fee by owner\n        * @param f exchange fee\n        */\n    function setFee(\n        uint f\n    )\n        public\n        onlyOwner()\n    {\n        fee = f;\n        emit __setFee(fee);\n    }\n\n\n    /**\n    * @dev Initiate handshake by cashOwner\n    * @param exchanger exchanger address\n    * @param value funds required for this handshake\n    * @param offchain record ID in offchain backend database\n    */\n    function initByCashOwner(\n        address exchanger,\n        uint value,\n        bytes32 offchain\n    )\n        public\n    {\n        Exchange memory p;\n        p.cashOwner = msg.sender;\n        p.exchanger = exchanger;\n        p.value = value;\n        p.fee = fee;\n        p.state = S.Inited;\n        ex.push(p);\n        emit __initByCashOwner(ex.length - 1, msg.sender, offchain);\n    }\n\n    /**\n    * @dev Initiate handshake by CoinOwner\n    */\n    function initByCoinOwner(\n        address exchanger,\n        bytes32 offchain\n    )\n        public\n        payable\n    {\n        require(msg.value >= 0);\n        Exchange memory p;\n        p.coinOwner = msg.sender;\n        p.exchanger = exchanger;\n        p.value = msg.value;\n        p.fee = fee;\n        p.state = S.Inited;\n        ex.push(p);\n        emit __initByCoinOwner(ex.length - 1, msg.sender, offchain);\n    }\n\n    //CashOwner close the transaction after init\n    function closeByCashOwner(uint hid, bytes32 offchain) public onlyCashOwner(hid)\n        atState(S.Inited, hid)\n    {\n        ex[hid].state = S.Cancelled;\n        emit __closeByCashOwner(hid, offchain);\n    }\n\n    //shaker agree and make a handshake\n    function shake(uint hid, bytes32 offchain) public payable\n        atState(S.Inited, hid)\n    {\n        if (ex[hid].coinOwner == 0x0 && msg.value >= ex[hid].value) ex[hid].coinOwner = msg.sender;\n\n        if (ex[hid].cashOwner == 0x0) ex[hid].cashOwner = msg.sender;\n\n        require(msg.sender == ex[hid].coinOwner || msg.sender == ex[hid].cashOwner);\n        ex[hid].state = S.Shaked;\n        emit __shake(hid, msg.value, offchain);\n\n    }\n\n    //CoinOwner accept transaction\n    function accept(uint hid, bytes32 offchain) public onlyCoinOwner(hid)\n        atState(S.Shaked, hid)\n    {\n        Exchange storage p = ex[hid];\n        p.state = S.Accepted;\n        emit __accept(hid, offchain);\n    }\n\n    //CashOwner withdraw funds from a handshake\n    function withdraw(uint hid, bytes32 offchain) public onlyCashOwner(hid)\n        atState(S.Accepted, hid)\n    {\n       Exchange storage p = ex[hid];\n       p.state = S.Done;\n       uint f = (p.value * p.fee) / 1000;\n       p.exchanger.transfer(f);\n       msg.sender.transfer(p.value - f);\n       p.value = 0;\n\n        emit __withdraw(hid,p.value, offchain);\n    }\n\n    //CashOwner reject the transaction\n    function reject(uint hid, bytes32 offchain) public onlyCashOwner(hid)\n        atState(S.Shaked, hid)\n    {\n        ex[hid].state = S.Rejected;\n        emit __reject(hid, offchain);\n    }\n\n    //coinOwner cancel the handshake\n    function cancel(uint hid, bytes32 offchain) public onlyCoinOwner(hid) {\n        Exchange storage p = ex[hid];\n        require(p.state == S.Rejected\n                || p.state == S.Shaked || p.state == S.Inited);\n        p.state = S.Cancelled;\n        msg.sender.transfer(p.value);\n        p.value = 0;\n        emit __cancel(hid, offchain);\n    }\n\n    //get handshake stage by hid\n     function getState(uint hid) public constant returns(uint8){\n        Exchange storage p = ex[hid];\n        return uint8(p.state);\n     }\n\n}\n",
  "sourcePath": "/Autonomous/handshake-protocol/contracts/ExchangeHandshake.sol",
  "compiler": {
    "name": "solc",
    "version": "0.4.24+commit.e67f0147.Emscripten.clang"
  },
  "schemaVersion": "1.0.1",
  "updatedAt": "2018-06-19T07:32:39.419Z"
}