{
  "contractName": "ExchangeHandshake",
  "abi": [
    {
      "constant": true,
      "inputs": [
        {
          "name": "",
          "type": "uint256"
        }
      ],
      "name": "ex",
      "outputs": [
        {
          "name": "coinOwner",
          "type": "address"
        },
        {
          "name": "cashOwner",
          "type": "address"
        },
        {
          "name": "exchanger",
          "type": "address"
        },
        {
          "name": "adrFeeRefund",
          "type": "address"
        },
        {
          "name": "fee",
          "type": "uint256"
        },
        {
          "name": "feeRefund",
          "type": "uint256"
        },
        {
          "name": "value",
          "type": "uint256"
        },
        {
          "name": "state",
          "type": "uint8"
        }
      ],
      "payable": false,
      "stateMutability": "view",
      "type": "function"
    },
    {
      "constant": false,
      "inputs": [
        {
          "name": "exchanger",
          "type": "address"
        },
        {
          "name": "adrFeeRefund",
          "type": "address"
        },
        {
          "name": "offchain",
          "type": "bytes32"
        }
      ],
      "name": "initByCoinOwner",
      "outputs": [],
      "payable": true,
      "stateMutability": "payable",
      "type": "function"
    },
    {
      "constant": false,
      "inputs": [
        {
          "name": "exchanger",
          "type": "address"
        },
        {
          "name": "adrFeeRefund",
          "type": "address"
        },
        {
          "name": "value",
          "type": "uint256"
        },
        {
          "name": "offchain",
          "type": "bytes32"
        }
      ],
      "name": "initByCashOwner",
      "outputs": [],
      "payable": false,
      "stateMutability": "nonpayable",
      "type": "function"
    },
    {
      "constant": true,
      "inputs": [
        {
          "name": "hid",
          "type": "uint256"
        }
      ],
      "name": "getState",
      "outputs": [
        {
          "name": "",
          "type": "uint8"
        }
      ],
      "payable": false,
      "stateMutability": "view",
      "type": "function"
    },
    {
      "constant": false,
      "inputs": [
        {
          "name": "hid",
          "type": "uint256"
        },
        {
          "name": "offchain",
          "type": "bytes32"
        }
      ],
      "name": "accept",
      "outputs": [],
      "payable": false,
      "stateMutability": "nonpayable",
      "type": "function"
    },
    {
      "constant": false,
      "inputs": [
        {
          "name": "f",
          "type": "uint256"
        },
        {
          "name": "fr",
          "type": "uint256"
        }
      ],
      "name": "setFee",
      "outputs": [],
      "payable": false,
      "stateMutability": "nonpayable",
      "type": "function"
    },
    {
      "constant": false,
      "inputs": [
        {
          "name": "hid",
          "type": "uint256"
        },
        {
          "name": "offchain",
          "type": "bytes32"
        }
      ],
      "name": "reject",
      "outputs": [],
      "payable": false,
      "stateMutability": "nonpayable",
      "type": "function"
    },
    {
      "constant": false,
      "inputs": [
        {
          "name": "hid",
          "type": "uint256"
        },
        {
          "name": "offchain",
          "type": "bytes32"
        }
      ],
      "name": "withdraw",
      "outputs": [],
      "payable": false,
      "stateMutability": "nonpayable",
      "type": "function"
    },
    {
      "constant": false,
      "inputs": [
        {
          "name": "hid",
          "type": "uint256"
        },
        {
          "name": "offchain",
          "type": "bytes32"
        }
      ],
      "name": "shake",
      "outputs": [],
      "payable": true,
      "stateMutability": "payable",
      "type": "function"
    },
    {
      "constant": false,
      "inputs": [
        {
          "name": "hid",
          "type": "uint256"
        },
        {
          "name": "offchain",
          "type": "bytes32"
        }
      ],
      "name": "closeByCashOwner",
      "outputs": [],
      "payable": false,
      "stateMutability": "nonpayable",
      "type": "function"
    },
    {
      "constant": false,
      "inputs": [
        {
          "name": "hid",
          "type": "uint256"
        },
        {
          "name": "offchain",
          "type": "bytes32"
        }
      ],
      "name": "cancel",
      "outputs": [],
      "payable": false,
      "stateMutability": "nonpayable",
      "type": "function"
    },
    {
      "inputs": [],
      "payable": false,
      "stateMutability": "nonpayable",
      "type": "constructor"
    },
    {
      "anonymous": false,
      "inputs": [
        {
          "indexed": false,
          "name": "fee",
          "type": "uint256"
        },
        {
          "indexed": false,
          "name": "feeRefund",
          "type": "uint256"
        }
      ],
      "name": "__setFee",
      "type": "event"
    },
    {
      "anonymous": false,
      "inputs": [
        {
          "indexed": false,
          "name": "hid",
          "type": "uint256"
        },
        {
          "indexed": false,
          "name": "coinOwner",
          "type": "address"
        },
        {
          "indexed": false,
          "name": "offchain",
          "type": "bytes32"
        }
      ],
      "name": "__initByCoinOwner",
      "type": "event"
    },
    {
      "anonymous": false,
      "inputs": [
        {
          "indexed": false,
          "name": "hid",
          "type": "uint256"
        },
        {
          "indexed": false,
          "name": "cashOwner",
          "type": "address"
        },
        {
          "indexed": false,
          "name": "offchain",
          "type": "bytes32"
        }
      ],
      "name": "__initByCashOwner",
      "type": "event"
    },
    {
      "anonymous": false,
      "inputs": [
        {
          "indexed": false,
          "name": "hid",
          "type": "uint256"
        },
        {
          "indexed": false,
          "name": "amount",
          "type": "uint256"
        },
        {
          "indexed": false,
          "name": "offchain",
          "type": "bytes32"
        }
      ],
      "name": "__shake",
      "type": "event"
    },
    {
      "anonymous": false,
      "inputs": [
        {
          "indexed": false,
          "name": "hid",
          "type": "uint256"
        },
        {
          "indexed": false,
          "name": "value",
          "type": "uint256"
        },
        {
          "indexed": false,
          "name": "offchain",
          "type": "bytes32"
        }
      ],
      "name": "__withdraw",
      "type": "event"
    },
    {
      "anonymous": false,
      "inputs": [
        {
          "indexed": false,
          "name": "hid",
          "type": "uint256"
        },
        {
          "indexed": false,
          "name": "offchain",
          "type": "bytes32"
        }
      ],
      "name": "__reject",
      "type": "event"
    },
    {
      "anonymous": false,
      "inputs": [
        {
          "indexed": false,
          "name": "hid",
          "type": "uint256"
        },
        {
          "indexed": false,
          "name": "offchain",
          "type": "bytes32"
        }
      ],
      "name": "__accept",
      "type": "event"
    },
    {
      "anonymous": false,
      "inputs": [
        {
          "indexed": false,
          "name": "hid",
          "type": "uint256"
        },
        {
          "indexed": false,
          "name": "offchain",
          "type": "bytes32"
        }
      ],
      "name": "__cancel",
      "type": "event"
    },
    {
      "anonymous": false,
      "inputs": [
        {
          "indexed": false,
          "name": "hid",
          "type": "uint256"
        },
        {
          "indexed": false,
          "name": "offchain",
          "type": "bytes32"
        }
      ],
      "name": "__closeByCashOwner",
      "type": "event"
    }
  ],
  "bytecode": "0x60806040526005600155600560025534801561001a57600080fd5b50336000806101000a81548173ffffffffffffffffffffffffffffffffffffffff021916908373ffffffffffffffffffffffffffffffffffffffff1602179055506119e58061006a6000396000f3006080604052600436106100af576000357c0100000000000000000000000000000000000000000000000000000000900463ffffffff1680631089f215146100b4578063201a3fed146101e45780633ebad1a21461024857806344c9af28146102c35780635203dcda1461030a57806352f7c988146103455780636be1320b1461037c578063a8d2021a146103b7578063b09b2f85146103f2578063bf1e459f14610420578063eafb64d51461045b575b600080fd5b3480156100c057600080fd5b506100df60048036038101908080359060200190929190505050610496565b604051808973ffffffffffffffffffffffffffffffffffffffff1673ffffffffffffffffffffffffffffffffffffffff1681526020018873ffffffffffffffffffffffffffffffffffffffff1673ffffffffffffffffffffffffffffffffffffffff1681526020018773ffffffffffffffffffffffffffffffffffffffff1673ffffffffffffffffffffffffffffffffffffffff1681526020018673ffffffffffffffffffffffffffffffffffffffff1673ffffffffffffffffffffffffffffffffffffffff1681526020018581526020018481526020018381526020018260058111156101c957fe5b60ff1681526020019850505050505050505060405180910390f35b610246600480360381019080803573ffffffffffffffffffffffffffffffffffffffff169060200190929190803573ffffffffffffffffffffffffffffffffffffffff169060200190929190803560001916906020019092919050505061057a565b005b34801561025457600080fd5b506102c1600480360381019080803573ffffffffffffffffffffffffffffffffffffffff169060200190929190803573ffffffffffffffffffffffffffffffffffffffff16906020019092919080359060200190929190803560001916906020019092919050505061089c565b005b3480156102cf57600080fd5b506102ee60048036038101908080359060200190929190505050610baf565b604051808260ff1660ff16815260200191505060405180910390f35b34801561031657600080fd5b50610343600480360381019080803590602001909291908035600019169060200190929190505050610bf6565b005b34801561035157600080fd5b5061037a6004803603810190808035906020019092919080359060200190929190505050610d5b565b005b34801561038857600080fd5b506103b5600480360381019080803590602001909291908035600019169060200190929190505050610e0b565b005b3480156103c357600080fd5b506103f0600480360381019080803590602001909291908035600019169060200190929190505050610f69565b005b61041e600480360381019080803590602001909291908035600019169060200190929190505050611238565b005b34801561042c57600080fd5b506104596004803603810190808035906020019092919080356000191690602001909291905050506115bd565b005b34801561046757600080fd5b5061049460048036038101908080359060200190929190803560001916906020019092919050505061171c565b005b6003818154811015156104a557fe5b90600052602060002090600802016000915090508060000160009054906101000a900473ffffffffffffffffffffffffffffffffffffffff16908060010160009054906101000a900473ffffffffffffffffffffffffffffffffffffffff16908060020160009054906101000a900473ffffffffffffffffffffffffffffffffffffffff16908060030160009054906101000a900473ffffffffffffffffffffffffffffffffffffffff16908060040154908060050154908060060154908060070160009054906101000a900460ff16905088565b610582611910565b6000341015151561059257600080fd5b33816000019073ffffffffffffffffffffffffffffffffffffffff16908173ffffffffffffffffffffffffffffffffffffffff168152505083816040019073ffffffffffffffffffffffffffffffffffffffff16908173ffffffffffffffffffffffffffffffffffffffff168152505082816060019073ffffffffffffffffffffffffffffffffffffffff16908173ffffffffffffffffffffffffffffffffffffffff1681525050348160c00181815250506001548160800181815250506002548160a001818152505060008160e00190600581111561066e57fe5b9081600581111561067b57fe5b815250506003819080600181540180825580915050906001820390600052602060002090600802016000909192909190915060008201518160000160006101000a81548173ffffffffffffffffffffffffffffffffffffffff021916908373ffffffffffffffffffffffffffffffffffffffff16021790555060208201518160010160006101000a81548173ffffffffffffffffffffffffffffffffffffffff021916908373ffffffffffffffffffffffffffffffffffffffff16021790555060408201518160020160006101000a81548173ffffffffffffffffffffffffffffffffffffffff021916908373ffffffffffffffffffffffffffffffffffffffff16021790555060608201518160030160006101000a81548173ffffffffffffffffffffffffffffffffffffffff021916908373ffffffffffffffffffffffffffffffffffffffff1602179055506080820151816004015560a0820151816005015560c0820151816006015560e08201518160070160006101000a81548160ff0219169083600581111561080b57fe5b02179055505050507f2fd154f5b4d50fb27d0311b078ca858c2a8d52d40cad8d62881f416b0b7a469f6001600380549050033384604051808481526020018373ffffffffffffffffffffffffffffffffffffffff1673ffffffffffffffffffffffffffffffffffffffff1681526020018260001916600019168152602001935050505060405180910390a150505050565b6108a4611910565b33816020019073ffffffffffffffffffffffffffffffffffffffff16908173ffffffffffffffffffffffffffffffffffffffff168152505084816040019073ffffffffffffffffffffffffffffffffffffffff16908173ffffffffffffffffffffffffffffffffffffffff168152505083816060019073ffffffffffffffffffffffffffffffffffffffff16908173ffffffffffffffffffffffffffffffffffffffff1681525050828160c00181815250506001548160800181815250506002548160a001818152505060008160e00190600581111561098057fe5b9081600581111561098d57fe5b815250506003819080600181540180825580915050906001820390600052602060002090600802016000909192909190915060008201518160000160006101000a81548173ffffffffffffffffffffffffffffffffffffffff021916908373ffffffffffffffffffffffffffffffffffffffff16021790555060208201518160010160006101000a81548173ffffffffffffffffffffffffffffffffffffffff021916908373ffffffffffffffffffffffffffffffffffffffff16021790555060408201518160020160006101000a81548173ffffffffffffffffffffffffffffffffffffffff021916908373ffffffffffffffffffffffffffffffffffffffff16021790555060608201518160030160006101000a81548173ffffffffffffffffffffffffffffffffffffffff021916908373ffffffffffffffffffffffffffffffffffffffff1602179055506080820151816004015560a0820151816005015560c0820151816006015560e08201518160070160006101000a81548160ff02191690836005811115610b1d57fe5b02179055505050507fe4601f4f89d9b0b9deb2ee9ecb6f89b91ef95b0ae1f73a28e49b1159aeec729f6001600380549050033384604051808481526020018373ffffffffffffffffffffffffffffffffffffffff1673ffffffffffffffffffffffffffffffffffffffff1681526020018260001916600019168152602001935050505060405180910390a15050505050565b600080600383815481101515610bc157fe5b906000526020600020906008020190508060070160009054906101000a900460ff166005811115610bee57fe5b915050919050565b600082600381815481101515610c0857fe5b906000526020600020906008020160000160009054906101000a900473ffffffffffffffffffffffffffffffffffffffff1673ffffffffffffffffffffffffffffffffffffffff163373ffffffffffffffffffffffffffffffffffffffff16141515610c7357600080fd5b600184600381815481101515610c8557fe5b906000526020600020906008020160070160009054906101000a900460ff166005811115610caf57fe5b826005811115610cbb57fe5b141515610cc757600080fd5b600386815481101515610cd657fe5b9060005260206000209060080201935060028460070160006101000a81548160ff02191690836005811115610d0757fe5b02179055507fbda7bc7c8123a85aa855c777d3191b2dc42bec38c45638643006fb84e76abf7a86866040518083815260200182600019166000191681526020019250505060405180910390a1505050505050565b6000809054906101000a900473ffffffffffffffffffffffffffffffffffffffff1673ffffffffffffffffffffffffffffffffffffffff163373ffffffffffffffffffffffffffffffffffffffff16141515610db657600080fd5b81600181905550806002819055507fda33b66207af71514f4eb8f9fee7b74ba441e293e937e20f099781f435c2786b600154600254604051808381526020018281526020019250505060405180910390a15050565b81600381815481101515610e1b57fe5b906000526020600020906008020160010160009054906101000a900473ffffffffffffffffffffffffffffffffffffffff1673ffffffffffffffffffffffffffffffffffffffff163373ffffffffffffffffffffffffffffffffffffffff16141515610e8657600080fd5b600183600381815481101515610e9857fe5b906000526020600020906008020160070160009054906101000a900460ff166005811115610ec257fe5b826005811115610ece57fe5b141515610eda57600080fd5b60038086815481101515610eea57fe5b906000526020600020906008020160070160006101000a81548160ff02191690836005811115610f1657fe5b02179055507fae76720f3a5d319b91bc94d8a6c2e3096a4f3554c8cb897e3aedfced5824a10a85856040518083815260200182600019166000191681526020019250505060405180910390a15050505050565b600080600084600381815481101515610f7e57fe5b906000526020600020906008020160010160009054906101000a900473ffffffffffffffffffffffffffffffffffffffff1673ffffffffffffffffffffffffffffffffffffffff163373ffffffffffffffffffffffffffffffffffffffff16141515610fe957600080fd5b600286600381815481101515610ffb57fe5b906000526020600020906008020160070160009054906101000a900460ff16600581111561102557fe5b82600581111561103157fe5b14151561103d57600080fd5b60038881548110151561104c57fe5b9060005260206000209060080201955060048660070160006101000a81548160ff0219169083600581111561107d57fe5b02179055506103e8866004015487600601540281151561109957fe5b0494506103e886600501548760060154028115156110b357fe5b0493508560020160009054906101000a900473ffffffffffffffffffffffffffffffffffffffff1673ffffffffffffffffffffffffffffffffffffffff166108fc869081150290604051600060405180830381858888f19350505050158015611120573d6000803e3d6000fd5b508560030160009054906101000a900473ffffffffffffffffffffffffffffffffffffffff1673ffffffffffffffffffffffffffffffffffffffff166108fc859081150290604051600060405180830381858888f1935050505015801561118b573d6000803e3d6000fd5b503373ffffffffffffffffffffffffffffffffffffffff166108fc8587896006015403039081150290604051600060405180830381858888f193505050501580156111da573d6000803e3d6000fd5b507fdadf2568e29c3e88d78dc144bd8a1aa52a110f4619f964f33b1889b3eff4de0588876006015489604051808481526020018381526020018260001916600019168152602001935050505060405180910390a15050505050505050565b60008260038181548110151561124a57fe5b906000526020600020906008020160070160009054906101000a900460ff16600581111561127457fe5b82600581111561128057fe5b14151561128c57600080fd5b600060038581548110151561129d57fe5b906000526020600020906008020160000160009054906101000a900473ffffffffffffffffffffffffffffffffffffffff1673ffffffffffffffffffffffffffffffffffffffff1614801561131257506003848154811015156112fc57fe5b9060005260206000209060080201600601543410155b15611377573360038581548110151561132757fe5b906000526020600020906008020160000160006101000a81548173ffffffffffffffffffffffffffffffffffffffff021916908373ffffffffffffffffffffffffffffffffffffffff1602179055505b600060038581548110151561138857fe5b906000526020600020906008020160010160009054906101000a900473ffffffffffffffffffffffffffffffffffffffff1673ffffffffffffffffffffffffffffffffffffffff16141561143657336003858154811015156113e657fe5b906000526020600020906008020160010160006101000a81548173ffffffffffffffffffffffffffffffffffffffff021916908373ffffffffffffffffffffffffffffffffffffffff1602179055505b60038481548110151561144557fe5b906000526020600020906008020160000160009054906101000a900473ffffffffffffffffffffffffffffffffffffffff1673ffffffffffffffffffffffffffffffffffffffff163373ffffffffffffffffffffffffffffffffffffffff16148061151b57506003848154811015156114ba57fe5b906000526020600020906008020160010160009054906101000a900473ffffffffffffffffffffffffffffffffffffffff1673ffffffffffffffffffffffffffffffffffffffff163373ffffffffffffffffffffffffffffffffffffffff16145b151561152657600080fd5b600160038581548110151561153757fe5b906000526020600020906008020160070160006101000a81548160ff0219169083600581111561156357fe5b02179055507f70cca63b44e7bf0f315e5cedef0180e185bb1c269ee655a36ef5b48a179ba664843485604051808481526020018381526020018260001916600019168152602001935050505060405180910390a150505050565b816003818154811015156115cd57fe5b906000526020600020906008020160010160009054906101000a900473ffffffffffffffffffffffffffffffffffffffff1673ffffffffffffffffffffffffffffffffffffffff163373ffffffffffffffffffffffffffffffffffffffff1614151561163857600080fd5b60008360038181548110151561164a57fe5b906000526020600020906008020160070160009054906101000a900460ff16600581111561167457fe5b82600581111561168057fe5b14151561168c57600080fd5b600560038681548110151561169d57fe5b906000526020600020906008020160070160006101000a81548160ff021916908360058111156116c957fe5b02179055507f3d2fb2dfea1905d22bfa4e006af321688700e6bf97ce5156cfd9a10dc4735dc685856040518083815260200182600019166000191681526020019250505060405180910390a15050505050565b60008260038181548110151561172e57fe5b906000526020600020906008020160000160009054906101000a900473ffffffffffffffffffffffffffffffffffffffff1673ffffffffffffffffffffffffffffffffffffffff163373ffffffffffffffffffffffffffffffffffffffff1614151561179957600080fd5b6003848154811015156117a857fe5b90600052602060002090600802019150600360058111156117c557fe5b8260070160009054906101000a900460ff1660058111156117e257fe5b14806118155750600160058111156117f657fe5b8260070160009054906101000a900460ff16600581111561181357fe5b145b8061184757506000600581111561182857fe5b8260070160009054906101000a900460ff16600581111561184557fe5b145b151561185257600080fd5b60058260070160006101000a81548160ff0219169083600581111561187357fe5b02179055503373ffffffffffffffffffffffffffffffffffffffff166108fc83600601549081150290604051600060405180830381858888f193505050501580156118c2573d6000803e3d6000fd5b507fcb720f90f098c425fad2e9df556017c076f9bf7aefa096d1c904a06027ae046084846040518083815260200182600019166000191681526020019250505060405180910390a150505050565b61010060405190810160405280600073ffffffffffffffffffffffffffffffffffffffff168152602001600073ffffffffffffffffffffffffffffffffffffffff168152602001600073ffffffffffffffffffffffffffffffffffffffff168152602001600073ffffffffffffffffffffffffffffffffffffffff168152602001600081526020016000815260200160008152602001600060058111156119b357fe5b815250905600a165627a7a723058204ddc4f81b9745839ecf092bfed56958e0997cdbe4c17f0828f5ea433057007480029",
  "source": "pragma solidity ^0.4.24;\n\ncontract ExchangeHandshake {\n\n    address owner;\n\n     constructor() public {\n        owner = msg.sender;\n    }\n    uint fee = 5;\n    uint feeRefund = 5;\n\n    enum S { Inited, Shaked, Accepted, Rejected, Done, Cancelled }\n\n    struct Exchange {\n        address coinOwner;\n        address cashOwner;\n        address exchanger;\n        address adrFeeRefund;\n        uint fee; //percentage\n        uint feeRefund;//percentage\n        uint value;\n        S state;\n    }\n\n    Exchange[] public ex;\n\n    event __setFee(uint fee, uint feeRefund);\n    event __initByCoinOwner(uint hid, address coinOwner, bytes32 offchain);\n    event __initByCashOwner(uint hid, address cashOwner, bytes32 offchain);\n    event __shake(uint hid,uint amount, bytes32 offchain);\n    event __withdraw(uint hid, uint value, bytes32 offchain);\n    event __reject(uint hid, bytes32 offchain);\n    event __accept(uint hid, bytes32 offchain);\n    event __cancel(uint hid, bytes32 offchain);\n    event __closeByCashOwner(uint hid, bytes32 offchain);\n\n    //success if sender is coinOwner\n    modifier onlyCoinOwner(uint hid) {\n        require(msg.sender == ex[hid].coinOwner);\n        _;\n    }\n\n    //success if sender is cashOwner\n    modifier onlyCashOwner(uint hid) {\n        require(msg.sender == ex[hid].cashOwner);\n        _;\n    }\n\n    //success if sender is owner\n    modifier onlyOwner() {\n        require(msg.sender == owner);\n        _;\n    }\n\n    modifier atState(S _s, uint hid) {\n        require(_s == ex[hid].state);\n        _;\n    }\n\n     /**\n        * @dev Initiate exchange fee by owner\n        * @param f exchange fee\n        * @param fr %fee send back to initiator\n        */\n    function setFee(\n        uint f,\n        uint fr\n    )\n        public\n        onlyOwner()\n    {\n        fee = f;\n        feeRefund = fr;\n        emit __setFee(fee, feeRefund);\n    }\n\n\n    /**\n    * @dev Initiate handshake by cashOwner\n    * @param exchanger exchanger address\n    * @param adrFeeRefund adrFeeRefund address\n    * @param value funds required for this handshake\n    * @param offchain record ID in offchain backend database\n    */\n    function initByCashOwner(\n        address exchanger,\n        address adrFeeRefund,\n        uint value,\n        bytes32 offchain\n    )\n        public\n    {\n        Exchange memory p;\n        p.cashOwner = msg.sender;\n        p.exchanger = exchanger;\n        p.adrFeeRefund = adrFeeRefund;\n        p.value = value;\n        p.fee = fee;\n        p.feeRefund = feeRefund;\n        p.state = S.Inited;\n        ex.push(p);\n        emit __initByCashOwner(ex.length - 1, msg.sender, offchain);\n    }\n\n    /**\n    * @dev Initiate handshake by CoinOwner\n    */\n    function initByCoinOwner(\n        address exchanger,\n        address adrFeeRefund,\n        bytes32 offchain\n    )\n        public\n        payable\n    {\n        require(msg.value >= 0);\n        Exchange memory p;\n        p.coinOwner = msg.sender;\n        p.exchanger = exchanger;\n        p.adrFeeRefund = adrFeeRefund;\n        p.value = msg.value;\n        p.fee = fee;\n        p.feeRefund = feeRefund;\n        p.state = S.Inited;\n        ex.push(p);\n        emit __initByCoinOwner(ex.length - 1, msg.sender, offchain);\n    }\n\n    //CashOwner close the transaction after init\n    function closeByCashOwner(uint hid, bytes32 offchain) public onlyCashOwner(hid)\n        atState(S.Inited, hid)\n    {\n        ex[hid].state = S.Cancelled;\n        emit __closeByCashOwner(hid, offchain);\n    }\n\n    //shaker agree and make a handshake\n    function shake(uint hid, bytes32 offchain) public payable\n        atState(S.Inited, hid)\n    {\n        if (ex[hid].coinOwner == 0x0 && msg.value >= ex[hid].value) ex[hid].coinOwner = msg.sender;\n\n        if (ex[hid].cashOwner == 0x0) ex[hid].cashOwner = msg.sender;\n\n        require(msg.sender == ex[hid].coinOwner || msg.sender == ex[hid].cashOwner);\n        ex[hid].state = S.Shaked;\n        emit __shake(hid, msg.value, offchain);\n\n    }\n\n    //CoinOwner accept transaction\n    function accept(uint hid, bytes32 offchain) public onlyCoinOwner(hid)\n        atState(S.Shaked, hid)\n    {\n        Exchange storage p = ex[hid];\n        p.state = S.Accepted;\n        emit __accept(hid, offchain);\n    }\n\n    //CashOwner withdraw funds from a handshake\n    function withdraw(uint hid, bytes32 offchain) public onlyCashOwner(hid)\n        atState(S.Accepted, hid)\n    {\n       Exchange storage p = ex[hid];\n       p.state = S.Done;\n       uint f = (p.value * p.fee) / 1000;\n       uint fr = (p.value * p.feeRefund) / 1000;\n       p.exchanger.transfer(f);\n       p.adrFeeRefund.transfer(fr);\n       msg.sender.transfer(p.value - f - fr);\n\n        emit __withdraw(hid,p.value, offchain);\n    }\n\n    //CashOwner reject the transaction\n    function reject(uint hid, bytes32 offchain) public onlyCashOwner(hid)\n        atState(S.Shaked, hid)\n    {\n        ex[hid].state = S.Rejected;\n        emit __reject(hid, offchain);\n    }\n\n    //coinOwner cancel the handshake\n    function cancel(uint hid, bytes32 offchain) public onlyCoinOwner(hid) {\n        Exchange storage p = ex[hid];\n        require(p.state == S.Rejected\n                || p.state == S.Shaked || p.state == S.Inited);\n        p.state = S.Cancelled;\n        msg.sender.transfer(p.value);\n\n        emit __cancel(hid, offchain);\n    }\n\n    //get handshake stage by hid\n     function getState(uint hid) public constant returns(uint8){\n        Exchange storage p = ex[hid];\n        return uint8(p.state);\n     }\n\n}\n",
  "sourcePath": "/Autonomous/handshake-protocol/contracts/ExchangeHandshake.sol",
  "compiler": {
    "name": "solc",
    "version": "0.4.24+commit.e67f0147.Emscripten.clang"
  },
  "schemaVersion": "1.0.1",
  "updatedAt": "2018-06-14T15:34:04.826Z"
}