{
  "contractName": "GroupHandshake",
  "abi": [
    {
      "constant": true,
      "inputs": [
        {
          "name": "",
          "type": "uint256"
        }
      ],
      "name": "handshakes",
      "outputs": [
        {
          "name": "initiator",
          "type": "address"
        },
        {
          "name": "numberOfShakers",
          "type": "uint256"
        },
        {
          "name": "state",
          "type": "uint8"
        }
      ],
      "payable": false,
      "stateMutability": "view",
      "type": "function"
    },
    {
      "anonymous": false,
      "inputs": [
        {
          "indexed": false,
          "name": "hid",
          "type": "uint256"
        },
        {
          "indexed": false,
          "name": "offchain",
          "type": "bytes32"
        }
      ],
      "name": "__init",
      "type": "event"
    },
    {
      "anonymous": false,
      "inputs": [
        {
          "indexed": false,
          "name": "hid",
          "type": "uint256"
        },
        {
          "indexed": false,
          "name": "state",
          "type": "uint8"
        },
        {
          "indexed": false,
          "name": "offchain",
          "type": "bytes32"
        }
      ],
      "name": "__shake",
      "type": "event"
    },
    {
      "constant": false,
      "inputs": [
        {
          "name": "acceptors",
          "type": "bytes32[]"
        },
        {
          "name": "offchain",
          "type": "bytes32"
        }
      ],
      "name": "init",
      "outputs": [],
      "payable": false,
      "stateMutability": "nonpayable",
      "type": "function"
    },
    {
      "constant": false,
      "inputs": [
        {
          "name": "hid",
          "type": "uint256"
        },
        {
          "name": "acceptor",
          "type": "bytes32"
        },
        {
          "name": "offchain",
          "type": "bytes32"
        }
      ],
      "name": "shake",
      "outputs": [],
      "payable": false,
      "stateMutability": "nonpayable",
      "type": "function"
    }
  ],
  "bytecode": "0x608060405234801561001057600080fd5b50610634806100206000396000f300608060405260043610610057576000357c0100000000000000000000000000000000000000000000000000000000900463ffffffff16806328f851e71461005c5780639131ecee146100a5578063f75282331461012e575b600080fd5b34801561006857600080fd5b506100a360048036038101908080359060200190929190803560001916906020019092919080356000191690602001909291905050506101a2565b005b3480156100b157600080fd5b506100d06004803603810190808035906020019092919050505061034a565b604051808473ffffffffffffffffffffffffffffffffffffffff1673ffffffffffffffffffffffffffffffffffffffff16815260200183815260200182600281111561011857fe5b60ff168152602001935050505060405180910390f35b34801561013a57600080fd5b506101a06004803603810190808035906020019082018035906020019080806020026020016040519081016040528093929190818152602001838360200280828437820191505050505050919291929080356000191690602001909291905050506103b0565b005b600080848154811015156101b257fe5b906000526020600020906004020190506002808111156101ce57fe5b8160030160009054906101000a900460ff1660028111156101eb57fe5b141515156101f857600080fd5b600081600101805490501415610241578060010183908060018154018082558091505090600182039060005260206000200160009091929091909150906000191690555061025e565b6001151561024f858561050f565b151514151561025d57600080fd5b5b600181600201600082825401925050819055508060010180549050816002015414156102af5760028160030160006101000a81548160ff021916908360028111156102a557fe5b02179055506102d6565b60018160030160006101000a81548160ff021916908360028111156102d057fe5b02179055505b7ffac7c5fdefda0fa217180cc384ed844670622b2aaf279f1f13ca7fc728b0187f848260030160009054906101000a900460ff16846040518084815260200183600281111561032157fe5b60ff1681526020018260001916600019168152602001935050505060405180910390a150505050565b60008181548110151561035957fe5b90600052602060002090600402016000915090508060000160009054906101000a900473ffffffffffffffffffffffffffffffffffffffff16908060020154908060030160009054906101000a900460ff16905083565b60006080604051908101604052803373ffffffffffffffffffffffffffffffffffffffff16815260200184815260200160008152602001600060028111156103f457fe5b8152509080600181540180825580915050906001820390600052602060002090600402016000909192909190915060008201518160000160006101000a81548173ffffffffffffffffffffffffffffffffffffffff021916908373ffffffffffffffffffffffffffffffffffffffff1602179055506020820151816001019080519060200190610485929190610590565b506040820151816002015560608201518160030160006101000a81548160ff021916908360028111156104b457fe5b02179055505050507f21c02be65fa434a2e6b80a50c93b2654e65a53835f1b04697e4b5c09175beb13600160008054905003826040518083815260200182600019166000191681526020019250505060405180910390a15050565b6000806000808581548110151561052257fe5b90600052602060002090600402019150600090505b8160010180549050811015610587578360001916826001018281548110151561055c57fe5b906000526020600020015460001916141561057a5760019250610588565b8080600101915050610537565b5b505092915050565b8280548282559060005260206000209081019282156105d2579160200282015b828111156105d15782518290600019169055916020019190600101906105b0565b5b5090506105df91906105e3565b5090565b61060591905b808211156106015760008160009055506001016105e9565b5090565b905600a165627a7a72305820749b9565b81a8d5b72d46c85e30b2045554bef4142ac9afe16c72b6b6200cb980029",
  "source": "pragma solidity ^0.4.18;\n\n/**\n * @title BasicHandshake\n * @author Autonomous\n * @dev BasicHandshake allows n entities making aggrement on anything they want\n */\ncontract GroupHandshake {\n    struct Handshake {\n        address initiator;\n        bytes32[] acceptors;\n        uint numberOfShakers;\n        S state;\n    }\n\n    enum S { Inited, Shaked, Done }\n    Handshake[] public handshakes;\n    \n    event __init(uint hid, bytes32 offchain);\n    event __shake(uint hid, S state, bytes32 offchain);\n\n    /**\n    * Initiate a handshake between 1-n entities\n    * @param acceptors id of the ones to receive handshake;\n    *   might be 0 if acceptor is not known before creating handshake\n    * @param offchain record ID in offchain backend database\n    */\n    function init(bytes32[] acceptors, bytes32 offchain) public {\n        handshakes.push(Handshake(msg.sender, acceptors, 0, S.Inited));\n        __init(handshakes.length - 1, offchain);\n    }\n\n    /**\n    * Accept the handshake\n    * @param hid Id of the handshake to accept\n    * @param offchain record ID in offchain backend database\n    */\n    function shake(uint hid, bytes32 acceptor, bytes32 offchain) public {\n        Handshake storage hs = handshakes[hid];\n        require(hs.state != S.Done);\n\n        // Set acceptor if it was not defined in init stage\n        if (hs.acceptors.length == 0) {\n            hs.acceptors.push(acceptor);\n        } else {\n            require(isValidEmail(hid, acceptor) == true);\n        }\n        hs.numberOfShakers += 1;\n        if (hs.numberOfShakers == hs.acceptors.length) {\n            hs.state = S.Done;\n        } else {\n            hs.state = S.Shaked;\n        }\n\n        __shake(hid, hs.state, offchain);\n    }\n\n    function isValidEmail(uint hid, bytes32 acceptor) private view returns (bool value) {\n        Handshake storage hs = handshakes[hid];\n        for (uint index = 0; index < hs.acceptors.length; index++) {\n            if (hs.acceptors[index] == acceptor) {\n                value = true;\n                return;\n            }\n        }\n    }\n}\n",
  "sourcePath": "/Users/Phuong_Mac/Dropbox/autonomous/handshake/contracts/core/GroupHandshake.sol",
  "compiler": {
    "name": "solc",
    "version": "0.4.23+commit.124ca40d.Emscripten.clang"
  },
  "schemaVersion": "2.0.0",
  "updatedAt": "2018-05-17T04:37:33.152Z"
}