{
  "contractName": "HandshakeProtocol",
  "abi": [
    {
      "inputs": [],
      "payable": false,
      "stateMutability": "nonpayable",
      "type": "constructor"
    },
    {
      "anonymous": false,
      "inputs": [
        {
          "indexed": false,
          "name": "hid",
          "type": "uint256"
        },
        {
          "indexed": false,
          "name": "offchain",
          "type": "uint256"
        }
      ],
      "name": "__init",
      "type": "event"
    },
    {
      "anonymous": false,
      "inputs": [
        {
          "indexed": false,
          "name": "hid",
          "type": "uint256"
        },
        {
          "indexed": false,
          "name": "escrow",
          "type": "uint256"
        }
      ],
      "name": "__debug__shake",
      "type": "event"
    },
    {
      "anonymous": false,
      "inputs": [
        {
          "indexed": false,
          "name": "hid",
          "type": "uint256"
        },
        {
          "indexed": false,
          "name": "escrow",
          "type": "uint256"
        }
      ],
      "name": "__debug__unshake",
      "type": "event"
    },
    {
      "anonymous": false,
      "inputs": [
        {
          "indexed": false,
          "name": "hid",
          "type": "uint256"
        },
        {
          "indexed": false,
          "name": "amount",
          "type": "uint256"
        },
        {
          "indexed": false,
          "name": "escrow",
          "type": "uint256"
        }
      ],
      "name": "__debug__withdraw",
      "type": "event"
    },
    {
      "anonymous": false,
      "inputs": [
        {
          "indexed": false,
          "name": "hid",
          "type": "uint256"
        },
        {
          "indexed": false,
          "name": "term",
          "type": "uint8"
        }
      ],
      "name": "__debug__init",
      "type": "event"
    },
    {
      "anonymous": false,
      "inputs": [
        {
          "indexed": false,
          "name": "hid",
          "type": "uint256"
        },
        {
          "indexed": false,
          "name": "state",
          "type": "uint8"
        },
        {
          "indexed": false,
          "name": "balance",
          "type": "uint256"
        },
        {
          "indexed": false,
          "name": "offchain",
          "type": "uint256"
        }
      ],
      "name": "__shake",
      "type": "event"
    },
    {
      "anonymous": false,
      "inputs": [
        {
          "indexed": false,
          "name": "hid",
          "type": "uint256"
        },
        {
          "indexed": false,
          "name": "state",
          "type": "uint8"
        },
        {
          "indexed": false,
          "name": "balance",
          "type": "uint256"
        },
        {
          "indexed": false,
          "name": "offchain",
          "type": "uint256"
        }
      ],
      "name": "__unshake",
      "type": "event"
    },
    {
      "anonymous": false,
      "inputs": [
        {
          "indexed": false,
          "name": "hid",
          "type": "uint256"
        },
        {
          "indexed": false,
          "name": "state",
          "type": "uint8"
        },
        {
          "indexed": false,
          "name": "offchain",
          "type": "uint256"
        }
      ],
      "name": "__deliver",
      "type": "event"
    },
    {
      "anonymous": false,
      "inputs": [
        {
          "indexed": false,
          "name": "hid",
          "type": "uint256"
        },
        {
          "indexed": false,
          "name": "state",
          "type": "uint8"
        },
        {
          "indexed": false,
          "name": "offchain",
          "type": "uint256"
        }
      ],
      "name": "__withdraw",
      "type": "event"
    },
    {
      "anonymous": false,
      "inputs": [
        {
          "indexed": false,
          "name": "hid",
          "type": "uint256"
        },
        {
          "indexed": false,
          "name": "amount",
          "type": "uint256"
        },
        {
          "indexed": false,
          "name": "escrow",
          "type": "uint256"
        },
        {
          "indexed": false,
          "name": "state",
          "type": "uint8"
        },
        {
          "indexed": false,
          "name": "term",
          "type": "uint8"
        }
      ],
      "name": "__debug__withdraw",
      "type": "event"
    },
    {
      "anonymous": false,
      "inputs": [
        {
          "indexed": false,
          "name": "hid",
          "type": "uint256"
        },
        {
          "indexed": false,
          "name": "state",
          "type": "uint8"
        },
        {
          "indexed": false,
          "name": "offchain",
          "type": "uint256"
        }
      ],
      "name": "__reject",
      "type": "event"
    },
    {
      "anonymous": false,
      "inputs": [
        {
          "indexed": false,
          "name": "hid",
          "type": "uint256"
        },
        {
          "indexed": false,
          "name": "state",
          "type": "uint8"
        },
        {
          "indexed": false,
          "name": "offchain",
          "type": "uint256"
        }
      ],
      "name": "__accept",
      "type": "event"
    },
    {
      "anonymous": false,
      "inputs": [
        {
          "indexed": false,
          "name": "hid",
          "type": "uint256"
        },
        {
          "indexed": false,
          "name": "state",
          "type": "uint8"
        },
        {
          "indexed": false,
          "name": "offchain",
          "type": "uint256"
        }
      ],
      "name": "__cancel",
      "type": "event"
    },
    {
      "constant": false,
      "inputs": [
        {
          "name": "value",
          "type": "uint256"
        },
        {
          "name": "term",
          "type": "uint8"
        },
        {
          "name": "escrowDate",
          "type": "uint256"
        },
        {
          "name": "deliveryDate",
          "type": "uint256"
        },
        {
          "name": "offchain",
          "type": "uint256"
        }
      ],
      "name": "init",
      "outputs": [],
      "payable": false,
      "stateMutability": "nonpayable",
      "type": "function"
    },
    {
      "constant": false,
      "inputs": [
        {
          "name": "value",
          "type": "uint256"
        },
        {
          "name": "term",
          "type": "uint8"
        },
        {
          "name": "escrowDate",
          "type": "uint256"
        },
        {
          "name": "deliveryDate",
          "type": "uint256"
        },
        {
          "name": "_payer",
          "type": "address"
        },
        {
          "name": "offchain",
          "type": "uint256"
        }
      ],
      "name": "initByPayee",
      "outputs": [],
      "payable": false,
      "stateMutability": "nonpayable",
      "type": "function"
    },
    {
      "constant": false,
      "inputs": [
        {
          "name": "value",
          "type": "uint256"
        },
        {
          "name": "term",
          "type": "uint8"
        },
        {
          "name": "deliveryDate",
          "type": "uint256"
        },
        {
          "name": "_payee",
          "type": "address"
        },
        {
          "name": "offchain",
          "type": "uint256"
        }
      ],
      "name": "initByPayer",
      "outputs": [],
      "payable": true,
      "stateMutability": "payable",
      "type": "function"
    },
    {
      "constant": false,
      "inputs": [
        {
          "name": "hid",
          "type": "uint256"
        },
        {
          "name": "offchain",
          "type": "uint256"
        }
      ],
      "name": "shake",
      "outputs": [],
      "payable": true,
      "stateMutability": "payable",
      "type": "function"
    },
    {
      "constant": false,
      "inputs": [
        {
          "name": "hid",
          "type": "uint256"
        },
        {
          "name": "offchain",
          "type": "uint256"
        }
      ],
      "name": "unshake",
      "outputs": [],
      "payable": false,
      "stateMutability": "nonpayable",
      "type": "function"
    },
    {
      "constant": false,
      "inputs": [
        {
          "name": "hid",
          "type": "uint256"
        },
        {
          "name": "offchain",
          "type": "uint256"
        }
      ],
      "name": "deliver",
      "outputs": [],
      "payable": false,
      "stateMutability": "nonpayable",
      "type": "function"
    },
    {
      "constant": false,
      "inputs": [
        {
          "name": "hid",
          "type": "uint256"
        },
        {
          "name": "offchain",
          "type": "uint256"
        }
      ],
      "name": "withdraw",
      "outputs": [],
      "payable": false,
      "stateMutability": "nonpayable",
      "type": "function"
    },
    {
      "constant": false,
      "inputs": [
        {
          "name": "hid",
          "type": "uint256"
        },
        {
          "name": "offchain",
          "type": "uint256"
        }
      ],
      "name": "reject",
      "outputs": [],
      "payable": false,
      "stateMutability": "nonpayable",
      "type": "function"
    },
    {
      "constant": false,
      "inputs": [
        {
          "name": "hid",
          "type": "uint256"
        },
        {
          "name": "offchain",
          "type": "uint256"
        }
      ],
      "name": "accept",
      "outputs": [],
      "payable": false,
      "stateMutability": "nonpayable",
      "type": "function"
    },
    {
      "constant": false,
      "inputs": [
        {
          "name": "hid",
          "type": "uint256"
        },
        {
          "name": "offchain",
          "type": "uint256"
        }
      ],
      "name": "cancel",
      "outputs": [],
      "payable": false,
      "stateMutability": "nonpayable",
      "type": "function"
    },
    {
      "constant": true,
      "inputs": [
        {
          "name": "uadr",
          "type": "address"
        }
      ],
      "name": "handshakesOf",
      "outputs": [
        {
          "name": "result",
          "type": "uint256[]"
        }
      ],
      "payable": false,
      "stateMutability": "view",
      "type": "function"
    }
  ],
  "bytecode": "0x6080604052603260065562093a8060075562093a80600855620151806009553480156200002b57600080fd5b5060016000816200003d919062000044565b50620000e6565b815481835581811115620000745760040281600402836000526020600020918201910162000073919062000079565b5b505050565b620000e391905b80821115620000df576000808201600090556001820160006101000a81549073ffffffffffffffffffffffffffffffffffffffff021916905560028201600090556003820160006101000a81549060ff02191690555060040162000080565b5090565b90565b6122b580620000f66000396000f3006080604052600436106100ae576000357c0100000000000000000000000000000000000000000000000000000000900463ffffffff168062efa895146100b357806309358479146100ea578063181fd77c146101215780631c8503d71461014b578063441a3e70146101ac57806373fc9433146101e35780637b8ac66b1461025b5780637d49c3f31461029257806386b2375c1461032a578063d2421fda14610361578063e5a72e84146103b9575b600080fd5b3480156100bf57600080fd5b506100e860048036038101908080359060200190929190803590602001909291905050506103f0565b005b3480156100f657600080fd5b5061011f60048036038101908080359060200190929190803590602001909291905050506108d3565b005b610149600480360381019080803590602001909291908035906020019092919050505061099f565b005b6101aa60048036038101908080359060200190929190803560ff16906020019092919080359060200190929190803573ffffffffffffffffffffffffffffffffffffffff16906020019092919080359060200190929190505050610da9565b005b3480156101b857600080fd5b506101e16004803603810190808035906020019092919080359060200190929190505050610dcd565b005b3480156101ef57600080fd5b5061025960048036038101908080359060200190929190803560ff1690602001909291908035906020019092919080359060200190929190803573ffffffffffffffffffffffffffffffffffffffff16906020019092919080359060200190929190505050611160565b005b34801561026757600080fd5b506102906004803603810190808035906020019092919080359060200190929190505050611178565b005b34801561029e57600080fd5b506102d3600480360381019080803573ffffffffffffffffffffffffffffffffffffffff1690602001909291905050506112df565b6040518080602001828103825283818151815260200191508051906020019060200280838360005b838110156103165780820151818401526020810190506102fb565b505050509050019250505060405180910390f35b34801561033657600080fd5b5061035f600480360381019080803590602001909291908035906020019092919050505061165d565b005b34801561036d57600080fd5b506103b760048036038101908080359060200190929190803560ff16906020019092919080359060200190929190803590602001909291908035906020019092919050505061172d565b005b3480156103c557600080fd5b506103ee6004803603810190808035906020019092919080359060200190929190505050611745565b005b600080600080600080600061044a898a8a60405180807f63616e63656c0000000000000000000000000000000000000000000000000000815250600601838152602001828152602001925050506040518091039020611b89565b156108465760008981548110151561045e57fe5b90600052602060002090600402019650600460008a81526020019081526020016000209550600360008a81526020019081526020016000209450600160058111156104a557fe5b8760030160009054906101000a900460ff1660058111156104c257fe5b1480156104f557506003808111156104d657fe5b8660000160009054906101000a900460ff1660038111156104f357fe5b145b8061053757506003600581111561050857fe5b8760030160009054906101000a900460ff16600581111561052557fe5b148015610536575085600201544210155b5b151561054257600080fd5b60058760030160006101000a81548160ff0219169083600581111561056357fe5b0217905550600092505b846003018054905083101561060a57846002016000866003018581548110151561059357fe5b9060005260206000200160009054906101000a900473ffffffffffffffffffffffffffffffffffffffff1673ffffffffffffffffffffffffffffffffffffffff1673ffffffffffffffffffffffffffffffffffffffff1681526020019081526020016000205484019350828060010193505061056d565b600091505b8460030180549050821015610845576000856002016000876003018581548110151561063757fe5b9060005260206000200160009054906101000a900473ffffffffffffffffffffffffffffffffffffffff1673ffffffffffffffffffffffffffffffffffffffff1673ffffffffffffffffffffffffffffffffffffffff1681526020019081526020016000205411156108385783856000015486600201600088600301868154811015156106c057fe5b9060005260206000200160009054906101000a900473ffffffffffffffffffffffffffffffffffffffff1673ffffffffffffffffffffffffffffffffffffffff1673ffffffffffffffffffffffffffffffffffffffff168152602001908152602001600020540281151561073057fe5b0490506000856002016000876003018581548110151561074c57fe5b9060005260206000200160009054906101000a900473ffffffffffffffffffffffffffffffffffffffff1673ffffffffffffffffffffffffffffffffffffffff1673ffffffffffffffffffffffffffffffffffffffff1681526020019081526020016000208190555084600301828154811015156107c657fe5b9060005260206000200160009054906101000a900473ffffffffffffffffffffffffffffffffffffffff1673ffffffffffffffffffffffffffffffffffffffff166108fc829081150290604051600060405180830381858888f19350505050158015610836573d6000803e3d6000fd5b505b818060010192505061060f565b5b7fb2e4ca03cad38a61dfe9d0856864a9bd166622d4ba724838ddf6e0ab61a479ff8960008b81548110151561087757fe5b906000526020600020906004020160030160009054906101000a900460ff168a604051808481526020018360058111156108ad57fe5b60ff168152602001828152602001935050505060405180910390a1505050505050505050565b600080838154811015156108e357fe5b9060005260206000209060040201905060028160030160006101000a81548160ff0219169083600581111561091457fe5b02179055504260046000858152602001908152602001600020600201819055507f0c654f74172b8b2d8b834accc5b3ee79c077110f9779e24b854f1a5d060c82ad838260030160009054906101000a900460ff16846040518084815260200183600581111561097f57fe5b60ff168152602001828152602001935050505060405180910390a1505050565b6000806000848154811015156109b157fe5b90600052602060002090600402019150600060058111156109ce57fe5b8260030160009054906101000a900460ff1660058111156109eb57fe5b1415156109f757600080fd5b60036000858152602001908152602001600020905080600101544211151515610a1f57600080fd5b60008160020160003373ffffffffffffffffffffffffffffffffffffffff1673ffffffffffffffffffffffffffffffffffffffff168152602001908152602001600020541415610ad257806003013390806001815401808255809150509060018203906000526020600020016000909192909190916101000a81548173ffffffffffffffffffffffffffffffffffffffff021916908373ffffffffffffffffffffffffffffffffffffffff160217905550505b348160020160003373ffffffffffffffffffffffffffffffffffffffff1673ffffffffffffffffffffffffffffffffffffffff16815260200190815260200160002060008282540192505081905550348160000160008282540192505081905550600280600086815260200190815260200160002060003373ffffffffffffffffffffffffffffffffffffffff1673ffffffffffffffffffffffffffffffffffffffff16815260200190815260200160002060006101000a81548160ff02191690836003811115610b9f57fe5b0217905550600281600301805490501415610c59576006546005600086815260200190815260200160002060007f72656a6563740000000000000000000000000000000000000000000000000000600019168152602001908152602001600020600001819055506006546005600086815260200190815260200160002060007f63616e63656c0000000000000000000000000000000000000000000000000000600019168152602001908152602001600020600001819055505b81600001548160000154101515610cee5760018260030160006101000a81548160ff02191690836005811115610c8b57fe5b0217905550600380811115610c9c57fe5b6004600086815260200190815260200160002060000160009054906101000a900460ff166003811115610ccb57fe5b1415610ced574260046000868152602001908152602001600020600101819055505b5b7fc0b8d29ecd9fdb98faea3a9ad4ff476f376af4e523a2da4b3671ec22aeb132ef848360030160009054906101000a900460ff1683600001548660405180858152602001846005811115610d3e57fe5b60ff16815260200183815260200182815260200194505050505060405180910390a17f1a0c9de6c11becb056e30020cd2f7bc6a09f524cfe680731b5438f7cd83f50df848260000154604051808381526020018281526020019250505060405180910390a150505050565b610dc6610dc0868662015180420187338888611e9d565b8261099f565b5050505050565b600080600080856001600082815260200190815260200160002060009054906101000a900473ffffffffffffffffffffffffffffffffffffffff1673ffffffffffffffffffffffffffffffffffffffff163373ffffffffffffffffffffffffffffffffffffffff16141515610e4157600080fd5b60046005811115610e4e57fe5b8460030160009054906101000a900460ff166005811115610e6b57fe5b14151515610e7857600080fd5b60036000888152602001908152602001600020945060008560000154111515610ea057600080fd5b600087815481101515610eaf57fe5b9060005260206000209060040201935060046000888152602001908152602001600020925060026005811115610ee157fe5b8460030160009054906101000a900460ff166005811115610efe57fe5b148015610f0f575082600201544210155b15610f205784600001549150610fca565b60016005811115610f2d57fe5b8460030160009054906101000a900460ff166005811115610f4a57fe5b148015610f7d5750600380811115610f5e57fe5b8360000160009054906101000a900460ff166003811115610f7b57fe5b145b15610fc9578260020154421015610fb757826001015483600201540383600101544203866000015402811515610faf57fe5b049150610fbf565b846000015491505b4283600101819055505b5b818560000160008282540392505081905550600085600001541115156110115760048460030160006101000a81548160ff0219169083600581111561100b57fe5b02179055505b3373ffffffffffffffffffffffffffffffffffffffff166108fc839081150290604051600060405180830381858888f19350505050158015611057573d6000803e3d6000fd5b507f2bdd34de4ac40e5fd3cd981f1b68fbe9325eaa2a670b4c880784cd426a04147d878560030160009054906101000a900460ff1688604051808481526020018360058111156110a357fe5b60ff168152602001828152602001935050505060405180910390a17f2771802ac1f3f27e263c18cff105e8d5f5cacf6e2269852e4a00e42b27720e24878387600001548760030160009054906101000a900460ff168760000160009054906101000a900460ff166040518086815260200185815260200184815260200183600581111561112c57fe5b60ff16815260200182600381111561114057fe5b60ff1681526020019550505050505060405180910390a150505050505050565b61116f86868686863387611e9d565b50505050505050565b6000826001600082815260200190815260200160002060009054906101000a900473ffffffffffffffffffffffffffffffffffffffff1673ffffffffffffffffffffffffffffffffffffffff163373ffffffffffffffffffffffffffffffffffffffff161415156111e857600080fd5b6000848154811015156111f757fe5b906000526020600020906004020191506001600581111561121457fe5b8260030160009054906101000a900460ff16600581111561123157fe5b148015611242575081600201544211155b151561124d57600080fd5b60028260030160006101000a81548160ff0219169083600581111561126e57fe5b02179055507f5ba301cfdd40fb3a182e3e5e66064e7ddd31db785da38203997231e3952516f1848360030160009054906101000a900460ff1685604051808481526020018360058111156112be57fe5b60ff168152602001828152602001935050505060405180910390a150505050565b606060008060008060016000805490500392505b600183101515611477578573ffffffffffffffffffffffffffffffffffffffff166001600085815260200190815260200160002060009054906101000a900473ffffffffffffffffffffffffffffffffffffffff1673ffffffffffffffffffffffffffffffffffffffff16148061145b57506001600381111561137257fe5b6002600085815260200190815260200160002060008873ffffffffffffffffffffffffffffffffffffffff1673ffffffffffffffffffffffffffffffffffffffff16815260200190815260200160002060009054906101000a900460ff1660038111156113db57fe5b148061145a5750600260038111156113ef57fe5b6002600085815260200190815260200160002060008873ffffffffffffffffffffffffffffffffffffffff1673ffffffffffffffffffffffffffffffffffffffff16815260200190815260200160002060009054906101000a900460ff16600381111561145857fe5b145b5b156114695783806001019450505b8280600190039350506112f3565b836040519080825280602002602001820160405280156114a65781602001602082028038833980820191505090505b50945060016000805490500390505b600181101515611654578573ffffffffffffffffffffffffffffffffffffffff166001600083815260200190815260200160002060009054906101000a900473ffffffffffffffffffffffffffffffffffffffff1673ffffffffffffffffffffffffffffffffffffffff16148061161d57506001600381111561153457fe5b6002600083815260200190815260200160002060008873ffffffffffffffffffffffffffffffffffffffff1673ffffffffffffffffffffffffffffffffffffffff16815260200190815260200160002060009054906101000a900460ff16600381111561159d57fe5b148061161c5750600260038111156115b157fe5b6002600083815260200190815260200160002060008873ffffffffffffffffffffffffffffffffffffffff1673ffffffffffffffffffffffffffffffffffffffff16815260200190815260200160002060009054906101000a900460ff16600381111561161a57fe5b145b5b156116465780858380600101945081518110151561163757fe5b90602001906020020181815250505b8080600190039150506114b5565b50505050919050565b6000808381548110151561166d57fe5b9060005260206000209060040201905060038160030160006101000a81548160ff0219169083600581111561169e57fe5b0217905550600854420160046000858152602001908152602001600020600201819055507f5efb7ef12d20afd3567032414a155d2cd30b09826da25fac799dd3456e7e4474838260030160009054906101000a900460ff16846040518084815260200183600581111561170d57fe5b60ff168152602001828152602001935050505060405180910390a1505050565b61173d8585858560003387611e9d565b505050505050565b6000806000806000808781548110151561175b57fe5b906000526020600020906004020194506000600581111561177857fe5b8560030160009054906101000a900460ff16600581111561179557fe5b1415156117a157600080fd5b6003600088815260200190815260200160002093508360020160003373ffffffffffffffffffffffffffffffffffffffff1673ffffffffffffffffffffffffffffffffffffffff16815260200190815260200160002054925060008311151561180957600080fd5b82846000016000828254039250508190555060008460020160003373ffffffffffffffffffffffffffffffffffffffff1673ffffffffffffffffffffffffffffffffffffffff1681526020019081526020016000208190555060036002600089815260200190815260200160002060003373ffffffffffffffffffffffffffffffffffffffff1673ffffffffffffffffffffffffffffffffffffffff16815260200190815260200160002060006101000a81548160ff021916908360038111156118cf57fe5b0217905550600091505b8360030180549050821015611a84573373ffffffffffffffffffffffffffffffffffffffff16846003018381548110151561191057fe5b9060005260206000200160009054906101000a900473ffffffffffffffffffffffffffffffffffffffff1673ffffffffffffffffffffffffffffffffffffffff161415611a77578190505b6001846003018054905003811015611a1257836003016001820181548110151561198157fe5b9060005260206000200160009054906101000a900473ffffffffffffffffffffffffffffffffffffffff1684600301828154811015156119bd57fe5b9060005260206000200160006101000a81548173ffffffffffffffffffffffffffffffffffffffff021916908373ffffffffffffffffffffffffffffffffffffffff160217905550808060010191505061195b565b836003016001856003018054905003815481101515611a2d57fe5b9060005260206000200160006101000a81549073ffffffffffffffffffffffffffffffffffffffff021916905583600301805480919060019003611a71919061217b565b50611a84565b81806001019250506118d9565b3373ffffffffffffffffffffffffffffffffffffffff166108fc849081150290604051600060405180830381858888f19350505050158015611aca573d6000803e3d6000fd5b507fbcdfd587501970309dcbb774d2b371f6c6707065c23555108768c991f9cc87fe878660030160009054906101000a900460ff1686600001548960405180858152602001846005811115611b1b57fe5b60ff16815260200183815260200182815260200194505050505060405180910390a17f9132bd7b42b6c74d69abf292e993005738620144a78dac1f9bf6f7e7ad81e082878560000154604051808381526020018281526020019250505060405180910390a150505050505050565b60008060008060036000878152602001908152602001600020925060008360020160003373ffffffffffffffffffffffffffffffffffffffff1673ffffffffffffffffffffffffffffffffffffffff16815260200190815260200160002054111515611bf457600080fd5b600183600301805490501415611c0d5760019350611e94565b60056000878152602001908152602001600020600086600019166000191681526020019081526020016000209150816001015442101515611d1357600090505b8160030180549050811015611cfe5760008260020160008460030184815481101515611c7557fe5b9060005260206000200160009054906101000a900473ffffffffffffffffffffffffffffffffffffffff1673ffffffffffffffffffffffffffffffffffffffff1673ffffffffffffffffffffffffffffffffffffffff16815260200190815260200160002060006101000a81548160ff0219169083151502179055508080600101915050611c4d565b816003016000611d0e91906121a7565b611d6f565b8160020160003373ffffffffffffffffffffffffffffffffffffffff1673ffffffffffffffffffffffffffffffffffffffff16815260200190815260200160002060009054906101000a900460ff16151515611d6e57600080fd5b5b60018260020160003373ffffffffffffffffffffffffffffffffffffffff1673ffffffffffffffffffffffffffffffffffffffff16815260200190815260200160002060006101000a81548160ff021916908315150217905550816003013390806001815401808255809150509060018203906000526020600020016000909192909190916101000a81548173ffffffffffffffffffffffffffffffffffffffff021916908373ffffffffffffffffffffffffffffffffffffffff16021790555050600182600301805490501415611e4f57600954420182600101819055505b816001015442108015611e7957508160000154836003018054905002606483600301805490500210155b15611e935760014203826001018190555060019350611e94565b5b50505092915050565b60008060008054809190600101611eb491906121c8565b9150600082815481101515611ec557fe5b9060005260206000209060040201905060008160030160006101000a81548160ff02191690836005811115611ef657fe5b021790555060008611611f0a576000611f13565b62015180860242015b816002018190555060016002600084815260200190815260200160002060008773ffffffffffffffffffffffffffffffffffffffff1673ffffffffffffffffffffffffffffffffffffffff16815260200190815260200160002060006101000a81548160ff02191690836003811115611f8857fe5b021790555060008911156120c05760018902816000018190555062015180870242016003600084815260200190815260200160002060010181905550836001600084815260200190815260200160002060006101000a81548173ffffffffffffffffffffffffffffffffffffffff021916908373ffffffffffffffffffffffffffffffffffffffff160217905550876004600084815260200190815260200160002060000160006101000a81548160ff0219169083600381111561204857fe5b02179055506002600381111561205a57fe5b88600381111561206657fe5b146120995760038081111561207757fe5b88600381111561208357fe5b146120915762093a80612094565b60005b61209e565b62278d005b62ffffff16860160046000848152602001908152602001600020600201819055505b7f6fef03e1a3aa6011fa766afe2b48efbd4e11b11cb13b6f7752d100ed2906e8d08284604051808381526020018281526020019250505060405180910390a17f6e5ee59c165ac5387b85af72164e12a911aac1a61be4303d5abd4f8305fe4aed826004600085815260200190815260200160002060000160009054906101000a900460ff166040518083815260200182600381111561215b57fe5b60ff1681526020019250505060405180910390a150979650505050505050565b8154818355818111156121a2578183600052602060002091820191016121a191906121fa565b5b505050565b50805460008255906000526020600020908101906121c591906121fa565b50565b8154818355818111156121f5576004028160040283600052602060002091820191016121f4919061221f565b5b505050565b61221c91905b80821115612218576000816000905550600101612200565b5090565b90565b61228691905b80821115612282576000808201600090556001820160006101000a81549073ffffffffffffffffffffffffffffffffffffffff021916905560028201600090556003820160006101000a81549060ff021916905550600401612225565b5090565b905600a165627a7a723058208127db0de897d090c9511bd314ee56d947f82cfc36a7bd839deb858c42ff8db00029",
  "source": "pragma solidity ^0.4.18;\n\ncontract HandshakeProtocol {\n\n        struct Handshake {\n                uint value;\n                address currency; // address(0) for eth\n                uint deadline;\n                S state;\n        }\n\n        /*\n        struct Token {\n                address adr;\n                address price;\n        }\n\n        mapping(uint => Token) internal token;\n        */\n\n        struct Escrow {\n                uint balance;\n                uint deadline;\n                mapping(address => uint) from;\n                address[] payers;\n        }\n\n        struct Payment {\n                T term;\n                uint last; \n                uint deadline;\n        }\n\n        struct Governance {\n                uint quorum;\n                uint deadline;\n                mapping(address => bool) approved;\n                address[] approvers;\n        }\n\n        enum T { None, COD, Net30, Vesting }\n        enum S { Inited, Shaked, Accepted, Rejected, Done, Cancelled }\n        enum P { None, Pending, Shaked, Unshaked }\n\n        Handshake[] internal handshakes;\n        mapping(uint => address) internal payee;\n        mapping(uint => mapping(address => P)) internal payer;\n        mapping(uint => Escrow) internal escrow;\n        mapping(uint => Payment) internal payment;\n        mapping(uint => mapping(bytes32 => Governance)) internal governance;\n\n        event __init(uint hid, uint offchain);\n\n        event __debug__shake(uint hid, uint escrow);\n        event __debug__unshake(uint hid, uint escrow);\n        event __debug__withdraw(uint hid, uint amount, uint escrow);\n\n        uint internal defaultQuorum = 50; // 50%\n        uint internal reviewWindow = 7 days;\n        uint internal resolveWindow = 7 days;\n        uint internal voteWindow = 1 days;\n\n        modifier onlyPayee(uint hid) { \n                require(msg.sender == payee[hid]); \n                _;  \n        }\n\n\n        function HandshakeProtocol() public { \n                handshakes.length = 1;  // avoid index 0 problem\n        }\n\n\n        function init(\n                uint value,  // value of the contract. 0 if there is no money involved. \n                T term, // None, COD, Net30, Vesting\n                uint escrowDate, // if value > 0\n                uint deliveryDate,  // 0 if there is no deadline\n                uint offchain\n        ) \n                public \n        {\n                _init(value, term, escrowDate, deliveryDate, address(0), msg.sender, offchain);\n        }\n\n\n        function initByPayee(\n                uint value,  \n                T term, \n                uint escrowDate, \n                uint deliveryDate,\n                address _payer,\n                uint offchain\n        ) \n                public \n        {\n                _init(value, term, escrowDate, deliveryDate, _payer, msg.sender, offchain);\n        }\n\n\n        event __debug__init(uint hid, T term);\n\n        function _init(\n                uint value, \n                T term,\n                uint escrowDate, \n                uint deliveryDate, \n                address _payer,\n                address _payee,\n                uint offchain\n        ) \n                internal \n                returns (uint hid)\n        {\n                hid = handshakes.length++;\n\n                Handshake storage h = handshakes[hid];\n                h.state = S.Inited;\n                h.deadline = deliveryDate > 0? now + deliveryDate * 1 days : 0;\n                payer[hid][_payer] = P.Pending;\n\n                if (value > 0) {\n                        h.value = value * 1 wei;\n                        escrow[hid].deadline = now + escrowDate * 1 days;\n                        payee[hid] = _payee;\n                        payment[hid].term = term;\n                        payment[hid].deadline = deliveryDate + \n                                (term == T.Net30? \n                                        30 days: \n                                        (term == T.Vesting?\n                                                0:\n                                                7 days)); // COD\n                }\n\n                __init(hid, offchain);\n                __debug__init(hid, payment[hid].term);\n        }\n\n\n        function initByPayer(\n                uint value, \n                T term,\n                uint deliveryDate, \n                address _payee, \n                uint offchain\n        ) \n                public \n                payable\n        {\n                shake(_init(value, term, now + 1 days, deliveryDate, msg.sender, _payee, offchain), offchain);\n        }\n\n\n        event __shake(uint hid, S state, uint balance, uint offchain);\n\n        function shake(uint hid, uint offchain) payable public {\n                Handshake storage h = handshakes[hid];\n                require(h.state == S.Inited);\n\n                Escrow storage e = escrow[hid];\n                require(now <= e.deadline);\n                if (e.from[msg.sender] == 0) e.payers.push(msg.sender);\n                e.from[msg.sender] += msg.value;\n                e.balance += msg.value;\n                payer[hid][msg.sender] = P.Shaked;\n\n                if (e.payers.length == 2) {\n                        governance[hid][\"reject\"].quorum = defaultQuorum;\n                        governance[hid][\"cancel\"].quorum = defaultQuorum;\n                }\n\n                if (e.balance >= h.value) {\n                        h.state = S.Shaked;\n                        if (payment[hid].term == T.Vesting)\n                                payment[hid].last = now;\n                }\n\n                __shake(hid, h.state, e.balance, offchain); \n                __debug__shake(hid, e.balance);\n        }\n\n\n        event __unshake(uint hid, S state, uint balance, uint offchain);\n\n        function unshake(uint hid, uint offchain) public {\n                Handshake storage h = handshakes[hid];\n                require(h.state == S.Inited);\n\n                Escrow storage e = escrow[hid];\n                uint amount = e.from[msg.sender];\n                require(amount > 0);\n                e.balance -= amount;\n                e.from[msg.sender] = 0;\n                payer[hid][msg.sender] = P.Unshaked;\n\n                // remove msg.sender from payer list\n                for (uint i = 0; i < e.payers.length; i++) \n                        if (e.payers[i] == msg.sender) {\n                                for (uint j = i; j < e.payers.length-1; j++) \n                                        e.payers[j] = e.payers[j+1];\n                                delete e.payers[e.payers.length-1];\n                                e.payers.length--;\n                                break;\n                        }\n\n                msg.sender.transfer(amount);\n\n                __unshake(hid, h.state, e.balance, offchain); \n                __debug__unshake(hid, e.balance);\n        }\n\n\n        event __deliver(uint hid, S state, uint offchain);\n\n        function deliver(uint hid, uint offchain) public onlyPayee(hid) {\n                Handshake storage h = handshakes[hid];\n                require(h.state == S.Shaked && now <= h.deadline);\n                /*\n                // if it's a digital token \n                if (token[hid].adr != address(0)) {\n                        IToken t = IToken(token[hid].adr);\n                        for (uint i = 0; i < escrow.payers.lenghth; i++) {\n                                t.transferFrom(payee[hid], escrow.payers[i], escrow.from[payers[i]]/token[hid].price);\n                        }\n                */\n                h.state = S.Accepted;\n                __deliver(hid, h.state, offchain);\n        }\n\n\n        event __withdraw(uint hid, S state, uint offchain);\n        event __debug__withdraw(uint hid, uint amount, uint escrow, S state, T term);\n\n        function withdraw(uint hid, uint offchain) public onlyPayee(hid) {\n                require(h.state != S.Done);\n\n                Escrow storage e = escrow[hid];\n                require(e.balance > 0);\n\n                Handshake storage h = handshakes[hid];\n                Payment storage p = payment[hid];\n                uint amount;\n\n                if (h.state == S.Accepted && now >= p.deadline)\n                        amount = e.balance;\n                else if (h.state == S.Shaked && p.term == T.Vesting) {\n                        if (now < p.deadline)\n                                amount = e.balance * (now - p.last) / (p.deadline - p.last);\n                        else \n                                amount = e.balance;\n                        p.last = now;\n                }\n\n                e.balance -= amount;\n                if (e.balance <= 0)\n                        h.state = S.Done;\n\n                msg.sender.transfer(amount);\n\n                __withdraw(hid, h.state, offchain);\n                __debug__withdraw(hid, amount, e.balance, h.state, p.term);\n        }\n\n        event __reject(uint hid, S state, uint offchain);\n\n        function reject(uint hid, uint offchain) public { // DAO?\n                Handshake storage h = handshakes[hid];\n                h.state = S.Rejected;\n                payment[hid].deadline = now + resolveWindow;\n                __reject(hid, h.state, offchain);\n        }\n\n\n        event __accept(uint hid, S state, uint offchain);\n\n        function accept(uint hid, uint offchain) public { // DAO?\n                Handshake storage h = handshakes[hid];\n                h.state = S.Accepted;\n                payment[hid].deadline = now;\n                __accept(hid, h.state, offchain);\n        }\n\n\n        event __cancel(uint hid, S state, uint offchain);\n\n        function cancel(uint hid, uint offchain) public {\n\n                if (_approved(hid, keccak256(\"cancel\", hid, offchain))) {\n\n                        Handshake storage h = handshakes[hid];\n                        Payment storage p = payment[hid];\n                        Escrow storage e = escrow[hid];\n\n                        require((h.state == S.Shaked && p.term == T.Vesting) ||\n                                (h.state == S.Rejected && now >= p.deadline));\n\n                        h.state = S.Cancelled;\n\n                        // refund\n                        // TODO: unit test\n                        uint total;\n                        for (uint i = 0; i < e.payers.length; i++) \n                                total += e.from[e.payers[i]];\n\n                        for (uint j = 0; j < e.payers.length; j++) \n                                if (e.from[e.payers[j]] > 0) {\n                                        uint amt = e.from[e.payers[j]] * e.balance / total;\n                                        e.from[e.payers[j]] = 0; // wipe out\n                                        e.payers[j].transfer(amt);\n                                }\n                }\n\n                __cancel(hid, handshakes[hid].state, offchain);\n        }\n\n\n        function _approved(uint hid, bytes32 fname) internal returns (bool) {\n                Escrow storage e = escrow[hid];\n                require(e.from[msg.sender] > 0);\n                if (e.payers.length == 1) {\n                        // one-person group. automatic consensus.\n                        return true;\n                } else {\n                        // mutli-people group. need group consensus.\n                        Governance storage g = governance[hid][fname];\n                        if (now >= g.deadline) {\n                                // voting data reset\n                                for (uint i = 0; i < g.approvers.length; i++) \n                                        g.approved[g.approvers[i]] = false;\n                                delete g.approvers;\n                        } else\n                                require(!g.approved[msg.sender]);\n\n                        g.approved[msg.sender] = true;\n                        g.approvers.push(msg.sender);\n                        if (g.approvers.length == 1) g.deadline = now + voteWindow; \n\n                        if (now < g.deadline && g.approvers.length * 100 >= e.payers.length * g.quorum) {\n                                g.deadline = now - 1; // trigger voting data reset\n                                return true;\n\n                        }\n                }\n        }\n\n        function handshakesOf(address uadr) public view returns (uint[] result){\n                uint n;\n                for (uint i = handshakes.length - 1; i >= 1; i--) \n                        if (payee[i] == uadr || \n                            (payer[i][uadr] == P.Pending || payer[i][uadr] == P.Shaked)) \n                                n++;\n\n                result = new uint[](n);\n\n                uint k;\n                for (uint j = handshakes.length - 1; j >= 1; j--) \n                        if (payee[j] == uadr || \n                            (payer[j][uadr] == P.Pending || payer[j][uadr] == P.Shaked))\n                                result[k++] = j;\n        }\n}\n",
  "sourcePath": "/Users/Phuong_Mac/Dropbox/autonomous/handshake/contracts/core/HandshakeProtocol.sol",
  "compiler": {
    "name": "solc",
    "version": "0.4.23+commit.124ca40d.Emscripten.clang"
  },
  "schemaVersion": "2.0.0",
  "updatedAt": "2018-05-16T07:23:01.731Z"
}