{
  "contractName": "PayableHandshake",
  "abi": [
    {
      "constant": true,
      "inputs": [
        {
          "name": "",
          "type": "uint256"
        }
      ],
      "name": "pm",
      "outputs": [
        {
          "name": "payee",
          "type": "address"
        },
        {
          "name": "payer",
          "type": "address"
        },
        {
          "name": "value",
          "type": "uint256"
        },
        {
          "name": "state",
          "type": "uint8"
        },
        {
          "name": "deadline",
          "type": "uint256"
        }
      ],
      "payable": false,
      "stateMutability": "view",
      "type": "function"
    },
    {
      "constant": true,
      "inputs": [],
      "name": "resolveWindow",
      "outputs": [
        {
          "name": "",
          "type": "uint256"
        }
      ],
      "payable": false,
      "stateMutability": "view",
      "type": "function"
    },
    {
      "constant": true,
      "inputs": [],
      "name": "reviewWindow",
      "outputs": [
        {
          "name": "",
          "type": "uint256"
        }
      ],
      "payable": false,
      "stateMutability": "view",
      "type": "function"
    },
    {
      "anonymous": false,
      "inputs": [
        {
          "indexed": false,
          "name": "hid",
          "type": "uint256"
        },
        {
          "indexed": false,
          "name": "payee",
          "type": "address"
        },
        {
          "indexed": false,
          "name": "payer",
          "type": "address"
        },
        {
          "indexed": false,
          "name": "offchain",
          "type": "bytes32"
        }
      ],
      "name": "__init",
      "type": "event"
    },
    {
      "anonymous": false,
      "inputs": [
        {
          "indexed": false,
          "name": "hid",
          "type": "uint256"
        },
        {
          "indexed": false,
          "name": "offchain",
          "type": "bytes32"
        }
      ],
      "name": "__shake",
      "type": "event"
    },
    {
      "anonymous": false,
      "inputs": [
        {
          "indexed": false,
          "name": "hid",
          "type": "uint256"
        },
        {
          "indexed": false,
          "name": "offchain",
          "type": "bytes32"
        }
      ],
      "name": "__deliver",
      "type": "event"
    },
    {
      "anonymous": false,
      "inputs": [
        {
          "indexed": false,
          "name": "hid",
          "type": "uint256"
        },
        {
          "indexed": false,
          "name": "offchain",
          "type": "bytes32"
        }
      ],
      "name": "__withdraw",
      "type": "event"
    },
    {
      "anonymous": false,
      "inputs": [
        {
          "indexed": false,
          "name": "hid",
          "type": "uint256"
        },
        {
          "indexed": false,
          "name": "offchain",
          "type": "bytes32"
        }
      ],
      "name": "__reject",
      "type": "event"
    },
    {
      "anonymous": false,
      "inputs": [
        {
          "indexed": false,
          "name": "hid",
          "type": "uint256"
        },
        {
          "indexed": false,
          "name": "offchain",
          "type": "bytes32"
        }
      ],
      "name": "__accept",
      "type": "event"
    },
    {
      "anonymous": false,
      "inputs": [
        {
          "indexed": false,
          "name": "hid",
          "type": "uint256"
        },
        {
          "indexed": false,
          "name": "offchain",
          "type": "bytes32"
        }
      ],
      "name": "__cancel",
      "type": "event"
    },
    {
      "constant": false,
      "inputs": [
        {
          "name": "payer",
          "type": "address"
        },
        {
          "name": "value",
          "type": "uint256"
        },
        {
          "name": "deadline",
          "type": "uint256"
        },
        {
          "name": "offchain",
          "type": "bytes32"
        }
      ],
      "name": "init",
      "outputs": [],
      "payable": false,
      "stateMutability": "nonpayable",
      "type": "function"
    },
    {
      "constant": false,
      "inputs": [
        {
          "name": "payee",
          "type": "address"
        },
        {
          "name": "value",
          "type": "uint256"
        },
        {
          "name": "deadline",
          "type": "uint256"
        },
        {
          "name": "offchain",
          "type": "bytes32"
        }
      ],
      "name": "initByPayer",
      "outputs": [],
      "payable": true,
      "stateMutability": "payable",
      "type": "function"
    },
    {
      "constant": false,
      "inputs": [
        {
          "name": "hid",
          "type": "uint256"
        },
        {
          "name": "offchain",
          "type": "bytes32"
        }
      ],
      "name": "shake",
      "outputs": [],
      "payable": true,
      "stateMutability": "payable",
      "type": "function"
    },
    {
      "constant": false,
      "inputs": [
        {
          "name": "hid",
          "type": "uint256"
        },
        {
          "name": "offchain",
          "type": "bytes32"
        }
      ],
      "name": "deliver",
      "outputs": [],
      "payable": false,
      "stateMutability": "nonpayable",
      "type": "function"
    },
    {
      "constant": false,
      "inputs": [
        {
          "name": "hid",
          "type": "uint256"
        },
        {
          "name": "offchain",
          "type": "bytes32"
        }
      ],
      "name": "withdraw",
      "outputs": [],
      "payable": false,
      "stateMutability": "nonpayable",
      "type": "function"
    },
    {
      "constant": false,
      "inputs": [
        {
          "name": "hid",
          "type": "uint256"
        },
        {
          "name": "offchain",
          "type": "bytes32"
        }
      ],
      "name": "reject",
      "outputs": [],
      "payable": false,
      "stateMutability": "nonpayable",
      "type": "function"
    },
    {
      "constant": false,
      "inputs": [
        {
          "name": "hid",
          "type": "uint256"
        },
        {
          "name": "offchain",
          "type": "bytes32"
        }
      ],
      "name": "accept",
      "outputs": [],
      "payable": false,
      "stateMutability": "nonpayable",
      "type": "function"
    },
    {
      "constant": false,
      "inputs": [
        {
          "name": "hid",
          "type": "uint256"
        },
        {
          "name": "offchain",
          "type": "bytes32"
        }
      ],
      "name": "cancel",
      "outputs": [],
      "payable": false,
      "stateMutability": "nonpayable",
      "type": "function"
    }
  ],
  "bytecode": "0x608060405262093a806000556212750060015534801561001e57600080fd5b506114028061002e6000396000f3006080604052600436106100af576000357c0100000000000000000000000000000000000000000000000000000000900463ffffffff1680631506ae59146100b4578063209fd9711461010c57806321cf39ee146101cf5780635203dcda146101fa5780636be1320b14610235578063867d0dd4146102705780639ca4218f146102d5578063a8d2021a14610300578063b09b2f851461033b578063d9b42a7f14610369578063eafb64d5146103a4575b600080fd5b61010a600480360381019080803573ffffffffffffffffffffffffffffffffffffffff169060200190929190803590602001909291908035906020019092919080356000191690602001909291905050506103df565b005b34801561011857600080fd5b50610137600480360381019080803590602001909291905050506106ab565b604051808673ffffffffffffffffffffffffffffffffffffffff1673ffffffffffffffffffffffffffffffffffffffff1681526020018573ffffffffffffffffffffffffffffffffffffffff1673ffffffffffffffffffffffffffffffffffffffff1681526020018481526020018360058111156101b157fe5b60ff1681526020018281526020019550505050505060405180910390f35b3480156101db57600080fd5b506101e461073d565b6040518082815260200191505060405180910390f35b34801561020657600080fd5b50610233600480360381019080803590602001909291908035600019169060200190929190505050610743565b005b34801561024157600080fd5b5061026e60048036038101908080359060200190929190803560001916906020019092919050505061089d565b005b34801561027c57600080fd5b506102d3600480360381019080803573ffffffffffffffffffffffffffffffffffffffff169060200190929190803590602001909291908035906020019092919080356000191690602001909291905050506109f8565b005b3480156102e157600080fd5b506102ea610c43565b6040518082815260200191505060405180910390f35b34801561030c57600080fd5b50610339600480360381019080803590602001909291908035600019169060200190929190505050610c49565b005b610367600480360381019080803590602001909291908035600019169060200190929190505050610ded565b005b34801561037557600080fd5b506103a2600480360381019080803590602001909291908035600019169060200190929190505050611031565b005b3480156103b057600080fd5b506103dd600480360381019080803590602001909291908035600019169060200190929190505050611185565b005b6103e761136f565b8334101515156103f657600080fd5b84816000019073ffffffffffffffffffffffffffffffffffffffff16908173ffffffffffffffffffffffffffffffffffffffff168152505033816020019073ffffffffffffffffffffffffffffffffffffffff16908173ffffffffffffffffffffffffffffffffffffffff16815250508381604001818152505060018160600190600581111561048257fe5b9081600581111561048f57fe5b815250506001830242018160800181815250506002819080600181540180825580915050906001820390600052602060002090600502016000909192909190915060008201518160000160006101000a81548173ffffffffffffffffffffffffffffffffffffffff021916908373ffffffffffffffffffffffffffffffffffffffff16021790555060208201518160010160006101000a81548173ffffffffffffffffffffffffffffffffffffffff021916908373ffffffffffffffffffffffffffffffffffffffff1602179055506040820151816002015560608201518160030160006101000a81548160ff0219169083600581111561058c57fe5b0217905550608082015181600401555050507fbde301cda1a53e4996e7061649145cdb878697bd928c5344ad670f867666807d600160028054905003863385604051808581526020018473ffffffffffffffffffffffffffffffffffffffff1673ffffffffffffffffffffffffffffffffffffffff1681526020018373ffffffffffffffffffffffffffffffffffffffff1673ffffffffffffffffffffffffffffffffffffffff168152602001826000191660001916815260200194505050505060405180910390a17f6a5ee55c9df2daa4375d2b5e4ec8b9e5662f1863207bcbe6e38c6f5fe3c24300600160028054905003836040518083815260200182600019166000191681526020019250505060405180910390a15050505050565b6002818154811015156106ba57fe5b90600052602060002090600502016000915090508060000160009054906101000a900473ffffffffffffffffffffffffffffffffffffffff16908060010160009054906101000a900473ffffffffffffffffffffffffffffffffffffffff16908060020154908060030160009054906101000a900460ff16908060040154905085565b60015481565b8160028181548110151561075357fe5b906000526020600020906005020160010160009054906101000a900473ffffffffffffffffffffffffffffffffffffffff1673ffffffffffffffffffffffffffffffffffffffff163373ffffffffffffffffffffffffffffffffffffffff161415156107be57600080fd5b600360058111156107cb57fe5b6002848154811015156107da57fe5b906000526020600020906005020160030160009054906101000a900460ff16600581111561080457fe5b14151561081057600080fd5b6002808481548110151561082057fe5b906000526020600020906005020160030160006101000a81548160ff0219169083600581111561084c57fe5b02179055507fbda7bc7c8123a85aa855c777d3191b2dc42bec38c45638643006fb84e76abf7a83836040518083815260200182600019166000191681526020019250505060405180910390a1505050565b816002818154811015156108ad57fe5b906000526020600020906005020160010160009054906101000a900473ffffffffffffffffffffffffffffffffffffffff1673ffffffffffffffffffffffffffffffffffffffff163373ffffffffffffffffffffffffffffffffffffffff1614151561091857600080fd5b6002600581111561092557fe5b60028481548110151561093457fe5b906000526020600020906005020160030160009054906101000a900460ff16600581111561095e57fe5b14151561096a57600080fd5b600360028481548110151561097b57fe5b906000526020600020906005020160030160006101000a81548160ff021916908360058111156109a757fe5b02179055507fae76720f3a5d319b91bc94d8a6c2e3096a4f3554c8cb897e3aedfced5824a10a83836040518083815260200182600019166000191681526020019250505060405180910390a1505050565b610a0061136f565b33816000019073ffffffffffffffffffffffffffffffffffffffff16908173ffffffffffffffffffffffffffffffffffffffff168152505084816020019073ffffffffffffffffffffffffffffffffffffffff16908173ffffffffffffffffffffffffffffffffffffffff1681525050838160400181815250506001830242018160800181815250506002819080600181540180825580915050906001820390600052602060002090600502016000909192909190915060008201518160000160006101000a81548173ffffffffffffffffffffffffffffffffffffffff021916908373ffffffffffffffffffffffffffffffffffffffff16021790555060208201518160010160006101000a81548173ffffffffffffffffffffffffffffffffffffffff021916908373ffffffffffffffffffffffffffffffffffffffff1602179055506040820151816002015560608201518160030160006101000a81548160ff02191690836005811115610b7357fe5b0217905550608082015181600401555050507fbde301cda1a53e4996e7061649145cdb878697bd928c5344ad670f867666807d600160028054905003338785604051808581526020018473ffffffffffffffffffffffffffffffffffffffff1673ffffffffffffffffffffffffffffffffffffffff1681526020018373ffffffffffffffffffffffffffffffffffffffff1673ffffffffffffffffffffffffffffffffffffffff168152602001826000191660001916815260200194505050505060405180910390a15050505050565b60005481565b600082600281815481101515610c5b57fe5b906000526020600020906005020160000160009054906101000a900473ffffffffffffffffffffffffffffffffffffffff1673ffffffffffffffffffffffffffffffffffffffff163373ffffffffffffffffffffffffffffffffffffffff16141515610cc657600080fd5b600284815481101515610cd557fe5b9060005260206000209060050201915060026005811115610cf257fe5b8260030160009054906101000a900460ff166005811115610d0f57fe5b148015610d2457506000548260040154014210155b1515610d2f57600080fd5b60048260030160006101000a81548160ff02191690836005811115610d5057fe5b02179055503373ffffffffffffffffffffffffffffffffffffffff166108fc83600201549081150290604051600060405180830381858888f19350505050158015610d9f573d6000803e3d6000fd5b507f86e48a712d324364a79089a18be31e993ed6bda36550b789f988e7aaf9ed7cf884846040518083815260200182600019166000191681526020019250505060405180910390a150505050565b60006005811115610dfa57fe5b600283815481101515610e0957fe5b906000526020600020906005020160030160009054906101000a900460ff166005811115610e3357fe5b148015610e605750600282815481101515610e4a57fe5b9060005260206000209060050201600201543410155b1515610e6b57600080fd5b6000600283815481101515610e7c57fe5b906000526020600020906005020160010160009054906101000a900473ffffffffffffffffffffffffffffffffffffffff1673ffffffffffffffffffffffffffffffffffffffff161415610f2a5733600283815481101515610eda57fe5b906000526020600020906005020160010160006101000a81548173ffffffffffffffffffffffffffffffffffffffff021916908373ffffffffffffffffffffffffffffffffffffffff1602179055505b600282815481101515610f3957fe5b906000526020600020906005020160010160009054906101000a900473ffffffffffffffffffffffffffffffffffffffff1673ffffffffffffffffffffffffffffffffffffffff163373ffffffffffffffffffffffffffffffffffffffff16141515610fa457600080fd5b7f6a5ee55c9df2daa4375d2b5e4ec8b9e5662f1863207bcbe6e38c6f5fe3c2430082826040518083815260200182600019166000191681526020019250505060405180910390a16001600283815481101515610ffc57fe5b906000526020600020906005020160030160006101000a81548160ff0219169083600581111561102857fe5b02179055505050565b60008260028181548110151561104357fe5b906000526020600020906005020160000160009054906101000a900473ffffffffffffffffffffffffffffffffffffffff1673ffffffffffffffffffffffffffffffffffffffff163373ffffffffffffffffffffffffffffffffffffffff161415156110ae57600080fd5b6002848154811015156110bd57fe5b90600052602060002090600502019150600160058111156110da57fe5b8260030160009054906101000a900460ff1660058111156110f757fe5b1480156111075750816004015442105b151561111257600080fd5b60028260030160006101000a81548160ff0219169083600581111561113357fe5b02179055507fbbcce4bacf86438e14f37ed3f9c49f2f2a4e710dd64ba30805d096113bac7fad84846040518083815260200182600019166000191681526020019250505060405180910390a150505050565b60008260028181548110151561119757fe5b906000526020600020906005020160010160009054906101000a900473ffffffffffffffffffffffffffffffffffffffff1673ffffffffffffffffffffffffffffffffffffffff163373ffffffffffffffffffffffffffffffffffffffff1614151561120257600080fd5b60028481548110151561121157fe5b906000526020600020906005020191506003600581111561122e57fe5b8260030160009054906101000a900460ff16600581111561124b57fe5b1480156112645750600154600054836004015401014210155b806112a657506001600581111561127757fe5b8260030160009054906101000a900460ff16600581111561129457fe5b1480156112a5575081600401544210155b5b15156112b157600080fd5b60058260030160006101000a81548160ff021916908360058111156112d257fe5b02179055503373ffffffffffffffffffffffffffffffffffffffff166108fc83600201549081150290604051600060405180830381858888f19350505050158015611321573d6000803e3d6000fd5b507fcb720f90f098c425fad2e9df556017c076f9bf7aefa096d1c904a06027ae046084846040518083815260200182600019166000191681526020019250505060405180910390a150505050565b60a060405190810160405280600073ffffffffffffffffffffffffffffffffffffffff168152602001600073ffffffffffffffffffffffffffffffffffffffff16815260200160008152602001600060058111156113c957fe5b81526020016000815250905600a165627a7a72305820be493d2787e74ba92880614920134b2230ac19213a23b05ce60eb099c775d0100029",
  "source": "pragma solidity ^0.4.18;\n\n\n/**\n * @title PayableHandshake\n * @author Autonomous\n * @dev PayableHandshake allows payer to send funds for a handshake and payee withdraw funds if their deliver is accepted\n */\ncontract PayableHandshake {\n\n    enum S { Inited, Shaked, Accepted, Rejected, Done, Cancelled }\n\n    struct Payable {\n        address payee;\n        address payer;\n        uint value;\n        S state;\n        uint deadline;\n    }\n\n    uint public reviewWindow = 7 days;\n    uint public resolveWindow = 14 days;\n\n    Payable[] public pm;\n\n    /**\n    * Events\n    * @param hid ID of the handshake\n    * @param offchain record ID in offchain backend database (help us retrieve user information)\n    * @param payee address of the handshake's payee\n    * @param payer address of the handshake's payer\n    */\n    event __init(uint hid, address payee, address payer, bytes32 offchain);\n    event __shake(uint hid, bytes32 offchain);\n    event __deliver(uint hid, bytes32 offchain);\n    event __withdraw(uint hid, bytes32 offchain);\n    event __reject(uint hid, bytes32 offchain);\n    event __accept(uint hid, bytes32 offchain);\n    event __cancel(uint hid, bytes32 offchain);\n\n    //success if sender is payee\n    modifier onlyPayee(uint hid) {\n        require(msg.sender == pm[hid].payee);\n        _;\n    }\n\n    //success if sender is payer\n    modifier onlyPayer(uint hid) {\n        require(msg.sender == pm[hid].payer);\n        _;\n    }\n\n    /**\n    * @dev Initiate handshake by Payee\n    * @param payer payer address\n    * @param value funds required for this handshake\n    * @param deadline deadline for this handshake\n    * @param offchain record ID in offchain backend database\n    */\n    function init(\n        address payer,\n        uint value,\n        uint deadline,\n        bytes32 offchain\n    )\n        public\n    {\n        Payable memory p;\n        p.payee = msg.sender;\n        p.payer = payer;\n        p.value = value;\n        p.deadline = now + deadline * 1 seconds;\n        pm.push(p);\n        __init(pm.length - 1, msg.sender, payer, offchain);\n    }\n\n    /**\n    * @dev Initiate handshake by Payer\n    * @param payee payee address\n    */\n    function initByPayer(\n        address payee,\n        uint value,\n        uint deadline, // in seconds\n        bytes32 offchain\n    )\n        public\n        payable\n    {\n        require(msg.value >= value);\n        Payable memory p;\n        p.payee = payee;\n        p.payer = msg.sender;\n        p.value = value;\n        p.state = S.Shaked;\n        p.deadline = now + deadline * 1 seconds;\n        pm.push(p);\n        __init(pm.length - 1, payee, msg.sender, offchain);\n        __shake(pm.length - 1, offchain);\n    }\n\n    //Payer agree and make a handshake\n    function shake(uint hid, bytes32 offchain) public payable {\n        require(pm[hid].state == S.Inited && msg.value >= pm[hid].value);\n        if (pm[hid].payer == 0x0) pm[hid].payer = msg.sender;\n        require(msg.sender == pm[hid].payer);\n        __shake(hid, offchain);\n        pm[hid].state = S.Shaked;\n    }\n\n    //Payee delivered item\n    function deliver(uint hid, bytes32 offchain) public onlyPayee(hid) {\n        Payable storage p = pm[hid];\n        require(p.state == S.Shaked && now < p.deadline);\n        p.state = S.Accepted;\n        __deliver(hid, offchain);\n    }\n\n    //Payee withdraw funds from a handshake\n    function withdraw(uint hid, bytes32 offchain) public onlyPayee(hid) {\n        Payable storage p = pm[hid];\n        require(p.state == S.Accepted && now >= p.deadline + reviewWindow);\n        p.state = S.Done;\n\n        msg.sender.transfer(p.value);\n        __withdraw(hid, offchain);\n    }\n\n    //Payer reject the deliver\n    function reject(uint hid, bytes32 offchain) public onlyPayer(hid) {\n        require(pm[hid].state == S.Accepted);\n        pm[hid].state = S.Rejected;\n        __reject(hid, offchain);\n    }\n\n    //Payer accept the deliver\n    function accept(uint hid, bytes32 offchain) public onlyPayer(hid) {\n        require(pm[hid].state == S.Rejected);\n        pm[hid].state = S.Accepted;\n        __accept(hid, offchain);\n    }\n\n    //Payer cancel the handshake\n    function cancel(uint hid, bytes32 offchain) public onlyPayer(hid) {\n        Payable storage p = pm[hid];\n        require((p.state == S.Rejected && now >= p.deadline + reviewWindow + resolveWindow)\n                || (p.state == S.Shaked && now >= p.deadline));\n\n        p.state = S.Cancelled;\n        msg.sender.transfer(p.value);\n        __cancel(hid, offchain);\n    }\n}\n",
  "sourcePath": "/Users/Phuong_Mac/Dropbox/autonomous/handshake/contracts/core/PayableHandshake.sol",
  "compiler": {
    "name": "solc",
    "version": "0.4.23+commit.124ca40d.Emscripten.clang"
  },
  "schemaVersion": "2.0.0",
  "updatedAt": "2018-05-17T04:37:30.576Z"
}