{
  "contractName": "PredictionHandshake",
  "abi": [
    {
      "constant": true,
      "inputs": [],
      "name": "total",
      "outputs": [
        {
          "name": "",
          "type": "uint256"
        }
      ],
      "payable": false,
      "stateMutability": "view",
      "type": "function"
    },
    {
      "constant": true,
      "inputs": [],
      "name": "NETWORK_FEE",
      "outputs": [
        {
          "name": "",
          "type": "uint256"
        }
      ],
      "payable": false,
      "stateMutability": "view",
      "type": "function"
    },
    {
      "constant": true,
      "inputs": [
        {
          "name": "",
          "type": "uint256"
        }
      ],
      "name": "markets",
      "outputs": [
        {
          "name": "creator",
          "type": "address"
        },
        {
          "name": "fee",
          "type": "uint256"
        },
        {
          "name": "source",
          "type": "bytes32"
        },
        {
          "name": "closingTime",
          "type": "uint256"
        },
        {
          "name": "reportTime",
          "type": "uint256"
        },
        {
          "name": "disputeTime",
          "type": "uint256"
        },
        {
          "name": "state",
          "type": "uint256"
        },
        {
          "name": "outcome",
          "type": "uint256"
        },
        {
          "name": "totalOpenStake",
          "type": "uint256"
        },
        {
          "name": "totalMatchedStake",
          "type": "uint256"
        },
        {
          "name": "disputeMatchedStake",
          "type": "uint256"
        },
        {
          "name": "resolved",
          "type": "bool"
        }
      ],
      "payable": false,
      "stateMutability": "view",
      "type": "function"
    },
    {
      "constant": true,
      "inputs": [],
      "name": "DISPUTE_THRESHOLD",
      "outputs": [
        {
          "name": "",
          "type": "uint256"
        }
      ],
      "payable": false,
      "stateMutability": "view",
      "type": "function"
    },
    {
      "constant": true,
      "inputs": [],
      "name": "EXPIRATION",
      "outputs": [
        {
          "name": "",
          "type": "uint256"
        }
      ],
      "payable": false,
      "stateMutability": "view",
      "type": "function"
    },
    {
      "constant": true,
      "inputs": [],
      "name": "root",
      "outputs": [
        {
          "name": "",
          "type": "address"
        }
      ],
      "payable": false,
      "stateMutability": "view",
      "type": "function"
    },
    {
      "constant": true,
      "inputs": [],
      "name": "ODDS_1",
      "outputs": [
        {
          "name": "",
          "type": "uint256"
        }
      ],
      "payable": false,
      "stateMutability": "view",
      "type": "function"
    },
    {
      "inputs": [],
      "payable": false,
      "stateMutability": "nonpayable",
      "type": "constructor"
    },
    {
      "anonymous": false,
      "inputs": [
        {
          "indexed": false,
          "name": "hid",
          "type": "uint256"
        },
        {
          "indexed": false,
          "name": "offchain",
          "type": "bytes32"
        }
      ],
      "name": "__createMarket",
      "type": "event"
    },
    {
      "anonymous": false,
      "inputs": [
        {
          "indexed": false,
          "name": "hid",
          "type": "uint256"
        },
        {
          "indexed": false,
          "name": "offchain",
          "type": "bytes32"
        }
      ],
      "name": "__init",
      "type": "event"
    },
    {
      "anonymous": false,
      "inputs": [
        {
          "indexed": false,
          "name": "stake",
          "type": "uint256"
        }
      ],
      "name": "__test__init",
      "type": "event"
    },
    {
      "anonymous": false,
      "inputs": [
        {
          "indexed": false,
          "name": "hid",
          "type": "uint256"
        },
        {
          "indexed": false,
          "name": "offchain",
          "type": "bytes32"
        }
      ],
      "name": "__uninitTestDrive",
      "type": "event"
    },
    {
      "anonymous": false,
      "inputs": [
        {
          "indexed": false,
          "name": "amount",
          "type": "uint256"
        }
      ],
      "name": "__withdrawTrial",
      "type": "event"
    },
    {
      "anonymous": false,
      "inputs": [
        {
          "indexed": false,
          "name": "hid",
          "type": "uint256"
        },
        {
          "indexed": false,
          "name": "offchain",
          "type": "bytes32"
        }
      ],
      "name": "__uninit",
      "type": "event"
    },
    {
      "anonymous": false,
      "inputs": [
        {
          "indexed": false,
          "name": "stake",
          "type": "uint256"
        }
      ],
      "name": "__test__uninit",
      "type": "event"
    },
    {
      "anonymous": false,
      "inputs": [
        {
          "indexed": false,
          "name": "hid",
          "type": "uint256"
        },
        {
          "indexed": false,
          "name": "offchain",
          "type": "bytes32"
        }
      ],
      "name": "__shake",
      "type": "event"
    },
    {
      "anonymous": false,
      "inputs": [
        {
          "indexed": false,
          "name": "stake",
          "type": "uint256"
        },
        {
          "indexed": false,
          "name": "payout",
          "type": "uint256"
        }
      ],
      "name": "__test__shake__taker__matched",
      "type": "event"
    },
    {
      "anonymous": false,
      "inputs": [
        {
          "indexed": false,
          "name": "stake",
          "type": "uint256"
        },
        {
          "indexed": false,
          "name": "payout",
          "type": "uint256"
        }
      ],
      "name": "__test__shake__maker__matched",
      "type": "event"
    },
    {
      "anonymous": false,
      "inputs": [
        {
          "indexed": false,
          "name": "stake",
          "type": "uint256"
        }
      ],
      "name": "__test__shake__maker__open",
      "type": "event"
    },
    {
      "anonymous": false,
      "inputs": [
        {
          "indexed": false,
          "name": "hid",
          "type": "uint256"
        },
        {
          "indexed": false,
          "name": "offchain",
          "type": "bytes32"
        }
      ],
      "name": "__collect",
      "type": "event"
    },
    {
      "anonymous": false,
      "inputs": [
        {
          "indexed": false,
          "name": "network",
          "type": "uint256"
        },
        {
          "indexed": false,
          "name": "market",
          "type": "uint256"
        },
        {
          "indexed": false,
          "name": "trader",
          "type": "uint256"
        }
      ],
      "name": "__test__collect",
      "type": "event"
    },
    {
      "anonymous": false,
      "inputs": [
        {
          "indexed": false,
          "name": "hid",
          "type": "uint256"
        },
        {
          "indexed": false,
          "name": "offchain",
          "type": "bytes32"
        }
      ],
      "name": "__refund",
      "type": "event"
    },
    {
      "anonymous": false,
      "inputs": [
        {
          "indexed": false,
          "name": "amt",
          "type": "uint256"
        }
      ],
      "name": "__test__refund",
      "type": "event"
    },
    {
      "anonymous": false,
      "inputs": [
        {
          "indexed": false,
          "name": "hid",
          "type": "uint256"
        },
        {
          "indexed": false,
          "name": "offchain",
          "type": "bytes32"
        }
      ],
      "name": "__report",
      "type": "event"
    },
    {
      "anonymous": false,
      "inputs": [
        {
          "indexed": false,
          "name": "hid",
          "type": "uint256"
        },
        {
          "indexed": false,
          "name": "state",
          "type": "uint256"
        },
        {
          "indexed": false,
          "name": "offchain",
          "type": "bytes32"
        }
      ],
      "name": "__dispute",
      "type": "event"
    },
    {
      "anonymous": false,
      "inputs": [
        {
          "indexed": false,
          "name": "hid",
          "type": "uint256"
        },
        {
          "indexed": false,
          "name": "offchain",
          "type": "bytes32"
        }
      ],
      "name": "__resolve",
      "type": "event"
    },
    {
      "anonymous": false,
      "inputs": [
        {
          "indexed": false,
          "name": "hid",
          "type": "uint256"
        },
        {
          "indexed": false,
          "name": "offchain",
          "type": "bytes32"
        }
      ],
      "name": "__shutdownMarket",
      "type": "event"
    },
    {
      "anonymous": false,
      "inputs": [
        {
          "indexed": false,
          "name": "offchain",
          "type": "bytes32"
        }
      ],
      "name": "__shutdownAllMarkets",
      "type": "event"
    },
    {
      "constant": true,
      "inputs": [
        {
          "name": "hid",
          "type": "uint256"
        },
        {
          "name": "side",
          "type": "uint256"
        },
        {
          "name": "user",
          "type": "address"
        },
        {
          "name": "userOdds",
          "type": "uint256"
        }
      ],
      "name": "getMatchedData",
      "outputs": [
        {
          "name": "",
          "type": "uint256"
        },
        {
          "name": "",
          "type": "uint256"
        },
        {
          "name": "",
          "type": "uint256"
        },
        {
          "name": "",
          "type": "uint256"
        }
      ],
      "payable": false,
      "stateMutability": "view",
      "type": "function"
    },
    {
      "constant": true,
      "inputs": [
        {
          "name": "hid",
          "type": "uint256"
        },
        {
          "name": "side",
          "type": "uint256"
        },
        {
          "name": "user",
          "type": "address"
        },
        {
          "name": "userOdds",
          "type": "uint256"
        }
      ],
      "name": "getOpenData",
      "outputs": [
        {
          "name": "",
          "type": "uint256"
        },
        {
          "name": "",
          "type": "uint256"
        },
        {
          "name": "",
          "type": "uint256"
        },
        {
          "name": "",
          "type": "uint256"
        }
      ],
      "payable": false,
      "stateMutability": "view",
      "type": "function"
    },
    {
      "constant": false,
      "inputs": [
        {
          "name": "fee",
          "type": "uint256"
        },
        {
          "name": "source",
          "type": "bytes32"
        },
        {
          "name": "closingWindow",
          "type": "uint256"
        },
        {
          "name": "reportWindow",
          "type": "uint256"
        },
        {
          "name": "disputeWindow",
          "type": "uint256"
        },
        {
          "name": "offchain",
          "type": "bytes32"
        }
      ],
      "name": "createMarket",
      "outputs": [],
      "payable": false,
      "stateMutability": "nonpayable",
      "type": "function"
    },
    {
      "constant": false,
      "inputs": [
        {
          "name": "hid",
          "type": "uint256"
        },
        {
          "name": "side",
          "type": "uint256"
        },
        {
          "name": "odds",
          "type": "uint256"
        },
        {
          "name": "offchain",
          "type": "bytes32"
        }
      ],
      "name": "init",
      "outputs": [],
      "payable": true,
      "stateMutability": "payable",
      "type": "function"
    },
    {
      "constant": false,
      "inputs": [
        {
          "name": "hid",
          "type": "uint256"
        },
        {
          "name": "side",
          "type": "uint256"
        },
        {
          "name": "odds",
          "type": "uint256"
        },
        {
          "name": "maker",
          "type": "address"
        },
        {
          "name": "offchain",
          "type": "bytes32"
        }
      ],
      "name": "initTestDrive",
      "outputs": [],
      "payable": true,
      "stateMutability": "payable",
      "type": "function"
    },
    {
      "constant": false,
      "inputs": [
        {
          "name": "hid",
          "type": "uint256"
        },
        {
          "name": "side",
          "type": "uint256"
        },
        {
          "name": "odds",
          "type": "uint256"
        },
        {
          "name": "maker",
          "type": "address"
        },
        {
          "name": "value",
          "type": "uint256"
        },
        {
          "name": "offchain",
          "type": "bytes32"
        }
      ],
      "name": "uninitTestDrive",
      "outputs": [],
      "payable": false,
      "stateMutability": "nonpayable",
      "type": "function"
    },
    {
      "constant": false,
      "inputs": [],
      "name": "withdrawTrial",
      "outputs": [],
      "payable": false,
      "stateMutability": "nonpayable",
      "type": "function"
    },
    {
      "constant": false,
      "inputs": [
        {
          "name": "hid",
          "type": "uint256"
        },
        {
          "name": "side",
          "type": "uint256"
        },
        {
          "name": "stake",
          "type": "uint256"
        },
        {
          "name": "odds",
          "type": "uint256"
        },
        {
          "name": "offchain",
          "type": "bytes32"
        }
      ],
      "name": "uninit",
      "outputs": [],
      "payable": false,
      "stateMutability": "nonpayable",
      "type": "function"
    },
    {
      "constant": false,
      "inputs": [
        {
          "name": "hid",
          "type": "uint256"
        },
        {
          "name": "side",
          "type": "uint256"
        },
        {
          "name": "takerOdds",
          "type": "uint256"
        },
        {
          "name": "maker",
          "type": "address"
        },
        {
          "name": "makerOdds",
          "type": "uint256"
        },
        {
          "name": "offchain",
          "type": "bytes32"
        }
      ],
      "name": "shake",
      "outputs": [],
      "payable": true,
      "stateMutability": "payable",
      "type": "function"
    },
    {
      "constant": false,
      "inputs": [
        {
          "name": "hid",
          "type": "uint256"
        },
        {
          "name": "side",
          "type": "uint256"
        },
        {
          "name": "taker",
          "type": "address"
        },
        {
          "name": "takerOdds",
          "type": "uint256"
        },
        {
          "name": "maker",
          "type": "address"
        },
        {
          "name": "makerOdds",
          "type": "uint256"
        },
        {
          "name": "offchain",
          "type": "bytes32"
        }
      ],
      "name": "shakeTestDrive",
      "outputs": [],
      "payable": true,
      "stateMutability": "payable",
      "type": "function"
    },
    {
      "constant": false,
      "inputs": [
        {
          "name": "hid",
          "type": "uint256"
        },
        {
          "name": "offchain",
          "type": "bytes32"
        }
      ],
      "name": "collect",
      "outputs": [],
      "payable": false,
      "stateMutability": "nonpayable",
      "type": "function"
    },
    {
      "constant": false,
      "inputs": [
        {
          "name": "hid",
          "type": "uint256"
        },
        {
          "name": "winner",
          "type": "address"
        },
        {
          "name": "offchain",
          "type": "bytes32"
        }
      ],
      "name": "collectTestDrive",
      "outputs": [],
      "payable": false,
      "stateMutability": "nonpayable",
      "type": "function"
    },
    {
      "constant": false,
      "inputs": [
        {
          "name": "hid",
          "type": "uint256"
        },
        {
          "name": "offchain",
          "type": "bytes32"
        }
      ],
      "name": "refund",
      "outputs": [],
      "payable": false,
      "stateMutability": "nonpayable",
      "type": "function"
    },
    {
      "constant": false,
      "inputs": [
        {
          "name": "hid",
          "type": "uint256"
        },
        {
          "name": "outcome",
          "type": "uint256"
        },
        {
          "name": "offchain",
          "type": "bytes32"
        }
      ],
      "name": "report",
      "outputs": [],
      "payable": false,
      "stateMutability": "nonpayable",
      "type": "function"
    },
    {
      "constant": false,
      "inputs": [
        {
          "name": "hid",
          "type": "uint256"
        },
        {
          "name": "offchain",
          "type": "bytes32"
        }
      ],
      "name": "dispute",
      "outputs": [],
      "payable": false,
      "stateMutability": "nonpayable",
      "type": "function"
    },
    {
      "constant": false,
      "inputs": [
        {
          "name": "hid",
          "type": "uint256"
        },
        {
          "name": "outcome",
          "type": "uint256"
        },
        {
          "name": "offchain",
          "type": "bytes32"
        }
      ],
      "name": "resolve",
      "outputs": [],
      "payable": false,
      "stateMutability": "nonpayable",
      "type": "function"
    },
    {
      "constant": false,
      "inputs": [
        {
          "name": "hid",
          "type": "uint256"
        },
        {
          "name": "offchain",
          "type": "bytes32"
        }
      ],
      "name": "shutdownMarket",
      "outputs": [],
      "payable": false,
      "stateMutability": "nonpayable",
      "type": "function"
    },
    {
      "constant": false,
      "inputs": [
        {
          "name": "offchain",
          "type": "bytes32"
        }
      ],
      "name": "shutdownAllMarkets",
      "outputs": [],
      "payable": false,
      "stateMutability": "nonpayable",
      "type": "function"
    }
  ],
  "bytecode": "0x608060405260146000556064600155600560025562278d0060035534801561002657600080fd5b5033600560006101000a81548173ffffffffffffffffffffffffffffffffffffffff021916908373ffffffffffffffffffffffffffffffffffffffff160217905550613f8d806100776000396000f300608060405260043610610149576000357c0100000000000000000000000000000000000000000000000000000000900463ffffffff1680631044a5f51461014e5780632ddbd13a146101895780634394f6f3146101b45780634e697f3c146101f65780635f25794a146102275780636361c0eb146102b157806367d528ad146102c857806371eedb88146103235780639be5c0241461035e5780639d56ded414610389578063a420d8d914610415578063a7d07c821461046e578063b1283e77146104b3578063b86c8cf414610579578063b9e9c8b4146105db578063bb4b573414610606578063ca5f001f14610631578063d320ac3014610698578063da676f2014610722578063de847ff814610767578063decea642146107a2578063ebf0c7171461080e578063f207640514610865578063f3692c3e146108de578063faf374a414610919575b600080fd5b34801561015a57600080fd5b50610187600480360381019080803590602001909291908035600019169060200190929190505050610944565b005b34801561019557600080fd5b5061019e610a74565b6040518082815260200191505060405180910390f35b6101f46004803603810190808035906020019092919080359060200190929190803590602001909291908035600019169060200190929190505050610a7a565b005b34801561020257600080fd5b506102256004803603810190808035600019169060200190929190505050610a8d565b005b34801561023357600080fd5b506102866004803603810190808035906020019092919080359060200190929190803573ffffffffffffffffffffffffffffffffffffffff16906020019092919080359060200190929190505050610b89565b6040518085815260200184815260200183815260200182815260200194505050505060405180910390f35b3480156102bd57600080fd5b506102c6610c97565b005b3480156102d457600080fd5b5061032160048036038101908080359060200190929190803573ffffffffffffffffffffffffffffffffffffffff1690602001909291908035600019169060200190929190505050610da1565b005b34801561032f57600080fd5b5061035c600480360381019080803590602001909291908035600019169060200190929190505050610e0d565b005b34801561036a57600080fd5b50610373611404565b6040518082815260200191505060405180910390f35b6104136004803603810190808035906020019092919080359060200190929190803573ffffffffffffffffffffffffffffffffffffffff16906020019092919080359060200190929190803573ffffffffffffffffffffffffffffffffffffffff16906020019092919080359060200190929190803560001916906020019092919050505061140a565b005b34801561042157600080fd5b5061046c60048036038101908080359060200190929190803590602001909291908035906020019092919080359060200190929190803560001916906020019092919050505061156d565b005b34801561047a57600080fd5b506104b160048036038101908080359060200190929190803590602001909291908035600019169060200190929190505050611b60565b005b3480156104bf57600080fd5b506104de60048036038101908080359060200190929190505050611c80565b604051808d73ffffffffffffffffffffffffffffffffffffffff1673ffffffffffffffffffffffffffffffffffffffff1681526020018c81526020018b600019166000191681526020018a8152602001898152602001888152602001878152602001868152602001858152602001848152602001838152602001821515151581526020019c5050505050505050505050505060405180910390f35b6105d9600480360381019080803590602001909291908035906020019092919080359060200190929190803573ffffffffffffffffffffffffffffffffffffffff1690602001909291908035600019169060200190929190505050611d1c565b005b3480156105e757600080fd5b506105f0611e7b565b6040518082815260200191505060405180910390f35b34801561061257600080fd5b5061061b611e81565b6040518082815260200191505060405180910390f35b34801561063d57600080fd5b506106966004803603810190808035906020019092919080356000191690602001909291908035906020019092919080359060200190929190803590602001909291908035600019169060200190929190505050611e87565b005b3480156106a457600080fd5b506106f76004803603810190808035906020019092919080359060200190929190803573ffffffffffffffffffffffffffffffffffffffff16906020019092919080359060200190929190505050612083565b6040518085815260200184815260200183815260200182815260200194505050505060405180910390f35b34801561072e57600080fd5b5061076560048036038101908080359060200190929190803590602001909291908035600019169060200190929190505050612191565b005b34801561077357600080fd5b506107a0600480360381019080803590602001909291908035600019169060200190929190505050612283565b005b61080c600480360381019080803590602001909291908035906020019092919080359060200190929190803573ffffffffffffffffffffffffffffffffffffffff1690602001909291908035906020019092919080356000191690602001909291905050506126e1565b005b34801561081a57600080fd5b506108236126f8565b604051808273ffffffffffffffffffffffffffffffffffffffff1673ffffffffffffffffffffffffffffffffffffffff16815260200191505060405180910390f35b34801561087157600080fd5b506108dc600480360381019080803590602001909291908035906020019092919080359060200190929190803573ffffffffffffffffffffffffffffffffffffffff16906020019092919080359060200190929190803560001916906020019092919050505061271e565b005b3480156108ea57600080fd5b50610917600480360381019080803590602001909291908035600019169060200190929190505050612b42565b005b34801561092557600080fd5b5061092e612d4b565b6040518082815260200191505060405180910390f35b6000600560009054906101000a900473ffffffffffffffffffffffffffffffffffffffff1673ffffffffffffffffffffffffffffffffffffffff163373ffffffffffffffffffffffffffffffffffffffff161415156109a257600080fd5b600354816005015401421115156109b857600080fd5b6004838154811015156109c757fe5b90600052602060002090600f020190503373ffffffffffffffffffffffffffffffffffffffff166108fc82600901548360080154019081150290604051600060405180830381858888f19350505050158015610a27573d6000803e3d6000fd5b507fcdfd2b8f7675828bf4d615be2f8a1d8a6f583924464ed2c496f92bb64614ae6c83836040518083815260200182600019166000191681526020019250505060405180910390a1505050565b60065481565b610a878484843385612d51565b50505050565b600560009054906101000a900473ffffffffffffffffffffffffffffffffffffffff1673ffffffffffffffffffffffffffffffffffffffff163373ffffffffffffffffffffffffffffffffffffffff16141515610ae957600080fd5b3373ffffffffffffffffffffffffffffffffffffffff166108fc3073ffffffffffffffffffffffffffffffffffffffff16319081150290604051600060405180830381858888f19350505050158015610b46573d6000803e3d6000fd5b507f58db8c11b5af117fa87459eb549bb838614b80efa1e465278272877b1b0f33368160405180826000191660001916815260200191505060405180910390a150565b600080600080600080600560009054906101000a900473ffffffffffffffffffffffffffffffffffffffff1673ffffffffffffffffffffffffffffffffffffffff163373ffffffffffffffffffffffffffffffffffffffff16141515610bee57600080fd5b60048a815481101515610bfd57fe5b90600052602060002090600f0201915081600c0160008973ffffffffffffffffffffffffffffffffffffffff1673ffffffffffffffffffffffffffffffffffffffff16815260200190815260200160002060008a8152602001908152602001600020905080600001548160010154888360020160008b81526020019081526020016000205495509550955095505050945094509450949050565b600560009054906101000a900473ffffffffffffffffffffffffffffffffffffffff1673ffffffffffffffffffffffffffffffffffffffff163373ffffffffffffffffffffffffffffffffffffffff16141515610cf357600080fd5b600560009054906101000a900473ffffffffffffffffffffffffffffffffffffffff1673ffffffffffffffffffffffffffffffffffffffff166108fc6006549081150290604051600060405180830381858888f19350505050158015610d5d573d6000803e3d6000fd5b507f55695de6b26d7ad9f5c580e5fe6656fe136d9217b3468db21fef3b3f8f89ff496006546040518082815260200191505060405180910390a16000600681905550565b600560009054906101000a900473ffffffffffffffffffffffffffffffffffffffff1673ffffffffffffffffffffffffffffffffffffffff163373ffffffffffffffffffffffffffffffffffffffff16141515610dfd57600080fd5b610e08838383612f5b565b505050565b600080836000600482815481101515610e2257fe5b90600052602060002090600f0201600d0160003373ffffffffffffffffffffffffffffffffffffffff1673ffffffffffffffffffffffffffffffffffffffff168152602001908152602001600020600060018152602001908152602001600020600001541180610f0457506000600482815481101515610e9e57fe5b90600052602060002090600f0201600d0160003373ffffffffffffffffffffffffffffffffffffffff1673ffffffffffffffffffffffffffffffffffffffff16815260200190815260200160002060006002815260200190815260200160002060000154115b80610f8157506000600482815481101515610f1b57fe5b90600052602060002090600f0201600c0160003373ffffffffffffffffffffffffffffffffffffffff1673ffffffffffffffffffffffffffffffffffffffff16815260200190815260200160002060006001815260200190815260200160002060000154115b80610ffe57506000600482815481101515610f9857fe5b90600052602060002090600f0201600c0160003373ffffffffffffffffffffffffffffffffffffffff1673ffffffffffffffffffffffffffffffffffffffff16815260200190815260200160002060006002815260200190815260200160002060000154115b151561100957600080fd5b60048581548110151561101857fe5b90600052602060002090600f020192506001836006015414151561103b57600080fd5b82600401544211151561104d57600080fd5b82600d0160003373ffffffffffffffffffffffffffffffffffffffff1673ffffffffffffffffffffffffffffffffffffffff168152602001908152602001600020600060018152602001908152602001600020600001548201915082600d0160003373ffffffffffffffffffffffffffffffffffffffff1673ffffffffffffffffffffffffffffffffffffffff168152602001908152602001600020600060028152602001908152602001600020600001548201915082600c0160003373ffffffffffffffffffffffffffffffffffffffff1673ffffffffffffffffffffffffffffffffffffffff168152602001908152602001600020600060018152602001908152602001600020600001548201915082600c0160003373ffffffffffffffffffffffffffffffffffffffff1673ffffffffffffffffffffffffffffffffffffffff16815260200190815260200160002060006002815260200190815260200160002060000154820191506000821115156111c857600080fd5b600083600d0160003373ffffffffffffffffffffffffffffffffffffffff1673ffffffffffffffffffffffffffffffffffffffff16815260200190815260200160002060006001815260200190815260200160002060000181905550600083600d0160003373ffffffffffffffffffffffffffffffffffffffff1673ffffffffffffffffffffffffffffffffffffffff16815260200190815260200160002060006002815260200190815260200160002060000181905550600083600c0160003373ffffffffffffffffffffffffffffffffffffffff1673ffffffffffffffffffffffffffffffffffffffff16815260200190815260200160002060006001815260200190815260200160002060000181905550600083600c0160003373ffffffffffffffffffffffffffffffffffffffff1673ffffffffffffffffffffffffffffffffffffffff168152602001908152602001600020600060028152602001908152602001600020600001819055503373ffffffffffffffffffffffffffffffffffffffff166108fc839081150290604051600060405180830381858888f1935050505015801561137e573d6000803e3d6000fd5b507f6fe9fe9590d9b235fcb84468bf92bf905ca3795c7c284fa06eec9b10776ea4b485856040518083815260200182600019166000191681526020019250505060405180910390a17fe518c6999b8fc54688a71bb20779df78e259f03f0118b6e5c13099dd3dd4ebf4826040518082815260200191505060405180910390a15050505050565b60005481565b600560009054906101000a900473ffffffffffffffffffffffffffffffffffffffff1673ffffffffffffffffffffffffffffffffffffffff163373ffffffffffffffffffffffffffffffffffffffff1614151561146657600080fd5b86600760003373ffffffffffffffffffffffffffffffffffffffff1673ffffffffffffffffffffffffffffffffffffffff1681526020019081526020016000206000018190555085600760003373ffffffffffffffffffffffffffffffffffffffff1673ffffffffffffffffffffffffffffffffffffffff1681526020019081526020016000206001018190555034600760003373ffffffffffffffffffffffffffffffffffffffff1673ffffffffffffffffffffffffffffffffffffffff16815260200190815260200160002060020160008681526020019081526020016000206000828254019250508190555061156487878787878787613685565b50505050505050565b60008086600060048281548110151561158257fe5b90600052602060002090600f0201600d0160003373ffffffffffffffffffffffffffffffffffffffff1673ffffffffffffffffffffffffffffffffffffffff168152602001908152602001600020600060018152602001908152602001600020600001541180611664575060006004828154811015156115fe57fe5b90600052602060002090600f0201600d0160003373ffffffffffffffffffffffffffffffffffffffff1673ffffffffffffffffffffffffffffffffffffffff16815260200190815260200160002060006002815260200190815260200160002060000154115b806116e15750600060048281548110151561167b57fe5b90600052602060002090600f0201600c0160003373ffffffffffffffffffffffffffffffffffffffff1673ffffffffffffffffffffffffffffffffffffffff16815260200190815260200160002060006001815260200190815260200160002060000154115b8061175e575060006004828154811015156116f857fe5b90600052602060002090600f0201600c0160003373ffffffffffffffffffffffffffffffffffffffff1673ffffffffffffffffffffffffffffffffffffffff16815260200190815260200160002060006002815260200190815260200160002060000154115b151561176957600080fd5b60048881548110151561177857fe5b90600052602060002090600f0201925087600760003373ffffffffffffffffffffffffffffffffffffffff1673ffffffffffffffffffffffffffffffffffffffff1681526020019081526020016000206000015414801561181a575086600760003373ffffffffffffffffffffffffffffffffffffffff1673ffffffffffffffffffffffffffffffffffffffff16815260200190815260200160002060010154145b1561187657600760003373ffffffffffffffffffffffffffffffffffffffff1673ffffffffffffffffffffffffffffffffffffffff16815260200190815260200160002060020160008681526020019081526020016000205491505b858284600c0160003373ffffffffffffffffffffffffffffffffffffffff1673ffffffffffffffffffffffffffffffffffffffff16815260200190815260200160002060008a81526020019081526020016000206000015403101515156118dc57600080fd5b858284600c0160003373ffffffffffffffffffffffffffffffffffffffff1673ffffffffffffffffffffffffffffffffffffffff16815260200190815260200160002060008a8152602001908152602001600020600201600088815260200190815260200160002054031015151561195357600080fd5b8583600c0160003373ffffffffffffffffffffffffffffffffffffffff1673ffffffffffffffffffffffffffffffffffffffff1681526020019081526020016000206000898152602001908152602001600020600001600082825403925050819055508583600c0160003373ffffffffffffffffffffffffffffffffffffffff1673ffffffffffffffffffffffffffffffffffffffff16815260200190815260200160002060008981526020019081526020016000206002016000878152602001908152602001600020600082825403925050819055508583600801600082825403925050819055503373ffffffffffffffffffffffffffffffffffffffff166108fc879081150290604051600060405180830381858888f19350505050158015611a82573d6000803e3d6000fd5b507fab0e14e0a016fa8a0d17ecf0051bf0b27117e332369e6660521a8969574c272d88856040518083815260200182600019166000191681526020019250505060405180910390a17f30f13748a6589be9202bec03bb7695d7130248949254c600de71e04ad970633c83600c0160003373ffffffffffffffffffffffffffffffffffffffff1673ffffffffffffffffffffffffffffffffffffffff1681526020019081526020016000206000898152602001908152602001600020600001546040518082815260200191505060405180910390a15050505050505050565b6000600560009054906101000a900473ffffffffffffffffffffffffffffffffffffffff1673ffffffffffffffffffffffffffffffffffffffff163373ffffffffffffffffffffffffffffffffffffffff16141515611bbe57600080fd5b600484815481101515611bcd57fe5b90600052602060002090600f0201905060038160060154141515611bf057600080fd5b600181600b0160006101000a81548160ff02191690831515021790555082816007018190555060008314611c25576002611c28565b60015b60ff1681600601819055507f43db73c3d115ee5896bed665630bc1f24065e21274b5dbc4acc4a84bb682d58a84836040518083815260200182600019166000191681526020019250505060405180910390a150505050565b600481815481101515611c8f57fe5b90600052602060002090600f02016000915090508060000160009054906101000a900473ffffffffffffffffffffffffffffffffffffffff169080600101549080600201549080600301549080600401549080600501549080600601549080600701549080600801549080600901549080600a01549080600b0160009054906101000a900460ff1690508c565b600560009054906101000a900473ffffffffffffffffffffffffffffffffffffffff1673ffffffffffffffffffffffffffffffffffffffff163373ffffffffffffffffffffffffffffffffffffffff16141515611d7857600080fd5b84600760008473ffffffffffffffffffffffffffffffffffffffff1673ffffffffffffffffffffffffffffffffffffffff1681526020019081526020016000206000018190555083600760008473ffffffffffffffffffffffffffffffffffffffff1673ffffffffffffffffffffffffffffffffffffffff1681526020019081526020016000206001018190555034600760008473ffffffffffffffffffffffffffffffffffffffff1673ffffffffffffffffffffffffffffffffffffffff168152602001908152602001600020600201600085815260200190815260200160002060008282540192505081905550611e748585858585612d51565b5050505050565b60025481565b60035481565b611e8f613ee4565b33816000019073ffffffffffffffffffffffffffffffffffffffff16908173ffffffffffffffffffffffffffffffffffffffff168152505086816020018181525050858160400190600019169081600019168152505060018502420181606001818152505060018402816060015101816080018181525050600183028160800151018160a001818152505060018160c00181815250506004819080600181540180825580915050906001820390600052602060002090600f02016000909192909190915060008201518160000160006101000a81548173ffffffffffffffffffffffffffffffffffffffff021916908373ffffffffffffffffffffffffffffffffffffffff1602179055506020820151816001015560408201518160020190600019169055606082015181600301556080820151816004015560a0820151816005015560c0820151816006015560e082015181600701556101008201518160080155610120820151816009015561014082015181600a015561016082015181600b0160006101000a81548160ff0219169083151502179055505050507f6ca4bad73e644d473be8bf4f88e57b9c92f4aae31d45b3a7f90cd9438343b641600160048054905003836040518083815260200182600019166000191681526020019250505060405180910390a150505050505050565b600080600080600080600560009054906101000a900473ffffffffffffffffffffffffffffffffffffffff1673ffffffffffffffffffffffffffffffffffffffff163373ffffffffffffffffffffffffffffffffffffffff161415156120e857600080fd5b60048a8154811015156120f757fe5b90600052602060002090600f0201915081600d0160008973ffffffffffffffffffffffffffffffffffffffff1673ffffffffffffffffffffffffffffffffffffffff16815260200190815260200160002060008a8152602001908152602001600020905080600001548160010154888360020160008b81526020019081526020016000205495509550955095505050945094509450949050565b60006004848154811015156121a257fe5b90600052602060002090600f020190508060000160009054906101000a900473ffffffffffffffffffffffffffffffffffffffff1673ffffffffffffffffffffffffffffffffffffffff163373ffffffffffffffffffffffffffffffffffffffff1614151561221057600080fd5b6001816006015414151561222357600080fd5b828160070181905550600281600601819055507f71c8b3ac7d9125fc562f0e493b93c79c2f22d445820a039344e6732d22871d3c84836040518083815260200182600019166000191681526020019250505060405180910390a150505050565b600082600060048281548110151561229757fe5b90600052602060002090600f0201600d0160003373ffffffffffffffffffffffffffffffffffffffff1673ffffffffffffffffffffffffffffffffffffffff1681526020019081526020016000206000600181526020019081526020016000206000015411806123795750600060048281548110151561231357fe5b90600052602060002090600f0201600d0160003373ffffffffffffffffffffffffffffffffffffffff1673ffffffffffffffffffffffffffffffffffffffff16815260200190815260200160002060006002815260200190815260200160002060000154115b806123f65750600060048281548110151561239057fe5b90600052602060002090600f0201600c0160003373ffffffffffffffffffffffffffffffffffffffff1673ffffffffffffffffffffffffffffffffffffffff16815260200190815260200160002060006001815260200190815260200160002060000154115b806124735750600060048281548110151561240d57fe5b90600052602060002090600f0201600c0160003373ffffffffffffffffffffffffffffffffffffffff1673ffffffffffffffffffffffffffffffffffffffff16815260200190815260200160002060006002815260200190815260200160002060000154115b151561247e57600080fd5b60048481548110151561248d57fe5b90600052602060002090600f02019150816005015442111515156124b057600080fd5b600282600601541415156124c357600080fd5b81600b0160009054906101000a900460ff161515156124e157600080fd5b81600e0160003373ffffffffffffffffffffffffffffffffffffffff1673ffffffffffffffffffffffffffffffffffffffff16815260200190815260200160002060009054906101000a900460ff1615151561253c57600080fd5b600182600e0160003373ffffffffffffffffffffffffffffffffffffffff1673ffffffffffffffffffffffffffffffffffffffff16815260200190815260200160002060006101000a81548160ff02191690831515021790555081600d0160003373ffffffffffffffffffffffffffffffffffffffff1673ffffffffffffffffffffffffffffffffffffffff1681526020019081526020016000206000600181526020019081526020016000206000015482600a016000828254019250508190555081600d0160003373ffffffffffffffffffffffffffffffffffffffff1673ffffffffffffffffffffffffffffffffffffffff1681526020019081526020016000206000600281526020019081526020016000206000015482600a016000828254019250508190555081600901546002540282600a0154606402111561268857600382600601819055505b7f71c5e2f984c07a51200c1ec481c3baba8e6e0bfd88fc393921c30d3f10bad4fc84836006015485604051808481526020018381526020018260001916600019168152602001935050505060405180910390a150505050565b6126f086863387878787613685565b505050505050565b600560009054906101000a900473ffffffffffffffffffffffffffffffffffffffff1681565b6000600560009054906101000a900473ffffffffffffffffffffffffffffffffffffffff1673ffffffffffffffffffffffffffffffffffffffff163373ffffffffffffffffffffffffffffffffffffffff1614151561277c57600080fd5b86600760008673ffffffffffffffffffffffffffffffffffffffff1673ffffffffffffffffffffffffffffffffffffffff1681526020019081526020016000206000015414801561280e575085600760008673ffffffffffffffffffffffffffffffffffffffff1673ffffffffffffffffffffffffffffffffffffffff16815260200190815260200160002060010154145b801561286d57506000600760008673ffffffffffffffffffffffffffffffffffffffff1673ffffffffffffffffffffffffffffffffffffffff168152602001908152602001600020600201600087815260200190815260200160002054115b151561287857600080fd5b82600760008673ffffffffffffffffffffffffffffffffffffffff1673ffffffffffffffffffffffffffffffffffffffff1681526020019081526020016000206002016000878152602001908152602001600020600082825403925050819055506004878154811015156128e857fe5b90600052602060002090600f020190508281600c0160008673ffffffffffffffffffffffffffffffffffffffff1673ffffffffffffffffffffffffffffffffffffffff1681526020019081526020016000206000888152602001908152602001600020600001541015151561295c57600080fd5b8281600c0160008673ffffffffffffffffffffffffffffffffffffffff1673ffffffffffffffffffffffffffffffffffffffff1681526020019081526020016000206000888152602001908152602001600020600201600087815260200190815260200160002054101515156129d157600080fd5b828160080154101515156129e457600080fd5b8281600c0160008673ffffffffffffffffffffffffffffffffffffffff1673ffffffffffffffffffffffffffffffffffffffff1681526020019081526020016000206000888152602001908152602001600020600001600082825403925050819055508281600c0160008673ffffffffffffffffffffffffffffffffffffffff1673ffffffffffffffffffffffffffffffffffffffff1681526020019081526020016000206000888152602001908152602001600020600201600087815260200190815260200160002060008282540392505081905550828160080160008282540392505081905550600654836006540110151515612ae257600080fd5b826006600082825401925050819055507fc559b1735a4e6aea073dbb9692a26df091d23c227152ad15811b8b0ac02e030d87836040518083815260200182600019166000191681526020019250505060405180910390a150505050505050565b816000600482815481101515612b5457fe5b90600052602060002090600f0201600d0160003373ffffffffffffffffffffffffffffffffffffffff1673ffffffffffffffffffffffffffffffffffffffff168152602001908152602001600020600060018152602001908152602001600020600001541180612c3657506000600482815481101515612bd057fe5b90600052602060002090600f0201600d0160003373ffffffffffffffffffffffffffffffffffffffff1673ffffffffffffffffffffffffffffffffffffffff16815260200190815260200160002060006002815260200190815260200160002060000154115b80612cb357506000600482815481101515612c4d57fe5b90600052602060002090600f0201600c0160003373ffffffffffffffffffffffffffffffffffffffff1673ffffffffffffffffffffffffffffffffffffffff16815260200190815260200160002060006001815260200190815260200160002060000154115b80612d3057506000600482815481101515612cca57fe5b90600052602060002090600f0201600c0160003373ffffffffffffffffffffffffffffffffffffffff1673ffffffffffffffffffffffffffffffffffffffff16815260200190815260200160002060006002815260200190815260200160002060000154115b1515612d3b57600080fd5b612d46833384612f5b565b505050565b60015481565b6000600486815481101515612d6257fe5b90600052602060002090600f02019050806003015442101515612d8457600080fd5b60018160060154141515612d9757600080fd5b3481600c0160008573ffffffffffffffffffffffffffffffffffffffff1673ffffffffffffffffffffffffffffffffffffffff1681526020019081526020016000206000878152602001908152602001600020600001600082825401925050819055503481600c0160008573ffffffffffffffffffffffffffffffffffffffff1673ffffffffffffffffffffffffffffffffffffffff16815260200190815260200160002060008781526020019081526020016000206002016000868152602001908152602001600020600082825401925050819055503481600801600082825401925050819055507f21c02be65fa434a2e6b80a50c93b2654e65a53835f1b04697e4b5c09175beb1386836040518083815260200182600019166000191681526020019250505060405180910390a17f72db17618faa0dcae9145af507e210a9234e6659a2f96e8bd184a05dfcdb78f081600c0160008573ffffffffffffffffffffffffffffffffffffffff1673ffffffffffffffffffffffffffffffffffffffff1681526020019081526020016000206000878152602001908152602001600020600001546040518082815260200191505060405180910390a1505050505050565b600080600080600487815481101515612f7057fe5b90600052602060002090600f0201935060028460060154141515612f9357600080fd5b836005015442111515612fa557600080fd5b6064846001015485600d0160008973ffffffffffffffffffffffffffffffffffffffff1673ffffffffffffffffffffffffffffffffffffffff168152602001908152602001600020600087600701548152602001908152602001600020600101540281151561301057fe5b0492506064600054840281151561302357fe5b04915083600d0160008773ffffffffffffffffffffffffffffffffffffffff1673ffffffffffffffffffffffffffffffffffffffff16815260200190815260200160002060008560070154815260200190815260200160002060010154905083600c0160008773ffffffffffffffffffffffffffffffffffffffff1673ffffffffffffffffffffffffffffffffffffffff168152602001908152602001600020600060018152602001908152602001600020600001548101905083600c0160008773ffffffffffffffffffffffffffffffffffffffff1673ffffffffffffffffffffffffffffffffffffffff168152602001908152602001600020600060028152602001908152602001600020600001548101905060008382031015151561314a57600080fd5b60008284031015151561315c57600080fd5b83600c0160008773ffffffffffffffffffffffffffffffffffffffff1673ffffffffffffffffffffffffffffffffffffffff16815260200190815260200160002060006001815260200190815260200160002060000154846008016000828254039250508190555083600c0160008773ffffffffffffffffffffffffffffffffffffffff1673ffffffffffffffffffffffffffffffffffffffff16815260200190815260200160002060006002815260200190815260200160002060000154846008016000828254039250508190555083600d0160008773ffffffffffffffffffffffffffffffffffffffff1673ffffffffffffffffffffffffffffffffffffffff16815260200190815260200160002060006001815260200190815260200160002060000154846009016000828254039250508190555083600d0160008773ffffffffffffffffffffffffffffffffffffffff1673ffffffffffffffffffffffffffffffffffffffff168152602001908152602001600020600060028152602001908152602001600020600001548460090160008282540392505081905550600084600c0160008873ffffffffffffffffffffffffffffffffffffffff1673ffffffffffffffffffffffffffffffffffffffff16815260200190815260200160002060006001815260200190815260200160002060000181905550600084600c0160008873ffffffffffffffffffffffffffffffffffffffff1673ffffffffffffffffffffffffffffffffffffffff16815260200190815260200160002060006002815260200190815260200160002060000181905550600084600d0160008873ffffffffffffffffffffffffffffffffffffffff1673ffffffffffffffffffffffffffffffffffffffff16815260200190815260200160002060006001815260200190815260200160002060000181905550600084600d0160008873ffffffffffffffffffffffffffffffffffffffff1673ffffffffffffffffffffffffffffffffffffffff16815260200190815260200160002060006002815260200190815260200160002060000181905550600084600d0160008873ffffffffffffffffffffffffffffffffffffffff1673ffffffffffffffffffffffffffffffffffffffff168152602001908152602001600020600086600701548152602001908152602001600020600101819055508573ffffffffffffffffffffffffffffffffffffffff166108fc8483039081150290604051600060405180830381858888f19350505050158015613513573d6000803e3d6000fd5b508360000160009054906101000a900473ffffffffffffffffffffffffffffffffffffffff1673ffffffffffffffffffffffffffffffffffffffff166108fc8385039081150290604051600060405180830381858888f19350505050158015613580573d6000803e3d6000fd5b50600560009054906101000a900473ffffffffffffffffffffffffffffffffffffffff1673ffffffffffffffffffffffffffffffffffffffff166108fc839081150290604051600060405180830381858888f193505050501580156135e9573d6000803e3d6000fd5b507f524cfe0d33d142e24b3c16c7f11234b23eae5fe14f95d328f3991837dc56d31487866040518083815260200182600019166000191681526020019250505060405180910390a17f8de0c4178df0ca7d776c505c09fe7699d34fb83545c4b23c03fc2e87461604888283850385840360405180848152602001838152602001828152602001935050505060405180910390a150505050505050565b60008060008060008060008973ffffffffffffffffffffffffffffffffffffffff16141515156136b457600080fd5b6001548a101515156136c557600080fd5b60015488101515156136d657600080fd5b60048d8154811015156136e557fe5b90600052602060002090600f020195506001866006015414151561370857600080fd5b85600301544210151561371a57600080fd5b8b600303945034935085600c0160008a73ffffffffffffffffffffffffffffffffffffffff1673ffffffffffffffffffffffffffffffffffffffff16815260200190815260200160002060008681526020019081526020016000206000015492506001548a850281151561378a57fe5b04915060015488840281151561379c57fe5b049050808210156137b45783820392508190506137bd565b82810393508091505b6001548a0388026001548b02101515156137d657600080fd5b8286600c0160008b73ffffffffffffffffffffffffffffffffffffffff1673ffffffffffffffffffffffffffffffffffffffff168152602001908152602001600020600087815260200190815260200160002060020160008a8152602001908152602001600020541015151561384b57600080fd5b8286600c0160008b73ffffffffffffffffffffffffffffffffffffffff1673ffffffffffffffffffffffffffffffffffffffff168152602001908152602001600020600087815260200190815260200160002060000154101515156138af57600080fd5b8286600c0160008b73ffffffffffffffffffffffffffffffffffffffff1673ffffffffffffffffffffffffffffffffffffffff168152602001908152602001600020600087815260200190815260200160002060020160008a8152602001908152602001600020600082825403925050819055508286600c0160008b73ffffffffffffffffffffffffffffffffffffffff1673ffffffffffffffffffffffffffffffffffffffff1681526020019081526020016000206000878152602001908152602001600020600001600082825403925050819055508286600801600082825403925050819055508286600d0160008b73ffffffffffffffffffffffffffffffffffffffff1673ffffffffffffffffffffffffffffffffffffffff168152602001908152602001600020600087815260200190815260200160002060020160008a8152602001908152602001600020600082825401925050819055508286600d0160008b73ffffffffffffffffffffffffffffffffffffffff1673ffffffffffffffffffffffffffffffffffffffff1681526020019081526020016000206000878152602001908152602001600020600001600082825401925050819055508086600d0160008b73ffffffffffffffffffffffffffffffffffffffff1673ffffffffffffffffffffffffffffffffffffffff1681526020019081526020016000206000878152602001908152602001600020600101600082825401925050819055508286600901600082825401925050819055508386600d0160008d73ffffffffffffffffffffffffffffffffffffffff1673ffffffffffffffffffffffffffffffffffffffff16815260200190815260200160002060008e815260200190815260200160002060020160008c8152602001908152602001600020600082825401925050819055508386600d0160008d73ffffffffffffffffffffffffffffffffffffffff1673ffffffffffffffffffffffffffffffffffffffff16815260200190815260200160002060008e8152602001908152602001600020600001600082825401925050819055508186600d0160008d73ffffffffffffffffffffffffffffffffffffffff1673ffffffffffffffffffffffffffffffffffffffff16815260200190815260200160002060008e8152602001908152602001600020600101600082825401925050819055508386600901600082825401925050819055507f6a5ee55c9df2daa4375d2b5e4ec8b9e5662f1863207bcbe6e38c6f5fe3c243008d886040518083815260200182600019166000191681526020019250505060405180910390a17f7bc2bdf03b14356e89aa86930df0003eebc752e6ec9983a77e36d4306a7e696e86600d0160008d73ffffffffffffffffffffffffffffffffffffffff1673ffffffffffffffffffffffffffffffffffffffff16815260200190815260200160002060008e81526020019081526020016000206000015487600d0160008e73ffffffffffffffffffffffffffffffffffffffff1673ffffffffffffffffffffffffffffffffffffffff16815260200190815260200160002060008f815260200190815260200160002060010154604051808381526020018281526020019250505060405180910390a17f023664a17f87e2ab3ac3130a5341e46a8e241ffc60cf8c93e685e820528f985f86600d0160008b73ffffffffffffffffffffffffffffffffffffffff1673ffffffffffffffffffffffffffffffffffffffff16815260200190815260200160002060008781526020019081526020016000206000015487600d0160008c73ffffffffffffffffffffffffffffffffffffffff1673ffffffffffffffffffffffffffffffffffffffff168152602001908152602001600020600088815260200190815260200160002060010154604051808381526020018281526020019250505060405180910390a17fae77fdea615e7c9b213003d6210d211971694401b2dc8d193ecd5640ab80caea86600c0160008b73ffffffffffffffffffffffffffffffffffffffff1673ffffffffffffffffffffffffffffffffffffffff1681526020019081526020016000206000878152602001908152602001600020600001546040518082815260200191505060405180910390a150505050505050505050505050565b61018060405190810160405280600073ffffffffffffffffffffffffffffffffffffffff1681526020016000815260200160008019168152602001600081526020016000815260200160008152602001600081526020016000815260200160008152602001600081526020016000815260200160001515815250905600a165627a7a72305820e7a693b4862e4ed7c4beda525a0bcce37878adf940cd2108178583cd8b8a280e0029",
  "source": "/*\n*\n* PredictionExchange is an exchange contract that doesn't accept bets on the outcomes,\n* but instead matchedes backers/takers (those betting on odds) with layers/makers \n* (those offering the odds).\n*\n* Note:\n*\n*       side: 0 (unknown), 1 (support), 2 (against)\n*       role: 0 (unknown), 1 (maker), 2 (taker)\n*       state: 0 (unknown), 1 (created), 2 (reported), 3 (disputed)\n*       __test__* events will be removed prior to production deployment\n*       odds are rounded up (2.25 is 225)\n*\n*/\n\npragma solidity ^0.4.24;\n\ncontract PredictionHandshake {\n\n        struct Market {\n\n                address creator;\n                uint fee; \n                bytes32 source;\n                uint closingTime; \n                uint reportTime; \n                uint disputeTime;\n\n                uint state;\n                uint outcome;\n\n                uint totalOpenStake;\n                uint totalMatchedStake;\n                uint disputeMatchedStake;\n                bool resolved;\n\n                mapping(address => mapping(uint => Order)) open; // address => side => order\n                mapping(address => mapping(uint => Order)) matched; // address => side => order\n                mapping(address => bool) disputed;\n        }\n        \n        \n        function getMatchedData(uint hid, uint side, address user, uint userOdds) public onlyRoot view returns \n        (\n            uint256,\n            uint256,\n            uint256,\n            uint256\n        ) \n        {\n            Market storage m = markets[hid];\n            Order storage o = m.matched[user][side];\n            // return (stake, payout, odds, pool size)\n            return (o.stake, o.payout, userOdds, o.odds[userOdds]);\n        }\n        \n        function getOpenData(uint hid, uint side, address user, uint userOdds) public onlyRoot view returns \n        (\n            uint256,\n            uint256,\n            uint256,\n            uint256\n        ) \n        {\n            Market storage m = markets[hid];\n            Order storage o = m.open[user][side];\n            // return (stake, payout, odds, pool size)\n            return (o.stake, o.payout, userOdds, o.odds[userOdds]);\n        }\n\n        struct Order {\n                uint stake;\n                uint payout;\n                mapping(uint => uint) odds; // odds => pool size\n        }\n\n        struct Trial {\n                uint hid;\n                uint side;\n                mapping(uint => uint) amt; // odds => amt\n        }\n\n        uint public NETWORK_FEE = 20; // 20%\n        uint public ODDS_1 = 100; // 1.00 is 100; 2.25 is 225 \n        uint public DISPUTE_THRESHOLD = 5; // 5%\n        uint public EXPIRATION = 30 days; \n\n        Market[] public markets;\n        address public root;\n        uint256 public total;\n\n        mapping(address => Trial) trial;\n\n        constructor() public {\n                root = msg.sender;\n        } \n\n\n        event __createMarket(uint hid, bytes32 offchain); \n\n        function createMarket(\n                uint fee, \n                bytes32 source,\n                uint closingWindow, \n                uint reportWindow, \n                uint disputeWindow,\n                bytes32 offchain\n        ) \n                public \n        {\n                Market memory m;\n                m.creator = msg.sender;\n                m.fee = fee;\n                m.source = source;\n                m.closingTime = now + closingWindow * 1 seconds;\n                m.reportTime = m.closingTime + reportWindow * 1 seconds;\n                m.disputeTime = m.reportTime + disputeWindow * 1 seconds;\n                m.state = 1;\n                markets.push(m);\n\n                emit __createMarket(markets.length - 1, offchain);\n        }\n\n\n        event __init(uint hid, bytes32 offchain);\n        event __test__init(uint stake);\n\n        // market maker\n        function init(\n                uint hid, \n                uint side, \n                uint odds, \n                bytes32 offchain\n        ) \n                public \n                payable \n        {\n                _init(hid, side, odds, msg.sender, offchain);\n        }\n\n\n        // market maker. only called by root.  \n        function initTestDrive(\n                uint hid, \n                uint side, \n                uint odds, \n                address maker, \n                bytes32 offchain\n        ) \n                public\n                payable\n                onlyRoot\n        {\n                trial[maker].hid = hid;\n                trial[maker].side = side;\n                trial[maker].amt[odds] += msg.value;\n\n                _init(hid, side, odds, maker, offchain);\n        }\n        \n        event __uninitTestDrive(uint hid, bytes32 offchain);\n        \n        function uninitTestDrive\n        (\n            uint hid,\n            uint side,\n            uint odds,\n            address maker,\n            uint value,\n            bytes32 offchain\n        )\n            public\n            onlyRoot\n        {\n            // make sure trial is existed and currently betting.\n            require(trial[maker].hid == hid && trial[maker].side == side && trial[maker].amt[odds] > 0);\n            trial[maker].amt[odds] -= value;\n            \n            Market storage m = markets[hid];\n            \n            require(m.open[maker][side].stake >= value);\n            require(m.open[maker][side].odds[odds]  >= value);\n            require(m.totalOpenStake  >= value);\n\n            m.open[maker][side].stake -= value;\n            m.open[maker][side].odds[odds] -= value;\n            m.totalOpenStake -= value;\n\n            require(total + value >= total);\n            total += value;\n            \n            emit __uninitTestDrive(hid, offchain);\n        }\n        \n        event __withdrawTrial(uint256 amount);\n\n        function withdrawTrial() public onlyRoot {\n            root.transfer(total);\n            emit __withdrawTrial(total);\n            total = 0;\n        }\n        \n        // market maker cancels order\n        function uninit(\n                uint hid, \n                uint side, \n                uint stake, \n                uint odds, \n                bytes32 offchain\n        ) \n                public \n                onlyPredictor(hid) \n        {\n                Market storage m = markets[hid];\n\n                uint trialAmt; \n                if (trial[msg.sender].hid == hid && trial[msg.sender].side == side)\n                    trialAmt = trial[msg.sender].amt[odds];\n\n                require(m.open[msg.sender][side].stake - trialAmt >= stake);\n                require(m.open[msg.sender][side].odds[odds] - trialAmt >= stake);\n\n                m.open[msg.sender][side].stake -= stake;\n                m.open[msg.sender][side].odds[odds] -= stake;\n                m.totalOpenStake -= stake;\n\n                msg.sender.transfer(stake);\n\n                emit __uninit(hid, offchain);\n                emit __test__uninit(m.open[msg.sender][side].stake);\n        }\n\n\n        function _init(\n                uint hid, \n                uint side, \n                uint odds, \n                address maker, \n                bytes32 offchain\n        ) \n                private \n        {\n                Market storage m = markets[hid];\n\n                require(now < m.closingTime);\n                require(m.state == 1);\n\n                m.open[maker][side].stake += msg.value;\n                m.open[maker][side].odds[odds] += msg.value;\n                m.totalOpenStake += msg.value;\n\n                emit __init(hid, offchain);\n                emit __test__init(m.open[maker][side].stake);\n        }\n\n\n        event __uninit(uint hid, bytes32 offchain);\n        event __test__uninit(uint stake);\n\n        \n\n\n        event __shake(uint hid, bytes32 offchain);\n        event __test__shake__taker__matched(uint stake, uint payout);\n        event __test__shake__maker__matched(uint stake, uint payout);\n        event __test__shake__maker__open(uint stake);\n\n\n        // market taker\n        function shake(\n                uint hid, \n                uint side, \n                uint takerOdds, \n                address maker, \n                uint makerOdds, \n                bytes32 offchain\n        ) \n                public \n                payable \n        {\n                _shake(hid, side, msg.sender, takerOdds, maker, makerOdds, offchain);\n        }\n\n\n        function shakeTestDrive(\n                uint hid, \n                uint side, \n                address taker,\n                uint takerOdds, \n                address maker, \n                uint makerOdds, \n                bytes32 offchain\n        ) \n                public \n                payable \n                onlyRoot\n        {\n                trial[msg.sender].hid = hid;\n                trial[msg.sender].side = side;\n                trial[msg.sender].amt[takerOdds] += msg.value;\n\n                _shake(hid, side, taker, takerOdds, maker, makerOdds, offchain);\n        }\n\n\n        function _shake(\n                uint hid, \n                uint side, \n                address taker,\n                uint takerOdds, \n                address maker, \n                uint makerOdds, \n                bytes32 offchain\n        ) \n                private \n        {\n                require(maker != 0);\n                require(takerOdds >= ODDS_1);\n                require(makerOdds >= ODDS_1);\n\n                Market storage m = markets[hid];\n\n                require(m.state == 1);\n                require(now < m.closingTime);\n\n                uint makerSide = 3 - side;\n\n                uint takerStake = msg.value;\n                uint makerStake = m.open[maker][makerSide].stake;\n\n                uint takerPayout = (takerStake * takerOdds) / ODDS_1;\n                uint makerPayout = (makerStake * makerOdds) / ODDS_1;\n\n                if (takerPayout < makerPayout) {\n                        makerStake = takerPayout - takerStake;\n                        makerPayout = takerPayout;\n                } else {\n                        takerStake = makerPayout - makerStake;\n                        takerPayout = makerPayout;\n                }\n\n                // check if the odds matching is valid\n                require(takerOdds * ODDS_1 >= makerOdds * (takerOdds - ODDS_1));\n\n                // check if the stake is sufficient\n                require(m.open[maker][makerSide].odds[makerOdds] >= makerStake);\n                require(m.open[maker][makerSide].stake >= makerStake);\n\n                // remove maker's order from open (could be partial)\n                m.open[maker][makerSide].odds[makerOdds] -= makerStake;\n                m.open[maker][makerSide].stake -= makerStake;\n                m.totalOpenStake -=  makerStake;\n\n                // add maker's order to matched\n                m.matched[maker][makerSide].odds[makerOdds] += makerStake;\n                m.matched[maker][makerSide].stake += makerStake;\n                m.matched[maker][makerSide].payout += makerPayout;\n                m.totalMatchedStake += makerStake;\n\n                // add taker's order to matched\n                m.matched[taker][side].odds[takerOdds] += takerStake;\n                m.matched[taker][side].stake += takerStake;\n                m.matched[taker][side].payout += takerPayout;\n                m.totalMatchedStake += takerStake;\n\n                emit __shake(hid, offchain);\n\n                emit __test__shake__taker__matched(m.matched[taker][side].stake, m.matched[taker][side].payout);\n                emit __test__shake__maker__matched(m.matched[maker][makerSide].stake, m.matched[maker][makerSide].payout);\n                emit __test__shake__maker__open(m.open[maker][makerSide].stake);\n\n        }\n\n\n        event __collect(uint hid, bytes32 offchain);\n        event __test__collect(uint network, uint market, uint trader);\n\n        function collect(uint hid, bytes32 offchain) public onlyPredictor(hid) {\n                _collect(hid, msg.sender, offchain);\n        }\n\n        function collectTestDrive(uint hid, address winner, bytes32 offchain) public onlyRoot {\n                _collect(hid, winner, offchain);\n        }\n\n        // collect payouts & outstanding stakes (if there is outcome)\n        function _collect(uint hid, address winner, bytes32 offchain) private {\n                Market storage m = markets[hid]; \n\n                require(m.state == 2);\n                require(now > m.disputeTime);\n\n                // calc network commission, market commission and winnings\n                uint marketComm = (m.matched[winner][m.outcome].payout * m.fee) / 100;\n                uint networkComm = (marketComm * NETWORK_FEE) / 100;\n\n                uint amt = m.matched[winner][m.outcome].payout;\n\n                amt += m.open[winner][1].stake; \n                amt += m.open[winner][2].stake;\n\n                require(amt - marketComm >= 0);\n                require(marketComm - networkComm >= 0);\n\n                // update totals\n                m.totalOpenStake -= m.open[winner][1].stake;\n                m.totalOpenStake -= m.open[winner][2].stake;\n                m.totalMatchedStake -= m.matched[winner][1].stake;\n                m.totalMatchedStake -= m.matched[winner][2].stake;\n\n                // wipe data\n                m.open[winner][1].stake = 0; \n                m.open[winner][2].stake = 0;\n                m.matched[winner][1].stake = 0; \n                m.matched[winner][2].stake = 0;\n                m.matched[winner][m.outcome].payout = 0;\n\n                winner.transfer(amt - marketComm);\n                m.creator.transfer(marketComm - networkComm);\n                root.transfer(networkComm);\n\n                emit __collect(hid, offchain);\n                emit __test__collect(networkComm, marketComm - networkComm, amt - marketComm);\n        }\n\n\n        event __refund(uint hid, bytes32 offchain);\n        event __test__refund(uint amt);\n\n        // refund stakes when market closes (if there is no outcome)\n        function refund(uint hid, bytes32 offchain) public onlyPredictor(hid) {\n\n                Market storage m = markets[hid]; \n\n                require(m.state == 1);\n                require(now > m.reportTime);\n\n                // calc refund amt\n                uint amt;\n                amt += m.matched[msg.sender][1].stake;\n                amt += m.matched[msg.sender][2].stake;\n                amt += m.open[msg.sender][1].stake;\n                amt += m.open[msg.sender][2].stake;\n\n                require(amt > 0);\n\n                // wipe data\n                m.matched[msg.sender][1].stake = 0;\n                m.matched[msg.sender][2].stake = 0;\n                m.open[msg.sender][1].stake = 0;\n                m.open[msg.sender][2].stake = 0;\n\n                msg.sender.transfer(amt);\n\n                emit __refund(hid, offchain);\n                emit __test__refund(amt);\n        }\n\n\n        event __report(uint hid, bytes32 offchain);\n\n        // report outcome\n        function report(uint hid, uint outcome, bytes32 offchain) public {\n                Market storage m = markets[hid]; \n                // require(m.closingTime < now && now <= m.reportTime);\n                require(msg.sender == m.creator);\n                require(m.state == 1);\n                m.outcome = outcome;\n                m.state = 2;\n                emit __report(hid, offchain);\n        }\n\n\n        event __dispute(uint hid, uint state, bytes32 offchain);\n\n        // dispute outcome\n        function dispute(uint hid, bytes32 offchain) public onlyPredictor(hid) {\n                Market storage m = markets[hid]; \n\n                require(now <= m.disputeTime);\n                require(m.state == 2);\n                require(!m.resolved);\n\n                require(!m.disputed[msg.sender]);\n                m.disputed[msg.sender] = true;\n\n                m.disputeMatchedStake += m.matched[msg.sender][1].stake;\n                m.disputeMatchedStake += m.matched[msg.sender][2].stake;\n\n                // if dispute stakes > 5% of the total stakes\n                if (100 * m.disputeMatchedStake > DISPUTE_THRESHOLD * m.totalMatchedStake) {\n                        m.state = 3;\n                }\n                emit __dispute(hid, m.state, offchain);\n        }\n\n\n        event __resolve(uint hid, bytes32 offchain);\n\n        function resolve(uint hid, uint outcome, bytes32 offchain) public onlyRoot {\n                Market storage m = markets[hid]; \n                require(m.state == 3);\n                m.resolved = true;\n                m.outcome = outcome;\n                m.state = outcome == 0? 1: 2;\n                emit __resolve(hid, offchain);\n        }\n\n\n        event __shutdownMarket(uint hid, bytes32 offchain);\n\n        // TODO: remove this function after 3 months once the system is stable\n        function shutdownMarket(uint hid, bytes32 offchain) public onlyRoot {\n                require(now > m.disputeTime + EXPIRATION);\n                Market storage m = markets[hid];\n                msg.sender.transfer(m.totalOpenStake + m.totalMatchedStake);\n                emit __shutdownMarket(hid, offchain);\n        }\n\n\n        event __shutdownAllMarkets(bytes32 offchain);\n\n        // TODO: remove this function after 3 months once the system is stable\n        function shutdownAllMarkets(bytes32 offchain) public onlyRoot {\n                msg.sender.transfer(address(this).balance);\n                emit __shutdownAllMarkets(offchain);\n        }\n\n\n        modifier onlyPredictor(uint hid) {\n                require(markets[hid].matched[msg.sender][1].stake > 0 || \n                        markets[hid].matched[msg.sender][2].stake > 0 || \n                        markets[hid].open[msg.sender][1].stake > 0 || \n                        markets[hid].open[msg.sender][2].stake > 0);\n                _;\n        }\n\n\n        modifier onlyRoot() {\n                require(msg.sender == root);\n                _;\n        }\n}\n",
  "sourcePath": "/Workspace/robotbase/crypto/handshake-protocol/contracts/PredictionHandshake.sol",
  "compiler": {
    "name": "solc",
    "version": "0.4.24+commit.e67f0147.Emscripten.clang"
  },
  "schemaVersion": "2.0.0",
  "updatedAt": "2018-07-01T12:51:23.542Z"
}