{
  "contractName": "PredictionHandshake",
  "abi": [
    {
      "constant": true,
      "inputs": [],
      "name": "NETWORK_FEE",
      "outputs": [
        {
          "name": "",
          "type": "uint256"
        }
      ],
      "payable": false,
      "stateMutability": "view",
      "type": "function"
    },
    {
      "constant": true,
      "inputs": [
        {
          "name": "",
          "type": "uint256"
        }
      ],
      "name": "markets",
      "outputs": [
        {
          "name": "creator",
          "type": "address"
        },
        {
          "name": "fee",
          "type": "uint256"
        },
        {
          "name": "source",
          "type": "bytes32"
        },
        {
          "name": "closingTime",
          "type": "uint256"
        },
        {
          "name": "reportTime",
          "type": "uint256"
        },
        {
          "name": "disputeTime",
          "type": "uint256"
        },
        {
          "name": "state",
          "type": "uint256"
        },
        {
          "name": "outcome",
          "type": "uint256"
        },
        {
          "name": "totalOpenStake",
          "type": "uint256"
        },
        {
          "name": "totalMatchedStake",
          "type": "uint256"
        },
        {
          "name": "disputeMatchedStake",
          "type": "uint256"
        },
        {
          "name": "resolved",
          "type": "bool"
        }
      ],
      "payable": false,
      "stateMutability": "view",
      "type": "function"
    },
    {
      "constant": true,
      "inputs": [],
      "name": "DISPUTE_THRESHOLD",
      "outputs": [
        {
          "name": "",
          "type": "uint256"
        }
      ],
      "payable": false,
      "stateMutability": "view",
      "type": "function"
    },
    {
      "constant": true,
      "inputs": [],
      "name": "EXPIRATION",
      "outputs": [
        {
          "name": "",
          "type": "uint256"
        }
      ],
      "payable": false,
      "stateMutability": "view",
      "type": "function"
    },
    {
      "constant": true,
      "inputs": [],
      "name": "root",
      "outputs": [
        {
          "name": "",
          "type": "address"
        }
      ],
      "payable": false,
      "stateMutability": "view",
      "type": "function"
    },
    {
      "constant": true,
      "inputs": [],
      "name": "ODDS_1",
      "outputs": [
        {
          "name": "",
          "type": "uint256"
        }
      ],
      "payable": false,
      "stateMutability": "view",
      "type": "function"
    },
    {
      "inputs": [],
      "payable": false,
      "stateMutability": "nonpayable",
      "type": "constructor"
    },
    {
      "anonymous": false,
      "inputs": [
        {
          "indexed": false,
          "name": "hid",
          "type": "uint256"
        },
        {
          "indexed": false,
          "name": "offchain",
          "type": "bytes32"
        }
      ],
      "name": "__createMarket",
      "type": "event"
    },
    {
      "anonymous": false,
      "inputs": [
        {
          "indexed": false,
          "name": "hid",
          "type": "uint256"
        },
        {
          "indexed": false,
          "name": "offchain",
          "type": "bytes32"
        }
      ],
      "name": "__init",
      "type": "event"
    },
    {
      "anonymous": false,
      "inputs": [
        {
          "indexed": false,
          "name": "stake",
          "type": "uint256"
        }
      ],
      "name": "__test__init",
      "type": "event"
    },
    {
      "anonymous": false,
      "inputs": [
        {
          "indexed": false,
          "name": "hid",
          "type": "uint256"
        },
        {
          "indexed": false,
          "name": "offchain",
          "type": "bytes32"
        }
      ],
      "name": "__uninit",
      "type": "event"
    },
    {
      "anonymous": false,
      "inputs": [
        {
          "indexed": false,
          "name": "stake",
          "type": "uint256"
        }
      ],
      "name": "__test__uninit",
      "type": "event"
    },
    {
      "anonymous": false,
      "inputs": [
        {
          "indexed": false,
          "name": "hid",
          "type": "uint256"
        },
        {
          "indexed": false,
          "name": "offchain",
          "type": "bytes32"
        }
      ],
      "name": "__shake",
      "type": "event"
    },
    {
      "anonymous": false,
      "inputs": [
        {
          "indexed": false,
          "name": "stake",
          "type": "uint256"
        },
        {
          "indexed": false,
          "name": "payout",
          "type": "uint256"
        }
      ],
      "name": "__test__shake__taker__matched",
      "type": "event"
    },
    {
      "anonymous": false,
      "inputs": [
        {
          "indexed": false,
          "name": "stake",
          "type": "uint256"
        },
        {
          "indexed": false,
          "name": "payout",
          "type": "uint256"
        }
      ],
      "name": "__test__shake__maker__matched",
      "type": "event"
    },
    {
      "anonymous": false,
      "inputs": [
        {
          "indexed": false,
          "name": "stake",
          "type": "uint256"
        }
      ],
      "name": "__test__shake__maker__open",
      "type": "event"
    },
    {
      "anonymous": false,
      "inputs": [
        {
          "indexed": false,
          "name": "hid",
          "type": "uint256"
        },
        {
          "indexed": false,
          "name": "offchain",
          "type": "bytes32"
        }
      ],
      "name": "__collect",
      "type": "event"
    },
    {
      "anonymous": false,
      "inputs": [
        {
          "indexed": false,
          "name": "network",
          "type": "uint256"
        },
        {
          "indexed": false,
          "name": "market",
          "type": "uint256"
        },
        {
          "indexed": false,
          "name": "trader",
          "type": "uint256"
        }
      ],
      "name": "__test__collect",
      "type": "event"
    },
    {
      "anonymous": false,
      "inputs": [
        {
          "indexed": false,
          "name": "hid",
          "type": "uint256"
        },
        {
          "indexed": false,
          "name": "offchain",
          "type": "bytes32"
        }
      ],
      "name": "__refund",
      "type": "event"
    },
    {
      "anonymous": false,
      "inputs": [
        {
          "indexed": false,
          "name": "amt",
          "type": "uint256"
        }
      ],
      "name": "__test__refund",
      "type": "event"
    },
    {
      "anonymous": false,
      "inputs": [
        {
          "indexed": false,
          "name": "hid",
          "type": "uint256"
        },
        {
          "indexed": false,
          "name": "offchain",
          "type": "bytes32"
        }
      ],
      "name": "__report",
      "type": "event"
    },
    {
      "anonymous": false,
      "inputs": [
        {
          "indexed": false,
          "name": "hid",
          "type": "uint256"
        },
        {
          "indexed": false,
          "name": "offchain",
          "type": "bytes32"
        }
      ],
      "name": "__dispute",
      "type": "event"
    },
    {
      "anonymous": false,
      "inputs": [
        {
          "indexed": false,
          "name": "hid",
          "type": "uint256"
        },
        {
          "indexed": false,
          "name": "offchain",
          "type": "bytes32"
        }
      ],
      "name": "__resolve",
      "type": "event"
    },
    {
      "anonymous": false,
      "inputs": [
        {
          "indexed": false,
          "name": "hid",
          "type": "uint256"
        },
        {
          "indexed": false,
          "name": "offchain",
          "type": "bytes32"
        }
      ],
      "name": "__shutdownMarket",
      "type": "event"
    },
    {
      "anonymous": false,
      "inputs": [
        {
          "indexed": false,
          "name": "offchain",
          "type": "bytes32"
        }
      ],
      "name": "__shutdownAllMarkets",
      "type": "event"
    },
    {
      "constant": false,
      "inputs": [
        {
          "name": "fee",
          "type": "uint256"
        },
        {
          "name": "source",
          "type": "bytes32"
        },
        {
          "name": "closingWindow",
          "type": "uint256"
        },
        {
          "name": "reportWindow",
          "type": "uint256"
        },
        {
          "name": "disputeWindow",
          "type": "uint256"
        },
        {
          "name": "offchain",
          "type": "bytes32"
        }
      ],
      "name": "createMarket",
      "outputs": [],
      "payable": false,
      "stateMutability": "nonpayable",
      "type": "function"
    },
    {
      "constant": false,
      "inputs": [
        {
          "name": "hid",
          "type": "uint256"
        },
        {
          "name": "side",
          "type": "uint256"
        },
        {
          "name": "odds",
          "type": "uint256"
        },
        {
          "name": "offchain",
          "type": "bytes32"
        }
      ],
      "name": "init",
      "outputs": [],
      "payable": true,
      "stateMutability": "payable",
      "type": "function"
    },
    {
      "constant": false,
      "inputs": [
        {
          "name": "hid",
          "type": "uint256"
        },
        {
          "name": "side",
          "type": "uint256"
        },
        {
          "name": "odds",
          "type": "uint256"
        },
        {
          "name": "maker",
          "type": "address"
        },
        {
          "name": "offchain",
          "type": "bytes32"
        }
      ],
      "name": "initTestDrive",
      "outputs": [],
      "payable": true,
      "stateMutability": "payable",
      "type": "function"
    },
    {
      "constant": false,
      "inputs": [
        {
          "name": "hid",
          "type": "uint256"
        },
        {
          "name": "side",
          "type": "uint256"
        },
        {
          "name": "stake",
          "type": "uint256"
        },
        {
          "name": "odds",
          "type": "uint256"
        },
        {
          "name": "offchain",
          "type": "bytes32"
        }
      ],
      "name": "uninit",
      "outputs": [],
      "payable": false,
      "stateMutability": "nonpayable",
      "type": "function"
    },
    {
      "constant": false,
      "inputs": [
        {
          "name": "hid",
          "type": "uint256"
        },
        {
          "name": "side",
          "type": "uint256"
        },
        {
          "name": "takerOdds",
          "type": "uint256"
        },
        {
          "name": "maker",
          "type": "address"
        },
        {
          "name": "makerOdds",
          "type": "uint256"
        },
        {
          "name": "offchain",
          "type": "bytes32"
        }
      ],
      "name": "shake",
      "outputs": [],
      "payable": true,
      "stateMutability": "payable",
      "type": "function"
    },
    {
      "constant": false,
      "inputs": [
        {
          "name": "hid",
          "type": "uint256"
        },
        {
          "name": "side",
          "type": "uint256"
        },
        {
          "name": "taker",
          "type": "address"
        },
        {
          "name": "takerOdds",
          "type": "uint256"
        },
        {
          "name": "maker",
          "type": "address"
        },
        {
          "name": "makerOdds",
          "type": "uint256"
        },
        {
          "name": "offchain",
          "type": "bytes32"
        }
      ],
      "name": "shakeTestDrive",
      "outputs": [],
      "payable": true,
      "stateMutability": "payable",
      "type": "function"
    },
    {
      "constant": false,
      "inputs": [
        {
          "name": "hid",
          "type": "uint256"
        },
        {
          "name": "offchain",
          "type": "bytes32"
        }
      ],
      "name": "collect",
      "outputs": [],
      "payable": false,
      "stateMutability": "nonpayable",
      "type": "function"
    },
    {
      "constant": false,
      "inputs": [
        {
          "name": "hid",
          "type": "uint256"
        },
        {
          "name": "offchain",
          "type": "bytes32"
        }
      ],
      "name": "refund",
      "outputs": [],
      "payable": false,
      "stateMutability": "nonpayable",
      "type": "function"
    },
    {
      "constant": false,
      "inputs": [
        {
          "name": "hid",
          "type": "uint256"
        },
        {
          "name": "outcome",
          "type": "uint256"
        },
        {
          "name": "offchain",
          "type": "bytes32"
        }
      ],
      "name": "report",
      "outputs": [],
      "payable": false,
      "stateMutability": "nonpayable",
      "type": "function"
    },
    {
      "constant": false,
      "inputs": [
        {
          "name": "hid",
          "type": "uint256"
        },
        {
          "name": "offchain",
          "type": "bytes32"
        }
      ],
      "name": "dispute",
      "outputs": [],
      "payable": false,
      "stateMutability": "nonpayable",
      "type": "function"
    },
    {
      "constant": false,
      "inputs": [
        {
          "name": "hid",
          "type": "uint256"
        },
        {
          "name": "outcome",
          "type": "uint256"
        },
        {
          "name": "offchain",
          "type": "bytes32"
        }
      ],
      "name": "resolve",
      "outputs": [],
      "payable": false,
      "stateMutability": "nonpayable",
      "type": "function"
    },
    {
      "constant": false,
      "inputs": [
        {
          "name": "hid",
          "type": "uint256"
        },
        {
          "name": "offchain",
          "type": "bytes32"
        }
      ],
      "name": "shutdownMarket",
      "outputs": [],
      "payable": false,
      "stateMutability": "nonpayable",
      "type": "function"
    },
    {
      "constant": false,
      "inputs": [
        {
          "name": "offchain",
          "type": "bytes32"
        }
      ],
      "name": "shutdownAllMarkets",
      "outputs": [],
      "payable": false,
      "stateMutability": "nonpayable",
      "type": "function"
    }
  ],
  "bytecode": "0x608060405260146000556064600155600560025562278d0060035534801561002657600080fd5b5033600560006101000a81548173ffffffffffffffffffffffffffffffffffffffff021916908373ffffffffffffffffffffffffffffffffffffffff160217905550613610806100776000396000f300608060405260043610610107576000357c0100000000000000000000000000000000000000000000000000000000900463ffffffff1680631044a5f51461010c5780634394f6f3146101475780634e697f3c1461018957806371eedb88146101ba5780639be5c024146101f55780639d56ded414610220578063a420d8d9146102ac578063a7d07c8214610305578063b1283e771461034a578063b86c8cf414610410578063b9e9c8b414610472578063bb4b57341461049d578063ca5f001f146104c8578063da676f201461052f578063de847ff814610574578063decea642146105af578063ebf0c7171461061b578063f3692c3e14610672578063faf374a4146106ad575b600080fd5b34801561011857600080fd5b506101456004803603810190808035906020019092919080356000191690602001909291905050506106d8565b005b6101876004803603810190808035906020019092919080359060200190929190803590602001909291908035600019169060200190929190505050610808565b005b34801561019557600080fd5b506101b8600480360381019080803560001916906020019092919050505061081b565b005b3480156101c657600080fd5b506101f3600480360381019080803590602001909291908035600019169060200190929190505050610917565b005b34801561020157600080fd5b5061020a610f0e565b6040518082815260200191505060405180910390f35b6102aa6004803603810190808035906020019092919080359060200190929190803573ffffffffffffffffffffffffffffffffffffffff16906020019092919080359060200190929190803573ffffffffffffffffffffffffffffffffffffffff169060200190929190803590602001909291908035600019169060200190929190505050610f14565b005b3480156102b857600080fd5b50610303600480360381019080803590602001909291908035906020019092919080359060200190929190803590602001909291908035600019169060200190929190505050611099565b005b34801561031157600080fd5b50610348600480360381019080803590602001909291908035906020019092919080356000191690602001909291905050506116c8565b005b34801561035657600080fd5b50610375600480360381019080803590602001909291905050506117e8565b604051808d73ffffffffffffffffffffffffffffffffffffffff1673ffffffffffffffffffffffffffffffffffffffff1681526020018c81526020018b600019166000191681526020018a8152602001898152602001888152602001878152602001868152602001858152602001848152602001838152602001821515151581526020019c5050505050505050505050505060405180910390f35b610470600480360381019080803590602001909291908035906020019092919080359060200190929190803573ffffffffffffffffffffffffffffffffffffffff1690602001909291908035600019169060200190929190505050611884565b005b34801561047e57600080fd5b50610487611a61565b6040518082815260200191505060405180910390f35b3480156104a957600080fd5b506104b2611a67565b6040518082815260200191505060405180910390f35b3480156104d457600080fd5b5061052d6004803603810190808035906020019092919080356000191690602001909291908035906020019092919080359060200190929190803590602001909291908035600019169060200190929190505050611a6d565b005b34801561053b57600080fd5b5061057260048036038101908080359060200190929190803590602001909291908035600019169060200190929190505050611c69565b005b34801561058057600080fd5b506105ad600480360381019080803590602001909291908035600019169060200190929190505050611d5b565b005b610619600480360381019080803590602001909291908035906020019092919080359060200190929190803573ffffffffffffffffffffffffffffffffffffffff16906020019092919080359060200190929190803560001916906020019092919050505061219a565b005b34801561062757600080fd5b506106306121b1565b604051808273ffffffffffffffffffffffffffffffffffffffff1673ffffffffffffffffffffffffffffffffffffffff16815260200191505060405180910390f35b34801561067e57600080fd5b506106ab6004803603810190808035906020019092919080356000191690602001909291905050506121d7565b005b3480156106b957600080fd5b506106c2612af8565b6040518082815260200191505060405180910390f35b6000600560009054906101000a900473ffffffffffffffffffffffffffffffffffffffff1673ffffffffffffffffffffffffffffffffffffffff163373ffffffffffffffffffffffffffffffffffffffff1614151561073657600080fd5b6003548160050154014211151561074c57600080fd5b60048381548110151561075b57fe5b90600052602060002090600f020190503373ffffffffffffffffffffffffffffffffffffffff166108fc82600901548360080154019081150290604051600060405180830381858888f193505050501580156107bb573d6000803e3d6000fd5b507fcdfd2b8f7675828bf4d615be2f8a1d8a6f583924464ed2c496f92bb64614ae6c83836040518083815260200182600019166000191681526020019250505060405180910390a1505050565b6108158484843385612afe565b50505050565b600560009054906101000a900473ffffffffffffffffffffffffffffffffffffffff1673ffffffffffffffffffffffffffffffffffffffff163373ffffffffffffffffffffffffffffffffffffffff1614151561087757600080fd5b3373ffffffffffffffffffffffffffffffffffffffff166108fc3073ffffffffffffffffffffffffffffffffffffffff16319081150290604051600060405180830381858888f193505050501580156108d4573d6000803e3d6000fd5b507f58db8c11b5af117fa87459eb549bb838614b80efa1e465278272877b1b0f33368160405180826000191660001916815260200191505060405180910390a150565b60008083600060048281548110151561092c57fe5b90600052602060002090600f0201600d0160003373ffffffffffffffffffffffffffffffffffffffff1673ffffffffffffffffffffffffffffffffffffffff168152602001908152602001600020600060018152602001908152602001600020600001541180610a0e575060006004828154811015156109a857fe5b90600052602060002090600f0201600d0160003373ffffffffffffffffffffffffffffffffffffffff1673ffffffffffffffffffffffffffffffffffffffff16815260200190815260200160002060006002815260200190815260200160002060000154115b80610a8b57506000600482815481101515610a2557fe5b90600052602060002090600f0201600c0160003373ffffffffffffffffffffffffffffffffffffffff1673ffffffffffffffffffffffffffffffffffffffff16815260200190815260200160002060006001815260200190815260200160002060000154115b80610b0857506000600482815481101515610aa257fe5b90600052602060002090600f0201600c0160003373ffffffffffffffffffffffffffffffffffffffff1673ffffffffffffffffffffffffffffffffffffffff16815260200190815260200160002060006002815260200190815260200160002060000154115b1515610b1357600080fd5b600485815481101515610b2257fe5b90600052602060002090600f0201925060018360060154141515610b4557600080fd5b826004015442111515610b5757600080fd5b82600d0160003373ffffffffffffffffffffffffffffffffffffffff1673ffffffffffffffffffffffffffffffffffffffff168152602001908152602001600020600060018152602001908152602001600020600001548201915082600d0160003373ffffffffffffffffffffffffffffffffffffffff1673ffffffffffffffffffffffffffffffffffffffff168152602001908152602001600020600060028152602001908152602001600020600001548201915082600c0160003373ffffffffffffffffffffffffffffffffffffffff1673ffffffffffffffffffffffffffffffffffffffff168152602001908152602001600020600060018152602001908152602001600020600001548201915082600c0160003373ffffffffffffffffffffffffffffffffffffffff1673ffffffffffffffffffffffffffffffffffffffff1681526020019081526020016000206000600281526020019081526020016000206000015482019150600082111515610cd257600080fd5b600083600d0160003373ffffffffffffffffffffffffffffffffffffffff1673ffffffffffffffffffffffffffffffffffffffff16815260200190815260200160002060006001815260200190815260200160002060000181905550600083600d0160003373ffffffffffffffffffffffffffffffffffffffff1673ffffffffffffffffffffffffffffffffffffffff16815260200190815260200160002060006002815260200190815260200160002060000181905550600083600c0160003373ffffffffffffffffffffffffffffffffffffffff1673ffffffffffffffffffffffffffffffffffffffff16815260200190815260200160002060006001815260200190815260200160002060000181905550600083600c0160003373ffffffffffffffffffffffffffffffffffffffff1673ffffffffffffffffffffffffffffffffffffffff168152602001908152602001600020600060028152602001908152602001600020600001819055503373ffffffffffffffffffffffffffffffffffffffff166108fc839081150290604051600060405180830381858888f19350505050158015610e88573d6000803e3d6000fd5b507f6fe9fe9590d9b235fcb84468bf92bf905ca3795c7c284fa06eec9b10776ea4b485856040518083815260200182600019166000191681526020019250505060405180910390a17fe518c6999b8fc54688a71bb20779df78e259f03f0118b6e5c13099dd3dd4ebf4826040518082815260200191505060405180910390a15050505050565b60005481565b6000600660003373ffffffffffffffffffffffffffffffffffffffff1673ffffffffffffffffffffffffffffffffffffffff16815260200190815260200160002060030154141515610f6557600080fd5b86600660003373ffffffffffffffffffffffffffffffffffffffff1673ffffffffffffffffffffffffffffffffffffffff1681526020019081526020016000206000018190555085600660003373ffffffffffffffffffffffffffffffffffffffff1673ffffffffffffffffffffffffffffffffffffffff1681526020019081526020016000206001018190555083600660003373ffffffffffffffffffffffffffffffffffffffff1673ffffffffffffffffffffffffffffffffffffffff1681526020019081526020016000206002018190555034600660003373ffffffffffffffffffffffffffffffffffffffff1673ffffffffffffffffffffffffffffffffffffffff1681526020019081526020016000206003018190555061109087878787878787612d08565b50505050505050565b6000808660006004828154811015156110ae57fe5b90600052602060002090600f0201600d0160003373ffffffffffffffffffffffffffffffffffffffff1673ffffffffffffffffffffffffffffffffffffffff1681526020019081526020016000206000600181526020019081526020016000206000015411806111905750600060048281548110151561112a57fe5b90600052602060002090600f0201600d0160003373ffffffffffffffffffffffffffffffffffffffff1673ffffffffffffffffffffffffffffffffffffffff16815260200190815260200160002060006002815260200190815260200160002060000154115b8061120d575060006004828154811015156111a757fe5b90600052602060002090600f0201600c0160003373ffffffffffffffffffffffffffffffffffffffff1673ffffffffffffffffffffffffffffffffffffffff16815260200190815260200160002060006001815260200190815260200160002060000154115b8061128a5750600060048281548110151561122457fe5b90600052602060002090600f0201600c0160003373ffffffffffffffffffffffffffffffffffffffff1673ffffffffffffffffffffffffffffffffffffffff16815260200190815260200160002060006002815260200190815260200160002060000154115b151561129557600080fd5b6004888154811015156112a457fe5b90600052602060002090600f0201925087600660003373ffffffffffffffffffffffffffffffffffffffff1673ffffffffffffffffffffffffffffffffffffffff16815260200190815260200160002060000154148015611346575086600660003373ffffffffffffffffffffffffffffffffffffffff1673ffffffffffffffffffffffffffffffffffffffff16815260200190815260200160002060010154145b8015611393575084600660003373ffffffffffffffffffffffffffffffffffffffff1673ffffffffffffffffffffffffffffffffffffffff16815260200190815260200160002060020154145b156113de57600660003373ffffffffffffffffffffffffffffffffffffffff1673ffffffffffffffffffffffffffffffffffffffff1681526020019081526020016000206003015491505b858284600c0160003373ffffffffffffffffffffffffffffffffffffffff1673ffffffffffffffffffffffffffffffffffffffff16815260200190815260200160002060008a815260200190815260200160002060000154031015151561144457600080fd5b858284600c0160003373ffffffffffffffffffffffffffffffffffffffff1673ffffffffffffffffffffffffffffffffffffffff16815260200190815260200160002060008a815260200190815260200160002060020160008881526020019081526020016000205403101515156114bb57600080fd5b8583600c0160003373ffffffffffffffffffffffffffffffffffffffff1673ffffffffffffffffffffffffffffffffffffffff1681526020019081526020016000206000898152602001908152602001600020600001600082825403925050819055508583600c0160003373ffffffffffffffffffffffffffffffffffffffff1673ffffffffffffffffffffffffffffffffffffffff16815260200190815260200160002060008981526020019081526020016000206002016000878152602001908152602001600020600082825403925050819055508583600801600082825403925050819055503373ffffffffffffffffffffffffffffffffffffffff166108fc879081150290604051600060405180830381858888f193505050501580156115ea573d6000803e3d6000fd5b507fab0e14e0a016fa8a0d17ecf0051bf0b27117e332369e6660521a8969574c272d88856040518083815260200182600019166000191681526020019250505060405180910390a17f30f13748a6589be9202bec03bb7695d7130248949254c600de71e04ad970633c83600c0160003373ffffffffffffffffffffffffffffffffffffffff1673ffffffffffffffffffffffffffffffffffffffff1681526020019081526020016000206000898152602001908152602001600020600001546040518082815260200191505060405180910390a15050505050505050565b6000600560009054906101000a900473ffffffffffffffffffffffffffffffffffffffff1673ffffffffffffffffffffffffffffffffffffffff163373ffffffffffffffffffffffffffffffffffffffff1614151561172657600080fd5b60048481548110151561173557fe5b90600052602060002090600f020190506003816006015414151561175857600080fd5b600181600b0160006101000a81548160ff0219169083151502179055508281600701819055506000831461178d576002611790565b60015b60ff1681600601819055507f43db73c3d115ee5896bed665630bc1f24065e21274b5dbc4acc4a84bb682d58a84836040518083815260200182600019166000191681526020019250505060405180910390a150505050565b6004818154811015156117f757fe5b90600052602060002090600f02016000915090508060000160009054906101000a900473ffffffffffffffffffffffffffffffffffffffff169080600101549080600201549080600301549080600401549080600501549080600601549080600701549080600801549080600901549080600a01549080600b0160009054906101000a900460ff1690508c565b600560009054906101000a900473ffffffffffffffffffffffffffffffffffffffff1673ffffffffffffffffffffffffffffffffffffffff163373ffffffffffffffffffffffffffffffffffffffff161415156118e057600080fd5b6000600660008473ffffffffffffffffffffffffffffffffffffffff1673ffffffffffffffffffffffffffffffffffffffff1681526020019081526020016000206003015414151561193157600080fd5b84600660008473ffffffffffffffffffffffffffffffffffffffff1673ffffffffffffffffffffffffffffffffffffffff1681526020019081526020016000206000018190555083600660008473ffffffffffffffffffffffffffffffffffffffff1673ffffffffffffffffffffffffffffffffffffffff1681526020019081526020016000206001018190555082600660008473ffffffffffffffffffffffffffffffffffffffff1673ffffffffffffffffffffffffffffffffffffffff1681526020019081526020016000206002018190555034600660008473ffffffffffffffffffffffffffffffffffffffff1673ffffffffffffffffffffffffffffffffffffffff16815260200190815260200160002060030181905550611a5a8585858585612afe565b5050505050565b60025481565b60035481565b611a75613567565b33816000019073ffffffffffffffffffffffffffffffffffffffff16908173ffffffffffffffffffffffffffffffffffffffff168152505086816020018181525050858160400190600019169081600019168152505060018502420181606001818152505060018402816060015101816080018181525050600183028160800151018160a001818152505060018160c00181815250506004819080600181540180825580915050906001820390600052602060002090600f02016000909192909190915060008201518160000160006101000a81548173ffffffffffffffffffffffffffffffffffffffff021916908373ffffffffffffffffffffffffffffffffffffffff1602179055506020820151816001015560408201518160020190600019169055606082015181600301556080820151816004015560a0820151816005015560c0820151816006015560e082015181600701556101008201518160080155610120820151816009015561014082015181600a015561016082015181600b0160006101000a81548160ff0219169083151502179055505050507f6ca4bad73e644d473be8bf4f88e57b9c92f4aae31d45b3a7f90cd9438343b641600160048054905003836040518083815260200182600019166000191681526020019250505060405180910390a150505050505050565b6000600484815481101515611c7a57fe5b90600052602060002090600f020190508060000160009054906101000a900473ffffffffffffffffffffffffffffffffffffffff1673ffffffffffffffffffffffffffffffffffffffff163373ffffffffffffffffffffffffffffffffffffffff16141515611ce857600080fd5b60018160060154141515611cfb57600080fd5b828160070181905550600281600601819055507f71c8b3ac7d9125fc562f0e493b93c79c2f22d445820a039344e6732d22871d3c84836040518083815260200182600019166000191681526020019250505060405180910390a150505050565b6000826000600482815481101515611d6f57fe5b90600052602060002090600f0201600d0160003373ffffffffffffffffffffffffffffffffffffffff1673ffffffffffffffffffffffffffffffffffffffff168152602001908152602001600020600060018152602001908152602001600020600001541180611e5157506000600482815481101515611deb57fe5b90600052602060002090600f0201600d0160003373ffffffffffffffffffffffffffffffffffffffff1673ffffffffffffffffffffffffffffffffffffffff16815260200190815260200160002060006002815260200190815260200160002060000154115b80611ece57506000600482815481101515611e6857fe5b90600052602060002090600f0201600c0160003373ffffffffffffffffffffffffffffffffffffffff1673ffffffffffffffffffffffffffffffffffffffff16815260200190815260200160002060006001815260200190815260200160002060000154115b80611f4b57506000600482815481101515611ee557fe5b90600052602060002090600f0201600c0160003373ffffffffffffffffffffffffffffffffffffffff1673ffffffffffffffffffffffffffffffffffffffff16815260200190815260200160002060006002815260200190815260200160002060000154115b1515611f5657600080fd5b600484815481101515611f6557fe5b90600052602060002090600f0201915060028260060154141515611f8857600080fd5b81600b0160009054906101000a900460ff16151515611fa657600080fd5b81600e0160003373ffffffffffffffffffffffffffffffffffffffff1673ffffffffffffffffffffffffffffffffffffffff16815260200190815260200160002060009054906101000a900460ff1615151561200157600080fd5b600182600e0160003373ffffffffffffffffffffffffffffffffffffffff1673ffffffffffffffffffffffffffffffffffffffff16815260200190815260200160002060006101000a81548160ff02191690831515021790555081600d0160003373ffffffffffffffffffffffffffffffffffffffff1673ffffffffffffffffffffffffffffffffffffffff1681526020019081526020016000206000600181526020019081526020016000206000015482600a016000828254019250508190555081600d0160003373ffffffffffffffffffffffffffffffffffffffff1673ffffffffffffffffffffffffffffffffffffffff1681526020019081526020016000206000600281526020019081526020016000206000015482600a016000828254019250508190555081600901546002540282600a0154606402111561214d57600382600601819055505b7f0de59eb9b3fe6ece2a520b9112ddb9357cbeae19fbdf2bdd6a35538533de73c284846040518083815260200182600019166000191681526020019250505060405180910390a150505050565b6121a986863387878787612d08565b505050505050565b600560009054906101000a900473ffffffffffffffffffffffffffffffffffffffff1681565b6000806000808560006004828154811015156121ef57fe5b90600052602060002090600f0201600d0160003373ffffffffffffffffffffffffffffffffffffffff1673ffffffffffffffffffffffffffffffffffffffff1681526020019081526020016000206000600181526020019081526020016000206000015411806122d15750600060048281548110151561226b57fe5b90600052602060002090600f0201600d0160003373ffffffffffffffffffffffffffffffffffffffff1673ffffffffffffffffffffffffffffffffffffffff16815260200190815260200160002060006002815260200190815260200160002060000154115b8061234e575060006004828154811015156122e857fe5b90600052602060002090600f0201600c0160003373ffffffffffffffffffffffffffffffffffffffff1673ffffffffffffffffffffffffffffffffffffffff16815260200190815260200160002060006001815260200190815260200160002060000154115b806123cb5750600060048281548110151561236557fe5b90600052602060002090600f0201600c0160003373ffffffffffffffffffffffffffffffffffffffff1673ffffffffffffffffffffffffffffffffffffffff16815260200190815260200160002060006002815260200190815260200160002060000154115b15156123d657600080fd5b6004878154811015156123e557fe5b90600052602060002090600f020194506002856006015414151561240857600080fd5b84600501544211151561241a57600080fd5b6064856001015486600d0160003373ffffffffffffffffffffffffffffffffffffffff1673ffffffffffffffffffffffffffffffffffffffff168152602001908152602001600020600088600701548152602001908152602001600020600101540281151561248557fe5b0493506064600054850281151561249857fe5b04925084600d0160003373ffffffffffffffffffffffffffffffffffffffff1673ffffffffffffffffffffffffffffffffffffffff16815260200190815260200160002060008660070154815260200190815260200160002060010154915084600c0160003373ffffffffffffffffffffffffffffffffffffffff1673ffffffffffffffffffffffffffffffffffffffff168152602001908152602001600020600060018152602001908152602001600020600001548201915084600c0160003373ffffffffffffffffffffffffffffffffffffffff1673ffffffffffffffffffffffffffffffffffffffff168152602001908152602001600020600060028152602001908152602001600020600001548201915060008483031115156125be57600080fd5b60008385031115156125cf57600080fd5b84600c0160003373ffffffffffffffffffffffffffffffffffffffff1673ffffffffffffffffffffffffffffffffffffffff16815260200190815260200160002060006001815260200190815260200160002060000154856008016000828254039250508190555084600c0160003373ffffffffffffffffffffffffffffffffffffffff1673ffffffffffffffffffffffffffffffffffffffff16815260200190815260200160002060006002815260200190815260200160002060000154856008016000828254039250508190555084600d0160003373ffffffffffffffffffffffffffffffffffffffff1673ffffffffffffffffffffffffffffffffffffffff16815260200190815260200160002060006001815260200190815260200160002060000154856009016000828254039250508190555084600d0160003373ffffffffffffffffffffffffffffffffffffffff1673ffffffffffffffffffffffffffffffffffffffff168152602001908152602001600020600060028152602001908152602001600020600001548560090160008282540392505081905550600085600c0160003373ffffffffffffffffffffffffffffffffffffffff1673ffffffffffffffffffffffffffffffffffffffff16815260200190815260200160002060006001815260200190815260200160002060000181905550600085600c0160003373ffffffffffffffffffffffffffffffffffffffff1673ffffffffffffffffffffffffffffffffffffffff16815260200190815260200160002060006002815260200190815260200160002060000181905550600085600d0160003373ffffffffffffffffffffffffffffffffffffffff1673ffffffffffffffffffffffffffffffffffffffff16815260200190815260200160002060006001815260200190815260200160002060000181905550600085600d0160003373ffffffffffffffffffffffffffffffffffffffff1673ffffffffffffffffffffffffffffffffffffffff16815260200190815260200160002060006002815260200190815260200160002060000181905550600085600d0160003373ffffffffffffffffffffffffffffffffffffffff1673ffffffffffffffffffffffffffffffffffffffff168152602001908152602001600020600087600701548152602001908152602001600020600101819055503373ffffffffffffffffffffffffffffffffffffffff166108fc8584039081150290604051600060405180830381858888f19350505050158015612986573d6000803e3d6000fd5b508460000160009054906101000a900473ffffffffffffffffffffffffffffffffffffffff1673ffffffffffffffffffffffffffffffffffffffff166108fc8486039081150290604051600060405180830381858888f193505050501580156129f3573d6000803e3d6000fd5b50600560009054906101000a900473ffffffffffffffffffffffffffffffffffffffff1673ffffffffffffffffffffffffffffffffffffffff166108fc849081150290604051600060405180830381858888f19350505050158015612a5c573d6000803e3d6000fd5b507f524cfe0d33d142e24b3c16c7f11234b23eae5fe14f95d328f3991837dc56d31487876040518083815260200182600019166000191681526020019250505060405180910390a17f8de0c4178df0ca7d776c505c09fe7699d34fb83545c4b23c03fc2e87461604888384860386850360405180848152602001838152602001828152602001935050505060405180910390a150505050505050565b60015481565b6000600486815481101515612b0f57fe5b90600052602060002090600f02019050806003015442101515612b3157600080fd5b60018160060154141515612b4457600080fd5b3481600c0160008573ffffffffffffffffffffffffffffffffffffffff1673ffffffffffffffffffffffffffffffffffffffff1681526020019081526020016000206000878152602001908152602001600020600001600082825401925050819055503481600c0160008573ffffffffffffffffffffffffffffffffffffffff1673ffffffffffffffffffffffffffffffffffffffff16815260200190815260200160002060008781526020019081526020016000206002016000868152602001908152602001600020600082825401925050819055503481600801600082825401925050819055507f21c02be65fa434a2e6b80a50c93b2654e65a53835f1b04697e4b5c09175beb1386836040518083815260200182600019166000191681526020019250505060405180910390a17f72db17618faa0dcae9145af507e210a9234e6659a2f96e8bd184a05dfcdb78f081600c0160008573ffffffffffffffffffffffffffffffffffffffff1673ffffffffffffffffffffffffffffffffffffffff1681526020019081526020016000206000878152602001908152602001600020600001546040518082815260200191505060405180910390a1505050505050565b60008060008060008060008973ffffffffffffffffffffffffffffffffffffffff1614151515612d3757600080fd5b6001548a10151515612d4857600080fd5b6001548810151515612d5957600080fd5b60048d815481101515612d6857fe5b90600052602060002090600f0201955060018660060154141515612d8b57600080fd5b856003015442101515612d9d57600080fd5b8b600303945034935085600c0160008a73ffffffffffffffffffffffffffffffffffffffff1673ffffffffffffffffffffffffffffffffffffffff16815260200190815260200160002060008681526020019081526020016000206000015492506001548a8502811515612e0d57fe5b049150600154888402811515612e1f57fe5b04905080821015612e37578382039250819050612e40565b82810393508091505b6001548a0388026001548b0210151515612e5957600080fd5b8286600c0160008b73ffffffffffffffffffffffffffffffffffffffff1673ffffffffffffffffffffffffffffffffffffffff168152602001908152602001600020600087815260200190815260200160002060020160008a81526020019081526020016000205410151515612ece57600080fd5b8286600c0160008b73ffffffffffffffffffffffffffffffffffffffff1673ffffffffffffffffffffffffffffffffffffffff16815260200190815260200160002060008781526020019081526020016000206000015410151515612f3257600080fd5b8286600c0160008b73ffffffffffffffffffffffffffffffffffffffff1673ffffffffffffffffffffffffffffffffffffffff168152602001908152602001600020600087815260200190815260200160002060020160008a8152602001908152602001600020600082825403925050819055508286600c0160008b73ffffffffffffffffffffffffffffffffffffffff1673ffffffffffffffffffffffffffffffffffffffff1681526020019081526020016000206000878152602001908152602001600020600001600082825403925050819055508286600801600082825403925050819055508286600d0160008b73ffffffffffffffffffffffffffffffffffffffff1673ffffffffffffffffffffffffffffffffffffffff168152602001908152602001600020600087815260200190815260200160002060020160008a8152602001908152602001600020600082825401925050819055508286600d0160008b73ffffffffffffffffffffffffffffffffffffffff1673ffffffffffffffffffffffffffffffffffffffff1681526020019081526020016000206000878152602001908152602001600020600001600082825401925050819055508086600d0160008b73ffffffffffffffffffffffffffffffffffffffff1673ffffffffffffffffffffffffffffffffffffffff1681526020019081526020016000206000878152602001908152602001600020600101600082825401925050819055508286600901600082825401925050819055508386600d0160008d73ffffffffffffffffffffffffffffffffffffffff1673ffffffffffffffffffffffffffffffffffffffff16815260200190815260200160002060008e815260200190815260200160002060020160008c8152602001908152602001600020600082825401925050819055508386600d0160008d73ffffffffffffffffffffffffffffffffffffffff1673ffffffffffffffffffffffffffffffffffffffff16815260200190815260200160002060008e8152602001908152602001600020600001600082825401925050819055508186600d0160008d73ffffffffffffffffffffffffffffffffffffffff1673ffffffffffffffffffffffffffffffffffffffff16815260200190815260200160002060008e8152602001908152602001600020600101600082825401925050819055508386600901600082825401925050819055507f6a5ee55c9df2daa4375d2b5e4ec8b9e5662f1863207bcbe6e38c6f5fe3c243008d886040518083815260200182600019166000191681526020019250505060405180910390a17f7bc2bdf03b14356e89aa86930df0003eebc752e6ec9983a77e36d4306a7e696e86600d0160008d73ffffffffffffffffffffffffffffffffffffffff1673ffffffffffffffffffffffffffffffffffffffff16815260200190815260200160002060008e81526020019081526020016000206000015487600d0160008e73ffffffffffffffffffffffffffffffffffffffff1673ffffffffffffffffffffffffffffffffffffffff16815260200190815260200160002060008f815260200190815260200160002060010154604051808381526020018281526020019250505060405180910390a17f023664a17f87e2ab3ac3130a5341e46a8e241ffc60cf8c93e685e820528f985f86600d0160008b73ffffffffffffffffffffffffffffffffffffffff1673ffffffffffffffffffffffffffffffffffffffff16815260200190815260200160002060008781526020019081526020016000206000015487600d0160008c73ffffffffffffffffffffffffffffffffffffffff1673ffffffffffffffffffffffffffffffffffffffff168152602001908152602001600020600088815260200190815260200160002060010154604051808381526020018281526020019250505060405180910390a17fae77fdea615e7c9b213003d6210d211971694401b2dc8d193ecd5640ab80caea86600c0160008b73ffffffffffffffffffffffffffffffffffffffff1673ffffffffffffffffffffffffffffffffffffffff1681526020019081526020016000206000878152602001908152602001600020600001546040518082815260200191505060405180910390a150505050505050505050505050565b61018060405190810160405280600073ffffffffffffffffffffffffffffffffffffffff1681526020016000815260200160008019168152602001600081526020016000815260200160008152602001600081526020016000815260200160008152602001600081526020016000815260200160001515815250905600a165627a7a723058200ffeb7d039a769d003b4eceb216d217f2aaf8acca40edb219ed7af8277006e700029",
  "source": "/*\n*\n* PredictionExchange is an exchange contract that doesn't accept bets on the outcomes,\n* but instead matchedes backers/takers (those betting on odds) with layers/makers \n* (those offering the odds).\n*\n* Note:\n*\n*       side: 0 (unknown), 1 (support), 2 (against)\n*       role: 0 (unknown), 1 (maker), 2 (taker)\n*       state: 0 (unknown), 1 (created), 2 (reported), 3 (disputed)\n*       __test__* events will be removed prior to production deployment\n*       odds are rounded up (2.25 is 225)\n*\n*/\n\npragma solidity ^0.4.24;\n\ncontract PredictionHandshake {\n\n        struct Market {\n\n                address creator;\n                uint fee; \n                bytes32 source;\n                uint closingTime; \n                uint reportTime; \n                uint disputeTime;\n\n                uint state;\n                uint outcome;\n\n                uint totalOpenStake;\n                uint totalMatchedStake;\n                uint disputeMatchedStake;\n                bool resolved;\n\n                mapping(address => mapping(uint => Order)) open; // address => side => order\n                mapping(address => mapping(uint => Order)) matched; // address => side => order\n                mapping(address => bool) disputed;\n        }\n\n        struct Order {\n                uint stake;\n                uint payout;\n                mapping(uint => uint) odds; // odds => pool size\n        }\n\n        struct Trial {\n                uint hid;\n                uint side;\n                uint odds;\n                uint amt;\n        }\n\n        uint public NETWORK_FEE = 20; // 20%\n        uint public ODDS_1 = 100; // 1.00 is 100; 2.25 is 225 \n        uint public DISPUTE_THRESHOLD = 5; // 5%\n        uint public EXPIRATION = 30 days; \n\n        Market[] public markets;\n        address public root;\n\n        mapping(address => Trial) trial;\n\n        constructor() public {\n                root = msg.sender;\n        } \n\n\n        event __createMarket(uint hid, bytes32 offchain); \n\n        function createMarket(\n                uint fee, \n                bytes32 source,\n                uint closingWindow, \n                uint reportWindow, \n                uint disputeWindow,\n                bytes32 offchain\n        ) \n                public \n        {\n                Market memory m;\n                m.creator = msg.sender;\n                m.fee = fee;\n                m.source = source;\n                m.closingTime = now + closingWindow * 1 seconds;\n                m.reportTime = m.closingTime + reportWindow * 1 seconds;\n                m.disputeTime = m.reportTime + disputeWindow * 1 seconds;\n                m.state = 1;\n                markets.push(m);\n\n                emit __createMarket(markets.length - 1, offchain);\n        }\n\n\n        event __init(uint hid, bytes32 offchain);\n        event __test__init(uint stake);\n\n        // market maker\n        function init(\n                uint hid, \n                uint side, \n                uint odds, \n                bytes32 offchain\n        ) \n                public \n                payable \n        {\n                _init(hid, side, odds, msg.sender, offchain);\n        }\n\n\n        // market maker. only called by root.  \n        function initTestDrive(\n                uint hid, \n                uint side, \n                uint odds, \n                address maker, \n                bytes32 offchain\n        ) \n                public\n                payable\n                onlyRoot\n        {\n                require(trial[maker].amt == 0);\n                trial[maker].hid = hid;\n                trial[maker].side = side;\n                trial[maker].odds = odds;\n                trial[maker].amt = msg.value;\n\n                _init(hid, side, odds, maker, offchain);\n        }\n\n\n        function _init(\n                uint hid, \n                uint side, \n                uint odds, \n                address maker, \n                bytes32 offchain\n        ) \n                private \n        {\n                Market storage m = markets[hid];\n\n                require(now < m.closingTime);\n                require(m.state == 1);\n\n                m.open[maker][side].stake += msg.value;\n                m.open[maker][side].odds[odds] += msg.value;\n                m.totalOpenStake += msg.value;\n\n                emit __init(hid, offchain);\n                emit __test__init(m.open[maker][side].stake);\n        }\n\n\n        event __uninit(uint hid, bytes32 offchain);\n        event __test__uninit(uint stake);\n\n        // market maker cancels order\n        function uninit(\n                uint hid, \n                uint side, \n                uint stake, \n                uint odds, \n                bytes32 offchain\n        ) \n                public \n                onlyPredictor(hid) \n        {\n                Market storage m = markets[hid];\n\n                uint trialAmt; \n                if (trial[msg.sender].hid == hid && trial[msg.sender].side == side && trial[msg.sender].odds == odds)\n                        trialAmt = trial[msg.sender].amt;\n\n                require(m.open[msg.sender][side].stake - trialAmt >= stake);\n                require(m.open[msg.sender][side].odds[odds] - trialAmt >= stake);\n\n                m.open[msg.sender][side].stake -= stake;\n                m.open[msg.sender][side].odds[odds] -= stake;\n                m.totalOpenStake -= stake;\n\n                msg.sender.transfer(stake);\n\n                emit __uninit(hid, offchain);\n                emit __test__uninit(m.open[msg.sender][side].stake);\n        }\n\n\n        event __shake(uint hid, bytes32 offchain);\n        event __test__shake__taker__matched(uint stake, uint payout);\n        event __test__shake__maker__matched(uint stake, uint payout);\n        event __test__shake__maker__open(uint stake);\n\n\n        // market taker\n        function shake(\n                uint hid, \n                uint side, \n                uint takerOdds, \n                address maker, \n                uint makerOdds, \n                bytes32 offchain\n        ) \n                public \n                payable \n        {\n                _shake(hid, side, msg.sender, takerOdds, maker, makerOdds, offchain);\n        }\n\n\n        function shakeTestDrive(\n                uint hid, \n                uint side, \n                address taker,\n                uint takerOdds, \n                address maker, \n                uint makerOdds, \n                bytes32 offchain\n        ) \n                public \n                payable \n        {\n                require(trial[msg.sender].amt == 0);\n                trial[msg.sender].hid = hid;\n                trial[msg.sender].side = side;\n                trial[msg.sender].odds = takerOdds;\n                trial[msg.sender].amt = msg.value;\n\n                _shake(hid, side, taker, takerOdds, maker, makerOdds, offchain);\n        }\n\n\n        function _shake(\n                uint hid, \n                uint side, \n                address taker,\n                uint takerOdds, \n                address maker, \n                uint makerOdds, \n                bytes32 offchain\n        ) \n                private \n        {\n                require(maker != 0);\n                require(takerOdds >= ODDS_1);\n                require(makerOdds >= ODDS_1);\n\n                Market storage m = markets[hid];\n\n                require(m.state == 1);\n                require(now < m.closingTime);\n\n                uint makerSide = 3 - side;\n\n                uint takerStake = msg.value;\n                uint makerStake = m.open[maker][makerSide].stake;\n\n                uint takerPayout = (takerStake * takerOdds) / ODDS_1;\n                uint makerPayout = (makerStake * makerOdds) / ODDS_1;\n\n                if (takerPayout < makerPayout) {\n                        makerStake = takerPayout - takerStake;\n                        makerPayout = takerPayout;\n                } else {\n                        takerStake = makerPayout - makerStake;\n                        takerPayout = makerPayout;\n                }\n\n                // check if the odds matching is valid\n                require(takerOdds * ODDS_1 >= makerOdds * (takerOdds - ODDS_1));\n\n                // check if the stake is sufficient\n                require(m.open[maker][makerSide].odds[makerOdds] >= makerStake);\n                require(m.open[maker][makerSide].stake >= makerStake);\n\n                // remove maker's order from open (could be partial)\n                m.open[maker][makerSide].odds[makerOdds] -= makerStake;\n                m.open[maker][makerSide].stake -= makerStake;\n                m.totalOpenStake -=  makerStake;\n\n                // add maker's order to matched\n                m.matched[maker][makerSide].odds[makerOdds] += makerStake;\n                m.matched[maker][makerSide].stake += makerStake;\n                m.matched[maker][makerSide].payout += makerPayout;\n                m.totalMatchedStake += makerStake;\n\n                // add taker's order to matched\n                m.matched[taker][side].odds[takerOdds] += takerStake;\n                m.matched[taker][side].stake += takerStake;\n                m.matched[taker][side].payout += takerPayout;\n                m.totalMatchedStake += takerStake;\n\n                emit __shake(hid, offchain);\n\n                emit __test__shake__taker__matched(m.matched[taker][side].stake, m.matched[taker][side].payout);\n                emit __test__shake__maker__matched(m.matched[maker][makerSide].stake, m.matched[maker][makerSide].payout);\n                emit __test__shake__maker__open(m.open[maker][makerSide].stake);\n\n        }\n\n\n        event __collect(uint hid, bytes32 offchain);\n        event __test__collect(uint network, uint market, uint trader);\n\n        // collect payouts & outstanding stakes (if there is outcome)\n        function collect(uint hid, bytes32 offchain) public onlyPredictor(hid) {\n                Market storage m = markets[hid]; \n\n                require(m.state == 2);\n                require(now > m.disputeTime);\n\n                // calc network commission, market commission and winnings\n                uint marketComm = (m.matched[msg.sender][m.outcome].payout * m.fee) / 100;\n                uint networkComm = (marketComm * NETWORK_FEE) / 100;\n\n                uint amt = m.matched[msg.sender][m.outcome].payout;\n\n                amt += m.open[msg.sender][1].stake; \n                amt += m.open[msg.sender][2].stake;\n\n                require(amt - marketComm > 0);\n                require(marketComm - networkComm > 0);\n\n                // update totals\n                m.totalOpenStake -= m.open[msg.sender][1].stake;\n                m.totalOpenStake -= m.open[msg.sender][2].stake;\n                m.totalMatchedStake -= m.matched[msg.sender][1].stake;\n                m.totalMatchedStake -= m.matched[msg.sender][2].stake;\n\n                // wipe data\n                m.open[msg.sender][1].stake = 0; \n                m.open[msg.sender][2].stake = 0;\n                m.matched[msg.sender][1].stake = 0; \n                m.matched[msg.sender][2].stake = 0;\n                m.matched[msg.sender][m.outcome].payout = 0;\n\n                msg.sender.transfer(amt - marketComm);\n                m.creator.transfer(marketComm - networkComm);\n                root.transfer(networkComm);\n\n                emit __collect(hid, offchain);\n                emit __test__collect(networkComm, marketComm - networkComm, amt - marketComm);\n        }\n\n\n        event __refund(uint hid, bytes32 offchain);\n        event __test__refund(uint amt);\n\n        // refund stakes when market closes (if there is no outcome)\n        function refund(uint hid, bytes32 offchain) public onlyPredictor(hid) {\n\n                Market storage m = markets[hid]; \n\n                require(m.state == 1);\n                require(now > m.reportTime);\n\n                // calc refund amt\n                uint amt;\n                amt += m.matched[msg.sender][1].stake;\n                amt += m.matched[msg.sender][2].stake;\n                amt += m.open[msg.sender][1].stake;\n                amt += m.open[msg.sender][2].stake;\n\n                require(amt > 0);\n\n                // wipe data\n                m.matched[msg.sender][1].stake = 0;\n                m.matched[msg.sender][2].stake = 0;\n                m.open[msg.sender][1].stake = 0;\n                m.open[msg.sender][2].stake = 0;\n\n                msg.sender.transfer(amt);\n\n                emit __refund(hid, offchain);\n                emit __test__refund(amt);\n        }\n\n\n        event __report(uint hid, bytes32 offchain);\n\n        // report outcome\n        function report(uint hid, uint outcome, bytes32 offchain) public {\n                Market storage m = markets[hid]; \n                require(msg.sender == m.creator);\n                require(m.state == 1);\n                m.outcome = outcome;\n                m.state = 2;\n                emit __report(hid, offchain);\n        }\n\n\n        event __dispute(uint hid, bytes32 offchain);\n\n        // dispute outcome\n        function dispute(uint hid, bytes32 offchain) public onlyPredictor(hid) {\n                Market storage m = markets[hid]; \n\n                require(m.state == 2);\n                require(!m.resolved);\n\n                require(!m.disputed[msg.sender]);\n                m.disputed[msg.sender] = true;\n\n                m.disputeMatchedStake += m.matched[msg.sender][1].stake;\n                m.disputeMatchedStake += m.matched[msg.sender][2].stake;\n\n                // if dispute stakes > 5% of the total stakes\n                if (100 * m.disputeMatchedStake > DISPUTE_THRESHOLD * m.totalMatchedStake) {\n                        m.state = 3;\n                }\n                emit __dispute(hid, offchain);\n        }\n\n\n        event __resolve(uint hid, bytes32 offchain);\n\n        function resolve(uint hid, uint outcome, bytes32 offchain) public onlyRoot {\n                Market storage m = markets[hid]; \n                require(m.state == 3);\n                m.resolved = true;\n                m.outcome = outcome;\n                m.state = outcome == 0? 1: 2;\n                emit __resolve(hid, offchain);\n        }\n\n\n        event __shutdownMarket(uint hid, bytes32 offchain);\n\n        // TODO: remove this function after 3 months once the system is stable\n        function shutdownMarket(uint hid, bytes32 offchain) public onlyRoot {\n                require(now > m.disputeTime + EXPIRATION);\n                Market storage m = markets[hid];\n                msg.sender.transfer(m.totalOpenStake + m.totalMatchedStake);\n                emit __shutdownMarket(hid, offchain);\n        }\n\n\n        event __shutdownAllMarkets(bytes32 offchain);\n\n        // TODO: remove this function after 3 months once the system is stable\n        function shutdownAllMarkets(bytes32 offchain) public onlyRoot {\n                msg.sender.transfer(address(this).balance);\n                emit __shutdownAllMarkets(offchain);\n        }\n\n\n        modifier onlyPredictor(uint hid) {\n                require(markets[hid].matched[msg.sender][1].stake > 0 || \n                        markets[hid].matched[msg.sender][2].stake > 0 || \n                        markets[hid].open[msg.sender][1].stake > 0 || \n                        markets[hid].open[msg.sender][2].stake > 0);\n                _;\n        }\n\n\n        modifier onlyRoot() {\n                require(msg.sender == root);\n                _;\n        }\n}\n",
  "sourcePath": "/Users/apple/workspace/ninja/handshake-protocol/contracts/PredictionHandshake.sol",
  "compiler": {
    "name": "solc",
    "version": "0.4.24+commit.e67f0147.Emscripten.clang"
  },
  "schemaVersion": "2.0.0",
  "updatedAt": "2018-06-15T08:18:00.003Z"
}