{
  "contractName": "PredictionHandshake",
  "abi": [
    {
      "constant": true,
      "inputs": [],
      "name": "NETWORK_FEE",
      "outputs": [
        {
          "name": "",
          "type": "uint256"
        }
      ],
      "payable": false,
      "stateMutability": "view",
      "type": "function"
    },
    {
      "constant": true,
      "inputs": [
        {
          "name": "",
          "type": "uint256"
        }
      ],
      "name": "markets",
      "outputs": [
        {
          "name": "creator",
          "type": "address"
        },
        {
          "name": "reporter",
          "type": "address"
        },
        {
          "name": "outcome",
          "type": "uint256"
        },
        {
          "name": "fee",
          "type": "uint256"
        },
        {
          "name": "closingTime",
          "type": "uint256"
        },
        {
          "name": "reportTime",
          "type": "uint256"
        }
      ],
      "payable": false,
      "stateMutability": "view",
      "type": "function"
    },
    {
      "constant": true,
      "inputs": [],
      "name": "root",
      "outputs": [
        {
          "name": "",
          "type": "address"
        }
      ],
      "payable": false,
      "stateMutability": "view",
      "type": "function"
    },
    {
      "inputs": [],
      "payable": false,
      "stateMutability": "nonpayable",
      "type": "constructor"
    },
    {
      "anonymous": false,
      "inputs": [
        {
          "indexed": false,
          "name": "hid",
          "type": "uint256"
        },
        {
          "indexed": false,
          "name": "offchain",
          "type": "bytes32"
        }
      ],
      "name": "__createMarket",
      "type": "event"
    },
    {
      "anonymous": false,
      "inputs": [
        {
          "indexed": false,
          "name": "hid",
          "type": "uint256"
        },
        {
          "indexed": false,
          "name": "offchain",
          "type": "bytes32"
        }
      ],
      "name": "__init",
      "type": "event"
    },
    {
      "anonymous": false,
      "inputs": [
        {
          "indexed": false,
          "name": "hid",
          "type": "uint256"
        },
        {
          "indexed": false,
          "name": "stake",
          "type": "uint256"
        },
        {
          "indexed": false,
          "name": "payout",
          "type": "uint256"
        },
        {
          "indexed": false,
          "name": "offchain",
          "type": "bytes32"
        }
      ],
      "name": "__test__init",
      "type": "event"
    },
    {
      "anonymous": false,
      "inputs": [
        {
          "indexed": false,
          "name": "hid",
          "type": "uint256"
        },
        {
          "indexed": false,
          "name": "offchain",
          "type": "bytes32"
        }
      ],
      "name": "__uninit",
      "type": "event"
    },
    {
      "anonymous": false,
      "inputs": [
        {
          "indexed": false,
          "name": "hid",
          "type": "uint256"
        },
        {
          "indexed": false,
          "name": "stake",
          "type": "uint256"
        },
        {
          "indexed": false,
          "name": "payout",
          "type": "uint256"
        },
        {
          "indexed": false,
          "name": "offchain",
          "type": "bytes32"
        }
      ],
      "name": "__test__uninit",
      "type": "event"
    },
    {
      "anonymous": false,
      "inputs": [
        {
          "indexed": false,
          "name": "hid",
          "type": "uint256"
        },
        {
          "indexed": false,
          "name": "offchain",
          "type": "bytes32"
        }
      ],
      "name": "__shake",
      "type": "event"
    },
    {
      "anonymous": false,
      "inputs": [
        {
          "indexed": false,
          "name": "hid",
          "type": "uint256"
        },
        {
          "indexed": false,
          "name": "stake",
          "type": "uint256"
        },
        {
          "indexed": false,
          "name": "payout",
          "type": "uint256"
        },
        {
          "indexed": false,
          "name": "offchain",
          "type": "bytes32"
        }
      ],
      "name": "__test__shake__taker",
      "type": "event"
    },
    {
      "anonymous": false,
      "inputs": [
        {
          "indexed": false,
          "name": "hid",
          "type": "uint256"
        },
        {
          "indexed": false,
          "name": "matched_stake",
          "type": "uint256"
        },
        {
          "indexed": false,
          "name": "matched_payout",
          "type": "uint256"
        },
        {
          "indexed": false,
          "name": "open_stake",
          "type": "uint256"
        },
        {
          "indexed": false,
          "name": "open_payout",
          "type": "uint256"
        },
        {
          "indexed": false,
          "name": "offchain",
          "type": "bytes32"
        }
      ],
      "name": "__test__shake__maker",
      "type": "event"
    },
    {
      "anonymous": false,
      "inputs": [
        {
          "indexed": false,
          "name": "hid",
          "type": "uint256"
        },
        {
          "indexed": false,
          "name": "offchain",
          "type": "bytes32"
        }
      ],
      "name": "__collect",
      "type": "event"
    },
    {
      "anonymous": false,
      "inputs": [
        {
          "indexed": false,
          "name": "network",
          "type": "uint256"
        },
        {
          "indexed": false,
          "name": "market",
          "type": "uint256"
        },
        {
          "indexed": false,
          "name": "trader",
          "type": "uint256"
        }
      ],
      "name": "__test__collect",
      "type": "event"
    },
    {
      "anonymous": false,
      "inputs": [
        {
          "indexed": false,
          "name": "hid",
          "type": "uint256"
        },
        {
          "indexed": false,
          "name": "offchain",
          "type": "bytes32"
        }
      ],
      "name": "__refund",
      "type": "event"
    },
    {
      "anonymous": false,
      "inputs": [
        {
          "indexed": false,
          "name": "hid",
          "type": "uint256"
        },
        {
          "indexed": false,
          "name": "offchain",
          "type": "bytes32"
        }
      ],
      "name": "__report",
      "type": "event"
    },
    {
      "constant": false,
      "inputs": [
        {
          "name": "fee",
          "type": "uint256"
        },
        {
          "name": "reporter",
          "type": "address"
        },
        {
          "name": "closingTime",
          "type": "uint256"
        },
        {
          "name": "reportTime",
          "type": "uint256"
        },
        {
          "name": "offchain",
          "type": "bytes32"
        }
      ],
      "name": "createMarket",
      "outputs": [],
      "payable": false,
      "stateMutability": "nonpayable",
      "type": "function"
    },
    {
      "constant": false,
      "inputs": [
        {
          "name": "hid",
          "type": "uint256[]"
        },
        {
          "name": "side",
          "type": "uint256[]"
        },
        {
          "name": "payout",
          "type": "uint256[]"
        },
        {
          "name": "offchain",
          "type": "bytes32[]"
        }
      ],
      "name": "multiInit",
      "outputs": [],
      "payable": true,
      "stateMutability": "payable",
      "type": "function"
    },
    {
      "constant": false,
      "inputs": [
        {
          "name": "hid",
          "type": "uint256"
        },
        {
          "name": "side",
          "type": "uint256"
        },
        {
          "name": "payout",
          "type": "uint256"
        },
        {
          "name": "offchain",
          "type": "bytes32"
        }
      ],
      "name": "init",
      "outputs": [],
      "payable": true,
      "stateMutability": "payable",
      "type": "function"
    },
    {
      "constant": false,
      "inputs": [
        {
          "name": "hid",
          "type": "uint256"
        },
        {
          "name": "side",
          "type": "uint256"
        },
        {
          "name": "stake",
          "type": "uint256"
        },
        {
          "name": "payout",
          "type": "uint256"
        },
        {
          "name": "offchain",
          "type": "bytes32"
        }
      ],
      "name": "uninit",
      "outputs": [],
      "payable": false,
      "stateMutability": "nonpayable",
      "type": "function"
    },
    {
      "constant": false,
      "inputs": [
        {
          "name": "hid",
          "type": "uint256"
        },
        {
          "name": "side",
          "type": "uint256"
        },
        {
          "name": "payout",
          "type": "uint256"
        },
        {
          "name": "maker",
          "type": "address"
        },
        {
          "name": "offchain",
          "type": "bytes32"
        }
      ],
      "name": "shake",
      "outputs": [],
      "payable": true,
      "stateMutability": "payable",
      "type": "function"
    },
    {
      "constant": false,
      "inputs": [
        {
          "name": "hid",
          "type": "uint256"
        },
        {
          "name": "offchain",
          "type": "bytes32"
        }
      ],
      "name": "collect",
      "outputs": [],
      "payable": false,
      "stateMutability": "nonpayable",
      "type": "function"
    },
    {
      "constant": false,
      "inputs": [
        {
          "name": "hid",
          "type": "uint256"
        },
        {
          "name": "offchain",
          "type": "bytes32"
        }
      ],
      "name": "refund",
      "outputs": [],
      "payable": false,
      "stateMutability": "nonpayable",
      "type": "function"
    },
    {
      "constant": false,
      "inputs": [
        {
          "name": "hid",
          "type": "uint256"
        },
        {
          "name": "outcome",
          "type": "uint256"
        },
        {
          "name": "offchain",
          "type": "bytes32"
        }
      ],
      "name": "report",
      "outputs": [],
      "payable": false,
      "stateMutability": "nonpayable",
      "type": "function"
    }
  ],
  "bytecode": "0x6080604052601460025534801561001557600080fd5b5033600160006101000a81548173ffffffffffffffffffffffffffffffffffffffff021916908373ffffffffffffffffffffffffffffffffffffffff160217905550612739806100666000396000f3006080604052600436106100af576000357c0100000000000000000000000000000000000000000000000000000000900463ffffffff16806305577ae9146100b45780634394f6f31461012357806371eedb88146101655780639be5c024146101a0578063a420d8d9146101cb578063a733d8a614610224578063b1283e7714610346578063da676f2014610402578063ebf0c71714610447578063f3692c3e1461049e578063f6e92cca146104d9575b600080fd5b3480156100c057600080fd5b5061012160048036038101908080359060200190929190803573ffffffffffffffffffffffffffffffffffffffff1690602001909291908035906020019092919080359060200190929190803560001916906020019092919050505061053b565b005b610163600480360381019080803590602001909291908035906020019092919080359060200190929190803560001916906020019092919050505061071d565b005b34801561017157600080fd5b5061019e600480360381019080803590602001909291908035600019169060200190929190505050610964565b005b3480156101ac57600080fd5b506101b5610f11565b6040518082815260200191505060405180910390f35b3480156101d757600080fd5b50610222600480360381019080803590602001909291908035906020019092919080359060200190929190803590602001909291908035600019169060200190929190505050610f17565b005b61034460048036038101908080359060200190820180359060200190808060200260200160405190810160405280939291908181526020018383602002808284378201915050505050509192919290803590602001908201803590602001908080602002602001604051908101604052809392919081815260200183836020028082843782019150505050505091929192908035906020019082018035906020019080806020026020016040519081016040528093929190818152602001838360200280828437820191505050505050919291929080359060200190820180359060200190808060200260200160405190810160405280939291908181526020018383602002808284378201915050505050509192919290505050611453565b005b34801561035257600080fd5b50610371600480360381019080803590602001909291905050506117ce565b604051808773ffffffffffffffffffffffffffffffffffffffff1673ffffffffffffffffffffffffffffffffffffffff1681526020018673ffffffffffffffffffffffffffffffffffffffff1673ffffffffffffffffffffffffffffffffffffffff168152602001858152602001848152602001838152602001828152602001965050505050505060405180910390f35b34801561040e57600080fd5b5061044560048036038101908080359060200190929190803590602001909291908035600019169060200190929190505050611859565b005b34801561045357600080fd5b5061045c61193f565b604051808273ffffffffffffffffffffffffffffffffffffffff1673ffffffffffffffffffffffffffffffffffffffff16815260200191505060405180910390f35b3480156104aa57600080fd5b506104d7600480360381019080803590602001909291908035600019169060200190929190505050611965565b005b610539600480360381019080803590602001909291908035906020019092919080359060200190929190803573ffffffffffffffffffffffffffffffffffffffff1690602001909291908035600019169060200190929190505050612009565b005b6105436126aa565b33816000019073ffffffffffffffffffffffffffffffffffffffff16908173ffffffffffffffffffffffffffffffffffffffff168152505084816020019073ffffffffffffffffffffffffffffffffffffffff16908173ffffffffffffffffffffffffffffffffffffffff168152505085816060018181525050600184024201816080018181525050600183028160800151018160a00181815250506000819080600181540180825580915050906001820390600052602060002090600802016000909192909190915060008201518160000160006101000a81548173ffffffffffffffffffffffffffffffffffffffff021916908373ffffffffffffffffffffffffffffffffffffffff16021790555060208201518160010160006101000a81548173ffffffffffffffffffffffffffffffffffffffff021916908373ffffffffffffffffffffffffffffffffffffffff16021790555060408201518160020155606082015181600301556080820151816004015560a082015181600501555050507f6ca4bad73e644d473be8bf4f88e57b9c92f4aae31d45b3a7f90cd9438343b641600160008054905003836040518083815260200182600019166000191681526020019250505060405180910390a1505050505050565b6000808581548110151561072d57fe5b9060005260206000209060080201905080600401544210151561074f57600080fd5b348160060160003373ffffffffffffffffffffffffffffffffffffffff1673ffffffffffffffffffffffffffffffffffffffff168152602001908152602001600020600086815260200190815260200160002060000160008282540192505081905550828160060160003373ffffffffffffffffffffffffffffffffffffffff1673ffffffffffffffffffffffffffffffffffffffff1681526020019081526020016000206000868152602001908152602001600020600101600082825401925050819055507f21c02be65fa434a2e6b80a50c93b2654e65a53835f1b04697e4b5c09175beb1385836040518083815260200182600019166000191681526020019250505060405180910390a17f5e37009fc1fb0733a2b07e84ef450ea364988e90b0703718a7fc6c9f1ebbfcb4858260060160003373ffffffffffffffffffffffffffffffffffffffff1673ffffffffffffffffffffffffffffffffffffffff1681526020019081526020016000206000878152602001908152602001600020600001548360060160003373ffffffffffffffffffffffffffffffffffffffff1673ffffffffffffffffffffffffffffffffffffffff1681526020019081526020016000206000888152602001908152602001600020600101548560405180858152602001848152602001838152602001826000191660001916815260200194505050505060405180910390a15050505050565b600080836000808281548110151561097857fe5b906000526020600020906008020160070160003373ffffffffffffffffffffffffffffffffffffffff1673ffffffffffffffffffffffffffffffffffffffff168152602001908152602001600020600060018152602001908152602001600020600001541180610a595750600080828154811015156109f357fe5b906000526020600020906008020160070160003373ffffffffffffffffffffffffffffffffffffffff1673ffffffffffffffffffffffffffffffffffffffff16815260200190815260200160002060006002815260200190815260200160002060000154115b80610ad5575060008082815481101515610a6f57fe5b906000526020600020906008020160060160003373ffffffffffffffffffffffffffffffffffffffff1673ffffffffffffffffffffffffffffffffffffffff16815260200190815260200160002060006001815260200190815260200160002060000154115b80610b51575060008082815481101515610aeb57fe5b906000526020600020906008020160060160003373ffffffffffffffffffffffffffffffffffffffff1673ffffffffffffffffffffffffffffffffffffffff16815260200190815260200160002060006002815260200190815260200160002060000154115b1515610b5c57600080fd5b600085815481101515610b6b57fe5b9060005260206000209060080201925060008360020154141515610b8e57600080fd5b826005015442111515610ba057600080fd5b8260070160003373ffffffffffffffffffffffffffffffffffffffff1673ffffffffffffffffffffffffffffffffffffffff16815260200190815260200160002060006001815260200190815260200160002060000154820191508260070160003373ffffffffffffffffffffffffffffffffffffffff1673ffffffffffffffffffffffffffffffffffffffff16815260200190815260200160002060006002815260200190815260200160002060000154820191508260060160003373ffffffffffffffffffffffffffffffffffffffff1673ffffffffffffffffffffffffffffffffffffffff16815260200190815260200160002060006001815260200190815260200160002060000154820191508260060160003373ffffffffffffffffffffffffffffffffffffffff1673ffffffffffffffffffffffffffffffffffffffff168152602001908152602001600020600060028152602001908152602001600020600001548201915060008360070160003373ffffffffffffffffffffffffffffffffffffffff1673ffffffffffffffffffffffffffffffffffffffff1681526020019081526020016000206000600181526020019081526020016000206000018190555060008360070160003373ffffffffffffffffffffffffffffffffffffffff1673ffffffffffffffffffffffffffffffffffffffff1681526020019081526020016000206000600281526020019081526020016000206000018190555060008360060160003373ffffffffffffffffffffffffffffffffffffffff1673ffffffffffffffffffffffffffffffffffffffff1681526020019081526020016000206000600181526020019081526020016000206000018190555060008360060160003373ffffffffffffffffffffffffffffffffffffffff1673ffffffffffffffffffffffffffffffffffffffff168152602001908152602001600020600060028152602001908152602001600020600001819055503373ffffffffffffffffffffffffffffffffffffffff166108fc839081150290604051600060405180830381858888f19350505050158015610ec2573d6000803e3d6000fd5b507f6fe9fe9590d9b235fcb84468bf92bf905ca3795c7c284fa06eec9b10776ea4b485856040518083815260200182600019166000191681526020019250505060405180910390a15050505050565b60025481565b60008560008082815481101515610f2a57fe5b906000526020600020906008020160070160003373ffffffffffffffffffffffffffffffffffffffff1673ffffffffffffffffffffffffffffffffffffffff16815260200190815260200160002060006001815260200190815260200160002060000154118061100b575060008082815481101515610fa557fe5b906000526020600020906008020160070160003373ffffffffffffffffffffffffffffffffffffffff1673ffffffffffffffffffffffffffffffffffffffff16815260200190815260200160002060006002815260200190815260200160002060000154115b8061108757506000808281548110151561102157fe5b906000526020600020906008020160060160003373ffffffffffffffffffffffffffffffffffffffff1673ffffffffffffffffffffffffffffffffffffffff16815260200190815260200160002060006001815260200190815260200160002060000154115b8061110357506000808281548110151561109d57fe5b906000526020600020906008020160060160003373ffffffffffffffffffffffffffffffffffffffff1673ffffffffffffffffffffffffffffffffffffffff16815260200190815260200160002060006002815260200190815260200160002060000154115b151561110e57600080fd5b60008781548110151561111d57fe5b90600052602060002090600802019150848260060160003373ffffffffffffffffffffffffffffffffffffffff1673ffffffffffffffffffffffffffffffffffffffff1681526020019081526020016000206000888152602001908152602001600020600001541015151561119157600080fd5b838260060160003373ffffffffffffffffffffffffffffffffffffffff1673ffffffffffffffffffffffffffffffffffffffff168152602001908152602001600020600088815260200190815260200160002060010154101515156111f557600080fd5b848260060160003373ffffffffffffffffffffffffffffffffffffffff1673ffffffffffffffffffffffffffffffffffffffff168152602001908152602001600020600088815260200190815260200160002060000160008282540392505081905550838260060160003373ffffffffffffffffffffffffffffffffffffffff1673ffffffffffffffffffffffffffffffffffffffff1681526020019081526020016000206000888152602001908152602001600020600101600082825403925050819055503373ffffffffffffffffffffffffffffffffffffffff166108fc869081150290604051600060405180830381858888f19350505050158015611301573d6000803e3d6000fd5b507fab0e14e0a016fa8a0d17ecf0051bf0b27117e332369e6660521a8969574c272d87846040518083815260200182600019166000191681526020019250505060405180910390a17f2b8e15b9a80ea5c2471d44b200d2b08ba9fe6c4f31f834656e480d511da71842878360060160003373ffffffffffffffffffffffffffffffffffffffff1673ffffffffffffffffffffffffffffffffffffffff1681526020019081526020016000206000898152602001908152602001600020600001548460060160003373ffffffffffffffffffffffffffffffffffffffff1673ffffffffffffffffffffffffffffffffffffffff16815260200190815260200160002060008a8152602001908152602001600020600101548660405180858152602001848152602001838152602001826000191660001916815260200194505050505060405180910390a150505050505050565b6000808451865114151561146657600080fd5b8351865114151561147657600080fd5b8251865114151561148657600080fd5b600091505b85518210156117c657600086838151811015156114a457fe5b906020019060200201518154811015156114ba57fe5b906000526020600020906008020190508060040154421015156114dc57600080fd5b348160060160003373ffffffffffffffffffffffffffffffffffffffff1673ffffffffffffffffffffffffffffffffffffffff1681526020019081526020016000206000878581518110151561152e57fe5b90602001906020020151815260200190815260200160002060000160008282540192505081905550838281518110151561156457fe5b906020019060200201518160060160003373ffffffffffffffffffffffffffffffffffffffff1673ffffffffffffffffffffffffffffffffffffffff168152602001908152602001600020600087858151811015156115bf57fe5b906020019060200201518152602001908152602001600020600101600082825401925050819055507f21c02be65fa434a2e6b80a50c93b2654e65a53835f1b04697e4b5c09175beb13868381518110151561161657fe5b90602001906020020151848481518110151561162e57fe5b906020019060200201516040518083815260200182600019166000191681526020019250505060405180910390a17f5e37009fc1fb0733a2b07e84ef450ea364988e90b0703718a7fc6c9f1ebbfcb4868381518110151561168b57fe5b906020019060200201518260060160003373ffffffffffffffffffffffffffffffffffffffff1673ffffffffffffffffffffffffffffffffffffffff168152602001908152602001600020600088868151811015156116e657fe5b906020019060200201518152602001908152602001600020600001548360060160003373ffffffffffffffffffffffffffffffffffffffff1673ffffffffffffffffffffffffffffffffffffffff1681526020019081526020016000206000898781518110151561175357fe5b90602001906020020151815260200190815260200160002060010154868681518110151561177d57fe5b9060200190602002015160405180858152602001848152602001838152602001826000191660001916815260200194505050505060405180910390a1818060010192505061148b565b505050505050565b6000818154811015156117dd57fe5b90600052602060002090600802016000915090508060000160009054906101000a900473ffffffffffffffffffffffffffffffffffffffff16908060010160009054906101000a900473ffffffffffffffffffffffffffffffffffffffff16908060020154908060030154908060040154908060050154905086565b6000808481548110151561186957fe5b906000526020600020906008020190508060010160009054906101000a900473ffffffffffffffffffffffffffffffffffffffff1673ffffffffffffffffffffffffffffffffffffffff163373ffffffffffffffffffffffffffffffffffffffff161415156118d757600080fd5b8060040154421115156118e957600080fd5b8281600201819055507f71c8b3ac7d9125fc562f0e493b93c79c2f22d445820a039344e6732d22871d3c84836040518083815260200182600019166000191681526020019250505060405180910390a150505050565b600160009054906101000a900473ffffffffffffffffffffffffffffffffffffffff1681565b600080600080856000808281548110151561197c57fe5b906000526020600020906008020160070160003373ffffffffffffffffffffffffffffffffffffffff1673ffffffffffffffffffffffffffffffffffffffff168152602001908152602001600020600060018152602001908152602001600020600001541180611a5d5750600080828154811015156119f757fe5b906000526020600020906008020160070160003373ffffffffffffffffffffffffffffffffffffffff1673ffffffffffffffffffffffffffffffffffffffff16815260200190815260200160002060006002815260200190815260200160002060000154115b80611ad9575060008082815481101515611a7357fe5b906000526020600020906008020160060160003373ffffffffffffffffffffffffffffffffffffffff1673ffffffffffffffffffffffffffffffffffffffff16815260200190815260200160002060006001815260200190815260200160002060000154115b80611b55575060008082815481101515611aef57fe5b906000526020600020906008020160060160003373ffffffffffffffffffffffffffffffffffffffff1673ffffffffffffffffffffffffffffffffffffffff16815260200190815260200160002060006002815260200190815260200160002060000154115b1515611b6057600080fd5b600087815481101515611b6f57fe5b906000526020600020906008020194506000856002015414151515611b9357600080fd5b846004015442111515611ba557600080fd5b606485600301548660070160003373ffffffffffffffffffffffffffffffffffffffff1673ffffffffffffffffffffffffffffffffffffffff1681526020019081526020016000206000886002015481526020019081526020016000206001015402811515611c1057fe5b04935060646002548502811515611c2357fe5b0492508460070160003373ffffffffffffffffffffffffffffffffffffffff1673ffffffffffffffffffffffffffffffffffffffff1681526020019081526020016000206000866002015481526020019081526020016000206001015491508460060160003373ffffffffffffffffffffffffffffffffffffffff1673ffffffffffffffffffffffffffffffffffffffff16815260200190815260200160002060006001815260200190815260200160002060000154820191508460060160003373ffffffffffffffffffffffffffffffffffffffff1673ffffffffffffffffffffffffffffffffffffffff168152602001908152602001600020600060028152602001908152602001600020600001548201915060008560070160003373ffffffffffffffffffffffffffffffffffffffff1673ffffffffffffffffffffffffffffffffffffffff1681526020019081526020016000206000876002015481526020019081526020016000206001018190555060008560060160003373ffffffffffffffffffffffffffffffffffffffff1673ffffffffffffffffffffffffffffffffffffffff1681526020019081526020016000206000600181526020019081526020016000206000018190555060008560060160003373ffffffffffffffffffffffffffffffffffffffff1673ffffffffffffffffffffffffffffffffffffffff168152602001908152602001600020600060028152602001908152602001600020600001819055503373ffffffffffffffffffffffffffffffffffffffff166108fc8584039081150290604051600060405180830381858888f19350505050158015611e97573d6000803e3d6000fd5b508460000160009054906101000a900473ffffffffffffffffffffffffffffffffffffffff1673ffffffffffffffffffffffffffffffffffffffff166108fc8486039081150290604051600060405180830381858888f19350505050158015611f04573d6000803e3d6000fd5b50600160009054906101000a900473ffffffffffffffffffffffffffffffffffffffff1673ffffffffffffffffffffffffffffffffffffffff166108fc849081150290604051600060405180830381858888f19350505050158015611f6d573d6000803e3d6000fd5b507f524cfe0d33d142e24b3c16c7f11234b23eae5fe14f95d328f3991837dc56d31487876040518083815260200182600019166000191681526020019250505060405180910390a17f8de0c4178df0ca7d776c505c09fe7699d34fb83545c4b23c03fc2e87461604888384860386850360405180848152602001838152602001828152602001935050505060405180910390a150505050505050565b6000808373ffffffffffffffffffffffffffffffffffffffff161415151561203057600080fd5b60008681548110151561203f57fe5b9060005260206000209060080201905080600401544210151561206157600080fd5b3484038160060160008573ffffffffffffffffffffffffffffffffffffffff1673ffffffffffffffffffffffffffffffffffffffff168152602001908152602001600020600087600303815260200190815260200160002060000160008282540392505081905550838160060160008573ffffffffffffffffffffffffffffffffffffffff1673ffffffffffffffffffffffffffffffffffffffff16815260200190815260200160002060008760030381526020019081526020016000206001016000828254039250508190555060008160060160008573ffffffffffffffffffffffffffffffffffffffff1673ffffffffffffffffffffffffffffffffffffffff1681526020019081526020016000206000876003038152602001908152602001600020600001541015151561219757600080fd5b60008160060160008573ffffffffffffffffffffffffffffffffffffffff1673ffffffffffffffffffffffffffffffffffffffff168152602001908152602001600020600087600303815260200190815260200160002060010154101515156121ff57600080fd5b3484038160070160008573ffffffffffffffffffffffffffffffffffffffff1673ffffffffffffffffffffffffffffffffffffffff168152602001908152602001600020600087600303815260200190815260200160002060000160008282540192505081905550838160070160008573ffffffffffffffffffffffffffffffffffffffff1673ffffffffffffffffffffffffffffffffffffffff168152602001908152602001600020600087600303815260200190815260200160002060010160008282540192505081905550348160070160003373ffffffffffffffffffffffffffffffffffffffff1673ffffffffffffffffffffffffffffffffffffffff168152602001908152602001600020600087815260200190815260200160002060000160008282540192505081905550838160070160003373ffffffffffffffffffffffffffffffffffffffff1673ffffffffffffffffffffffffffffffffffffffff1681526020019081526020016000206000878152602001908152602001600020600101600082825401925050819055507f6a5ee55c9df2daa4375d2b5e4ec8b9e5662f1863207bcbe6e38c6f5fe3c2430086836040518083815260200182600019166000191681526020019250505060405180910390a17fddd4b6478f1c5a2cf67d6c1ce4fbc3e6600bcd374c8022c56a6376793ce05cf6868260070160003373ffffffffffffffffffffffffffffffffffffffff1673ffffffffffffffffffffffffffffffffffffffff1681526020019081526020016000206000888152602001908152602001600020600001548360070160003373ffffffffffffffffffffffffffffffffffffffff1673ffffffffffffffffffffffffffffffffffffffff1681526020019081526020016000206000898152602001908152602001600020600101548560405180858152602001848152602001838152602001826000191660001916815260200194505050505060405180910390a17ffe6a5aaad1b1258bfd73b4770713e461fcadf474e668b5d4c08509b649838528868260070160008673ffffffffffffffffffffffffffffffffffffffff1673ffffffffffffffffffffffffffffffffffffffff1681526020019081526020016000206000886003038152602001908152602001600020600001548360070160008773ffffffffffffffffffffffffffffffffffffffff1673ffffffffffffffffffffffffffffffffffffffff1681526020019081526020016000206000896003038152602001908152602001600020600101548460060160008873ffffffffffffffffffffffffffffffffffffffff1673ffffffffffffffffffffffffffffffffffffffff16815260200190815260200160002060008a6003038152602001908152602001600020600001548560060160008973ffffffffffffffffffffffffffffffffffffffff1673ffffffffffffffffffffffffffffffffffffffff16815260200190815260200160002060008b60030381526020019081526020016000206001015487604051808781526020018681526020018581526020018481526020018381526020018260001916600019168152602001965050505050505060405180910390a1505050505050565b60c060405190810160405280600073ffffffffffffffffffffffffffffffffffffffff168152602001600073ffffffffffffffffffffffffffffffffffffffff1681526020016000815260200160008152602001600081526020016000815250905600a165627a7a72305820b0e7556758ce4f874f1a1a0fcb216760c53cdc98207f8ad0d05e8875c7634ac70029",
  "source": "/*\n*\n* PredictionExchange is an exchange contract that doesn't accept bets on the outcomes,\n* but instead matchedes backers/takers (those betting on odds) with layers/makers \n* (those offering the odds).\n*\n* Note:\n*\n*       side: 0 (unknown), 1 (support), 2 (against)\n*       role: 0 (unknown), 1 (maker), 2 (taker)\n*       __test__* events will be removed prior to production deployment\n*\n*/\n\npragma solidity ^0.4.24;\n\ncontract PredictionHandshake {\n\n        struct Order {\n                uint stake;\n                uint payout;\n        }\n\n        struct Market {\n                address creator;\n                address reporter;\n                uint outcome;\n                uint fee;\n                uint closingTime; \n                uint reportTime;\n                mapping(address => mapping(uint => Order)) open; // address => side => order\n                mapping(address => mapping(uint => Order)) matched; // address => side => order\n        }\n\n        Market[] public markets;\n        address public root;\n        uint public NETWORK_FEE = 20; // 20%\n\n        constructor() public {\n                root = msg.sender;\n        } \n\n        event __createMarket(uint hid, bytes32 offchain); \n\n        function createMarket(\n                uint fee, \n                address reporter, \n                uint closingTime, \n                uint reportTime, \n                bytes32 offchain\n        ) \n                public \n        {\n                Market memory m;\n                m.creator = msg.sender;\n                m.reporter = reporter;\n                m.fee = fee;\n                m.closingTime = now + closingTime * 1 seconds;\n                m.reportTime = m.closingTime + reportTime * 1 seconds;\n                markets.push(m);\n                emit __createMarket(markets.length - 1, offchain);\n        }\n\n        event __init(uint hid, bytes32 offchain);\n        event __test__init(uint hid, uint stake, uint payout, bytes32 offchain);\n\n        function multiInit(uint[] hid, uint[] side, uint[] payout, bytes32[] offchain) public payable {\n            require(hid.length == side.length);\n            require(hid.length == payout.length);\n            require(hid.length == offchain.length);\n\n            for (uint i = 0; i < hid.length; i++) {\n                Market storage m = markets[hid[i]];\n                require(now < m.closingTime);\n                // TODO: check this\n                m.open[msg.sender][side[i]].stake += msg.value;\n                m.open[msg.sender][side[i]].payout += payout[i];\n                emit __init(hid[i], offchain[i]);\n                emit __test__init(hid[i], m.open[msg.sender][side[i]].stake, m.open[msg.sender][side[i]].payout, offchain[i]);\n            }\n        }\n\n        // market maker\n        function init(uint hid, uint side, uint payout, bytes32 offchain) public payable {\n                Market storage m = markets[hid];\n                require(now < m.closingTime);\n                m.open[msg.sender][side].stake += msg.value;\n                m.open[msg.sender][side].payout += payout;\n                emit __init(hid, offchain);\n                emit __test__init(hid, m.open[msg.sender][side].stake, m.open[msg.sender][side].payout, offchain);\n        }\n\n        event __uninit(uint hid, bytes32 offchain);\n        event __test__uninit(uint hid, uint stake, uint payout, bytes32 offchain);\n\n        // market maker cancels order\n        function uninit(uint hid, uint side, uint stake, uint payout, bytes32 offchain) public onlyPredictor(hid) {\n                Market storage m = markets[hid];\n                require(m.open[msg.sender][side].stake >= stake);\n                require(m.open[msg.sender][side].payout >= payout);\n                m.open[msg.sender][side].stake -= stake;\n                m.open[msg.sender][side].payout -= payout;\n                msg.sender.transfer(stake);\n                emit __uninit(hid, offchain);\n                emit __test__uninit(hid, m.open[msg.sender][side].stake, m.open[msg.sender][side].payout, offchain);\n        }\n\n        event __shake(uint hid, bytes32 offchain);\n        event __test__shake__taker(uint hid, uint stake, uint payout, bytes32 offchain);\n        event __test__shake__maker(uint hid, uint matched_stake, uint matched_payout, \n                                           uint open_stake, uint open_payout, bytes32 offchain);\n\n        // market taker\n        function shake(uint hid, uint side, uint payout, address maker, bytes32 offchain) public payable {\n                require(maker != 0);\n                Market storage m = markets[hid];\n                require(now < m.closingTime);\n\n                // remove maker's order from open (could be partial)\n                m.open[maker][3-side].stake -= (payout - msg.value);\n                m.open[maker][3-side].payout -= payout;\n                require(m.open[maker][3-side].stake >= 0);\n                require(m.open[maker][3-side].payout >= 0);\n\n                // add taker's order maker's order to matched\n                m.matched[maker][3-side].stake += (payout - msg.value);\n                m.matched[maker][3-side].payout += payout;\n                m.matched[msg.sender][side].stake += msg.value;\n                m.matched[msg.sender][side].payout += payout;\n\n                emit __shake(hid, offchain);\n\n                emit __test__shake__taker(hid, m.matched[msg.sender][side].stake, \n                                             m.matched[msg.sender][side].payout, offchain);\n                emit __test__shake__maker(hid, m.matched[maker][3-side].stake, m.matched[maker][3-side].payout, m.open[maker][3-side].stake, m.open[maker][3-side].payout, offchain);\n        }\n\n\n        event __collect(uint hid, bytes32 offchain);\n        event __test__collect(uint network, uint market, uint trader);\n\n        // collect payouts & outstanding stakes (if there is outcome)\n        function collect(uint hid, bytes32 offchain) public onlyPredictor(hid) {\n                Market storage m = markets[hid]; \n                require(m.outcome != 0);\n                require(now > m.closingTime);\n\n                // calc network commission, market commission and winnings\n                uint marketComm = (m.matched[msg.sender][m.outcome].payout * m.fee) / 100;\n                uint networkComm = (marketComm * NETWORK_FEE) / 100;\n                uint amt = m.matched[msg.sender][m.outcome].payout;\n\n                amt += m.open[msg.sender][1].stake; \n                amt += m.open[msg.sender][2].stake;\n\n                // wipe data\n                m.matched[msg.sender][m.outcome].payout = 0;\n                m.open[msg.sender][1].stake = 0; \n                m.open[msg.sender][2].stake = 0;\n\n                msg.sender.transfer(amt - marketComm);\n                m.creator.transfer(marketComm - networkComm);\n                root.transfer(networkComm);\n\n                emit __collect(hid, offchain);\n                emit __test__collect(networkComm, marketComm - networkComm, amt - marketComm);\n        }\n\n\n        event __refund(uint hid, bytes32 offchain);\n\n        // refund stakes when market closes (if there is no outcome)\n        function refund(uint hid, bytes32 offchain) public onlyPredictor(hid) {\n                Market storage m = markets[hid]; \n                require(m.outcome == 0);\n                require(now > m.reportTime);\n\n                // calc refund amt\n                uint amt;\n                amt += m.matched[msg.sender][1].stake;\n                amt += m.matched[msg.sender][2].stake;\n                amt += m.open[msg.sender][1].stake;\n                amt += m.open[msg.sender][2].stake;\n\n                // wipe data\n                m.matched[msg.sender][1].stake = 0;\n                m.matched[msg.sender][2].stake = 0;\n                m.open[msg.sender][1].stake = 0;\n                m.open[msg.sender][2].stake = 0;\n\n                msg.sender.transfer(amt);\n\n                emit __refund(hid, offchain);\n        }\n\n        event __report(uint hid, bytes32 offchain);\n\n        // report outcome\n        function report(uint hid, uint outcome, bytes32 offchain) public {\n                Market storage m = markets[hid]; \n                require(msg.sender == m.reporter);\n                require(now > m.closingTime);\n                m.outcome = outcome;\n                emit __report(hid, offchain);\n        }\n\n        modifier onlyPredictor(uint hid) {\n                require(markets[hid].matched[msg.sender][1].stake > 0 || \n                        markets[hid].matched[msg.sender][2].stake > 0 || \n                        markets[hid].open[msg.sender][1].stake > 0 || \n                        markets[hid].open[msg.sender][2].stake > 0);\n                _;\n        }\n}\n",
  "sourcePath": "/Users/apple/workspace/ninja/handshake-protocol/contracts/PredictionHandshake.sol",
  "compiler": {
    "name": "solc",
    "version": "0.4.24+commit.e67f0147.Emscripten.clang"
  },
  "schemaVersion": "2.0.0",
  "updatedAt": "2018-06-08T06:23:50.315Z"
}