{
  "contractName": "PredictionHandshake",
  "abi": [
    {
      "constant": true,
      "inputs": [],
      "name": "NETWORK_FEE",
      "outputs": [
        {
          "name": "",
          "type": "uint256"
        }
      ],
      "payable": false,
      "stateMutability": "view",
      "type": "function"
    },
    {
      "constant": true,
      "inputs": [
        {
          "name": "",
          "type": "uint256"
        }
      ],
      "name": "markets",
      "outputs": [
        {
          "name": "creator",
          "type": "address"
        },
        {
          "name": "outcome",
          "type": "uint256"
        },
        {
          "name": "fee",
          "type": "uint256"
        },
        {
          "name": "reportTime",
          "type": "uint256"
        },
        {
          "name": "closingTime",
          "type": "uint256"
        }
      ],
      "payable": false,
      "stateMutability": "view",
      "type": "function"
    },
    {
      "constant": true,
      "inputs": [],
      "name": "root",
      "outputs": [
        {
          "name": "",
          "type": "address"
        }
      ],
      "payable": false,
      "stateMutability": "view",
      "type": "function"
    },
    {
      "inputs": [],
      "payable": false,
      "stateMutability": "nonpayable",
      "type": "constructor"
    },
    {
      "anonymous": false,
      "inputs": [
        {
          "indexed": false,
          "name": "hid",
          "type": "uint256"
        },
        {
          "indexed": false,
          "name": "offchain",
          "type": "bytes32"
        }
      ],
      "name": "__createMarket",
      "type": "event"
    },
    {
      "anonymous": false,
      "inputs": [
        {
          "indexed": false,
          "name": "hid",
          "type": "uint256"
        },
        {
          "indexed": false,
          "name": "offchain",
          "type": "bytes32"
        }
      ],
      "name": "__init",
      "type": "event"
    },
    {
      "anonymous": false,
      "inputs": [
        {
          "indexed": false,
          "name": "hid",
          "type": "uint256"
        },
        {
          "indexed": false,
          "name": "stake",
          "type": "uint256"
        },
        {
          "indexed": false,
          "name": "payout",
          "type": "uint256"
        },
        {
          "indexed": false,
          "name": "offchain",
          "type": "bytes32"
        }
      ],
      "name": "__debug__init",
      "type": "event"
    },
    {
      "anonymous": false,
      "inputs": [
        {
          "indexed": false,
          "name": "hid",
          "type": "uint256"
        },
        {
          "indexed": false,
          "name": "offchain",
          "type": "bytes32"
        }
      ],
      "name": "__uninit",
      "type": "event"
    },
    {
      "anonymous": false,
      "inputs": [
        {
          "indexed": false,
          "name": "hid",
          "type": "uint256"
        },
        {
          "indexed": false,
          "name": "offchain",
          "type": "bytes32"
        }
      ],
      "name": "__shake",
      "type": "event"
    },
    {
      "anonymous": false,
      "inputs": [
        {
          "indexed": false,
          "name": "hid",
          "type": "uint256"
        },
        {
          "indexed": false,
          "name": "stake",
          "type": "uint256"
        },
        {
          "indexed": false,
          "name": "payout",
          "type": "uint256"
        },
        {
          "indexed": false,
          "name": "offchain",
          "type": "bytes32"
        }
      ],
      "name": "__debug__shake__taker",
      "type": "event"
    },
    {
      "anonymous": false,
      "inputs": [
        {
          "indexed": false,
          "name": "hid",
          "type": "uint256"
        },
        {
          "indexed": false,
          "name": "matched_stake",
          "type": "uint256"
        },
        {
          "indexed": false,
          "name": "matched_payout",
          "type": "uint256"
        },
        {
          "indexed": false,
          "name": "open_stake",
          "type": "uint256"
        },
        {
          "indexed": false,
          "name": "open_payout",
          "type": "uint256"
        },
        {
          "indexed": false,
          "name": "offchain",
          "type": "bytes32"
        }
      ],
      "name": "__debug__shake__maker",
      "type": "event"
    },
    {
      "anonymous": false,
      "inputs": [
        {
          "indexed": false,
          "name": "hid",
          "type": "uint256"
        },
        {
          "indexed": false,
          "name": "offchain",
          "type": "bytes32"
        }
      ],
      "name": "__collect",
      "type": "event"
    },
    {
      "anonymous": false,
      "inputs": [
        {
          "indexed": false,
          "name": "hid",
          "type": "uint256"
        },
        {
          "indexed": false,
          "name": "offchain",
          "type": "bytes32"
        }
      ],
      "name": "__refund",
      "type": "event"
    },
    {
      "anonymous": false,
      "inputs": [
        {
          "indexed": false,
          "name": "hid",
          "type": "uint256"
        },
        {
          "indexed": false,
          "name": "offchain",
          "type": "bytes32"
        }
      ],
      "name": "__report",
      "type": "event"
    },
    {
      "constant": false,
      "inputs": [
        {
          "name": "fee",
          "type": "uint256"
        },
        {
          "name": "closingTime",
          "type": "uint256"
        },
        {
          "name": "reportTime",
          "type": "uint256"
        },
        {
          "name": "offchain",
          "type": "bytes32"
        }
      ],
      "name": "createMarket",
      "outputs": [],
      "payable": true,
      "stateMutability": "payable",
      "type": "function"
    },
    {
      "constant": false,
      "inputs": [
        {
          "name": "hid",
          "type": "uint256"
        },
        {
          "name": "side",
          "type": "uint256"
        },
        {
          "name": "payout",
          "type": "uint256"
        },
        {
          "name": "offchain",
          "type": "bytes32"
        }
      ],
      "name": "init",
      "outputs": [],
      "payable": true,
      "stateMutability": "payable",
      "type": "function"
    },
    {
      "constant": false,
      "inputs": [
        {
          "name": "hid",
          "type": "uint256"
        },
        {
          "name": "side",
          "type": "uint256"
        },
        {
          "name": "stake",
          "type": "uint256"
        },
        {
          "name": "payout",
          "type": "uint256"
        },
        {
          "name": "offchain",
          "type": "bytes32"
        }
      ],
      "name": "uninit",
      "outputs": [],
      "payable": false,
      "stateMutability": "nonpayable",
      "type": "function"
    },
    {
      "constant": false,
      "inputs": [
        {
          "name": "hid",
          "type": "uint256"
        },
        {
          "name": "side",
          "type": "uint256"
        },
        {
          "name": "payout",
          "type": "uint256"
        },
        {
          "name": "maker",
          "type": "address"
        },
        {
          "name": "offchain",
          "type": "bytes32"
        }
      ],
      "name": "shake",
      "outputs": [],
      "payable": true,
      "stateMutability": "payable",
      "type": "function"
    },
    {
      "constant": false,
      "inputs": [
        {
          "name": "hid",
          "type": "uint256"
        },
        {
          "name": "offchain",
          "type": "bytes32"
        }
      ],
      "name": "collect",
      "outputs": [],
      "payable": false,
      "stateMutability": "nonpayable",
      "type": "function"
    },
    {
      "constant": false,
      "inputs": [
        {
          "name": "hid",
          "type": "uint256"
        },
        {
          "name": "offchain",
          "type": "bytes32"
        }
      ],
      "name": "refund",
      "outputs": [],
      "payable": false,
      "stateMutability": "nonpayable",
      "type": "function"
    },
    {
      "constant": false,
      "inputs": [
        {
          "name": "hid",
          "type": "uint256"
        },
        {
          "name": "outcome",
          "type": "uint256"
        },
        {
          "name": "offchain",
          "type": "bytes32"
        }
      ],
      "name": "report",
      "outputs": [],
      "payable": false,
      "stateMutability": "nonpayable",
      "type": "function"
    }
  ],
  "bytecode": "0x60606040526014600255341561001457600080fd5b33600160006101000a81548173ffffffffffffffffffffffffffffffffffffffff021916908373ffffffffffffffffffffffffffffffffffffffff16021790555061201a806100646000396000f3006060604052600436106100a4576000357c0100000000000000000000000000000000000000000000000000000000900463ffffffff1680633c093da3146100a95780634394f6f3146100e057806371eedb88146101175780639be5c02414610147578063a420d8d914610170578063b1283e77146101bb578063da676f201461023a578063ebf0c71714610273578063f3692c3e146102c8578063f6e92cca146102f8575b600080fd5b6100de60048080359060200190919080359060200190919080359060200190919080356000191690602001909190505061034e565b005b6101156004808035906020019091908035906020019091908035906020019091908035600019169060200190919050506104ac565b005b341561012257600080fd5b6101456004808035906020019091908035600019169060200190919050506106f3565b005b341561015257600080fd5b61015a610c99565b6040518082815260200191505060405180910390f35b341561017b57600080fd5b6101b9600480803590602001909190803590602001909190803590602001909190803590602001909190803560001916906020019091905050610c9f565b005b34156101c657600080fd5b6101dc60048080359060200190919050506110d3565b604051808673ffffffffffffffffffffffffffffffffffffffff1673ffffffffffffffffffffffffffffffffffffffff1681526020018581526020018481526020018381526020018281526020019550505050505060405180910390f35b341561024557600080fd5b610271600480803590602001909190803590602001909190803560001916906020019091905050611138565b005b341561027e57600080fd5b610286611205565b604051808273ffffffffffffffffffffffffffffffffffffffff1673ffffffffffffffffffffffffffffffffffffffff16815260200191505060405180910390f35b34156102d357600080fd5b6102f660048080359060200190919080356000191690602001909190505061122b565b005b61034c600480803590602001909190803590602001909190803590602001909190803573ffffffffffffffffffffffffffffffffffffffff169060200190919080356000191690602001909190505061186f565b005b610356611f10565b33816000019073ffffffffffffffffffffffffffffffffffffffff16908173ffffffffffffffffffffffffffffffffffffffff16815250508481604001818152505060018402420181608001818152505060018302816080015101816060018181525050600080548060010182816103ce9190611f56565b9160005260206000209060070201600083909190915060008201518160000160006101000a81548173ffffffffffffffffffffffffffffffffffffffff021916908373ffffffffffffffffffffffffffffffffffffffff160217905550602082015181600101556040820151816002015560608201518160030155608082015181600401555050507f6ca4bad73e644d473be8bf4f88e57b9c92f4aae31d45b3a7f90cd9438343b641600160008054905003836040518083815260200182600019166000191681526020019250505060405180910390a15050505050565b600080858154811015156104bc57fe5b906000526020600020906007020190508060040154421015156104de57600080fd5b348160050160003373ffffffffffffffffffffffffffffffffffffffff1673ffffffffffffffffffffffffffffffffffffffff168152602001908152602001600020600086815260200190815260200160002060000160008282540192505081905550828160050160003373ffffffffffffffffffffffffffffffffffffffff1673ffffffffffffffffffffffffffffffffffffffff1681526020019081526020016000206000868152602001908152602001600020600101600082825401925050819055507f21c02be65fa434a2e6b80a50c93b2654e65a53835f1b04697e4b5c09175beb1385836040518083815260200182600019166000191681526020019250505060405180910390a17f78dfc66c405c2f693aad34506f4cca84d35ec44614d753d514ea38f26a2bfdaf858260050160003373ffffffffffffffffffffffffffffffffffffffff1673ffffffffffffffffffffffffffffffffffffffff1681526020019081526020016000206000878152602001908152602001600020600001548360050160003373ffffffffffffffffffffffffffffffffffffffff1673ffffffffffffffffffffffffffffffffffffffff1681526020019081526020016000206000888152602001908152602001600020600101548560405180858152602001848152602001838152602001826000191660001916815260200194505050505060405180910390a15050505050565b600080836000808281548110151561070757fe5b906000526020600020906007020160060160003373ffffffffffffffffffffffffffffffffffffffff1673ffffffffffffffffffffffffffffffffffffffff1681526020019081526020016000206000600181526020019081526020016000206000015411806107e857506000808281548110151561078257fe5b906000526020600020906007020160060160003373ffffffffffffffffffffffffffffffffffffffff1673ffffffffffffffffffffffffffffffffffffffff16815260200190815260200160002060006002815260200190815260200160002060000154115b806108645750600080828154811015156107fe57fe5b906000526020600020906007020160050160003373ffffffffffffffffffffffffffffffffffffffff1673ffffffffffffffffffffffffffffffffffffffff16815260200190815260200160002060006001815260200190815260200160002060000154115b806108e057506000808281548110151561087a57fe5b906000526020600020906007020160050160003373ffffffffffffffffffffffffffffffffffffffff1673ffffffffffffffffffffffffffffffffffffffff16815260200190815260200160002060006002815260200190815260200160002060000154115b15156108eb57600080fd5b6000858154811015156108fa57fe5b906000526020600020906007020192506000836001015414151561091d57600080fd5b82600301544211151561092f57600080fd5b8260060160003373ffffffffffffffffffffffffffffffffffffffff1673ffffffffffffffffffffffffffffffffffffffff16815260200190815260200160002060006001815260200190815260200160002060000154820191508260060160003373ffffffffffffffffffffffffffffffffffffffff1673ffffffffffffffffffffffffffffffffffffffff16815260200190815260200160002060006002815260200190815260200160002060000154820191508260050160003373ffffffffffffffffffffffffffffffffffffffff1673ffffffffffffffffffffffffffffffffffffffff16815260200190815260200160002060006001815260200190815260200160002060000154820191508260050160003373ffffffffffffffffffffffffffffffffffffffff1673ffffffffffffffffffffffffffffffffffffffff168152602001908152602001600020600060028152602001908152602001600020600001548201915060008360060160003373ffffffffffffffffffffffffffffffffffffffff1673ffffffffffffffffffffffffffffffffffffffff1681526020019081526020016000206000600181526020019081526020016000206000018190555060008360060160003373ffffffffffffffffffffffffffffffffffffffff1673ffffffffffffffffffffffffffffffffffffffff1681526020019081526020016000206000600281526020019081526020016000206000018190555060008360050160003373ffffffffffffffffffffffffffffffffffffffff1673ffffffffffffffffffffffffffffffffffffffff1681526020019081526020016000206000600181526020019081526020016000206000018190555060008360050160003373ffffffffffffffffffffffffffffffffffffffff1673ffffffffffffffffffffffffffffffffffffffff168152602001908152602001600020600060028152602001908152602001600020600001819055503373ffffffffffffffffffffffffffffffffffffffff166108fc839081150290604051600060405180830381858888f193505050501515610c4b57600080fd5b7f6fe9fe9590d9b235fcb84468bf92bf905ca3795c7c284fa06eec9b10776ea4b485856040518083815260200182600019166000191681526020019250505060405180910390a15050505050565b60025481565b60008560008082815481101515610cb257fe5b906000526020600020906007020160060160003373ffffffffffffffffffffffffffffffffffffffff1673ffffffffffffffffffffffffffffffffffffffff168152602001908152602001600020600060018152602001908152602001600020600001541180610d93575060008082815481101515610d2d57fe5b906000526020600020906007020160060160003373ffffffffffffffffffffffffffffffffffffffff1673ffffffffffffffffffffffffffffffffffffffff16815260200190815260200160002060006002815260200190815260200160002060000154115b80610e0f575060008082815481101515610da957fe5b906000526020600020906007020160050160003373ffffffffffffffffffffffffffffffffffffffff1673ffffffffffffffffffffffffffffffffffffffff16815260200190815260200160002060006001815260200190815260200160002060000154115b80610e8b575060008082815481101515610e2557fe5b906000526020600020906007020160050160003373ffffffffffffffffffffffffffffffffffffffff1673ffffffffffffffffffffffffffffffffffffffff16815260200190815260200160002060006002815260200190815260200160002060000154115b1515610e9657600080fd5b600087815481101515610ea557fe5b90600052602060002090600702019150848260050160003373ffffffffffffffffffffffffffffffffffffffff1673ffffffffffffffffffffffffffffffffffffffff16815260200190815260200160002060008881526020019081526020016000206000015410151515610f1957600080fd5b838260050160003373ffffffffffffffffffffffffffffffffffffffff1673ffffffffffffffffffffffffffffffffffffffff16815260200190815260200160002060008881526020019081526020016000206001015410151515610f7d57600080fd5b848260050160003373ffffffffffffffffffffffffffffffffffffffff1673ffffffffffffffffffffffffffffffffffffffff168152602001908152602001600020600088815260200190815260200160002060000160008282540392505081905550838260050160003373ffffffffffffffffffffffffffffffffffffffff1673ffffffffffffffffffffffffffffffffffffffff1681526020019081526020016000206000888152602001908152602001600020600101600082825403925050819055503373ffffffffffffffffffffffffffffffffffffffff166108fc869081150290604051600060405180830381858888f19350505050151561108357600080fd5b7fab0e14e0a016fa8a0d17ecf0051bf0b27117e332369e6660521a8969574c272d87846040518083815260200182600019166000191681526020019250505060405180910390a150505050505050565b6000818154811015156110e257fe5b90600052602060002090600702016000915090508060000160009054906101000a900473ffffffffffffffffffffffffffffffffffffffff16908060010154908060020154908060030154908060040154905085565b600160009054906101000a900473ffffffffffffffffffffffffffffffffffffffff1673ffffffffffffffffffffffffffffffffffffffff163373ffffffffffffffffffffffffffffffffffffffff1614151561119457600080fd5b816000848154811015156111a457fe5b9060005260206000209060070201600101819055507f71c8b3ac7d9125fc562f0e493b93c79c2f22d445820a039344e6732d22871d3c83826040518083815260200182600019166000191681526020019250505060405180910390a1505050565b600160009054906101000a900473ffffffffffffffffffffffffffffffffffffffff1681565b600080600080856000808281548110151561124257fe5b906000526020600020906007020160060160003373ffffffffffffffffffffffffffffffffffffffff1673ffffffffffffffffffffffffffffffffffffffff1681526020019081526020016000206000600181526020019081526020016000206000015411806113235750600080828154811015156112bd57fe5b906000526020600020906007020160060160003373ffffffffffffffffffffffffffffffffffffffff1673ffffffffffffffffffffffffffffffffffffffff16815260200190815260200160002060006002815260200190815260200160002060000154115b8061139f57506000808281548110151561133957fe5b906000526020600020906007020160050160003373ffffffffffffffffffffffffffffffffffffffff1673ffffffffffffffffffffffffffffffffffffffff16815260200190815260200160002060006001815260200190815260200160002060000154115b8061141b5750600080828154811015156113b557fe5b906000526020600020906007020160050160003373ffffffffffffffffffffffffffffffffffffffff1673ffffffffffffffffffffffffffffffffffffffff16815260200190815260200160002060006002815260200190815260200160002060000154115b151561142657600080fd5b60008781548110151561143557fe5b90600052602060002090600702019450600085600101541415151561145957600080fd5b84600401544211151561146b57600080fd5b606485600201548660060160003373ffffffffffffffffffffffffffffffffffffffff1673ffffffffffffffffffffffffffffffffffffffff16815260200190815260200160002060008860010154815260200190815260200160002060010154028115156114d657fe5b049350606460025485028115156114e957fe5b0492508460060160003373ffffffffffffffffffffffffffffffffffffffff1673ffffffffffffffffffffffffffffffffffffffff1681526020019081526020016000206000866001015481526020019081526020016000206001015491508460050160003373ffffffffffffffffffffffffffffffffffffffff1673ffffffffffffffffffffffffffffffffffffffff16815260200190815260200160002060006001815260200190815260200160002060000154820191508460050160003373ffffffffffffffffffffffffffffffffffffffff1673ffffffffffffffffffffffffffffffffffffffff168152602001908152602001600020600060028152602001908152602001600020600001548201915060008560060160003373ffffffffffffffffffffffffffffffffffffffff1673ffffffffffffffffffffffffffffffffffffffff1681526020019081526020016000206000876001015481526020019081526020016000206001018190555060008560050160003373ffffffffffffffffffffffffffffffffffffffff1673ffffffffffffffffffffffffffffffffffffffff1681526020019081526020016000206000600181526020019081526020016000206000018190555060008560050160003373ffffffffffffffffffffffffffffffffffffffff1673ffffffffffffffffffffffffffffffffffffffff168152602001908152602001600020600060028152602001908152602001600020600001819055503373ffffffffffffffffffffffffffffffffffffffff166108fc8584039081150290604051600060405180830381858888f19350505050151561175757600080fd5b8460000160009054906101000a900473ffffffffffffffffffffffffffffffffffffffff1673ffffffffffffffffffffffffffffffffffffffff166108fc8486039081150290604051600060405180830381858888f1935050505015156117bd57600080fd5b600160009054906101000a900473ffffffffffffffffffffffffffffffffffffffff1673ffffffffffffffffffffffffffffffffffffffff166108fc849081150290604051600060405180830381858888f19350505050151561181f57600080fd5b7f524cfe0d33d142e24b3c16c7f11234b23eae5fe14f95d328f3991837dc56d31487876040518083815260200182600019166000191681526020019250505060405180910390a150505050505050565b6000808373ffffffffffffffffffffffffffffffffffffffff161415151561189657600080fd5b6000868154811015156118a557fe5b906000526020600020906007020190508060040154421015156118c757600080fd5b3484038160050160008573ffffffffffffffffffffffffffffffffffffffff1673ffffffffffffffffffffffffffffffffffffffff168152602001908152602001600020600087600303815260200190815260200160002060000160008282540392505081905550838160050160008573ffffffffffffffffffffffffffffffffffffffff1673ffffffffffffffffffffffffffffffffffffffff16815260200190815260200160002060008760030381526020019081526020016000206001016000828254039250508190555060008160050160008573ffffffffffffffffffffffffffffffffffffffff1673ffffffffffffffffffffffffffffffffffffffff168152602001908152602001600020600087600303815260200190815260200160002060000154101515156119fd57600080fd5b60008160050160008573ffffffffffffffffffffffffffffffffffffffff1673ffffffffffffffffffffffffffffffffffffffff16815260200190815260200160002060008760030381526020019081526020016000206001015410151515611a6557600080fd5b3484038160060160008573ffffffffffffffffffffffffffffffffffffffff1673ffffffffffffffffffffffffffffffffffffffff168152602001908152602001600020600087600303815260200190815260200160002060000160008282540192505081905550838160060160008573ffffffffffffffffffffffffffffffffffffffff1673ffffffffffffffffffffffffffffffffffffffff168152602001908152602001600020600087600303815260200190815260200160002060010160008282540192505081905550348160060160003373ffffffffffffffffffffffffffffffffffffffff1673ffffffffffffffffffffffffffffffffffffffff168152602001908152602001600020600087815260200190815260200160002060000160008282540192505081905550838160060160003373ffffffffffffffffffffffffffffffffffffffff1673ffffffffffffffffffffffffffffffffffffffff1681526020019081526020016000206000878152602001908152602001600020600101600082825401925050819055507f6a5ee55c9df2daa4375d2b5e4ec8b9e5662f1863207bcbe6e38c6f5fe3c2430086836040518083815260200182600019166000191681526020019250505060405180910390a17fccbd325d435c58bf1c7d6f501d109f84eed17005b38e606d5b430983e487db9d868260060160003373ffffffffffffffffffffffffffffffffffffffff1673ffffffffffffffffffffffffffffffffffffffff1681526020019081526020016000206000888152602001908152602001600020600001548360060160003373ffffffffffffffffffffffffffffffffffffffff1673ffffffffffffffffffffffffffffffffffffffff1681526020019081526020016000206000898152602001908152602001600020600101548560405180858152602001848152602001838152602001826000191660001916815260200194505050505060405180910390a17fe972cf40d9e95147d027b7a8c13ff167ba4eec08db69fe981417d41a5209e39e868260060160008673ffffffffffffffffffffffffffffffffffffffff1673ffffffffffffffffffffffffffffffffffffffff1681526020019081526020016000206000886003038152602001908152602001600020600001548360060160008773ffffffffffffffffffffffffffffffffffffffff1673ffffffffffffffffffffffffffffffffffffffff1681526020019081526020016000206000896003038152602001908152602001600020600101548460050160008873ffffffffffffffffffffffffffffffffffffffff1673ffffffffffffffffffffffffffffffffffffffff16815260200190815260200160002060008a6003038152602001908152602001600020600001548560050160008973ffffffffffffffffffffffffffffffffffffffff1673ffffffffffffffffffffffffffffffffffffffff16815260200190815260200160002060008b60030381526020019081526020016000206001015487604051808781526020018681526020018581526020018481526020018381526020018260001916600019168152602001965050505050505060405180910390a1505050505050565b60a060405190810160405280600073ffffffffffffffffffffffffffffffffffffffff168152602001600081526020016000815260200160008152602001600081525090565b815481835581811511611f8357600702816007028360005260206000209182019101611f829190611f88565b5b505050565b611feb91905b80821115611fe757600080820160006101000a81549073ffffffffffffffffffffffffffffffffffffffff0219169055600182016000905560028201600090556003820160009055600482016000905550600701611f8e565b5090565b905600a165627a7a72305820e8640f5e91fd5841f317737f2b6004e380de7cdbb107eceb808b4b6199ef76590029",
  "source": "/*\n*\n* PredictionExchange is an exchange contract that doesn't accept bets on the outcomes,\n* but instead matchedes backers/takers (those betting on odds) with layers/makers \n* (those offering the odds).\n*\n* Note:\n*\n*       side: 0 (unknown), 1 (support), 2 (against)\n*       role: 0 (unknown), 1 (maker), 2 (taker)\n*       __debug__* events will be removed prior to production deployment\n*\n*/\n\npragma solidity ^0.4.18;\n\ncontract PredictionHandshake {\n\n        struct Order {\n                uint stake;\n                uint payout;\n        }\n\n        struct Market {\n                address creator;\n                uint outcome;\n                uint fee;\n                uint reportTime;\n                uint closingTime; \n                mapping(address => mapping(uint => Order)) open; // address => side => order\n                mapping(address => mapping(uint => Order)) matched; // address => side => order\n        }\n\n        Market[] public markets;\n        address public root;\n        uint public NETWORK_FEE = 20; // 20%\n\n        function PredictionHandshake() public {\n                root = msg.sender;\n        } \n\n        event __createMarket(uint hid, bytes32 offchain); \n\n        function createMarket(uint fee, uint closingTime, uint reportTime, bytes32 offchain) public payable {\n                Market memory m;\n                m.creator = msg.sender;\n                m.fee = fee;\n                m.closingTime = now + closingTime * 1 seconds;\n                m.reportTime = m.closingTime + reportTime * 1 seconds;\n                markets.push(m);\n                __createMarket(markets.length - 1, offchain);\n        }\n\n        event __init(uint hid, bytes32 offchain);\n        event __debug__init(uint hid, uint stake, uint payout, bytes32 offchain);\n\n        // market maker\n        function init(uint hid, uint side, uint payout, bytes32 offchain) public payable {\n                Market storage m = markets[hid];\n                require(now < m.closingTime);\n                m.open[msg.sender][side].stake += msg.value;\n                m.open[msg.sender][side].payout += payout;\n                __init(hid, offchain);\n                __debug__init(hid, m.open[msg.sender][side].stake, m.open[msg.sender][side].payout, offchain);\n        }\n\n        event __uninit(uint hid, bytes32 offchain);\n\n        // market maker cancels order\n        function uninit(uint hid, uint side, uint stake, uint payout, bytes32 offchain) public onlyPredictor(hid) {\n                Market storage m = markets[hid];\n                require(m.open[msg.sender][side].stake >= stake);\n                require(m.open[msg.sender][side].payout >= payout);\n                m.open[msg.sender][side].stake -= stake;\n                m.open[msg.sender][side].payout -= payout;\n                msg.sender.transfer(stake);\n                __uninit(hid, offchain);\n        }\n\n        event __shake(uint hid, bytes32 offchain);\n        event __debug__shake__taker(uint hid, uint stake, uint payout, bytes32 offchain);\n        event __debug__shake__maker(uint hid, uint matched_stake, uint matched_payout, \n                                           uint open_stake, uint open_payout, bytes32 offchain);\n\n        // market taker\n        function shake(uint hid, uint side, uint payout, address maker, bytes32 offchain) public payable {\n                require(maker != 0);\n                Market storage m = markets[hid];\n                require(now < m.closingTime);\n\n                // remove maker's order from open (could be partial)\n                m.open[maker][3-side].stake -= (payout - msg.value);\n                m.open[maker][3-side].payout -= payout;\n                require(m.open[maker][3-side].stake >= 0);\n                require(m.open[maker][3-side].payout >= 0);\n\n                // add taker's order maker's order to matched\n                m.matched[maker][3-side].stake += (payout - msg.value);\n                m.matched[maker][3-side].payout += payout;\n                m.matched[msg.sender][side].stake += msg.value;\n                m.matched[msg.sender][side].payout += payout;\n\n                __shake(hid, offchain);\n\n                __debug__shake__taker(hid, m.matched[msg.sender][side].stake, \n                                             m.matched[msg.sender][side].payout, offchain);\n                __debug__shake__maker(hid, m.matched[maker][3-side].stake, m.matched[maker][3-side].payout, \n                                             m.open[maker][3-side].stake, m.open[maker][3-side].payout, offchain);\n        }\n\n\n        event __collect(uint hid, bytes32 offchain);\n\n        // collect payout\n        function collect(uint hid, bytes32 offchain) public onlyPredictor(hid) {\n                Market storage m = markets[hid]; \n                require(m.outcome != 0);\n                require(now > m.closingTime);\n\n                // calc network commission, market commission and winnings\n                uint marketComm = (m.matched[msg.sender][m.outcome].payout * m.fee) / 100;\n                uint networkComm = (marketComm * NETWORK_FEE) / 100;\n                uint amt = m.matched[msg.sender][m.outcome].payout;\n\n                amt += m.open[msg.sender][1].stake; \n                amt += m.open[msg.sender][2].stake;\n\n                // wipe data\n                m.matched[msg.sender][m.outcome].payout = 0;\n                m.open[msg.sender][1].stake = 0; \n                m.open[msg.sender][2].stake = 0;\n\n                msg.sender.transfer(amt - marketComm);\n                m.creator.transfer(marketComm - networkComm);\n                root.transfer(networkComm);\n\n                __collect(hid, offchain);\n        }\n\n\n        event __refund(uint hid, bytes32 offchain);\n\n        // refund stakes when market closes and there is no outcome\n        function refund(uint hid, bytes32 offchain) public onlyPredictor(hid) {\n                Market storage m = markets[hid]; \n                require(m.outcome == 0);\n                require(now > m.reportTime);\n\n                // calc refund amt\n                uint amt;\n                amt += m.matched[msg.sender][1].stake;\n                amt += m.matched[msg.sender][2].stake;\n                amt += m.open[msg.sender][1].stake;\n                amt += m.open[msg.sender][2].stake;\n\n                // wipe data\n                m.matched[msg.sender][1].stake = 0;\n                m.matched[msg.sender][2].stake = 0;\n                m.open[msg.sender][1].stake = 0;\n                m.open[msg.sender][2].stake = 0;\n\n                msg.sender.transfer(amt);\n\n                __refund(hid, offchain);\n        }\n\n        event __report(uint hid, bytes32 offchain);\n\n        // report outcome\n        function report(uint hid, uint outcome, bytes32 offchain) public onlyRoot() {\n                markets[hid].outcome = outcome;\n                __report(hid, offchain);\n        }\n\n        modifier onlyPredictor(uint hid) {\n                require(markets[hid].matched[msg.sender][1].stake > 0 || \n                        markets[hid].matched[msg.sender][2].stake > 0 || \n                        markets[hid].open[msg.sender][1].stake > 0 || \n                        markets[hid].open[msg.sender][2].stake > 0);\n                _;\n        }\n\n        modifier onlyRoot() {\n                require(msg.sender == root);\n                _;\n        }\n}\n",
  "sourcePath": "/Workspace/robotbase/crypto/handshake-protocol/contracts/PredictionHandshake.sol",
  "compiler": {
    "name": "solc",
    "version": "0.4.19+commit.c4cbbb05.Emscripten.clang"
  },
  "schemaVersion": "2.0.0",
  "updatedAt": "2018-05-31T07:30:02.027Z"
}